{
	"contracts/todo.sol": {
		"todo": {
			"abi": [
				{
					"inputs": [
						{
							"internalType": "string",
							"name": "_task",
							"type": "string"
						}
					],
					"name": "addTask",
					"outputs": [],
					"stateMutability": "nonpayable",
					"type": "function"
				},
				{
					"inputs": [
						{
							"internalType": "uint256",
							"name": "_taskIndex",
							"type": "uint256"
						}
					],
					"name": "getTask",
					"outputs": [
						{
							"components": [
								{
									"internalType": "string",
									"name": "task",
									"type": "string"
								},
								{
									"internalType": "bool",
									"name": "isDone",
									"type": "bool"
								}
							],
							"internalType": "struct todo.Task",
							"name": "",
							"type": "tuple"
						}
					],
					"stateMutability": "view",
					"type": "function"
				}
			],
			"devdoc": {
				"kind": "dev",
				"methods": {},
				"version": 1
			},
			"evm": {
				"assembly": "    /* \"contracts/todo.sol\":64:592  contract todo ... */\n  mstore(0x40, 0x80)\n  callvalue\n  dup1\n  iszero\n  tag_1\n  jumpi\n  0x00\n  dup1\n  revert\ntag_1:\n  pop\n  dataSize(sub_0)\n  dup1\n  dataOffset(sub_0)\n  0x00\n  codecopy\n  0x00\n  return\nstop\n\nsub_0: assembly {\n        /* \"contracts/todo.sol\":64:592  contract todo ... */\n      mstore(0x40, 0x80)\n      callvalue\n      dup1\n      iszero\n      tag_1\n      jumpi\n      0x00\n      dup1\n      revert\n    tag_1:\n      pop\n      jumpi(tag_2, lt(calldatasize, 0x04))\n      shr(0xe0, calldataload(0x00))\n      dup1\n      0x1d65e77e\n      eq\n      tag_3\n      jumpi\n      dup1\n      0x67238562\n      eq\n      tag_4\n      jumpi\n    tag_2:\n      0x00\n      dup1\n      revert\n        /* \"contracts/todo.sol\":435:589  function getTask(uint _taskIndex) public view returns (Task memory) {... */\n    tag_3:\n      tag_5\n      0x04\n      dup1\n      calldatasize\n      sub\n      dup2\n      add\n      swap1\n      tag_6\n      swap2\n      swap1\n      tag_7\n      jump\t// in\n    tag_6:\n      tag_8\n      jump\t// in\n    tag_5:\n      mload(0x40)\n      tag_9\n      swap2\n      swap1\n      tag_10\n      jump\t// in\n    tag_9:\n      mload(0x40)\n      dup1\n      swap2\n      sub\n      swap1\n      return\n        /* \"contracts/todo.sol\":220:429  function addTask(string memory _task) public {... */\n    tag_4:\n      tag_11\n      0x04\n      dup1\n      calldatasize\n      sub\n      dup2\n      add\n      swap1\n      tag_12\n      swap2\n      swap1\n      tag_13\n      jump\t// in\n    tag_12:\n      tag_14\n      jump\t// in\n    tag_11:\n      stop\n        /* \"contracts/todo.sol\":435:589  function getTask(uint _taskIndex) public view returns (Task memory) {... */\n    tag_8:\n        /* \"contracts/todo.sol\":490:501  Task memory */\n      tag_15\n      tag_16\n      jump\t// in\n    tag_15:\n        /* \"contracts/todo.sol\":513:529  Task memory task */\n      0x00\n        /* \"contracts/todo.sol\":532:537  Users */\n      0x01\n        /* \"contracts/todo.sol\":532:549  Users[msg.sender] */\n      0x00\n        /* \"contracts/todo.sol\":538:548  msg.sender */\n      caller\n        /* \"contracts/todo.sol\":532:549  Users[msg.sender] */\n      0xffffffffffffffffffffffffffffffffffffffff\n      and\n      0xffffffffffffffffffffffffffffffffffffffff\n      and\n      dup2\n      mstore\n      0x20\n      add\n      swap1\n      dup2\n      mstore\n      0x20\n      add\n      0x00\n      keccak256\n        /* \"contracts/todo.sol\":550:560  _taskIndex */\n      dup4\n        /* \"contracts/todo.sol\":532:561  Users[msg.sender][_taskIndex] */\n      dup2\n      sload\n      dup2\n      lt\n      tag_18\n      jumpi\n      tag_19\n      tag_20\n      jump\t// in\n    tag_19:\n    tag_18:\n      swap1\n      0x00\n      mstore\n      keccak256(0x00, 0x20)\n      swap1\n      0x02\n      mul\n      add\n        /* \"contracts/todo.sol\":513:561  Task memory task = Users[msg.sender][_taskIndex] */\n      mload(0x40)\n      dup1\n      0x40\n      add\n      0x40\n      mstore\n      swap1\n      dup2\n      0x00\n      dup3\n      add\n      dup1\n      sload\n      tag_22\n      swap1\n      tag_23\n      jump\t// in\n    tag_22:\n      dup1\n      0x1f\n      add\n      0x20\n      dup1\n      swap2\n      div\n      mul\n      0x20\n      add\n      mload(0x40)\n      swap1\n      dup2\n      add\n      0x40\n      mstore\n      dup1\n      swap3\n      swap2\n      swap1\n      dup2\n      dup2\n      mstore\n      0x20\n      add\n      dup3\n      dup1\n      sload\n      tag_24\n      swap1\n      tag_23\n      jump\t// in\n    tag_24:\n      dup1\n      iszero\n      tag_25\n      jumpi\n      dup1\n      0x1f\n      lt\n      tag_26\n      jumpi\n      0x0100\n      dup1\n      dup4\n      sload\n      div\n      mul\n      dup4\n      mstore\n      swap2\n      0x20\n      add\n      swap2\n      jump(tag_25)\n    tag_26:\n      dup3\n      add\n      swap2\n      swap1\n      0x00\n      mstore\n      keccak256(0x00, 0x20)\n      swap1\n    tag_27:\n      dup2\n      sload\n      dup2\n      mstore\n      swap1\n      0x01\n      add\n      swap1\n      0x20\n      add\n      dup1\n      dup4\n      gt\n      tag_27\n      jumpi\n      dup3\n      swap1\n      sub\n      0x1f\n      and\n      dup3\n      add\n      swap2\n    tag_25:\n      pop\n      pop\n      pop\n      pop\n      pop\n      dup2\n      mstore\n      0x20\n      add\n      0x01\n      dup3\n      add\n      0x00\n      swap1\n      sload\n      swap1\n      0x0100\n      exp\n      swap1\n      div\n      0xff\n      and\n      iszero\n      iszero\n      iszero\n      iszero\n      dup2\n      mstore\n      pop\n      pop\n      swap1\n      pop\n        /* \"contracts/todo.sol\":578:582  task */\n      dup1\n        /* \"contracts/todo.sol\":571:582  return task */\n      swap2\n      pop\n      pop\n        /* \"contracts/todo.sol\":435:589  function getTask(uint _taskIndex) public view returns (Task memory) {... */\n      swap2\n      swap1\n      pop\n      jump\t// out\n        /* \"contracts/todo.sol\":220:429  function addTask(string memory _task) public {... */\n    tag_14:\n        /* \"contracts/todo.sol\":276:292  Task memory task */\n      0x00\n        /* \"contracts/todo.sol\":296:313  Task(_task,false) */\n      mload(0x40)\n      dup1\n      0x40\n      add\n      0x40\n      mstore\n      dup1\n        /* \"contracts/todo.sol\":301:306  _task */\n      dup4\n        /* \"contracts/todo.sol\":296:313  Task(_task,false) */\n      dup2\n      mstore\n      0x20\n      add\n        /* \"contracts/todo.sol\":307:312  false */\n      0x00\n        /* \"contracts/todo.sol\":296:313  Task(_task,false) */\n      iszero\n      iszero\n      dup2\n      mstore\n      pop\n        /* \"contracts/todo.sol\":276:313  Task memory task =  Task(_task,false) */\n      swap1\n      pop\n        /* \"contracts/todo.sol\":265:429  {... */\n      pop\n        /* \"contracts/todo.sol\":220:429  function addTask(string memory _task) public {... */\n      pop\n      jump\t// out\n    tag_16:\n      mload(0x40)\n      dup1\n      0x40\n      add\n      0x40\n      mstore\n      dup1\n      0x60\n      dup2\n      mstore\n      0x20\n      add\n      iszero(iszero(0x00))\n      dup2\n      mstore\n      pop\n      swap1\n      jump\t// out\n        /* \"#utility.yul\":7:82   */\n    tag_29:\n        /* \"#utility.yul\":40:46   */\n      0x00\n        /* \"#utility.yul\":73:75   */\n      0x40\n        /* \"#utility.yul\":67:76   */\n      mload\n        /* \"#utility.yul\":57:76   */\n      swap1\n      pop\n        /* \"#utility.yul\":7:82   */\n      swap1\n      jump\t// out\n        /* \"#utility.yul\":88:205   */\n    tag_30:\n        /* \"#utility.yul\":197:198   */\n      0x00\n        /* \"#utility.yul\":194:195   */\n      dup1\n        /* \"#utility.yul\":187:199   */\n      revert\n        /* \"#utility.yul\":211:328   */\n    tag_31:\n        /* \"#utility.yul\":320:321   */\n      0x00\n        /* \"#utility.yul\":317:318   */\n      dup1\n        /* \"#utility.yul\":310:322   */\n      revert\n        /* \"#utility.yul\":334:411   */\n    tag_32:\n        /* \"#utility.yul\":371:378   */\n      0x00\n        /* \"#utility.yul\":400:405   */\n      dup2\n        /* \"#utility.yul\":389:405   */\n      swap1\n      pop\n        /* \"#utility.yul\":334:411   */\n      swap2\n      swap1\n      pop\n      jump\t// out\n        /* \"#utility.yul\":417:539   */\n    tag_33:\n        /* \"#utility.yul\":490:514   */\n      tag_59\n        /* \"#utility.yul\":508:513   */\n      dup2\n        /* \"#utility.yul\":490:514   */\n      tag_32\n      jump\t// in\n    tag_59:\n        /* \"#utility.yul\":483:488   */\n      dup2\n        /* \"#utility.yul\":480:515   */\n      eq\n        /* \"#utility.yul\":470:533   */\n      tag_60\n      jumpi\n        /* \"#utility.yul\":529:530   */\n      0x00\n        /* \"#utility.yul\":526:527   */\n      dup1\n        /* \"#utility.yul\":519:531   */\n      revert\n        /* \"#utility.yul\":470:533   */\n    tag_60:\n        /* \"#utility.yul\":417:539   */\n      pop\n      jump\t// out\n        /* \"#utility.yul\":545:684   */\n    tag_34:\n        /* \"#utility.yul\":591:596   */\n      0x00\n        /* \"#utility.yul\":629:635   */\n      dup2\n        /* \"#utility.yul\":616:636   */\n      calldataload\n        /* \"#utility.yul\":607:636   */\n      swap1\n      pop\n        /* \"#utility.yul\":645:678   */\n      tag_62\n        /* \"#utility.yul\":672:677   */\n      dup2\n        /* \"#utility.yul\":645:678   */\n      tag_33\n      jump\t// in\n    tag_62:\n        /* \"#utility.yul\":545:684   */\n      swap3\n      swap2\n      pop\n      pop\n      jump\t// out\n        /* \"#utility.yul\":690:1019   */\n    tag_7:\n        /* \"#utility.yul\":749:755   */\n      0x00\n        /* \"#utility.yul\":798:800   */\n      0x20\n        /* \"#utility.yul\":786:795   */\n      dup3\n        /* \"#utility.yul\":777:784   */\n      dup5\n        /* \"#utility.yul\":773:796   */\n      sub\n        /* \"#utility.yul\":769:801   */\n      slt\n        /* \"#utility.yul\":766:885   */\n      iszero\n      tag_64\n      jumpi\n        /* \"#utility.yul\":804:883   */\n      tag_65\n      tag_30\n      jump\t// in\n    tag_65:\n        /* \"#utility.yul\":766:885   */\n    tag_64:\n        /* \"#utility.yul\":924:925   */\n      0x00\n        /* \"#utility.yul\":949:1002   */\n      tag_66\n        /* \"#utility.yul\":994:1001   */\n      dup5\n        /* \"#utility.yul\":985:991   */\n      dup3\n        /* \"#utility.yul\":974:983   */\n      dup6\n        /* \"#utility.yul\":970:992   */\n      add\n        /* \"#utility.yul\":949:1002   */\n      tag_34\n      jump\t// in\n    tag_66:\n        /* \"#utility.yul\":939:1002   */\n      swap2\n      pop\n        /* \"#utility.yul\":895:1012   */\n      pop\n        /* \"#utility.yul\":690:1019   */\n      swap3\n      swap2\n      pop\n      pop\n      jump\t// out\n        /* \"#utility.yul\":1025:1124   */\n    tag_35:\n        /* \"#utility.yul\":1077:1083   */\n      0x00\n        /* \"#utility.yul\":1111:1116   */\n      dup2\n        /* \"#utility.yul\":1105:1117   */\n      mload\n        /* \"#utility.yul\":1095:1117   */\n      swap1\n      pop\n        /* \"#utility.yul\":1025:1124   */\n      swap2\n      swap1\n      pop\n      jump\t// out\n        /* \"#utility.yul\":1130:1289   */\n    tag_36:\n        /* \"#utility.yul\":1204:1215   */\n      0x00\n        /* \"#utility.yul\":1238:1244   */\n      dup3\n        /* \"#utility.yul\":1233:1236   */\n      dup3\n        /* \"#utility.yul\":1226:1245   */\n      mstore\n        /* \"#utility.yul\":1278:1282   */\n      0x20\n        /* \"#utility.yul\":1273:1276   */\n      dup3\n        /* \"#utility.yul\":1269:1283   */\n      add\n        /* \"#utility.yul\":1254:1283   */\n      swap1\n      pop\n        /* \"#utility.yul\":1130:1289   */\n      swap3\n      swap2\n      pop\n      pop\n      jump\t// out\n        /* \"#utility.yul\":1295:1602   */\n    tag_37:\n        /* \"#utility.yul\":1363:1364   */\n      0x00\n        /* \"#utility.yul\":1373:1486   */\n    tag_70:\n        /* \"#utility.yul\":1387:1393   */\n      dup4\n        /* \"#utility.yul\":1384:1385   */\n      dup2\n        /* \"#utility.yul\":1381:1394   */\n      lt\n        /* \"#utility.yul\":1373:1486   */\n      iszero\n      tag_72\n      jumpi\n        /* \"#utility.yul\":1472:1473   */\n      dup1\n        /* \"#utility.yul\":1467:1470   */\n      dup3\n        /* \"#utility.yul\":1463:1474   */\n      add\n        /* \"#utility.yul\":1457:1475   */\n      mload\n        /* \"#utility.yul\":1453:1454   */\n      dup2\n        /* \"#utility.yul\":1448:1451   */\n      dup5\n        /* \"#utility.yul\":1444:1455   */\n      add\n        /* \"#utility.yul\":1437:1476   */\n      mstore\n        /* \"#utility.yul\":1409:1411   */\n      0x20\n        /* \"#utility.yul\":1406:1407   */\n      dup2\n        /* \"#utility.yul\":1402:1412   */\n      add\n        /* \"#utility.yul\":1397:1412   */\n      swap1\n      pop\n        /* \"#utility.yul\":1373:1486   */\n      jump(tag_70)\n    tag_72:\n        /* \"#utility.yul\":1504:1510   */\n      dup4\n        /* \"#utility.yul\":1501:1502   */\n      dup2\n        /* \"#utility.yul\":1498:1511   */\n      gt\n        /* \"#utility.yul\":1495:1596   */\n      iszero\n      tag_73\n      jumpi\n        /* \"#utility.yul\":1584:1585   */\n      0x00\n        /* \"#utility.yul\":1575:1581   */\n      dup5\n        /* \"#utility.yul\":1570:1573   */\n      dup5\n        /* \"#utility.yul\":1566:1582   */\n      add\n        /* \"#utility.yul\":1559:1586   */\n      mstore\n        /* \"#utility.yul\":1495:1596   */\n    tag_73:\n        /* \"#utility.yul\":1344:1602   */\n      pop\n        /* \"#utility.yul\":1295:1602   */\n      pop\n      pop\n      pop\n      jump\t// out\n        /* \"#utility.yul\":1608:1710   */\n    tag_38:\n        /* \"#utility.yul\":1649:1655   */\n      0x00\n        /* \"#utility.yul\":1700:1702   */\n      0x1f\n        /* \"#utility.yul\":1696:1703   */\n      not\n        /* \"#utility.yul\":1691:1693   */\n      0x1f\n        /* \"#utility.yul\":1684:1689   */\n      dup4\n        /* \"#utility.yul\":1680:1694   */\n      add\n        /* \"#utility.yul\":1676:1704   */\n      and\n        /* \"#utility.yul\":1666:1704   */\n      swap1\n      pop\n        /* \"#utility.yul\":1608:1710   */\n      swap2\n      swap1\n      pop\n      jump\t// out\n        /* \"#utility.yul\":1716:2060   */\n    tag_39:\n        /* \"#utility.yul\":1794:1797   */\n      0x00\n        /* \"#utility.yul\":1822:1861   */\n      tag_76\n        /* \"#utility.yul\":1855:1860   */\n      dup3\n        /* \"#utility.yul\":1822:1861   */\n      tag_35\n      jump\t// in\n    tag_76:\n        /* \"#utility.yul\":1877:1938   */\n      tag_77\n        /* \"#utility.yul\":1931:1937   */\n      dup2\n        /* \"#utility.yul\":1926:1929   */\n      dup6\n        /* \"#utility.yul\":1877:1938   */\n      tag_36\n      jump\t// in\n    tag_77:\n        /* \"#utility.yul\":1870:1938   */\n      swap4\n      pop\n        /* \"#utility.yul\":1947:1999   */\n      tag_78\n        /* \"#utility.yul\":1992:1998   */\n      dup2\n        /* \"#utility.yul\":1987:1990   */\n      dup6\n        /* \"#utility.yul\":1980:1984   */\n      0x20\n        /* \"#utility.yul\":1973:1978   */\n      dup7\n        /* \"#utility.yul\":1969:1985   */\n      add\n        /* \"#utility.yul\":1947:1999   */\n      tag_37\n      jump\t// in\n    tag_78:\n        /* \"#utility.yul\":2024:2053   */\n      tag_79\n        /* \"#utility.yul\":2046:2052   */\n      dup2\n        /* \"#utility.yul\":2024:2053   */\n      tag_38\n      jump\t// in\n    tag_79:\n        /* \"#utility.yul\":2019:2022   */\n      dup5\n        /* \"#utility.yul\":2015:2054   */\n      add\n        /* \"#utility.yul\":2008:2054   */\n      swap2\n      pop\n        /* \"#utility.yul\":1798:2060   */\n      pop\n        /* \"#utility.yul\":1716:2060   */\n      swap3\n      swap2\n      pop\n      pop\n      jump\t// out\n        /* \"#utility.yul\":2066:2156   */\n    tag_40:\n        /* \"#utility.yul\":2100:2107   */\n      0x00\n        /* \"#utility.yul\":2143:2148   */\n      dup2\n        /* \"#utility.yul\":2136:2149   */\n      iszero\n        /* \"#utility.yul\":2129:2150   */\n      iszero\n        /* \"#utility.yul\":2118:2150   */\n      swap1\n      pop\n        /* \"#utility.yul\":2066:2156   */\n      swap2\n      swap1\n      pop\n      jump\t// out\n        /* \"#utility.yul\":2162:2261   */\n    tag_41:\n        /* \"#utility.yul\":2233:2254   */\n      tag_82\n        /* \"#utility.yul\":2248:2253   */\n      dup2\n        /* \"#utility.yul\":2233:2254   */\n      tag_40\n      jump\t// in\n    tag_82:\n        /* \"#utility.yul\":2228:2231   */\n      dup3\n        /* \"#utility.yul\":2221:2255   */\n      mstore\n        /* \"#utility.yul\":2162:2261   */\n      pop\n      pop\n      jump\t// out\n        /* \"#utility.yul\":2311:2901   */\n    tag_42:\n        /* \"#utility.yul\":2418:2421   */\n      0x00\n        /* \"#utility.yul\":2454:2458   */\n      0x40\n        /* \"#utility.yul\":2449:2452   */\n      dup4\n        /* \"#utility.yul\":2445:2459   */\n      add\n        /* \"#utility.yul\":2541:2545   */\n      0x00\n        /* \"#utility.yul\":2534:2539   */\n      dup4\n        /* \"#utility.yul\":2530:2546   */\n      add\n        /* \"#utility.yul\":2524:2547   */\n      mload\n        /* \"#utility.yul\":2594:2597   */\n      dup5\n        /* \"#utility.yul\":2588:2592   */\n      dup3\n        /* \"#utility.yul\":2584:2598   */\n      sub\n        /* \"#utility.yul\":2577:2581   */\n      0x00\n        /* \"#utility.yul\":2572:2575   */\n      dup7\n        /* \"#utility.yul\":2568:2582   */\n      add\n        /* \"#utility.yul\":2561:2599   */\n      mstore\n        /* \"#utility.yul\":2620:2693   */\n      tag_84\n        /* \"#utility.yul\":2688:2692   */\n      dup3\n        /* \"#utility.yul\":2674:2686   */\n      dup3\n        /* \"#utility.yul\":2620:2693   */\n      tag_39\n      jump\t// in\n    tag_84:\n        /* \"#utility.yul\":2612:2693   */\n      swap2\n      pop\n        /* \"#utility.yul\":2469:2704   */\n      pop\n        /* \"#utility.yul\":2788:2792   */\n      0x20\n        /* \"#utility.yul\":2781:2786   */\n      dup4\n        /* \"#utility.yul\":2777:2793   */\n      add\n        /* \"#utility.yul\":2771:2794   */\n      mload\n        /* \"#utility.yul\":2807:2864   */\n      tag_85\n        /* \"#utility.yul\":2858:2862   */\n      0x20\n        /* \"#utility.yul\":2853:2856   */\n      dup7\n        /* \"#utility.yul\":2849:2863   */\n      add\n        /* \"#utility.yul\":2835:2847   */\n      dup3\n        /* \"#utility.yul\":2807:2864   */\n      tag_41\n      jump\t// in\n    tag_85:\n        /* \"#utility.yul\":2714:2874   */\n      pop\n        /* \"#utility.yul\":2891:2895   */\n      dup1\n        /* \"#utility.yul\":2884:2895   */\n      swap2\n      pop\n        /* \"#utility.yul\":2423:2901   */\n      pop\n        /* \"#utility.yul\":2311:2901   */\n      swap3\n      swap2\n      pop\n      pop\n      jump\t// out\n        /* \"#utility.yul\":2907:3256   */\n    tag_10:\n        /* \"#utility.yul\":3038:3042   */\n      0x00\n        /* \"#utility.yul\":3076:3078   */\n      0x20\n        /* \"#utility.yul\":3065:3074   */\n      dup3\n        /* \"#utility.yul\":3061:3079   */\n      add\n        /* \"#utility.yul\":3053:3079   */\n      swap1\n      pop\n        /* \"#utility.yul\":3125:3134   */\n      dup2\n        /* \"#utility.yul\":3119:3123   */\n      dup2\n        /* \"#utility.yul\":3115:3135   */\n      sub\n        /* \"#utility.yul\":3111:3112   */\n      0x00\n        /* \"#utility.yul\":3100:3109   */\n      dup4\n        /* \"#utility.yul\":3096:3113   */\n      add\n        /* \"#utility.yul\":3089:3136   */\n      mstore\n        /* \"#utility.yul\":3153:3249   */\n      tag_87\n        /* \"#utility.yul\":3244:3248   */\n      dup2\n        /* \"#utility.yul\":3235:3241   */\n      dup5\n        /* \"#utility.yul\":3153:3249   */\n      tag_42\n      jump\t// in\n    tag_87:\n        /* \"#utility.yul\":3145:3249   */\n      swap1\n      pop\n        /* \"#utility.yul\":2907:3256   */\n      swap3\n      swap2\n      pop\n      pop\n      jump\t// out\n        /* \"#utility.yul\":3262:3379   */\n    tag_43:\n        /* \"#utility.yul\":3371:3372   */\n      0x00\n        /* \"#utility.yul\":3368:3369   */\n      dup1\n        /* \"#utility.yul\":3361:3373   */\n      revert\n        /* \"#utility.yul\":3385:3502   */\n    tag_44:\n        /* \"#utility.yul\":3494:3495   */\n      0x00\n        /* \"#utility.yul\":3491:3492   */\n      dup1\n        /* \"#utility.yul\":3484:3496   */\n      revert\n        /* \"#utility.yul\":3508:3688   */\n    tag_45:\n        /* \"#utility.yul\":3556:3633   */\n      0x4e487b7100000000000000000000000000000000000000000000000000000000\n        /* \"#utility.yul\":3553:3554   */\n      0x00\n        /* \"#utility.yul\":3546:3634   */\n      mstore\n        /* \"#utility.yul\":3653:3657   */\n      0x41\n        /* \"#utility.yul\":3650:3651   */\n      0x04\n        /* \"#utility.yul\":3643:3658   */\n      mstore\n        /* \"#utility.yul\":3677:3681   */\n      0x24\n        /* \"#utility.yul\":3674:3675   */\n      0x00\n        /* \"#utility.yul\":3667:3682   */\n      revert\n        /* \"#utility.yul\":3694:3975   */\n    tag_46:\n        /* \"#utility.yul\":3777:3804   */\n      tag_92\n        /* \"#utility.yul\":3799:3803   */\n      dup3\n        /* \"#utility.yul\":3777:3804   */\n      tag_38\n      jump\t// in\n    tag_92:\n        /* \"#utility.yul\":3769:3775   */\n      dup2\n        /* \"#utility.yul\":3765:3805   */\n      add\n        /* \"#utility.yul\":3907:3913   */\n      dup2\n        /* \"#utility.yul\":3895:3905   */\n      dup2\n        /* \"#utility.yul\":3892:3914   */\n      lt\n        /* \"#utility.yul\":3871:3889   */\n      0xffffffffffffffff\n        /* \"#utility.yul\":3859:3869   */\n      dup3\n        /* \"#utility.yul\":3856:3890   */\n      gt\n        /* \"#utility.yul\":3853:3915   */\n      or\n        /* \"#utility.yul\":3850:3938   */\n      iszero\n      tag_93\n      jumpi\n        /* \"#utility.yul\":3918:3936   */\n      tag_94\n      tag_45\n      jump\t// in\n    tag_94:\n        /* \"#utility.yul\":3850:3938   */\n    tag_93:\n        /* \"#utility.yul\":3958:3968   */\n      dup1\n        /* \"#utility.yul\":3954:3956   */\n      0x40\n        /* \"#utility.yul\":3947:3969   */\n      mstore\n        /* \"#utility.yul\":3737:3975   */\n      pop\n        /* \"#utility.yul\":3694:3975   */\n      pop\n      pop\n      jump\t// out\n        /* \"#utility.yul\":3981:4110   */\n    tag_47:\n        /* \"#utility.yul\":4015:4021   */\n      0x00\n        /* \"#utility.yul\":4042:4062   */\n      tag_96\n      tag_29\n      jump\t// in\n    tag_96:\n        /* \"#utility.yul\":4032:4062   */\n      swap1\n      pop\n        /* \"#utility.yul\":4071:4104   */\n      tag_97\n        /* \"#utility.yul\":4099:4103   */\n      dup3\n        /* \"#utility.yul\":4091:4097   */\n      dup3\n        /* \"#utility.yul\":4071:4104   */\n      tag_46\n      jump\t// in\n    tag_97:\n        /* \"#utility.yul\":3981:4110   */\n      swap2\n      swap1\n      pop\n      jump\t// out\n        /* \"#utility.yul\":4116:4424   */\n    tag_48:\n        /* \"#utility.yul\":4178:4182   */\n      0x00\n        /* \"#utility.yul\":4268:4286   */\n      0xffffffffffffffff\n        /* \"#utility.yul\":4260:4266   */\n      dup3\n        /* \"#utility.yul\":4257:4287   */\n      gt\n        /* \"#utility.yul\":4254:4310   */\n      iszero\n      tag_99\n      jumpi\n        /* \"#utility.yul\":4290:4308   */\n      tag_100\n      tag_45\n      jump\t// in\n    tag_100:\n        /* \"#utility.yul\":4254:4310   */\n    tag_99:\n        /* \"#utility.yul\":4328:4357   */\n      tag_101\n        /* \"#utility.yul\":4350:4356   */\n      dup3\n        /* \"#utility.yul\":4328:4357   */\n      tag_38\n      jump\t// in\n    tag_101:\n        /* \"#utility.yul\":4320:4357   */\n      swap1\n      pop\n        /* \"#utility.yul\":4412:4416   */\n      0x20\n        /* \"#utility.yul\":4406:4410   */\n      dup2\n        /* \"#utility.yul\":4402:4417   */\n      add\n        /* \"#utility.yul\":4394:4417   */\n      swap1\n      pop\n        /* \"#utility.yul\":4116:4424   */\n      swap2\n      swap1\n      pop\n      jump\t// out\n        /* \"#utility.yul\":4430:4584   */\n    tag_49:\n        /* \"#utility.yul\":4514:4520   */\n      dup3\n        /* \"#utility.yul\":4509:4512   */\n      dup2\n        /* \"#utility.yul\":4504:4507   */\n      dup4\n        /* \"#utility.yul\":4491:4521   */\n      calldatacopy\n        /* \"#utility.yul\":4576:4577   */\n      0x00\n        /* \"#utility.yul\":4567:4573   */\n      dup4\n        /* \"#utility.yul\":4562:4565   */\n      dup4\n        /* \"#utility.yul\":4558:4574   */\n      add\n        /* \"#utility.yul\":4551:4578   */\n      mstore\n        /* \"#utility.yul\":4430:4584   */\n      pop\n      pop\n      pop\n      jump\t// out\n        /* \"#utility.yul\":4590:5002   */\n    tag_50:\n        /* \"#utility.yul\":4668:4673   */\n      0x00\n        /* \"#utility.yul\":4693:4759   */\n      tag_104\n        /* \"#utility.yul\":4709:4758   */\n      tag_105\n        /* \"#utility.yul\":4751:4757   */\n      dup5\n        /* \"#utility.yul\":4709:4758   */\n      tag_48\n      jump\t// in\n    tag_105:\n        /* \"#utility.yul\":4693:4759   */\n      tag_47\n      jump\t// in\n    tag_104:\n        /* \"#utility.yul\":4684:4759   */\n      swap1\n      pop\n        /* \"#utility.yul\":4782:4788   */\n      dup3\n        /* \"#utility.yul\":4775:4780   */\n      dup2\n        /* \"#utility.yul\":4768:4789   */\n      mstore\n        /* \"#utility.yul\":4820:4824   */\n      0x20\n        /* \"#utility.yul\":4813:4818   */\n      dup2\n        /* \"#utility.yul\":4809:4825   */\n      add\n        /* \"#utility.yul\":4858:4861   */\n      dup5\n        /* \"#utility.yul\":4849:4855   */\n      dup5\n        /* \"#utility.yul\":4844:4847   */\n      dup5\n        /* \"#utility.yul\":4840:4856   */\n      add\n        /* \"#utility.yul\":4837:4862   */\n      gt\n        /* \"#utility.yul\":4834:4946   */\n      iszero\n      tag_106\n      jumpi\n        /* \"#utility.yul\":4865:4944   */\n      tag_107\n      tag_44\n      jump\t// in\n    tag_107:\n        /* \"#utility.yul\":4834:4946   */\n    tag_106:\n        /* \"#utility.yul\":4955:4996   */\n      tag_108\n        /* \"#utility.yul\":4989:4995   */\n      dup5\n        /* \"#utility.yul\":4984:4987   */\n      dup3\n        /* \"#utility.yul\":4979:4982   */\n      dup6\n        /* \"#utility.yul\":4955:4996   */\n      tag_49\n      jump\t// in\n    tag_108:\n        /* \"#utility.yul\":4674:5002   */\n      pop\n        /* \"#utility.yul\":4590:5002   */\n      swap4\n      swap3\n      pop\n      pop\n      pop\n      jump\t// out\n        /* \"#utility.yul\":5022:5362   */\n    tag_51:\n        /* \"#utility.yul\":5078:5083   */\n      0x00\n        /* \"#utility.yul\":5127:5130   */\n      dup3\n        /* \"#utility.yul\":5120:5124   */\n      0x1f\n        /* \"#utility.yul\":5112:5118   */\n      dup4\n        /* \"#utility.yul\":5108:5125   */\n      add\n        /* \"#utility.yul\":5104:5131   */\n      slt\n        /* \"#utility.yul\":5094:5216   */\n      tag_110\n      jumpi\n        /* \"#utility.yul\":5135:5214   */\n      tag_111\n      tag_43\n      jump\t// in\n    tag_111:\n        /* \"#utility.yul\":5094:5216   */\n    tag_110:\n        /* \"#utility.yul\":5252:5258   */\n      dup2\n        /* \"#utility.yul\":5239:5259   */\n      calldataload\n        /* \"#utility.yul\":5277:5356   */\n      tag_112\n        /* \"#utility.yul\":5352:5355   */\n      dup5\n        /* \"#utility.yul\":5344:5350   */\n      dup3\n        /* \"#utility.yul\":5337:5341   */\n      0x20\n        /* \"#utility.yul\":5329:5335   */\n      dup7\n        /* \"#utility.yul\":5325:5342   */\n      add\n        /* \"#utility.yul\":5277:5356   */\n      tag_50\n      jump\t// in\n    tag_112:\n        /* \"#utility.yul\":5268:5356   */\n      swap2\n      pop\n        /* \"#utility.yul\":5084:5362   */\n      pop\n        /* \"#utility.yul\":5022:5362   */\n      swap3\n      swap2\n      pop\n      pop\n      jump\t// out\n        /* \"#utility.yul\":5368:5877   */\n    tag_13:\n        /* \"#utility.yul\":5437:5443   */\n      0x00\n        /* \"#utility.yul\":5486:5488   */\n      0x20\n        /* \"#utility.yul\":5474:5483   */\n      dup3\n        /* \"#utility.yul\":5465:5472   */\n      dup5\n        /* \"#utility.yul\":5461:5484   */\n      sub\n        /* \"#utility.yul\":5457:5489   */\n      slt\n        /* \"#utility.yul\":5454:5573   */\n      iszero\n      tag_114\n      jumpi\n        /* \"#utility.yul\":5492:5571   */\n      tag_115\n      tag_30\n      jump\t// in\n    tag_115:\n        /* \"#utility.yul\":5454:5573   */\n    tag_114:\n        /* \"#utility.yul\":5640:5641   */\n      0x00\n        /* \"#utility.yul\":5629:5638   */\n      dup3\n        /* \"#utility.yul\":5625:5642   */\n      add\n        /* \"#utility.yul\":5612:5643   */\n      calldataload\n        /* \"#utility.yul\":5670:5688   */\n      0xffffffffffffffff\n        /* \"#utility.yul\":5662:5668   */\n      dup2\n        /* \"#utility.yul\":5659:5689   */\n      gt\n        /* \"#utility.yul\":5656:5773   */\n      iszero\n      tag_116\n      jumpi\n        /* \"#utility.yul\":5692:5771   */\n      tag_117\n      tag_31\n      jump\t// in\n    tag_117:\n        /* \"#utility.yul\":5656:5773   */\n    tag_116:\n        /* \"#utility.yul\":5797:5860   */\n      tag_118\n        /* \"#utility.yul\":5852:5859   */\n      dup5\n        /* \"#utility.yul\":5843:5849   */\n      dup3\n        /* \"#utility.yul\":5832:5841   */\n      dup6\n        /* \"#utility.yul\":5828:5850   */\n      add\n        /* \"#utility.yul\":5797:5860   */\n      tag_51\n      jump\t// in\n    tag_118:\n        /* \"#utility.yul\":5787:5860   */\n      swap2\n      pop\n        /* \"#utility.yul\":5583:5870   */\n      pop\n        /* \"#utility.yul\":5368:5877   */\n      swap3\n      swap2\n      pop\n      pop\n      jump\t// out\n        /* \"#utility.yul\":5883:6063   */\n    tag_20:\n        /* \"#utility.yul\":5931:6008   */\n      0x4e487b7100000000000000000000000000000000000000000000000000000000\n        /* \"#utility.yul\":5928:5929   */\n      0x00\n        /* \"#utility.yul\":5921:6009   */\n      mstore\n        /* \"#utility.yul\":6028:6032   */\n      0x32\n        /* \"#utility.yul\":6025:6026   */\n      0x04\n        /* \"#utility.yul\":6018:6033   */\n      mstore\n        /* \"#utility.yul\":6052:6056   */\n      0x24\n        /* \"#utility.yul\":6049:6050   */\n      0x00\n        /* \"#utility.yul\":6042:6057   */\n      revert\n        /* \"#utility.yul\":6069:6249   */\n    tag_52:\n        /* \"#utility.yul\":6117:6194   */\n      0x4e487b7100000000000000000000000000000000000000000000000000000000\n        /* \"#utility.yul\":6114:6115   */\n      0x00\n        /* \"#utility.yul\":6107:6195   */\n      mstore\n        /* \"#utility.yul\":6214:6218   */\n      0x22\n        /* \"#utility.yul\":6211:6212   */\n      0x04\n        /* \"#utility.yul\":6204:6219   */\n      mstore\n        /* \"#utility.yul\":6238:6242   */\n      0x24\n        /* \"#utility.yul\":6235:6236   */\n      0x00\n        /* \"#utility.yul\":6228:6243   */\n      revert\n        /* \"#utility.yul\":6255:6575   */\n    tag_23:\n        /* \"#utility.yul\":6299:6305   */\n      0x00\n        /* \"#utility.yul\":6336:6337   */\n      0x02\n        /* \"#utility.yul\":6330:6334   */\n      dup3\n        /* \"#utility.yul\":6326:6338   */\n      div\n        /* \"#utility.yul\":6316:6338   */\n      swap1\n      pop\n        /* \"#utility.yul\":6383:6384   */\n      0x01\n        /* \"#utility.yul\":6377:6381   */\n      dup3\n        /* \"#utility.yul\":6373:6385   */\n      and\n        /* \"#utility.yul\":6404:6422   */\n      dup1\n        /* \"#utility.yul\":6394:6475   */\n      tag_122\n      jumpi\n        /* \"#utility.yul\":6460:6464   */\n      0x7f\n        /* \"#utility.yul\":6452:6458   */\n      dup3\n        /* \"#utility.yul\":6448:6465   */\n      and\n        /* \"#utility.yul\":6438:6465   */\n      swap2\n      pop\n        /* \"#utility.yul\":6394:6475   */\n    tag_122:\n        /* \"#utility.yul\":6522:6524   */\n      0x20\n        /* \"#utility.yul\":6514:6520   */\n      dup3\n        /* \"#utility.yul\":6511:6525   */\n      lt\n        /* \"#utility.yul\":6491:6509   */\n      dup2\n        /* \"#utility.yul\":6488:6526   */\n      sub\n        /* \"#utility.yul\":6485:6569   */\n      tag_123\n      jumpi\n        /* \"#utility.yul\":6541:6559   */\n      tag_124\n      tag_52\n      jump\t// in\n    tag_124:\n        /* \"#utility.yul\":6485:6569   */\n    tag_123:\n        /* \"#utility.yul\":6306:6575   */\n      pop\n        /* \"#utility.yul\":6255:6575   */\n      swap2\n      swap1\n      pop\n      jump\t// out\n\n    auxdata: 0xa26469706673582212204bb2dbb9642667c8843e14c6b99730e54e7166c01c558371bd7168a175895fb964736f6c634300080f0033\n}\n",
				"bytecode": {
					"linkReferences": {},
					"object": "608060405234801561001057600080fd5b506105bc806100206000396000f3fe608060405234801561001057600080fd5b50600436106100365760003560e01c80631d65e77e1461003b578063672385621461006b575b600080fd5b61005560048036038101906100509190610239565b610087565b6040516100629190610357565b60405180910390f35b610085600480360381019061008091906104ae565b6101b3565b005b61008f6101d3565b6000600160003373ffffffffffffffffffffffffffffffffffffffff1673ffffffffffffffffffffffffffffffffffffffff16815260200190815260200160002083815481106100e2576100e16104f7565b5b906000526020600020906002020160405180604001604052908160008201805461010b90610555565b80601f016020809104026020016040519081016040528092919081815260200182805461013790610555565b80156101845780601f1061015957610100808354040283529160200191610184565b820191906000526020600020905b81548152906001019060200180831161016757829003601f168201915b505050505081526020016001820160009054906101000a900460ff161515151581525050905080915050919050565b600060405180604001604052808381526020016000151581525090505050565b6040518060400160405280606081526020016000151581525090565b6000604051905090565b600080fd5b600080fd5b6000819050919050565b61021681610203565b811461022157600080fd5b50565b6000813590506102338161020d565b92915050565b60006020828403121561024f5761024e6101f9565b5b600061025d84828501610224565b91505092915050565b600081519050919050565b600082825260208201905092915050565b60005b838110156102a0578082015181840152602081019050610285565b838111156102af576000848401525b50505050565b6000601f19601f8301169050919050565b60006102d182610266565b6102db8185610271565b93506102eb818560208601610282565b6102f4816102b5565b840191505092915050565b60008115159050919050565b610314816102ff565b82525050565b6000604083016000830151848203600086015261033782826102c6565b915050602083015161034c602086018261030b565b508091505092915050565b60006020820190508181036000830152610371818461031a565b905092915050565b600080fd5b600080fd5b7f4e487b7100000000000000000000000000000000000000000000000000000000600052604160045260246000fd5b6103bb826102b5565b810181811067ffffffffffffffff821117156103da576103d9610383565b5b80604052505050565b60006103ed6101ef565b90506103f982826103b2565b919050565b600067ffffffffffffffff82111561041957610418610383565b5b610422826102b5565b9050602081019050919050565b82818337600083830152505050565b600061045161044c846103fe565b6103e3565b90508281526020810184848401111561046d5761046c61037e565b5b61047884828561042f565b509392505050565b600082601f83011261049557610494610379565b5b81356104a584826020860161043e565b91505092915050565b6000602082840312156104c4576104c36101f9565b5b600082013567ffffffffffffffff8111156104e2576104e16101fe565b5b6104ee84828501610480565b91505092915050565b7f4e487b7100000000000000000000000000000000000000000000000000000000600052603260045260246000fd5b7f4e487b7100000000000000000000000000000000000000000000000000000000600052602260045260246000fd5b6000600282049050600182168061056d57607f821691505b6020821081036105805761057f610526565b5b5091905056fea26469706673582212204bb2dbb9642667c8843e14c6b99730e54e7166c01c558371bd7168a175895fb964736f6c634300080f0033",
					"opcodes": "PUSH1 0x80 PUSH1 0x40 MSTORE CALLVALUE DUP1 ISZERO PUSH2 0x10 JUMPI PUSH1 0x0 DUP1 REVERT JUMPDEST POP PUSH2 0x5BC DUP1 PUSH2 0x20 PUSH1 0x0 CODECOPY PUSH1 0x0 RETURN INVALID PUSH1 0x80 PUSH1 0x40 MSTORE CALLVALUE DUP1 ISZERO PUSH2 0x10 JUMPI PUSH1 0x0 DUP1 REVERT JUMPDEST POP PUSH1 0x4 CALLDATASIZE LT PUSH2 0x36 JUMPI PUSH1 0x0 CALLDATALOAD PUSH1 0xE0 SHR DUP1 PUSH4 0x1D65E77E EQ PUSH2 0x3B JUMPI DUP1 PUSH4 0x67238562 EQ PUSH2 0x6B JUMPI JUMPDEST PUSH1 0x0 DUP1 REVERT JUMPDEST PUSH2 0x55 PUSH1 0x4 DUP1 CALLDATASIZE SUB DUP2 ADD SWAP1 PUSH2 0x50 SWAP2 SWAP1 PUSH2 0x239 JUMP JUMPDEST PUSH2 0x87 JUMP JUMPDEST PUSH1 0x40 MLOAD PUSH2 0x62 SWAP2 SWAP1 PUSH2 0x357 JUMP JUMPDEST PUSH1 0x40 MLOAD DUP1 SWAP2 SUB SWAP1 RETURN JUMPDEST PUSH2 0x85 PUSH1 0x4 DUP1 CALLDATASIZE SUB DUP2 ADD SWAP1 PUSH2 0x80 SWAP2 SWAP1 PUSH2 0x4AE JUMP JUMPDEST PUSH2 0x1B3 JUMP JUMPDEST STOP JUMPDEST PUSH2 0x8F PUSH2 0x1D3 JUMP JUMPDEST PUSH1 0x0 PUSH1 0x1 PUSH1 0x0 CALLER PUSH20 0xFFFFFFFFFFFFFFFFFFFFFFFFFFFFFFFFFFFFFFFF AND PUSH20 0xFFFFFFFFFFFFFFFFFFFFFFFFFFFFFFFFFFFFFFFF AND DUP2 MSTORE PUSH1 0x20 ADD SWAP1 DUP2 MSTORE PUSH1 0x20 ADD PUSH1 0x0 KECCAK256 DUP4 DUP2 SLOAD DUP2 LT PUSH2 0xE2 JUMPI PUSH2 0xE1 PUSH2 0x4F7 JUMP JUMPDEST JUMPDEST SWAP1 PUSH1 0x0 MSTORE PUSH1 0x20 PUSH1 0x0 KECCAK256 SWAP1 PUSH1 0x2 MUL ADD PUSH1 0x40 MLOAD DUP1 PUSH1 0x40 ADD PUSH1 0x40 MSTORE SWAP1 DUP2 PUSH1 0x0 DUP3 ADD DUP1 SLOAD PUSH2 0x10B SWAP1 PUSH2 0x555 JUMP JUMPDEST DUP1 PUSH1 0x1F ADD PUSH1 0x20 DUP1 SWAP2 DIV MUL PUSH1 0x20 ADD PUSH1 0x40 MLOAD SWAP1 DUP2 ADD PUSH1 0x40 MSTORE DUP1 SWAP3 SWAP2 SWAP1 DUP2 DUP2 MSTORE PUSH1 0x20 ADD DUP3 DUP1 SLOAD PUSH2 0x137 SWAP1 PUSH2 0x555 JUMP JUMPDEST DUP1 ISZERO PUSH2 0x184 JUMPI DUP1 PUSH1 0x1F LT PUSH2 0x159 JUMPI PUSH2 0x100 DUP1 DUP4 SLOAD DIV MUL DUP4 MSTORE SWAP2 PUSH1 0x20 ADD SWAP2 PUSH2 0x184 JUMP JUMPDEST DUP3 ADD SWAP2 SWAP1 PUSH1 0x0 MSTORE PUSH1 0x20 PUSH1 0x0 KECCAK256 SWAP1 JUMPDEST DUP2 SLOAD DUP2 MSTORE SWAP1 PUSH1 0x1 ADD SWAP1 PUSH1 0x20 ADD DUP1 DUP4 GT PUSH2 0x167 JUMPI DUP3 SWAP1 SUB PUSH1 0x1F AND DUP3 ADD SWAP2 JUMPDEST POP POP POP POP POP DUP2 MSTORE PUSH1 0x20 ADD PUSH1 0x1 DUP3 ADD PUSH1 0x0 SWAP1 SLOAD SWAP1 PUSH2 0x100 EXP SWAP1 DIV PUSH1 0xFF AND ISZERO ISZERO ISZERO ISZERO DUP2 MSTORE POP POP SWAP1 POP DUP1 SWAP2 POP POP SWAP2 SWAP1 POP JUMP JUMPDEST PUSH1 0x0 PUSH1 0x40 MLOAD DUP1 PUSH1 0x40 ADD PUSH1 0x40 MSTORE DUP1 DUP4 DUP2 MSTORE PUSH1 0x20 ADD PUSH1 0x0 ISZERO ISZERO DUP2 MSTORE POP SWAP1 POP POP POP JUMP JUMPDEST PUSH1 0x40 MLOAD DUP1 PUSH1 0x40 ADD PUSH1 0x40 MSTORE DUP1 PUSH1 0x60 DUP2 MSTORE PUSH1 0x20 ADD PUSH1 0x0 ISZERO ISZERO DUP2 MSTORE POP SWAP1 JUMP JUMPDEST PUSH1 0x0 PUSH1 0x40 MLOAD SWAP1 POP SWAP1 JUMP JUMPDEST PUSH1 0x0 DUP1 REVERT JUMPDEST PUSH1 0x0 DUP1 REVERT JUMPDEST PUSH1 0x0 DUP2 SWAP1 POP SWAP2 SWAP1 POP JUMP JUMPDEST PUSH2 0x216 DUP2 PUSH2 0x203 JUMP JUMPDEST DUP2 EQ PUSH2 0x221 JUMPI PUSH1 0x0 DUP1 REVERT JUMPDEST POP JUMP JUMPDEST PUSH1 0x0 DUP2 CALLDATALOAD SWAP1 POP PUSH2 0x233 DUP2 PUSH2 0x20D JUMP JUMPDEST SWAP3 SWAP2 POP POP JUMP JUMPDEST PUSH1 0x0 PUSH1 0x20 DUP3 DUP5 SUB SLT ISZERO PUSH2 0x24F JUMPI PUSH2 0x24E PUSH2 0x1F9 JUMP JUMPDEST JUMPDEST PUSH1 0x0 PUSH2 0x25D DUP5 DUP3 DUP6 ADD PUSH2 0x224 JUMP JUMPDEST SWAP2 POP POP SWAP3 SWAP2 POP POP JUMP JUMPDEST PUSH1 0x0 DUP2 MLOAD SWAP1 POP SWAP2 SWAP1 POP JUMP JUMPDEST PUSH1 0x0 DUP3 DUP3 MSTORE PUSH1 0x20 DUP3 ADD SWAP1 POP SWAP3 SWAP2 POP POP JUMP JUMPDEST PUSH1 0x0 JUMPDEST DUP4 DUP2 LT ISZERO PUSH2 0x2A0 JUMPI DUP1 DUP3 ADD MLOAD DUP2 DUP5 ADD MSTORE PUSH1 0x20 DUP2 ADD SWAP1 POP PUSH2 0x285 JUMP JUMPDEST DUP4 DUP2 GT ISZERO PUSH2 0x2AF JUMPI PUSH1 0x0 DUP5 DUP5 ADD MSTORE JUMPDEST POP POP POP POP JUMP JUMPDEST PUSH1 0x0 PUSH1 0x1F NOT PUSH1 0x1F DUP4 ADD AND SWAP1 POP SWAP2 SWAP1 POP JUMP JUMPDEST PUSH1 0x0 PUSH2 0x2D1 DUP3 PUSH2 0x266 JUMP JUMPDEST PUSH2 0x2DB DUP2 DUP6 PUSH2 0x271 JUMP JUMPDEST SWAP4 POP PUSH2 0x2EB DUP2 DUP6 PUSH1 0x20 DUP7 ADD PUSH2 0x282 JUMP JUMPDEST PUSH2 0x2F4 DUP2 PUSH2 0x2B5 JUMP JUMPDEST DUP5 ADD SWAP2 POP POP SWAP3 SWAP2 POP POP JUMP JUMPDEST PUSH1 0x0 DUP2 ISZERO ISZERO SWAP1 POP SWAP2 SWAP1 POP JUMP JUMPDEST PUSH2 0x314 DUP2 PUSH2 0x2FF JUMP JUMPDEST DUP3 MSTORE POP POP JUMP JUMPDEST PUSH1 0x0 PUSH1 0x40 DUP4 ADD PUSH1 0x0 DUP4 ADD MLOAD DUP5 DUP3 SUB PUSH1 0x0 DUP7 ADD MSTORE PUSH2 0x337 DUP3 DUP3 PUSH2 0x2C6 JUMP JUMPDEST SWAP2 POP POP PUSH1 0x20 DUP4 ADD MLOAD PUSH2 0x34C PUSH1 0x20 DUP7 ADD DUP3 PUSH2 0x30B JUMP JUMPDEST POP DUP1 SWAP2 POP POP SWAP3 SWAP2 POP POP JUMP JUMPDEST PUSH1 0x0 PUSH1 0x20 DUP3 ADD SWAP1 POP DUP2 DUP2 SUB PUSH1 0x0 DUP4 ADD MSTORE PUSH2 0x371 DUP2 DUP5 PUSH2 0x31A JUMP JUMPDEST SWAP1 POP SWAP3 SWAP2 POP POP JUMP JUMPDEST PUSH1 0x0 DUP1 REVERT JUMPDEST PUSH1 0x0 DUP1 REVERT JUMPDEST PUSH32 0x4E487B7100000000000000000000000000000000000000000000000000000000 PUSH1 0x0 MSTORE PUSH1 0x41 PUSH1 0x4 MSTORE PUSH1 0x24 PUSH1 0x0 REVERT JUMPDEST PUSH2 0x3BB DUP3 PUSH2 0x2B5 JUMP JUMPDEST DUP2 ADD DUP2 DUP2 LT PUSH8 0xFFFFFFFFFFFFFFFF DUP3 GT OR ISZERO PUSH2 0x3DA JUMPI PUSH2 0x3D9 PUSH2 0x383 JUMP JUMPDEST JUMPDEST DUP1 PUSH1 0x40 MSTORE POP POP POP JUMP JUMPDEST PUSH1 0x0 PUSH2 0x3ED PUSH2 0x1EF JUMP JUMPDEST SWAP1 POP PUSH2 0x3F9 DUP3 DUP3 PUSH2 0x3B2 JUMP JUMPDEST SWAP2 SWAP1 POP JUMP JUMPDEST PUSH1 0x0 PUSH8 0xFFFFFFFFFFFFFFFF DUP3 GT ISZERO PUSH2 0x419 JUMPI PUSH2 0x418 PUSH2 0x383 JUMP JUMPDEST JUMPDEST PUSH2 0x422 DUP3 PUSH2 0x2B5 JUMP JUMPDEST SWAP1 POP PUSH1 0x20 DUP2 ADD SWAP1 POP SWAP2 SWAP1 POP JUMP JUMPDEST DUP3 DUP2 DUP4 CALLDATACOPY PUSH1 0x0 DUP4 DUP4 ADD MSTORE POP POP POP JUMP JUMPDEST PUSH1 0x0 PUSH2 0x451 PUSH2 0x44C DUP5 PUSH2 0x3FE JUMP JUMPDEST PUSH2 0x3E3 JUMP JUMPDEST SWAP1 POP DUP3 DUP2 MSTORE PUSH1 0x20 DUP2 ADD DUP5 DUP5 DUP5 ADD GT ISZERO PUSH2 0x46D JUMPI PUSH2 0x46C PUSH2 0x37E JUMP JUMPDEST JUMPDEST PUSH2 0x478 DUP5 DUP3 DUP6 PUSH2 0x42F JUMP JUMPDEST POP SWAP4 SWAP3 POP POP POP JUMP JUMPDEST PUSH1 0x0 DUP3 PUSH1 0x1F DUP4 ADD SLT PUSH2 0x495 JUMPI PUSH2 0x494 PUSH2 0x379 JUMP JUMPDEST JUMPDEST DUP2 CALLDATALOAD PUSH2 0x4A5 DUP5 DUP3 PUSH1 0x20 DUP7 ADD PUSH2 0x43E JUMP JUMPDEST SWAP2 POP POP SWAP3 SWAP2 POP POP JUMP JUMPDEST PUSH1 0x0 PUSH1 0x20 DUP3 DUP5 SUB SLT ISZERO PUSH2 0x4C4 JUMPI PUSH2 0x4C3 PUSH2 0x1F9 JUMP JUMPDEST JUMPDEST PUSH1 0x0 DUP3 ADD CALLDATALOAD PUSH8 0xFFFFFFFFFFFFFFFF DUP2 GT ISZERO PUSH2 0x4E2 JUMPI PUSH2 0x4E1 PUSH2 0x1FE JUMP JUMPDEST JUMPDEST PUSH2 0x4EE DUP5 DUP3 DUP6 ADD PUSH2 0x480 JUMP JUMPDEST SWAP2 POP POP SWAP3 SWAP2 POP POP JUMP JUMPDEST PUSH32 0x4E487B7100000000000000000000000000000000000000000000000000000000 PUSH1 0x0 MSTORE PUSH1 0x32 PUSH1 0x4 MSTORE PUSH1 0x24 PUSH1 0x0 REVERT JUMPDEST PUSH32 0x4E487B7100000000000000000000000000000000000000000000000000000000 PUSH1 0x0 MSTORE PUSH1 0x22 PUSH1 0x4 MSTORE PUSH1 0x24 PUSH1 0x0 REVERT JUMPDEST PUSH1 0x0 PUSH1 0x2 DUP3 DIV SWAP1 POP PUSH1 0x1 DUP3 AND DUP1 PUSH2 0x56D JUMPI PUSH1 0x7F DUP3 AND SWAP2 POP JUMPDEST PUSH1 0x20 DUP3 LT DUP2 SUB PUSH2 0x580 JUMPI PUSH2 0x57F PUSH2 0x526 JUMP JUMPDEST JUMPDEST POP SWAP2 SWAP1 POP JUMP INVALID LOG2 PUSH5 0x6970667358 0x22 SLT KECCAK256 0x4B 0xB2 0xDB 0xB9 PUSH5 0x2667C8843E EQ 0xC6 0xB9 SWAP8 ADDRESS 0xE5 0x4E PUSH18 0x66C01C558371BD7168A175895FB964736F6C PUSH4 0x4300080F STOP CALLER "
				},
				"gasEstimates": {
					"creation": {
						"codeDepositCost": "293600",
						"executionCost": "331",
						"totalCost": "293931"
					},
					"external": {
						"addTask(string)": "infinite",
						"getTask(uint256)": "infinite"
					}
				},
				"methodIdentifiers": {
					"addTask(string)": "67238562",
					"getTask(uint256)": "1d65e77e"
				}
			},
			"storageLayout": {
				"storage": [
					{
						"astId": 3,
						"contract": "contracts/todo.sol:todo",
						"label": "owner",
						"offset": 0,
						"slot": "0",
						"type": "t_address"
					},
					{
						"astId": 14,
						"contract": "contracts/todo.sol:todo",
						"label": "Users",
						"offset": 0,
						"slot": "1",
						"type": "t_mapping(t_address,t_array(t_struct(Task)8_storage)dyn_storage)"
					}
				],
				"types": {
					"t_address": {
						"encoding": "inplace",
						"label": "address",
						"numberOfBytes": "20"
					},
					"t_array(t_struct(Task)8_storage)dyn_storage": {
						"base": "t_struct(Task)8_storage",
						"encoding": "dynamic_array",
						"label": "struct todo.Task[]",
						"numberOfBytes": "32"
					},
					"t_bool": {
						"encoding": "inplace",
						"label": "bool",
						"numberOfBytes": "1"
					},
					"t_mapping(t_address,t_array(t_struct(Task)8_storage)dyn_storage)": {
						"encoding": "mapping",
						"key": "t_address",
						"label": "mapping(address => struct todo.Task[])",
						"numberOfBytes": "32",
						"value": "t_array(t_struct(Task)8_storage)dyn_storage"
					},
					"t_string_storage": {
						"encoding": "bytes",
						"label": "string",
						"numberOfBytes": "32"
					},
					"t_struct(Task)8_storage": {
						"encoding": "inplace",
						"label": "struct todo.Task",
						"members": [
							{
								"astId": 5,
								"contract": "contracts/todo.sol:todo",
								"label": "task",
								"offset": 0,
								"slot": "0",
								"type": "t_string_storage"
							},
							{
								"astId": 7,
								"contract": "contracts/todo.sol:todo",
								"label": "isDone",
								"offset": 0,
								"slot": "1",
								"type": "t_bool"
							}
						],
						"numberOfBytes": "64"
					}
				}
			},
			"userdoc": {
				"kind": "user",
				"methods": {},
				"version": 1
			}
		}
	}
}