{
	"contracts/todo.sol": {
		"todo": {
			"abi": [
				{
					"inputs": [
						{
							"internalType": "string",
							"name": "_task",
							"type": "string"
						}
					],
					"name": "addTask",
					"outputs": [],
					"stateMutability": "nonpayable",
					"type": "function"
				},
				{
					"inputs": [
						{
							"internalType": "uint256",
							"name": "_taskIndex",
							"type": "uint256"
						}
					],
					"name": "getTask",
					"outputs": [
						{
							"components": [
								{
									"internalType": "string",
									"name": "task",
									"type": "string"
								},
								{
									"internalType": "bool",
									"name": "isDone",
									"type": "bool"
								}
							],
							"internalType": "struct todo.Task",
							"name": "",
							"type": "tuple"
						}
					],
					"stateMutability": "view",
					"type": "function"
				}
			],
			"devdoc": {
				"kind": "dev",
				"methods": {},
				"version": 1
			},
			"evm": {
				"assembly": "    /* \"contracts/todo.sol\":64:513  contract todo ... */\n  mstore(0x40, 0x80)\n  callvalue\n  dup1\n  iszero\n  tag_1\n  jumpi\n  0x00\n  dup1\n  revert\ntag_1:\n  pop\n  dataSize(sub_0)\n  dup1\n  dataOffset(sub_0)\n  0x00\n  codecopy\n  0x00\n  return\nstop\n\nsub_0: assembly {\n        /* \"contracts/todo.sol\":64:513  contract todo ... */\n      mstore(0x40, 0x80)\n      callvalue\n      dup1\n      iszero\n      tag_1\n      jumpi\n      0x00\n      dup1\n      revert\n    tag_1:\n      pop\n      jumpi(tag_2, lt(calldatasize, 0x04))\n      shr(0xe0, calldataload(0x00))\n      dup1\n      0x1d65e77e\n      eq\n      tag_3\n      jumpi\n      dup1\n      0x67238562\n      eq\n      tag_4\n      jumpi\n    tag_2:\n      0x00\n      dup1\n      revert\n        /* \"contracts/todo.sol\":426:510  function getTask(uint _taskIndex) public view returns (Task memory) {... */\n    tag_3:\n      tag_5\n      0x04\n      dup1\n      calldatasize\n      sub\n      dup2\n      add\n      swap1\n      tag_6\n      swap2\n      swap1\n      tag_7\n      jump\t// in\n    tag_6:\n      tag_8\n      jump\t// in\n    tag_5:\n      mload(0x40)\n      tag_9\n      swap2\n      swap1\n      tag_10\n      jump\t// in\n    tag_9:\n      mload(0x40)\n      dup1\n      swap2\n      sub\n      swap1\n      return\n        /* \"contracts/todo.sol\":220:420  function addTask(string memory _task) public {... */\n    tag_4:\n      tag_11\n      0x04\n      dup1\n      calldatasize\n      sub\n      dup2\n      add\n      swap1\n      tag_12\n      swap2\n      swap1\n      tag_13\n      jump\t// in\n    tag_12:\n      tag_14\n      jump\t// in\n    tag_11:\n      stop\n        /* \"contracts/todo.sol\":426:510  function getTask(uint _taskIndex) public view returns (Task memory) {... */\n    tag_8:\n        /* \"contracts/todo.sol\":481:492  Task memory */\n      tag_15\n      tag_16\n      jump\t// in\n    tag_15:\n        /* \"contracts/todo.sol\":426:510  function getTask(uint _taskIndex) public view returns (Task memory) {... */\n      swap2\n      swap1\n      pop\n      jump\t// out\n        /* \"contracts/todo.sol\":220:420  function addTask(string memory _task) public {... */\n    tag_14:\n        /* \"contracts/todo.sol\":327:332  Users */\n      0x01\n        /* \"contracts/todo.sol\":327:344  Users[msg.sender] */\n      0x00\n        /* \"contracts/todo.sol\":333:343  msg.sender */\n      caller\n        /* \"contracts/todo.sol\":327:344  Users[msg.sender] */\n      0xffffffffffffffffffffffffffffffffffffffff\n      and\n      0xffffffffffffffffffffffffffffffffffffffff\n      and\n      dup2\n      mstore\n      0x20\n      add\n      swap1\n      dup2\n      mstore\n      0x20\n      add\n      0x00\n      keccak256\n        /* \"contracts/todo.sol\":350:412  Task({... */\n      mload(0x40)\n      dup1\n      0x40\n      add\n      0x40\n      mstore\n      dup1\n        /* \"contracts/todo.sol\":372:377  _task */\n      dup4\n        /* \"contracts/todo.sol\":350:412  Task({... */\n      dup2\n      mstore\n      0x20\n      add\n        /* \"contracts/todo.sol\":396:401  false */\n      0x00\n        /* \"contracts/todo.sol\":350:412  Task({... */\n      iszero\n      iszero\n      dup2\n      mstore\n      pop\n        /* \"contracts/todo.sol\":327:413  Users[msg.sender].push(Task({... */\n      swap1\n      dup1\n      0x01\n      dup2\n      sload\n      add\n      dup1\n      dup3\n      sstore\n      dup1\n      swap2\n      pop\n      pop\n      0x01\n      swap1\n      sub\n      swap1\n      0x00\n      mstore\n      keccak256(0x00, 0x20)\n      swap1\n      0x02\n      mul\n      add\n      0x00\n      swap1\n      swap2\n      swap1\n      swap2\n      swap1\n      swap2\n      pop\n      0x00\n      dup3\n      add\n      mload\n      dup2\n      0x00\n      add\n      swap1\n      dup2\n      tag_20\n      swap2\n      swap1\n      tag_21\n      jump\t// in\n    tag_20:\n      pop\n      0x20\n      dup3\n      add\n      mload\n      dup2\n      0x01\n      add\n      exp(0x0100, 0x00)\n      dup2\n      sload\n      dup2\n      0xff\n      mul\n      not\n      and\n      swap1\n      dup4\n      iszero\n      iszero\n      mul\n      or\n      swap1\n      sstore\n      pop\n      pop\n      pop\n        /* \"contracts/todo.sol\":220:420  function addTask(string memory _task) public {... */\n      pop\n      jump\t// out\n    tag_16:\n      mload(0x40)\n      dup1\n      0x40\n      add\n      0x40\n      mstore\n      dup1\n      0x60\n      dup2\n      mstore\n      0x20\n      add\n      iszero(iszero(0x00))\n      dup2\n      mstore\n      pop\n      swap1\n      jump\t// out\n        /* \"#utility.yul\":7:82   */\n    tag_22:\n        /* \"#utility.yul\":40:46   */\n      0x00\n        /* \"#utility.yul\":73:75   */\n      0x40\n        /* \"#utility.yul\":67:76   */\n      mload\n        /* \"#utility.yul\":57:76   */\n      swap1\n      pop\n        /* \"#utility.yul\":7:82   */\n      swap1\n      jump\t// out\n        /* \"#utility.yul\":88:205   */\n    tag_23:\n        /* \"#utility.yul\":197:198   */\n      0x00\n        /* \"#utility.yul\":194:195   */\n      dup1\n        /* \"#utility.yul\":187:199   */\n      revert\n        /* \"#utility.yul\":211:328   */\n    tag_24:\n        /* \"#utility.yul\":320:321   */\n      0x00\n        /* \"#utility.yul\":317:318   */\n      dup1\n        /* \"#utility.yul\":310:322   */\n      revert\n        /* \"#utility.yul\":334:411   */\n    tag_25:\n        /* \"#utility.yul\":371:378   */\n      0x00\n        /* \"#utility.yul\":400:405   */\n      dup2\n        /* \"#utility.yul\":389:405   */\n      swap1\n      pop\n        /* \"#utility.yul\":334:411   */\n      swap2\n      swap1\n      pop\n      jump\t// out\n        /* \"#utility.yul\":417:539   */\n    tag_26:\n        /* \"#utility.yul\":490:514   */\n      tag_68\n        /* \"#utility.yul\":508:513   */\n      dup2\n        /* \"#utility.yul\":490:514   */\n      tag_25\n      jump\t// in\n    tag_68:\n        /* \"#utility.yul\":483:488   */\n      dup2\n        /* \"#utility.yul\":480:515   */\n      eq\n        /* \"#utility.yul\":470:533   */\n      tag_69\n      jumpi\n        /* \"#utility.yul\":529:530   */\n      0x00\n        /* \"#utility.yul\":526:527   */\n      dup1\n        /* \"#utility.yul\":519:531   */\n      revert\n        /* \"#utility.yul\":470:533   */\n    tag_69:\n        /* \"#utility.yul\":417:539   */\n      pop\n      jump\t// out\n        /* \"#utility.yul\":545:684   */\n    tag_27:\n        /* \"#utility.yul\":591:596   */\n      0x00\n        /* \"#utility.yul\":629:635   */\n      dup2\n        /* \"#utility.yul\":616:636   */\n      calldataload\n        /* \"#utility.yul\":607:636   */\n      swap1\n      pop\n        /* \"#utility.yul\":645:678   */\n      tag_71\n        /* \"#utility.yul\":672:677   */\n      dup2\n        /* \"#utility.yul\":645:678   */\n      tag_26\n      jump\t// in\n    tag_71:\n        /* \"#utility.yul\":545:684   */\n      swap3\n      swap2\n      pop\n      pop\n      jump\t// out\n        /* \"#utility.yul\":690:1019   */\n    tag_7:\n        /* \"#utility.yul\":749:755   */\n      0x00\n        /* \"#utility.yul\":798:800   */\n      0x20\n        /* \"#utility.yul\":786:795   */\n      dup3\n        /* \"#utility.yul\":777:784   */\n      dup5\n        /* \"#utility.yul\":773:796   */\n      sub\n        /* \"#utility.yul\":769:801   */\n      slt\n        /* \"#utility.yul\":766:885   */\n      iszero\n      tag_73\n      jumpi\n        /* \"#utility.yul\":804:883   */\n      tag_74\n      tag_23\n      jump\t// in\n    tag_74:\n        /* \"#utility.yul\":766:885   */\n    tag_73:\n        /* \"#utility.yul\":924:925   */\n      0x00\n        /* \"#utility.yul\":949:1002   */\n      tag_75\n        /* \"#utility.yul\":994:1001   */\n      dup5\n        /* \"#utility.yul\":985:991   */\n      dup3\n        /* \"#utility.yul\":974:983   */\n      dup6\n        /* \"#utility.yul\":970:992   */\n      add\n        /* \"#utility.yul\":949:1002   */\n      tag_27\n      jump\t// in\n    tag_75:\n        /* \"#utility.yul\":939:1002   */\n      swap2\n      pop\n        /* \"#utility.yul\":895:1012   */\n      pop\n        /* \"#utility.yul\":690:1019   */\n      swap3\n      swap2\n      pop\n      pop\n      jump\t// out\n        /* \"#utility.yul\":1025:1124   */\n    tag_28:\n        /* \"#utility.yul\":1077:1083   */\n      0x00\n        /* \"#utility.yul\":1111:1116   */\n      dup2\n        /* \"#utility.yul\":1105:1117   */\n      mload\n        /* \"#utility.yul\":1095:1117   */\n      swap1\n      pop\n        /* \"#utility.yul\":1025:1124   */\n      swap2\n      swap1\n      pop\n      jump\t// out\n        /* \"#utility.yul\":1130:1289   */\n    tag_29:\n        /* \"#utility.yul\":1204:1215   */\n      0x00\n        /* \"#utility.yul\":1238:1244   */\n      dup3\n        /* \"#utility.yul\":1233:1236   */\n      dup3\n        /* \"#utility.yul\":1226:1245   */\n      mstore\n        /* \"#utility.yul\":1278:1282   */\n      0x20\n        /* \"#utility.yul\":1273:1276   */\n      dup3\n        /* \"#utility.yul\":1269:1283   */\n      add\n        /* \"#utility.yul\":1254:1283   */\n      swap1\n      pop\n        /* \"#utility.yul\":1130:1289   */\n      swap3\n      swap2\n      pop\n      pop\n      jump\t// out\n        /* \"#utility.yul\":1295:1602   */\n    tag_30:\n        /* \"#utility.yul\":1363:1364   */\n      0x00\n        /* \"#utility.yul\":1373:1486   */\n    tag_79:\n        /* \"#utility.yul\":1387:1393   */\n      dup4\n        /* \"#utility.yul\":1384:1385   */\n      dup2\n        /* \"#utility.yul\":1381:1394   */\n      lt\n        /* \"#utility.yul\":1373:1486   */\n      iszero\n      tag_81\n      jumpi\n        /* \"#utility.yul\":1472:1473   */\n      dup1\n        /* \"#utility.yul\":1467:1470   */\n      dup3\n        /* \"#utility.yul\":1463:1474   */\n      add\n        /* \"#utility.yul\":1457:1475   */\n      mload\n        /* \"#utility.yul\":1453:1454   */\n      dup2\n        /* \"#utility.yul\":1448:1451   */\n      dup5\n        /* \"#utility.yul\":1444:1455   */\n      add\n        /* \"#utility.yul\":1437:1476   */\n      mstore\n        /* \"#utility.yul\":1409:1411   */\n      0x20\n        /* \"#utility.yul\":1406:1407   */\n      dup2\n        /* \"#utility.yul\":1402:1412   */\n      add\n        /* \"#utility.yul\":1397:1412   */\n      swap1\n      pop\n        /* \"#utility.yul\":1373:1486   */\n      jump(tag_79)\n    tag_81:\n        /* \"#utility.yul\":1504:1510   */\n      dup4\n        /* \"#utility.yul\":1501:1502   */\n      dup2\n        /* \"#utility.yul\":1498:1511   */\n      gt\n        /* \"#utility.yul\":1495:1596   */\n      iszero\n      tag_82\n      jumpi\n        /* \"#utility.yul\":1584:1585   */\n      0x00\n        /* \"#utility.yul\":1575:1581   */\n      dup5\n        /* \"#utility.yul\":1570:1573   */\n      dup5\n        /* \"#utility.yul\":1566:1582   */\n      add\n        /* \"#utility.yul\":1559:1586   */\n      mstore\n        /* \"#utility.yul\":1495:1596   */\n    tag_82:\n        /* \"#utility.yul\":1344:1602   */\n      pop\n        /* \"#utility.yul\":1295:1602   */\n      pop\n      pop\n      pop\n      jump\t// out\n        /* \"#utility.yul\":1608:1710   */\n    tag_31:\n        /* \"#utility.yul\":1649:1655   */\n      0x00\n        /* \"#utility.yul\":1700:1702   */\n      0x1f\n        /* \"#utility.yul\":1696:1703   */\n      not\n        /* \"#utility.yul\":1691:1693   */\n      0x1f\n        /* \"#utility.yul\":1684:1689   */\n      dup4\n        /* \"#utility.yul\":1680:1694   */\n      add\n        /* \"#utility.yul\":1676:1704   */\n      and\n        /* \"#utility.yul\":1666:1704   */\n      swap1\n      pop\n        /* \"#utility.yul\":1608:1710   */\n      swap2\n      swap1\n      pop\n      jump\t// out\n        /* \"#utility.yul\":1716:2060   */\n    tag_32:\n        /* \"#utility.yul\":1794:1797   */\n      0x00\n        /* \"#utility.yul\":1822:1861   */\n      tag_85\n        /* \"#utility.yul\":1855:1860   */\n      dup3\n        /* \"#utility.yul\":1822:1861   */\n      tag_28\n      jump\t// in\n    tag_85:\n        /* \"#utility.yul\":1877:1938   */\n      tag_86\n        /* \"#utility.yul\":1931:1937   */\n      dup2\n        /* \"#utility.yul\":1926:1929   */\n      dup6\n        /* \"#utility.yul\":1877:1938   */\n      tag_29\n      jump\t// in\n    tag_86:\n        /* \"#utility.yul\":1870:1938   */\n      swap4\n      pop\n        /* \"#utility.yul\":1947:1999   */\n      tag_87\n        /* \"#utility.yul\":1992:1998   */\n      dup2\n        /* \"#utility.yul\":1987:1990   */\n      dup6\n        /* \"#utility.yul\":1980:1984   */\n      0x20\n        /* \"#utility.yul\":1973:1978   */\n      dup7\n        /* \"#utility.yul\":1969:1985   */\n      add\n        /* \"#utility.yul\":1947:1999   */\n      tag_30\n      jump\t// in\n    tag_87:\n        /* \"#utility.yul\":2024:2053   */\n      tag_88\n        /* \"#utility.yul\":2046:2052   */\n      dup2\n        /* \"#utility.yul\":2024:2053   */\n      tag_31\n      jump\t// in\n    tag_88:\n        /* \"#utility.yul\":2019:2022   */\n      dup5\n        /* \"#utility.yul\":2015:2054   */\n      add\n        /* \"#utility.yul\":2008:2054   */\n      swap2\n      pop\n        /* \"#utility.yul\":1798:2060   */\n      pop\n        /* \"#utility.yul\":1716:2060   */\n      swap3\n      swap2\n      pop\n      pop\n      jump\t// out\n        /* \"#utility.yul\":2066:2156   */\n    tag_33:\n        /* \"#utility.yul\":2100:2107   */\n      0x00\n        /* \"#utility.yul\":2143:2148   */\n      dup2\n        /* \"#utility.yul\":2136:2149   */\n      iszero\n        /* \"#utility.yul\":2129:2150   */\n      iszero\n        /* \"#utility.yul\":2118:2150   */\n      swap1\n      pop\n        /* \"#utility.yul\":2066:2156   */\n      swap2\n      swap1\n      pop\n      jump\t// out\n        /* \"#utility.yul\":2162:2261   */\n    tag_34:\n        /* \"#utility.yul\":2233:2254   */\n      tag_91\n        /* \"#utility.yul\":2248:2253   */\n      dup2\n        /* \"#utility.yul\":2233:2254   */\n      tag_33\n      jump\t// in\n    tag_91:\n        /* \"#utility.yul\":2228:2231   */\n      dup3\n        /* \"#utility.yul\":2221:2255   */\n      mstore\n        /* \"#utility.yul\":2162:2261   */\n      pop\n      pop\n      jump\t// out\n        /* \"#utility.yul\":2311:2901   */\n    tag_35:\n        /* \"#utility.yul\":2418:2421   */\n      0x00\n        /* \"#utility.yul\":2454:2458   */\n      0x40\n        /* \"#utility.yul\":2449:2452   */\n      dup4\n        /* \"#utility.yul\":2445:2459   */\n      add\n        /* \"#utility.yul\":2541:2545   */\n      0x00\n        /* \"#utility.yul\":2534:2539   */\n      dup4\n        /* \"#utility.yul\":2530:2546   */\n      add\n        /* \"#utility.yul\":2524:2547   */\n      mload\n        /* \"#utility.yul\":2594:2597   */\n      dup5\n        /* \"#utility.yul\":2588:2592   */\n      dup3\n        /* \"#utility.yul\":2584:2598   */\n      sub\n        /* \"#utility.yul\":2577:2581   */\n      0x00\n        /* \"#utility.yul\":2572:2575   */\n      dup7\n        /* \"#utility.yul\":2568:2582   */\n      add\n        /* \"#utility.yul\":2561:2599   */\n      mstore\n        /* \"#utility.yul\":2620:2693   */\n      tag_93\n        /* \"#utility.yul\":2688:2692   */\n      dup3\n        /* \"#utility.yul\":2674:2686   */\n      dup3\n        /* \"#utility.yul\":2620:2693   */\n      tag_32\n      jump\t// in\n    tag_93:\n        /* \"#utility.yul\":2612:2693   */\n      swap2\n      pop\n        /* \"#utility.yul\":2469:2704   */\n      pop\n        /* \"#utility.yul\":2788:2792   */\n      0x20\n        /* \"#utility.yul\":2781:2786   */\n      dup4\n        /* \"#utility.yul\":2777:2793   */\n      add\n        /* \"#utility.yul\":2771:2794   */\n      mload\n        /* \"#utility.yul\":2807:2864   */\n      tag_94\n        /* \"#utility.yul\":2858:2862   */\n      0x20\n        /* \"#utility.yul\":2853:2856   */\n      dup7\n        /* \"#utility.yul\":2849:2863   */\n      add\n        /* \"#utility.yul\":2835:2847   */\n      dup3\n        /* \"#utility.yul\":2807:2864   */\n      tag_34\n      jump\t// in\n    tag_94:\n        /* \"#utility.yul\":2714:2874   */\n      pop\n        /* \"#utility.yul\":2891:2895   */\n      dup1\n        /* \"#utility.yul\":2884:2895   */\n      swap2\n      pop\n        /* \"#utility.yul\":2423:2901   */\n      pop\n        /* \"#utility.yul\":2311:2901   */\n      swap3\n      swap2\n      pop\n      pop\n      jump\t// out\n        /* \"#utility.yul\":2907:3256   */\n    tag_10:\n        /* \"#utility.yul\":3038:3042   */\n      0x00\n        /* \"#utility.yul\":3076:3078   */\n      0x20\n        /* \"#utility.yul\":3065:3074   */\n      dup3\n        /* \"#utility.yul\":3061:3079   */\n      add\n        /* \"#utility.yul\":3053:3079   */\n      swap1\n      pop\n        /* \"#utility.yul\":3125:3134   */\n      dup2\n        /* \"#utility.yul\":3119:3123   */\n      dup2\n        /* \"#utility.yul\":3115:3135   */\n      sub\n        /* \"#utility.yul\":3111:3112   */\n      0x00\n        /* \"#utility.yul\":3100:3109   */\n      dup4\n        /* \"#utility.yul\":3096:3113   */\n      add\n        /* \"#utility.yul\":3089:3136   */\n      mstore\n        /* \"#utility.yul\":3153:3249   */\n      tag_96\n        /* \"#utility.yul\":3244:3248   */\n      dup2\n        /* \"#utility.yul\":3235:3241   */\n      dup5\n        /* \"#utility.yul\":3153:3249   */\n      tag_35\n      jump\t// in\n    tag_96:\n        /* \"#utility.yul\":3145:3249   */\n      swap1\n      pop\n        /* \"#utility.yul\":2907:3256   */\n      swap3\n      swap2\n      pop\n      pop\n      jump\t// out\n        /* \"#utility.yul\":3262:3379   */\n    tag_36:\n        /* \"#utility.yul\":3371:3372   */\n      0x00\n        /* \"#utility.yul\":3368:3369   */\n      dup1\n        /* \"#utility.yul\":3361:3373   */\n      revert\n        /* \"#utility.yul\":3385:3502   */\n    tag_37:\n        /* \"#utility.yul\":3494:3495   */\n      0x00\n        /* \"#utility.yul\":3491:3492   */\n      dup1\n        /* \"#utility.yul\":3484:3496   */\n      revert\n        /* \"#utility.yul\":3508:3688   */\n    tag_38:\n        /* \"#utility.yul\":3556:3633   */\n      0x4e487b7100000000000000000000000000000000000000000000000000000000\n        /* \"#utility.yul\":3553:3554   */\n      0x00\n        /* \"#utility.yul\":3546:3634   */\n      mstore\n        /* \"#utility.yul\":3653:3657   */\n      0x41\n        /* \"#utility.yul\":3650:3651   */\n      0x04\n        /* \"#utility.yul\":3643:3658   */\n      mstore\n        /* \"#utility.yul\":3677:3681   */\n      0x24\n        /* \"#utility.yul\":3674:3675   */\n      0x00\n        /* \"#utility.yul\":3667:3682   */\n      revert\n        /* \"#utility.yul\":3694:3975   */\n    tag_39:\n        /* \"#utility.yul\":3777:3804   */\n      tag_101\n        /* \"#utility.yul\":3799:3803   */\n      dup3\n        /* \"#utility.yul\":3777:3804   */\n      tag_31\n      jump\t// in\n    tag_101:\n        /* \"#utility.yul\":3769:3775   */\n      dup2\n        /* \"#utility.yul\":3765:3805   */\n      add\n        /* \"#utility.yul\":3907:3913   */\n      dup2\n        /* \"#utility.yul\":3895:3905   */\n      dup2\n        /* \"#utility.yul\":3892:3914   */\n      lt\n        /* \"#utility.yul\":3871:3889   */\n      0xffffffffffffffff\n        /* \"#utility.yul\":3859:3869   */\n      dup3\n        /* \"#utility.yul\":3856:3890   */\n      gt\n        /* \"#utility.yul\":3853:3915   */\n      or\n        /* \"#utility.yul\":3850:3938   */\n      iszero\n      tag_102\n      jumpi\n        /* \"#utility.yul\":3918:3936   */\n      tag_103\n      tag_38\n      jump\t// in\n    tag_103:\n        /* \"#utility.yul\":3850:3938   */\n    tag_102:\n        /* \"#utility.yul\":3958:3968   */\n      dup1\n        /* \"#utility.yul\":3954:3956   */\n      0x40\n        /* \"#utility.yul\":3947:3969   */\n      mstore\n        /* \"#utility.yul\":3737:3975   */\n      pop\n        /* \"#utility.yul\":3694:3975   */\n      pop\n      pop\n      jump\t// out\n        /* \"#utility.yul\":3981:4110   */\n    tag_40:\n        /* \"#utility.yul\":4015:4021   */\n      0x00\n        /* \"#utility.yul\":4042:4062   */\n      tag_105\n      tag_22\n      jump\t// in\n    tag_105:\n        /* \"#utility.yul\":4032:4062   */\n      swap1\n      pop\n        /* \"#utility.yul\":4071:4104   */\n      tag_106\n        /* \"#utility.yul\":4099:4103   */\n      dup3\n        /* \"#utility.yul\":4091:4097   */\n      dup3\n        /* \"#utility.yul\":4071:4104   */\n      tag_39\n      jump\t// in\n    tag_106:\n        /* \"#utility.yul\":3981:4110   */\n      swap2\n      swap1\n      pop\n      jump\t// out\n        /* \"#utility.yul\":4116:4424   */\n    tag_41:\n        /* \"#utility.yul\":4178:4182   */\n      0x00\n        /* \"#utility.yul\":4268:4286   */\n      0xffffffffffffffff\n        /* \"#utility.yul\":4260:4266   */\n      dup3\n        /* \"#utility.yul\":4257:4287   */\n      gt\n        /* \"#utility.yul\":4254:4310   */\n      iszero\n      tag_108\n      jumpi\n        /* \"#utility.yul\":4290:4308   */\n      tag_109\n      tag_38\n      jump\t// in\n    tag_109:\n        /* \"#utility.yul\":4254:4310   */\n    tag_108:\n        /* \"#utility.yul\":4328:4357   */\n      tag_110\n        /* \"#utility.yul\":4350:4356   */\n      dup3\n        /* \"#utility.yul\":4328:4357   */\n      tag_31\n      jump\t// in\n    tag_110:\n        /* \"#utility.yul\":4320:4357   */\n      swap1\n      pop\n        /* \"#utility.yul\":4412:4416   */\n      0x20\n        /* \"#utility.yul\":4406:4410   */\n      dup2\n        /* \"#utility.yul\":4402:4417   */\n      add\n        /* \"#utility.yul\":4394:4417   */\n      swap1\n      pop\n        /* \"#utility.yul\":4116:4424   */\n      swap2\n      swap1\n      pop\n      jump\t// out\n        /* \"#utility.yul\":4430:4584   */\n    tag_42:\n        /* \"#utility.yul\":4514:4520   */\n      dup3\n        /* \"#utility.yul\":4509:4512   */\n      dup2\n        /* \"#utility.yul\":4504:4507   */\n      dup4\n        /* \"#utility.yul\":4491:4521   */\n      calldatacopy\n        /* \"#utility.yul\":4576:4577   */\n      0x00\n        /* \"#utility.yul\":4567:4573   */\n      dup4\n        /* \"#utility.yul\":4562:4565   */\n      dup4\n        /* \"#utility.yul\":4558:4574   */\n      add\n        /* \"#utility.yul\":4551:4578   */\n      mstore\n        /* \"#utility.yul\":4430:4584   */\n      pop\n      pop\n      pop\n      jump\t// out\n        /* \"#utility.yul\":4590:5002   */\n    tag_43:\n        /* \"#utility.yul\":4668:4673   */\n      0x00\n        /* \"#utility.yul\":4693:4759   */\n      tag_113\n        /* \"#utility.yul\":4709:4758   */\n      tag_114\n        /* \"#utility.yul\":4751:4757   */\n      dup5\n        /* \"#utility.yul\":4709:4758   */\n      tag_41\n      jump\t// in\n    tag_114:\n        /* \"#utility.yul\":4693:4759   */\n      tag_40\n      jump\t// in\n    tag_113:\n        /* \"#utility.yul\":4684:4759   */\n      swap1\n      pop\n        /* \"#utility.yul\":4782:4788   */\n      dup3\n        /* \"#utility.yul\":4775:4780   */\n      dup2\n        /* \"#utility.yul\":4768:4789   */\n      mstore\n        /* \"#utility.yul\":4820:4824   */\n      0x20\n        /* \"#utility.yul\":4813:4818   */\n      dup2\n        /* \"#utility.yul\":4809:4825   */\n      add\n        /* \"#utility.yul\":4858:4861   */\n      dup5\n        /* \"#utility.yul\":4849:4855   */\n      dup5\n        /* \"#utility.yul\":4844:4847   */\n      dup5\n        /* \"#utility.yul\":4840:4856   */\n      add\n        /* \"#utility.yul\":4837:4862   */\n      gt\n        /* \"#utility.yul\":4834:4946   */\n      iszero\n      tag_115\n      jumpi\n        /* \"#utility.yul\":4865:4944   */\n      tag_116\n      tag_37\n      jump\t// in\n    tag_116:\n        /* \"#utility.yul\":4834:4946   */\n    tag_115:\n        /* \"#utility.yul\":4955:4996   */\n      tag_117\n        /* \"#utility.yul\":4989:4995   */\n      dup5\n        /* \"#utility.yul\":4984:4987   */\n      dup3\n        /* \"#utility.yul\":4979:4982   */\n      dup6\n        /* \"#utility.yul\":4955:4996   */\n      tag_42\n      jump\t// in\n    tag_117:\n        /* \"#utility.yul\":4674:5002   */\n      pop\n        /* \"#utility.yul\":4590:5002   */\n      swap4\n      swap3\n      pop\n      pop\n      pop\n      jump\t// out\n        /* \"#utility.yul\":5022:5362   */\n    tag_44:\n        /* \"#utility.yul\":5078:5083   */\n      0x00\n        /* \"#utility.yul\":5127:5130   */\n      dup3\n        /* \"#utility.yul\":5120:5124   */\n      0x1f\n        /* \"#utility.yul\":5112:5118   */\n      dup4\n        /* \"#utility.yul\":5108:5125   */\n      add\n        /* \"#utility.yul\":5104:5131   */\n      slt\n        /* \"#utility.yul\":5094:5216   */\n      tag_119\n      jumpi\n        /* \"#utility.yul\":5135:5214   */\n      tag_120\n      tag_36\n      jump\t// in\n    tag_120:\n        /* \"#utility.yul\":5094:5216   */\n    tag_119:\n        /* \"#utility.yul\":5252:5258   */\n      dup2\n        /* \"#utility.yul\":5239:5259   */\n      calldataload\n        /* \"#utility.yul\":5277:5356   */\n      tag_121\n        /* \"#utility.yul\":5352:5355   */\n      dup5\n        /* \"#utility.yul\":5344:5350   */\n      dup3\n        /* \"#utility.yul\":5337:5341   */\n      0x20\n        /* \"#utility.yul\":5329:5335   */\n      dup7\n        /* \"#utility.yul\":5325:5342   */\n      add\n        /* \"#utility.yul\":5277:5356   */\n      tag_43\n      jump\t// in\n    tag_121:\n        /* \"#utility.yul\":5268:5356   */\n      swap2\n      pop\n        /* \"#utility.yul\":5084:5362   */\n      pop\n        /* \"#utility.yul\":5022:5362   */\n      swap3\n      swap2\n      pop\n      pop\n      jump\t// out\n        /* \"#utility.yul\":5368:5877   */\n    tag_13:\n        /* \"#utility.yul\":5437:5443   */\n      0x00\n        /* \"#utility.yul\":5486:5488   */\n      0x20\n        /* \"#utility.yul\":5474:5483   */\n      dup3\n        /* \"#utility.yul\":5465:5472   */\n      dup5\n        /* \"#utility.yul\":5461:5484   */\n      sub\n        /* \"#utility.yul\":5457:5489   */\n      slt\n        /* \"#utility.yul\":5454:5573   */\n      iszero\n      tag_123\n      jumpi\n        /* \"#utility.yul\":5492:5571   */\n      tag_124\n      tag_23\n      jump\t// in\n    tag_124:\n        /* \"#utility.yul\":5454:5573   */\n    tag_123:\n        /* \"#utility.yul\":5640:5641   */\n      0x00\n        /* \"#utility.yul\":5629:5638   */\n      dup3\n        /* \"#utility.yul\":5625:5642   */\n      add\n        /* \"#utility.yul\":5612:5643   */\n      calldataload\n        /* \"#utility.yul\":5670:5688   */\n      0xffffffffffffffff\n        /* \"#utility.yul\":5662:5668   */\n      dup2\n        /* \"#utility.yul\":5659:5689   */\n      gt\n        /* \"#utility.yul\":5656:5773   */\n      iszero\n      tag_125\n      jumpi\n        /* \"#utility.yul\":5692:5771   */\n      tag_126\n      tag_24\n      jump\t// in\n    tag_126:\n        /* \"#utility.yul\":5656:5773   */\n    tag_125:\n        /* \"#utility.yul\":5797:5860   */\n      tag_127\n        /* \"#utility.yul\":5852:5859   */\n      dup5\n        /* \"#utility.yul\":5843:5849   */\n      dup3\n        /* \"#utility.yul\":5832:5841   */\n      dup6\n        /* \"#utility.yul\":5828:5850   */\n      add\n        /* \"#utility.yul\":5797:5860   */\n      tag_44\n      jump\t// in\n    tag_127:\n        /* \"#utility.yul\":5787:5860   */\n      swap2\n      pop\n        /* \"#utility.yul\":5583:5870   */\n      pop\n        /* \"#utility.yul\":5368:5877   */\n      swap3\n      swap2\n      pop\n      pop\n      jump\t// out\n        /* \"#utility.yul\":5883:6063   */\n    tag_45:\n        /* \"#utility.yul\":5931:6008   */\n      0x4e487b7100000000000000000000000000000000000000000000000000000000\n        /* \"#utility.yul\":5928:5929   */\n      0x00\n        /* \"#utility.yul\":5921:6009   */\n      mstore\n        /* \"#utility.yul\":6028:6032   */\n      0x22\n        /* \"#utility.yul\":6025:6026   */\n      0x04\n        /* \"#utility.yul\":6018:6033   */\n      mstore\n        /* \"#utility.yul\":6052:6056   */\n      0x24\n        /* \"#utility.yul\":6049:6050   */\n      0x00\n        /* \"#utility.yul\":6042:6057   */\n      revert\n        /* \"#utility.yul\":6069:6389   */\n    tag_46:\n        /* \"#utility.yul\":6113:6119   */\n      0x00\n        /* \"#utility.yul\":6150:6151   */\n      0x02\n        /* \"#utility.yul\":6144:6148   */\n      dup3\n        /* \"#utility.yul\":6140:6152   */\n      div\n        /* \"#utility.yul\":6130:6152   */\n      swap1\n      pop\n        /* \"#utility.yul\":6197:6198   */\n      0x01\n        /* \"#utility.yul\":6191:6195   */\n      dup3\n        /* \"#utility.yul\":6187:6199   */\n      and\n        /* \"#utility.yul\":6218:6236   */\n      dup1\n        /* \"#utility.yul\":6208:6289   */\n      tag_130\n      jumpi\n        /* \"#utility.yul\":6274:6278   */\n      0x7f\n        /* \"#utility.yul\":6266:6272   */\n      dup3\n        /* \"#utility.yul\":6262:6279   */\n      and\n        /* \"#utility.yul\":6252:6279   */\n      swap2\n      pop\n        /* \"#utility.yul\":6208:6289   */\n    tag_130:\n        /* \"#utility.yul\":6336:6338   */\n      0x20\n        /* \"#utility.yul\":6328:6334   */\n      dup3\n        /* \"#utility.yul\":6325:6339   */\n      lt\n        /* \"#utility.yul\":6305:6323   */\n      dup2\n        /* \"#utility.yul\":6302:6340   */\n      sub\n        /* \"#utility.yul\":6299:6383   */\n      tag_131\n      jumpi\n        /* \"#utility.yul\":6355:6373   */\n      tag_132\n      tag_45\n      jump\t// in\n    tag_132:\n        /* \"#utility.yul\":6299:6383   */\n    tag_131:\n        /* \"#utility.yul\":6120:6389   */\n      pop\n        /* \"#utility.yul\":6069:6389   */\n      swap2\n      swap1\n      pop\n      jump\t// out\n        /* \"#utility.yul\":6395:6536   */\n    tag_47:\n        /* \"#utility.yul\":6444:6448   */\n      0x00\n        /* \"#utility.yul\":6467:6470   */\n      dup2\n        /* \"#utility.yul\":6459:6470   */\n      swap1\n      pop\n        /* \"#utility.yul\":6490:6493   */\n      dup2\n        /* \"#utility.yul\":6487:6488   */\n      0x00\n        /* \"#utility.yul\":6480:6494   */\n      mstore\n        /* \"#utility.yul\":6524:6528   */\n      0x20\n        /* \"#utility.yul\":6521:6522   */\n      0x00\n        /* \"#utility.yul\":6511:6529   */\n      keccak256\n        /* \"#utility.yul\":6503:6529   */\n      swap1\n      pop\n        /* \"#utility.yul\":6395:6536   */\n      swap2\n      swap1\n      pop\n      jump\t// out\n        /* \"#utility.yul\":6542:6635   */\n    tag_48:\n        /* \"#utility.yul\":6579:6585   */\n      0x00\n        /* \"#utility.yul\":6626:6628   */\n      0x20\n        /* \"#utility.yul\":6621:6623   */\n      0x1f\n        /* \"#utility.yul\":6614:6619   */\n      dup4\n        /* \"#utility.yul\":6610:6624   */\n      add\n        /* \"#utility.yul\":6606:6629   */\n      div\n        /* \"#utility.yul\":6596:6629   */\n      swap1\n      pop\n        /* \"#utility.yul\":6542:6635   */\n      swap2\n      swap1\n      pop\n      jump\t// out\n        /* \"#utility.yul\":6641:6748   */\n    tag_49:\n        /* \"#utility.yul\":6685:6693   */\n      0x00\n        /* \"#utility.yul\":6735:6740   */\n      dup3\n        /* \"#utility.yul\":6729:6733   */\n      dup3\n        /* \"#utility.yul\":6725:6741   */\n      shl\n        /* \"#utility.yul\":6704:6741   */\n      swap1\n      pop\n        /* \"#utility.yul\":6641:6748   */\n      swap3\n      swap2\n      pop\n      pop\n      jump\t// out\n        /* \"#utility.yul\":6754:7147   */\n    tag_50:\n        /* \"#utility.yul\":6823:6829   */\n      0x00\n        /* \"#utility.yul\":6873:6874   */\n      0x08\n        /* \"#utility.yul\":6861:6871   */\n      dup4\n        /* \"#utility.yul\":6857:6875   */\n      mul\n        /* \"#utility.yul\":6896:6993   */\n      tag_137\n        /* \"#utility.yul\":6926:6992   */\n      0xffffffffffffffffffffffffffffffffffffffffffffffffffffffffffffffff\n        /* \"#utility.yul\":6915:6924   */\n      dup3\n        /* \"#utility.yul\":6896:6993   */\n      tag_49\n      jump\t// in\n    tag_137:\n        /* \"#utility.yul\":7014:7053   */\n      tag_138\n        /* \"#utility.yul\":7044:7052   */\n      dup7\n        /* \"#utility.yul\":7033:7042   */\n      dup4\n        /* \"#utility.yul\":7014:7053   */\n      tag_49\n      jump\t// in\n    tag_138:\n        /* \"#utility.yul\":7002:7053   */\n      swap6\n      pop\n        /* \"#utility.yul\":7086:7090   */\n      dup1\n        /* \"#utility.yul\":7082:7091   */\n      not\n        /* \"#utility.yul\":7075:7080   */\n      dup5\n        /* \"#utility.yul\":7071:7092   */\n      and\n        /* \"#utility.yul\":7062:7092   */\n      swap4\n      pop\n        /* \"#utility.yul\":7135:7139   */\n      dup1\n        /* \"#utility.yul\":7125:7133   */\n      dup7\n        /* \"#utility.yul\":7121:7140   */\n      and\n        /* \"#utility.yul\":7114:7119   */\n      dup5\n        /* \"#utility.yul\":7111:7141   */\n      or\n        /* \"#utility.yul\":7101:7141   */\n      swap3\n      pop\n        /* \"#utility.yul\":6830:7147   */\n      pop\n      pop\n        /* \"#utility.yul\":6754:7147   */\n      swap4\n      swap3\n      pop\n      pop\n      pop\n      jump\t// out\n        /* \"#utility.yul\":7153:7213   */\n    tag_51:\n        /* \"#utility.yul\":7181:7184   */\n      0x00\n        /* \"#utility.yul\":7202:7207   */\n      dup2\n        /* \"#utility.yul\":7195:7207   */\n      swap1\n      pop\n        /* \"#utility.yul\":7153:7213   */\n      swap2\n      swap1\n      pop\n      jump\t// out\n        /* \"#utility.yul\":7219:7361   */\n    tag_52:\n        /* \"#utility.yul\":7269:7278   */\n      0x00\n        /* \"#utility.yul\":7302:7355   */\n      tag_141\n        /* \"#utility.yul\":7320:7354   */\n      tag_142\n        /* \"#utility.yul\":7329:7353   */\n      tag_143\n        /* \"#utility.yul\":7347:7352   */\n      dup5\n        /* \"#utility.yul\":7329:7353   */\n      tag_25\n      jump\t// in\n    tag_143:\n        /* \"#utility.yul\":7320:7354   */\n      tag_51\n      jump\t// in\n    tag_142:\n        /* \"#utility.yul\":7302:7355   */\n      tag_25\n      jump\t// in\n    tag_141:\n        /* \"#utility.yul\":7289:7355   */\n      swap1\n      pop\n        /* \"#utility.yul\":7219:7361   */\n      swap2\n      swap1\n      pop\n      jump\t// out\n        /* \"#utility.yul\":7367:7442   */\n    tag_53:\n        /* \"#utility.yul\":7410:7413   */\n      0x00\n        /* \"#utility.yul\":7431:7436   */\n      dup2\n        /* \"#utility.yul\":7424:7436   */\n      swap1\n      pop\n        /* \"#utility.yul\":7367:7442   */\n      swap2\n      swap1\n      pop\n      jump\t// out\n        /* \"#utility.yul\":7448:7717   */\n    tag_54:\n        /* \"#utility.yul\":7558:7597   */\n      tag_146\n        /* \"#utility.yul\":7589:7596   */\n      dup4\n        /* \"#utility.yul\":7558:7597   */\n      tag_52\n      jump\t// in\n    tag_146:\n        /* \"#utility.yul\":7619:7710   */\n      tag_147\n        /* \"#utility.yul\":7668:7709   */\n      tag_148\n        /* \"#utility.yul\":7692:7708   */\n      dup3\n        /* \"#utility.yul\":7668:7709   */\n      tag_53\n      jump\t// in\n    tag_148:\n        /* \"#utility.yul\":7660:7666   */\n      dup5\n        /* \"#utility.yul\":7653:7657   */\n      dup5\n        /* \"#utility.yul\":7647:7658   */\n      sload\n        /* \"#utility.yul\":7619:7710   */\n      tag_50\n      jump\t// in\n    tag_147:\n        /* \"#utility.yul\":7613:7617   */\n      dup3\n        /* \"#utility.yul\":7606:7711   */\n      sstore\n        /* \"#utility.yul\":7524:7717   */\n      pop\n        /* \"#utility.yul\":7448:7717   */\n      pop\n      pop\n      pop\n      jump\t// out\n        /* \"#utility.yul\":7723:7796   */\n    tag_55:\n        /* \"#utility.yul\":7768:7771   */\n      0x00\n        /* \"#utility.yul\":7723:7796   */\n      swap1\n      jump\t// out\n        /* \"#utility.yul\":7802:7991   */\n    tag_56:\n        /* \"#utility.yul\":7879:7911   */\n      tag_151\n      tag_55\n      jump\t// in\n    tag_151:\n        /* \"#utility.yul\":7920:7985   */\n      tag_152\n        /* \"#utility.yul\":7978:7984   */\n      dup2\n        /* \"#utility.yul\":7970:7976   */\n      dup5\n        /* \"#utility.yul\":7964:7968   */\n      dup5\n        /* \"#utility.yul\":7920:7985   */\n      tag_54\n      jump\t// in\n    tag_152:\n        /* \"#utility.yul\":7855:7991   */\n      pop\n        /* \"#utility.yul\":7802:7991   */\n      pop\n      pop\n      jump\t// out\n        /* \"#utility.yul\":7997:8183   */\n    tag_57:\n        /* \"#utility.yul\":8057:8177   */\n    tag_154:\n        /* \"#utility.yul\":8074:8077   */\n      dup2\n        /* \"#utility.yul\":8067:8072   */\n      dup2\n        /* \"#utility.yul\":8064:8078   */\n      lt\n        /* \"#utility.yul\":8057:8177   */\n      iszero\n      tag_156\n      jumpi\n        /* \"#utility.yul\":8128:8167   */\n      tag_157\n        /* \"#utility.yul\":8165:8166   */\n      0x00\n        /* \"#utility.yul\":8158:8163   */\n      dup3\n        /* \"#utility.yul\":8128:8167   */\n      tag_56\n      jump\t// in\n    tag_157:\n        /* \"#utility.yul\":8101:8102   */\n      0x01\n        /* \"#utility.yul\":8094:8099   */\n      dup2\n        /* \"#utility.yul\":8090:8103   */\n      add\n        /* \"#utility.yul\":8081:8103   */\n      swap1\n      pop\n        /* \"#utility.yul\":8057:8177   */\n      jump(tag_154)\n    tag_156:\n        /* \"#utility.yul\":7997:8183   */\n      pop\n      pop\n      jump\t// out\n        /* \"#utility.yul\":8189:8732   */\n    tag_58:\n        /* \"#utility.yul\":8290:8292   */\n      0x1f\n        /* \"#utility.yul\":8285:8288   */\n      dup3\n        /* \"#utility.yul\":8282:8293   */\n      gt\n        /* \"#utility.yul\":8279:8725   */\n      iszero\n      tag_159\n      jumpi\n        /* \"#utility.yul\":8324:8362   */\n      tag_160\n        /* \"#utility.yul\":8356:8361   */\n      dup2\n        /* \"#utility.yul\":8324:8362   */\n      tag_47\n      jump\t// in\n    tag_160:\n        /* \"#utility.yul\":8408:8437   */\n      tag_161\n        /* \"#utility.yul\":8426:8436   */\n      dup5\n        /* \"#utility.yul\":8408:8437   */\n      tag_48\n      jump\t// in\n    tag_161:\n        /* \"#utility.yul\":8398:8406   */\n      dup2\n        /* \"#utility.yul\":8394:8438   */\n      add\n        /* \"#utility.yul\":8591:8593   */\n      0x20\n        /* \"#utility.yul\":8579:8589   */\n      dup6\n        /* \"#utility.yul\":8576:8594   */\n      lt\n        /* \"#utility.yul\":8573:8622   */\n      iszero\n      tag_162\n      jumpi\n        /* \"#utility.yul\":8612:8620   */\n      dup2\n        /* \"#utility.yul\":8597:8620   */\n      swap1\n      pop\n        /* \"#utility.yul\":8573:8622   */\n    tag_162:\n        /* \"#utility.yul\":8635:8715   */\n      tag_163\n        /* \"#utility.yul\":8691:8713   */\n      tag_164\n        /* \"#utility.yul\":8709:8712   */\n      dup6\n        /* \"#utility.yul\":8691:8713   */\n      tag_48\n      jump\t// in\n    tag_164:\n        /* \"#utility.yul\":8681:8689   */\n      dup4\n        /* \"#utility.yul\":8677:8714   */\n      add\n        /* \"#utility.yul\":8664:8675   */\n      dup3\n        /* \"#utility.yul\":8635:8715   */\n      tag_57\n      jump\t// in\n    tag_163:\n        /* \"#utility.yul\":8294:8725   */\n      pop\n      pop\n        /* \"#utility.yul\":8279:8725   */\n    tag_159:\n        /* \"#utility.yul\":8189:8732   */\n      pop\n      pop\n      pop\n      jump\t// out\n        /* \"#utility.yul\":8738:8855   */\n    tag_59:\n        /* \"#utility.yul\":8792:8800   */\n      0x00\n        /* \"#utility.yul\":8842:8847   */\n      dup3\n        /* \"#utility.yul\":8836:8840   */\n      dup3\n        /* \"#utility.yul\":8832:8848   */\n      shr\n        /* \"#utility.yul\":8811:8848   */\n      swap1\n      pop\n        /* \"#utility.yul\":8738:8855   */\n      swap3\n      swap2\n      pop\n      pop\n      jump\t// out\n        /* \"#utility.yul\":8861:9030   */\n    tag_60:\n        /* \"#utility.yul\":8905:8911   */\n      0x00\n        /* \"#utility.yul\":8938:8989   */\n      tag_167\n        /* \"#utility.yul\":8986:8987   */\n      0x00\n        /* \"#utility.yul\":8982:8988   */\n      not\n        /* \"#utility.yul\":8974:8979   */\n      dup5\n        /* \"#utility.yul\":8971:8972   */\n      0x08\n        /* \"#utility.yul\":8967:8980   */\n      mul\n        /* \"#utility.yul\":8938:8989   */\n      tag_59\n      jump\t// in\n    tag_167:\n        /* \"#utility.yul\":8934:8990   */\n      not\n        /* \"#utility.yul\":9019:9023   */\n      dup1\n        /* \"#utility.yul\":9013:9017   */\n      dup4\n        /* \"#utility.yul\":9009:9024   */\n      and\n        /* \"#utility.yul\":8999:9024   */\n      swap2\n      pop\n        /* \"#utility.yul\":8912:9030   */\n      pop\n        /* \"#utility.yul\":8861:9030   */\n      swap3\n      swap2\n      pop\n      pop\n      jump\t// out\n        /* \"#utility.yul\":9035:9330   */\n    tag_61:\n        /* \"#utility.yul\":9111:9115   */\n      0x00\n        /* \"#utility.yul\":9257:9286   */\n      tag_169\n        /* \"#utility.yul\":9282:9285   */\n      dup4\n        /* \"#utility.yul\":9276:9280   */\n      dup4\n        /* \"#utility.yul\":9257:9286   */\n      tag_60\n      jump\t// in\n    tag_169:\n        /* \"#utility.yul\":9249:9286   */\n      swap2\n      pop\n        /* \"#utility.yul\":9319:9322   */\n      dup3\n        /* \"#utility.yul\":9316:9317   */\n      0x02\n        /* \"#utility.yul\":9312:9323   */\n      mul\n        /* \"#utility.yul\":9306:9310   */\n      dup3\n        /* \"#utility.yul\":9303:9324   */\n      or\n        /* \"#utility.yul\":9295:9324   */\n      swap1\n      pop\n        /* \"#utility.yul\":9035:9330   */\n      swap3\n      swap2\n      pop\n      pop\n      jump\t// out\n        /* \"#utility.yul\":9335:10730   */\n    tag_21:\n        /* \"#utility.yul\":9452:9489   */\n      tag_171\n        /* \"#utility.yul\":9485:9488   */\n      dup3\n        /* \"#utility.yul\":9452:9489   */\n      tag_28\n      jump\t// in\n    tag_171:\n        /* \"#utility.yul\":9554:9572   */\n      0xffffffffffffffff\n        /* \"#utility.yul\":9546:9552   */\n      dup2\n        /* \"#utility.yul\":9543:9573   */\n      gt\n        /* \"#utility.yul\":9540:9596   */\n      iszero\n      tag_172\n      jumpi\n        /* \"#utility.yul\":9576:9594   */\n      tag_173\n      tag_38\n      jump\t// in\n    tag_173:\n        /* \"#utility.yul\":9540:9596   */\n    tag_172:\n        /* \"#utility.yul\":9620:9658   */\n      tag_174\n        /* \"#utility.yul\":9652:9656   */\n      dup3\n        /* \"#utility.yul\":9646:9657   */\n      sload\n        /* \"#utility.yul\":9620:9658   */\n      tag_46\n      jump\t// in\n    tag_174:\n        /* \"#utility.yul\":9705:9772   */\n      tag_175\n        /* \"#utility.yul\":9765:9771   */\n      dup3\n        /* \"#utility.yul\":9757:9763   */\n      dup3\n        /* \"#utility.yul\":9751:9755   */\n      dup6\n        /* \"#utility.yul\":9705:9772   */\n      tag_58\n      jump\t// in\n    tag_175:\n        /* \"#utility.yul\":9799:9800   */\n      0x00\n        /* \"#utility.yul\":9823:9827   */\n      0x20\n        /* \"#utility.yul\":9810:9827   */\n      swap1\n      pop\n        /* \"#utility.yul\":9855:9857   */\n      0x1f\n        /* \"#utility.yul\":9847:9853   */\n      dup4\n        /* \"#utility.yul\":9844:9858   */\n      gt\n        /* \"#utility.yul\":9872:9873   */\n      0x01\n        /* \"#utility.yul\":9867:10485   */\n      dup2\n      eq\n      tag_177\n      jumpi\n        /* \"#utility.yul\":10529:10530   */\n      0x00\n        /* \"#utility.yul\":10546:10552   */\n      dup5\n        /* \"#utility.yul\":10543:10620   */\n      iszero\n      tag_178\n      jumpi\n        /* \"#utility.yul\":10595:10604   */\n      dup3\n        /* \"#utility.yul\":10590:10593   */\n      dup8\n        /* \"#utility.yul\":10586:10605   */\n      add\n        /* \"#utility.yul\":10580:10606   */\n      mload\n        /* \"#utility.yul\":10571:10606   */\n      swap1\n      pop\n        /* \"#utility.yul\":10543:10620   */\n    tag_178:\n        /* \"#utility.yul\":10646:10713   */\n      tag_179\n        /* \"#utility.yul\":10706:10712   */\n      dup6\n        /* \"#utility.yul\":10699:10704   */\n      dup3\n        /* \"#utility.yul\":10646:10713   */\n      tag_61\n      jump\t// in\n    tag_179:\n        /* \"#utility.yul\":10640:10644   */\n      dup7\n        /* \"#utility.yul\":10633:10714   */\n      sstore\n        /* \"#utility.yul\":10502:10724   */\n      pop\n        /* \"#utility.yul\":9837:10724   */\n      jump(tag_176)\n        /* \"#utility.yul\":9867:10485   */\n    tag_177:\n        /* \"#utility.yul\":9919:9923   */\n      0x1f\n        /* \"#utility.yul\":9915:9924   */\n      not\n        /* \"#utility.yul\":9907:9913   */\n      dup5\n        /* \"#utility.yul\":9903:9925   */\n      and\n        /* \"#utility.yul\":9953:9990   */\n      tag_180\n        /* \"#utility.yul\":9985:9989   */\n      dup7\n        /* \"#utility.yul\":9953:9990   */\n      tag_47\n      jump\t// in\n    tag_180:\n        /* \"#utility.yul\":10012:10013   */\n      0x00\n        /* \"#utility.yul\":10026:10234   */\n    tag_181:\n        /* \"#utility.yul\":10040:10047   */\n      dup3\n        /* \"#utility.yul\":10037:10038   */\n      dup2\n        /* \"#utility.yul\":10034:10048   */\n      lt\n        /* \"#utility.yul\":10026:10234   */\n      iszero\n      tag_183\n      jumpi\n        /* \"#utility.yul\":10119:10128   */\n      dup5\n        /* \"#utility.yul\":10114:10117   */\n      dup10\n        /* \"#utility.yul\":10110:10129   */\n      add\n        /* \"#utility.yul\":10104:10130   */\n      mload\n        /* \"#utility.yul\":10096:10102   */\n      dup3\n        /* \"#utility.yul\":10089:10131   */\n      sstore\n        /* \"#utility.yul\":10170:10171   */\n      0x01\n        /* \"#utility.yul\":10162:10168   */\n      dup3\n        /* \"#utility.yul\":10158:10172   */\n      add\n        /* \"#utility.yul\":10148:10172   */\n      swap2\n      pop\n        /* \"#utility.yul\":10217:10219   */\n      0x20\n        /* \"#utility.yul\":10206:10215   */\n      dup6\n        /* \"#utility.yul\":10202:10220   */\n      add\n        /* \"#utility.yul\":10189:10220   */\n      swap5\n      pop\n        /* \"#utility.yul\":10063:10067   */\n      0x20\n        /* \"#utility.yul\":10060:10061   */\n      dup2\n        /* \"#utility.yul\":10056:10068   */\n      add\n        /* \"#utility.yul\":10051:10068   */\n      swap1\n      pop\n        /* \"#utility.yul\":10026:10234   */\n      jump(tag_181)\n    tag_183:\n        /* \"#utility.yul\":10262:10268   */\n      dup7\n        /* \"#utility.yul\":10253:10260   */\n      dup4\n        /* \"#utility.yul\":10250:10269   */\n      lt\n        /* \"#utility.yul\":10247:10426   */\n      iszero\n      tag_184\n      jumpi\n        /* \"#utility.yul\":10320:10329   */\n      dup5\n        /* \"#utility.yul\":10315:10318   */\n      dup10\n        /* \"#utility.yul\":10311:10330   */\n      add\n        /* \"#utility.yul\":10305:10331   */\n      mload\n        /* \"#utility.yul\":10363:10411   */\n      tag_185\n        /* \"#utility.yul\":10405:10409   */\n      0x1f\n        /* \"#utility.yul\":10397:10403   */\n      dup10\n        /* \"#utility.yul\":10393:10410   */\n      and\n        /* \"#utility.yul\":10382:10391   */\n      dup3\n        /* \"#utility.yul\":10363:10411   */\n      tag_60\n      jump\t// in\n    tag_185:\n        /* \"#utility.yul\":10355:10361   */\n      dup4\n        /* \"#utility.yul\":10348:10412   */\n      sstore\n        /* \"#utility.yul\":10270:10426   */\n      pop\n        /* \"#utility.yul\":10247:10426   */\n    tag_184:\n        /* \"#utility.yul\":10472:10473   */\n      0x01\n        /* \"#utility.yul\":10468:10469   */\n      0x02\n        /* \"#utility.yul\":10460:10466   */\n      dup9\n        /* \"#utility.yul\":10456:10470   */\n      mul\n        /* \"#utility.yul\":10452:10474   */\n      add\n        /* \"#utility.yul\":10446:10450   */\n      dup9\n        /* \"#utility.yul\":10439:10475   */\n      sstore\n        /* \"#utility.yul\":9874:10485   */\n      pop\n      pop\n      pop\n        /* \"#utility.yul\":9837:10724   */\n    tag_176:\n      pop\n        /* \"#utility.yul\":9427:10730   */\n      pop\n      pop\n      pop\n        /* \"#utility.yul\":9335:10730   */\n      pop\n      pop\n      jump\t// out\n\n    auxdata: 0xa2646970667358221220fee3f40da06479d4aa4708a6a8f8448e94bcd024a27ca8f684be4d5a4b42f86264736f6c634300080f0033\n}\n",
				"bytecode": {
					"linkReferences": {},
					"object": "608060405234801561001057600080fd5b50610787806100206000396000f3fe608060405234801561001057600080fd5b50600436106100365760003560e01c80631d65e77e1461003b578063672385621461006b575b600080fd5b610055600480360381019061005091906101b5565b610087565b60405161006291906102d3565b60405180910390f35b6100856004803603810190610080919061042a565b610094565b005b61008f61014f565b919050565b600160003373ffffffffffffffffffffffffffffffffffffffff1673ffffffffffffffffffffffffffffffffffffffff16815260200190815260200160002060405180604001604052808381526020016000151581525090806001815401808255809150506001900390600052602060002090600202016000909190919091506000820151816000019081610129919061067f565b5060208201518160010160006101000a81548160ff021916908315150217905550505050565b6040518060400160405280606081526020016000151581525090565b6000604051905090565b600080fd5b600080fd5b6000819050919050565b6101928161017f565b811461019d57600080fd5b50565b6000813590506101af81610189565b92915050565b6000602082840312156101cb576101ca610175565b5b60006101d9848285016101a0565b91505092915050565b600081519050919050565b600082825260208201905092915050565b60005b8381101561021c578082015181840152602081019050610201565b8381111561022b576000848401525b50505050565b6000601f19601f8301169050919050565b600061024d826101e2565b61025781856101ed565b93506102678185602086016101fe565b61027081610231565b840191505092915050565b60008115159050919050565b6102908161027b565b82525050565b600060408301600083015184820360008601526102b38282610242565b91505060208301516102c86020860182610287565b508091505092915050565b600060208201905081810360008301526102ed8184610296565b905092915050565b600080fd5b600080fd5b7f4e487b7100000000000000000000000000000000000000000000000000000000600052604160045260246000fd5b61033782610231565b810181811067ffffffffffffffff82111715610356576103556102ff565b5b80604052505050565b600061036961016b565b9050610375828261032e565b919050565b600067ffffffffffffffff821115610395576103946102ff565b5b61039e82610231565b9050602081019050919050565b82818337600083830152505050565b60006103cd6103c88461037a565b61035f565b9050828152602081018484840111156103e9576103e86102fa565b5b6103f48482856103ab565b509392505050565b600082601f830112610411576104106102f5565b5b81356104218482602086016103ba565b91505092915050565b6000602082840312156104405761043f610175565b5b600082013567ffffffffffffffff81111561045e5761045d61017a565b5b61046a848285016103fc565b91505092915050565b7f4e487b7100000000000000000000000000000000000000000000000000000000600052602260045260246000fd5b600060028204905060018216806104ba57607f821691505b6020821081036104cd576104cc610473565b5b50919050565b60008190508160005260206000209050919050565b60006020601f8301049050919050565b600082821b905092915050565b6000600883026105357fffffffffffffffffffffffffffffffffffffffffffffffffffffffffffffffff826104f8565b61053f86836104f8565b95508019841693508086168417925050509392505050565b6000819050919050565b600061057c6105776105728461017f565b610557565b61017f565b9050919050565b6000819050919050565b61059683610561565b6105aa6105a282610583565b848454610505565b825550505050565b600090565b6105bf6105b2565b6105ca81848461058d565b505050565b5b818110156105ee576105e36000826105b7565b6001810190506105d0565b5050565b601f82111561063357610604816104d3565b61060d846104e8565b8101602085101561061c578190505b610630610628856104e8565b8301826105cf565b50505b505050565b600082821c905092915050565b600061065660001984600802610638565b1980831691505092915050565b600061066f8383610645565b9150826002028217905092915050565b610688826101e2565b67ffffffffffffffff8111156106a1576106a06102ff565b5b6106ab82546104a2565b6106b68282856105f2565b600060209050601f8311600181146106e957600084156106d7578287015190505b6106e18582610663565b865550610749565b601f1984166106f7866104d3565b60005b8281101561071f578489015182556001820191506020850194506020810190506106fa565b8683101561073c5784890151610738601f891682610645565b8355505b6001600288020188555050505b50505050505056fea2646970667358221220fee3f40da06479d4aa4708a6a8f8448e94bcd024a27ca8f684be4d5a4b42f86264736f6c634300080f0033",
					"opcodes": "PUSH1 0x80 PUSH1 0x40 MSTORE CALLVALUE DUP1 ISZERO PUSH2 0x10 JUMPI PUSH1 0x0 DUP1 REVERT JUMPDEST POP PUSH2 0x787 DUP1 PUSH2 0x20 PUSH1 0x0 CODECOPY PUSH1 0x0 RETURN INVALID PUSH1 0x80 PUSH1 0x40 MSTORE CALLVALUE DUP1 ISZERO PUSH2 0x10 JUMPI PUSH1 0x0 DUP1 REVERT JUMPDEST POP PUSH1 0x4 CALLDATASIZE LT PUSH2 0x36 JUMPI PUSH1 0x0 CALLDATALOAD PUSH1 0xE0 SHR DUP1 PUSH4 0x1D65E77E EQ PUSH2 0x3B JUMPI DUP1 PUSH4 0x67238562 EQ PUSH2 0x6B JUMPI JUMPDEST PUSH1 0x0 DUP1 REVERT JUMPDEST PUSH2 0x55 PUSH1 0x4 DUP1 CALLDATASIZE SUB DUP2 ADD SWAP1 PUSH2 0x50 SWAP2 SWAP1 PUSH2 0x1B5 JUMP JUMPDEST PUSH2 0x87 JUMP JUMPDEST PUSH1 0x40 MLOAD PUSH2 0x62 SWAP2 SWAP1 PUSH2 0x2D3 JUMP JUMPDEST PUSH1 0x40 MLOAD DUP1 SWAP2 SUB SWAP1 RETURN JUMPDEST PUSH2 0x85 PUSH1 0x4 DUP1 CALLDATASIZE SUB DUP2 ADD SWAP1 PUSH2 0x80 SWAP2 SWAP1 PUSH2 0x42A JUMP JUMPDEST PUSH2 0x94 JUMP JUMPDEST STOP JUMPDEST PUSH2 0x8F PUSH2 0x14F JUMP JUMPDEST SWAP2 SWAP1 POP JUMP JUMPDEST PUSH1 0x1 PUSH1 0x0 CALLER PUSH20 0xFFFFFFFFFFFFFFFFFFFFFFFFFFFFFFFFFFFFFFFF AND PUSH20 0xFFFFFFFFFFFFFFFFFFFFFFFFFFFFFFFFFFFFFFFF AND DUP2 MSTORE PUSH1 0x20 ADD SWAP1 DUP2 MSTORE PUSH1 0x20 ADD PUSH1 0x0 KECCAK256 PUSH1 0x40 MLOAD DUP1 PUSH1 0x40 ADD PUSH1 0x40 MSTORE DUP1 DUP4 DUP2 MSTORE PUSH1 0x20 ADD PUSH1 0x0 ISZERO ISZERO DUP2 MSTORE POP SWAP1 DUP1 PUSH1 0x1 DUP2 SLOAD ADD DUP1 DUP3 SSTORE DUP1 SWAP2 POP POP PUSH1 0x1 SWAP1 SUB SWAP1 PUSH1 0x0 MSTORE PUSH1 0x20 PUSH1 0x0 KECCAK256 SWAP1 PUSH1 0x2 MUL ADD PUSH1 0x0 SWAP1 SWAP2 SWAP1 SWAP2 SWAP1 SWAP2 POP PUSH1 0x0 DUP3 ADD MLOAD DUP2 PUSH1 0x0 ADD SWAP1 DUP2 PUSH2 0x129 SWAP2 SWAP1 PUSH2 0x67F JUMP JUMPDEST POP PUSH1 0x20 DUP3 ADD MLOAD DUP2 PUSH1 0x1 ADD PUSH1 0x0 PUSH2 0x100 EXP DUP2 SLOAD DUP2 PUSH1 0xFF MUL NOT AND SWAP1 DUP4 ISZERO ISZERO MUL OR SWAP1 SSTORE POP POP POP POP JUMP JUMPDEST PUSH1 0x40 MLOAD DUP1 PUSH1 0x40 ADD PUSH1 0x40 MSTORE DUP1 PUSH1 0x60 DUP2 MSTORE PUSH1 0x20 ADD PUSH1 0x0 ISZERO ISZERO DUP2 MSTORE POP SWAP1 JUMP JUMPDEST PUSH1 0x0 PUSH1 0x40 MLOAD SWAP1 POP SWAP1 JUMP JUMPDEST PUSH1 0x0 DUP1 REVERT JUMPDEST PUSH1 0x0 DUP1 REVERT JUMPDEST PUSH1 0x0 DUP2 SWAP1 POP SWAP2 SWAP1 POP JUMP JUMPDEST PUSH2 0x192 DUP2 PUSH2 0x17F JUMP JUMPDEST DUP2 EQ PUSH2 0x19D JUMPI PUSH1 0x0 DUP1 REVERT JUMPDEST POP JUMP JUMPDEST PUSH1 0x0 DUP2 CALLDATALOAD SWAP1 POP PUSH2 0x1AF DUP2 PUSH2 0x189 JUMP JUMPDEST SWAP3 SWAP2 POP POP JUMP JUMPDEST PUSH1 0x0 PUSH1 0x20 DUP3 DUP5 SUB SLT ISZERO PUSH2 0x1CB JUMPI PUSH2 0x1CA PUSH2 0x175 JUMP JUMPDEST JUMPDEST PUSH1 0x0 PUSH2 0x1D9 DUP5 DUP3 DUP6 ADD PUSH2 0x1A0 JUMP JUMPDEST SWAP2 POP POP SWAP3 SWAP2 POP POP JUMP JUMPDEST PUSH1 0x0 DUP2 MLOAD SWAP1 POP SWAP2 SWAP1 POP JUMP JUMPDEST PUSH1 0x0 DUP3 DUP3 MSTORE PUSH1 0x20 DUP3 ADD SWAP1 POP SWAP3 SWAP2 POP POP JUMP JUMPDEST PUSH1 0x0 JUMPDEST DUP4 DUP2 LT ISZERO PUSH2 0x21C JUMPI DUP1 DUP3 ADD MLOAD DUP2 DUP5 ADD MSTORE PUSH1 0x20 DUP2 ADD SWAP1 POP PUSH2 0x201 JUMP JUMPDEST DUP4 DUP2 GT ISZERO PUSH2 0x22B JUMPI PUSH1 0x0 DUP5 DUP5 ADD MSTORE JUMPDEST POP POP POP POP JUMP JUMPDEST PUSH1 0x0 PUSH1 0x1F NOT PUSH1 0x1F DUP4 ADD AND SWAP1 POP SWAP2 SWAP1 POP JUMP JUMPDEST PUSH1 0x0 PUSH2 0x24D DUP3 PUSH2 0x1E2 JUMP JUMPDEST PUSH2 0x257 DUP2 DUP6 PUSH2 0x1ED JUMP JUMPDEST SWAP4 POP PUSH2 0x267 DUP2 DUP6 PUSH1 0x20 DUP7 ADD PUSH2 0x1FE JUMP JUMPDEST PUSH2 0x270 DUP2 PUSH2 0x231 JUMP JUMPDEST DUP5 ADD SWAP2 POP POP SWAP3 SWAP2 POP POP JUMP JUMPDEST PUSH1 0x0 DUP2 ISZERO ISZERO SWAP1 POP SWAP2 SWAP1 POP JUMP JUMPDEST PUSH2 0x290 DUP2 PUSH2 0x27B JUMP JUMPDEST DUP3 MSTORE POP POP JUMP JUMPDEST PUSH1 0x0 PUSH1 0x40 DUP4 ADD PUSH1 0x0 DUP4 ADD MLOAD DUP5 DUP3 SUB PUSH1 0x0 DUP7 ADD MSTORE PUSH2 0x2B3 DUP3 DUP3 PUSH2 0x242 JUMP JUMPDEST SWAP2 POP POP PUSH1 0x20 DUP4 ADD MLOAD PUSH2 0x2C8 PUSH1 0x20 DUP7 ADD DUP3 PUSH2 0x287 JUMP JUMPDEST POP DUP1 SWAP2 POP POP SWAP3 SWAP2 POP POP JUMP JUMPDEST PUSH1 0x0 PUSH1 0x20 DUP3 ADD SWAP1 POP DUP2 DUP2 SUB PUSH1 0x0 DUP4 ADD MSTORE PUSH2 0x2ED DUP2 DUP5 PUSH2 0x296 JUMP JUMPDEST SWAP1 POP SWAP3 SWAP2 POP POP JUMP JUMPDEST PUSH1 0x0 DUP1 REVERT JUMPDEST PUSH1 0x0 DUP1 REVERT JUMPDEST PUSH32 0x4E487B7100000000000000000000000000000000000000000000000000000000 PUSH1 0x0 MSTORE PUSH1 0x41 PUSH1 0x4 MSTORE PUSH1 0x24 PUSH1 0x0 REVERT JUMPDEST PUSH2 0x337 DUP3 PUSH2 0x231 JUMP JUMPDEST DUP2 ADD DUP2 DUP2 LT PUSH8 0xFFFFFFFFFFFFFFFF DUP3 GT OR ISZERO PUSH2 0x356 JUMPI PUSH2 0x355 PUSH2 0x2FF JUMP JUMPDEST JUMPDEST DUP1 PUSH1 0x40 MSTORE POP POP POP JUMP JUMPDEST PUSH1 0x0 PUSH2 0x369 PUSH2 0x16B JUMP JUMPDEST SWAP1 POP PUSH2 0x375 DUP3 DUP3 PUSH2 0x32E JUMP JUMPDEST SWAP2 SWAP1 POP JUMP JUMPDEST PUSH1 0x0 PUSH8 0xFFFFFFFFFFFFFFFF DUP3 GT ISZERO PUSH2 0x395 JUMPI PUSH2 0x394 PUSH2 0x2FF JUMP JUMPDEST JUMPDEST PUSH2 0x39E DUP3 PUSH2 0x231 JUMP JUMPDEST SWAP1 POP PUSH1 0x20 DUP2 ADD SWAP1 POP SWAP2 SWAP1 POP JUMP JUMPDEST DUP3 DUP2 DUP4 CALLDATACOPY PUSH1 0x0 DUP4 DUP4 ADD MSTORE POP POP POP JUMP JUMPDEST PUSH1 0x0 PUSH2 0x3CD PUSH2 0x3C8 DUP5 PUSH2 0x37A JUMP JUMPDEST PUSH2 0x35F JUMP JUMPDEST SWAP1 POP DUP3 DUP2 MSTORE PUSH1 0x20 DUP2 ADD DUP5 DUP5 DUP5 ADD GT ISZERO PUSH2 0x3E9 JUMPI PUSH2 0x3E8 PUSH2 0x2FA JUMP JUMPDEST JUMPDEST PUSH2 0x3F4 DUP5 DUP3 DUP6 PUSH2 0x3AB JUMP JUMPDEST POP SWAP4 SWAP3 POP POP POP JUMP JUMPDEST PUSH1 0x0 DUP3 PUSH1 0x1F DUP4 ADD SLT PUSH2 0x411 JUMPI PUSH2 0x410 PUSH2 0x2F5 JUMP JUMPDEST JUMPDEST DUP2 CALLDATALOAD PUSH2 0x421 DUP5 DUP3 PUSH1 0x20 DUP7 ADD PUSH2 0x3BA JUMP JUMPDEST SWAP2 POP POP SWAP3 SWAP2 POP POP JUMP JUMPDEST PUSH1 0x0 PUSH1 0x20 DUP3 DUP5 SUB SLT ISZERO PUSH2 0x440 JUMPI PUSH2 0x43F PUSH2 0x175 JUMP JUMPDEST JUMPDEST PUSH1 0x0 DUP3 ADD CALLDATALOAD PUSH8 0xFFFFFFFFFFFFFFFF DUP2 GT ISZERO PUSH2 0x45E JUMPI PUSH2 0x45D PUSH2 0x17A JUMP JUMPDEST JUMPDEST PUSH2 0x46A DUP5 DUP3 DUP6 ADD PUSH2 0x3FC JUMP JUMPDEST SWAP2 POP POP SWAP3 SWAP2 POP POP JUMP JUMPDEST PUSH32 0x4E487B7100000000000000000000000000000000000000000000000000000000 PUSH1 0x0 MSTORE PUSH1 0x22 PUSH1 0x4 MSTORE PUSH1 0x24 PUSH1 0x0 REVERT JUMPDEST PUSH1 0x0 PUSH1 0x2 DUP3 DIV SWAP1 POP PUSH1 0x1 DUP3 AND DUP1 PUSH2 0x4BA JUMPI PUSH1 0x7F DUP3 AND SWAP2 POP JUMPDEST PUSH1 0x20 DUP3 LT DUP2 SUB PUSH2 0x4CD JUMPI PUSH2 0x4CC PUSH2 0x473 JUMP JUMPDEST JUMPDEST POP SWAP2 SWAP1 POP JUMP JUMPDEST PUSH1 0x0 DUP2 SWAP1 POP DUP2 PUSH1 0x0 MSTORE PUSH1 0x20 PUSH1 0x0 KECCAK256 SWAP1 POP SWAP2 SWAP1 POP JUMP JUMPDEST PUSH1 0x0 PUSH1 0x20 PUSH1 0x1F DUP4 ADD DIV SWAP1 POP SWAP2 SWAP1 POP JUMP JUMPDEST PUSH1 0x0 DUP3 DUP3 SHL SWAP1 POP SWAP3 SWAP2 POP POP JUMP JUMPDEST PUSH1 0x0 PUSH1 0x8 DUP4 MUL PUSH2 0x535 PUSH32 0xFFFFFFFFFFFFFFFFFFFFFFFFFFFFFFFFFFFFFFFFFFFFFFFFFFFFFFFFFFFFFFFF DUP3 PUSH2 0x4F8 JUMP JUMPDEST PUSH2 0x53F DUP7 DUP4 PUSH2 0x4F8 JUMP JUMPDEST SWAP6 POP DUP1 NOT DUP5 AND SWAP4 POP DUP1 DUP7 AND DUP5 OR SWAP3 POP POP POP SWAP4 SWAP3 POP POP POP JUMP JUMPDEST PUSH1 0x0 DUP2 SWAP1 POP SWAP2 SWAP1 POP JUMP JUMPDEST PUSH1 0x0 PUSH2 0x57C PUSH2 0x577 PUSH2 0x572 DUP5 PUSH2 0x17F JUMP JUMPDEST PUSH2 0x557 JUMP JUMPDEST PUSH2 0x17F JUMP JUMPDEST SWAP1 POP SWAP2 SWAP1 POP JUMP JUMPDEST PUSH1 0x0 DUP2 SWAP1 POP SWAP2 SWAP1 POP JUMP JUMPDEST PUSH2 0x596 DUP4 PUSH2 0x561 JUMP JUMPDEST PUSH2 0x5AA PUSH2 0x5A2 DUP3 PUSH2 0x583 JUMP JUMPDEST DUP5 DUP5 SLOAD PUSH2 0x505 JUMP JUMPDEST DUP3 SSTORE POP POP POP POP JUMP JUMPDEST PUSH1 0x0 SWAP1 JUMP JUMPDEST PUSH2 0x5BF PUSH2 0x5B2 JUMP JUMPDEST PUSH2 0x5CA DUP2 DUP5 DUP5 PUSH2 0x58D JUMP JUMPDEST POP POP POP JUMP JUMPDEST JUMPDEST DUP2 DUP2 LT ISZERO PUSH2 0x5EE JUMPI PUSH2 0x5E3 PUSH1 0x0 DUP3 PUSH2 0x5B7 JUMP JUMPDEST PUSH1 0x1 DUP2 ADD SWAP1 POP PUSH2 0x5D0 JUMP JUMPDEST POP POP JUMP JUMPDEST PUSH1 0x1F DUP3 GT ISZERO PUSH2 0x633 JUMPI PUSH2 0x604 DUP2 PUSH2 0x4D3 JUMP JUMPDEST PUSH2 0x60D DUP5 PUSH2 0x4E8 JUMP JUMPDEST DUP2 ADD PUSH1 0x20 DUP6 LT ISZERO PUSH2 0x61C JUMPI DUP2 SWAP1 POP JUMPDEST PUSH2 0x630 PUSH2 0x628 DUP6 PUSH2 0x4E8 JUMP JUMPDEST DUP4 ADD DUP3 PUSH2 0x5CF JUMP JUMPDEST POP POP JUMPDEST POP POP POP JUMP JUMPDEST PUSH1 0x0 DUP3 DUP3 SHR SWAP1 POP SWAP3 SWAP2 POP POP JUMP JUMPDEST PUSH1 0x0 PUSH2 0x656 PUSH1 0x0 NOT DUP5 PUSH1 0x8 MUL PUSH2 0x638 JUMP JUMPDEST NOT DUP1 DUP4 AND SWAP2 POP POP SWAP3 SWAP2 POP POP JUMP JUMPDEST PUSH1 0x0 PUSH2 0x66F DUP4 DUP4 PUSH2 0x645 JUMP JUMPDEST SWAP2 POP DUP3 PUSH1 0x2 MUL DUP3 OR SWAP1 POP SWAP3 SWAP2 POP POP JUMP JUMPDEST PUSH2 0x688 DUP3 PUSH2 0x1E2 JUMP JUMPDEST PUSH8 0xFFFFFFFFFFFFFFFF DUP2 GT ISZERO PUSH2 0x6A1 JUMPI PUSH2 0x6A0 PUSH2 0x2FF JUMP JUMPDEST JUMPDEST PUSH2 0x6AB DUP3 SLOAD PUSH2 0x4A2 JUMP JUMPDEST PUSH2 0x6B6 DUP3 DUP3 DUP6 PUSH2 0x5F2 JUMP JUMPDEST PUSH1 0x0 PUSH1 0x20 SWAP1 POP PUSH1 0x1F DUP4 GT PUSH1 0x1 DUP2 EQ PUSH2 0x6E9 JUMPI PUSH1 0x0 DUP5 ISZERO PUSH2 0x6D7 JUMPI DUP3 DUP8 ADD MLOAD SWAP1 POP JUMPDEST PUSH2 0x6E1 DUP6 DUP3 PUSH2 0x663 JUMP JUMPDEST DUP7 SSTORE POP PUSH2 0x749 JUMP JUMPDEST PUSH1 0x1F NOT DUP5 AND PUSH2 0x6F7 DUP7 PUSH2 0x4D3 JUMP JUMPDEST PUSH1 0x0 JUMPDEST DUP3 DUP2 LT ISZERO PUSH2 0x71F JUMPI DUP5 DUP10 ADD MLOAD DUP3 SSTORE PUSH1 0x1 DUP3 ADD SWAP2 POP PUSH1 0x20 DUP6 ADD SWAP5 POP PUSH1 0x20 DUP2 ADD SWAP1 POP PUSH2 0x6FA JUMP JUMPDEST DUP7 DUP4 LT ISZERO PUSH2 0x73C JUMPI DUP5 DUP10 ADD MLOAD PUSH2 0x738 PUSH1 0x1F DUP10 AND DUP3 PUSH2 0x645 JUMP JUMPDEST DUP4 SSTORE POP JUMPDEST PUSH1 0x1 PUSH1 0x2 DUP9 MUL ADD DUP9 SSTORE POP POP POP JUMPDEST POP POP POP POP POP POP JUMP INVALID LOG2 PUSH5 0x6970667358 0x22 SLT KECCAK256 INVALID 0xE3 DELEGATECALL 0xD LOG0 PUSH5 0x79D4AA4708 0xA6 0xA8 0xF8 DIFFICULTY DUP15 SWAP5 0xBC 0xD0 0x24 LOG2 PUSH29 0xA8F684BE4D5A4B42F86264736F6C634300080F00330000000000000000 "
				},
				"gasEstimates": {
					"creation": {
						"codeDepositCost": "385400",
						"executionCost": "424",
						"totalCost": "385824"
					},
					"external": {
						"addTask(string)": "infinite",
						"getTask(uint256)": "infinite"
					}
				},
				"methodIdentifiers": {
					"addTask(string)": "67238562",
					"getTask(uint256)": "1d65e77e"
				}
			},
			"storageLayout": {
				"storage": [
					{
						"astId": 3,
						"contract": "contracts/todo.sol:todo",
						"label": "owner",
						"offset": 0,
						"slot": "0",
						"type": "t_address"
					},
					{
						"astId": 14,
						"contract": "contracts/todo.sol:todo",
						"label": "Users",
						"offset": 0,
						"slot": "1",
						"type": "t_mapping(t_address,t_array(t_struct(Task)8_storage)dyn_storage)"
					}
				],
				"types": {
					"t_address": {
						"encoding": "inplace",
						"label": "address",
						"numberOfBytes": "20"
					},
					"t_array(t_struct(Task)8_storage)dyn_storage": {
						"base": "t_struct(Task)8_storage",
						"encoding": "dynamic_array",
						"label": "struct todo.Task[]",
						"numberOfBytes": "32"
					},
					"t_bool": {
						"encoding": "inplace",
						"label": "bool",
						"numberOfBytes": "1"
					},
					"t_mapping(t_address,t_array(t_struct(Task)8_storage)dyn_storage)": {
						"encoding": "mapping",
						"key": "t_address",
						"label": "mapping(address => struct todo.Task[])",
						"numberOfBytes": "32",
						"value": "t_array(t_struct(Task)8_storage)dyn_storage"
					},
					"t_string_storage": {
						"encoding": "bytes",
						"label": "string",
						"numberOfBytes": "32"
					},
					"t_struct(Task)8_storage": {
						"encoding": "inplace",
						"label": "struct todo.Task",
						"members": [
							{
								"astId": 5,
								"contract": "contracts/todo.sol:todo",
								"label": "task",
								"offset": 0,
								"slot": "0",
								"type": "t_string_storage"
							},
							{
								"astId": 7,
								"contract": "contracts/todo.sol:todo",
								"label": "isDone",
								"offset": 0,
								"slot": "1",
								"type": "t_bool"
							}
						],
						"numberOfBytes": "64"
					}
				}
			},
			"userdoc": {
				"kind": "user",
				"methods": {},
				"version": 1
			}
		}
	}
}