{
	"contracts/todo.sol": {
		"todo": {
			"abi": [
				{
					"inputs": [
						{
							"internalType": "string",
							"name": "_task",
							"type": "string"
						}
					],
					"name": "addTask",
					"outputs": [],
					"stateMutability": "nonpayable",
					"type": "function"
				}
			],
			"devdoc": {
				"kind": "dev",
				"methods": {},
				"version": 1
			},
			"evm": {
				"assembly": "    /* \"contracts/todo.sol\":64:420  contract todo ... */\n  mstore(0x40, 0x80)\n  callvalue\n  dup1\n  iszero\n  tag_1\n  jumpi\n  0x00\n  dup1\n  revert\ntag_1:\n  pop\n  dataSize(sub_0)\n  dup1\n  dataOffset(sub_0)\n  0x00\n  codecopy\n  0x00\n  return\nstop\n\nsub_0: assembly {\n        /* \"contracts/todo.sol\":64:420  contract todo ... */\n      mstore(0x40, 0x80)\n      callvalue\n      dup1\n      iszero\n      tag_1\n      jumpi\n      0x00\n      dup1\n      revert\n    tag_1:\n      pop\n      jumpi(tag_2, lt(calldatasize, 0x04))\n      shr(0xe0, calldataload(0x00))\n      dup1\n      0x67238562\n      eq\n      tag_3\n      jumpi\n    tag_2:\n      0x00\n      dup1\n      revert\n        /* \"contracts/todo.sol\":220:417  function addTask(string memory _task) public {... */\n    tag_3:\n      tag_4\n      0x04\n      dup1\n      calldatasize\n      sub\n      dup2\n      add\n      swap1\n      tag_5\n      swap2\n      swap1\n      tag_6\n      jump\t// in\n    tag_5:\n      tag_7\n      jump\t// in\n    tag_4:\n      stop\n    tag_7:\n        /* \"contracts/todo.sol\":276:292  Task memory task */\n      0x00\n        /* \"contracts/todo.sol\":296:313  Task(_task,false) */\n      mload(0x40)\n      dup1\n      0x40\n      add\n      0x40\n      mstore\n      dup1\n        /* \"contracts/todo.sol\":301:306  _task */\n      dup4\n        /* \"contracts/todo.sol\":296:313  Task(_task,false) */\n      dup2\n      mstore\n      0x20\n      add\n        /* \"contracts/todo.sol\":307:312  false */\n      0x00\n        /* \"contracts/todo.sol\":296:313  Task(_task,false) */\n      iszero\n      iszero\n      dup2\n      mstore\n      pop\n        /* \"contracts/todo.sol\":276:313  Task memory task =  Task(_task,false) */\n      swap1\n      pop\n        /* \"contracts/todo.sol\":324:329  Users */\n      0x01\n        /* \"contracts/todo.sol\":324:341  Users[msg.sender] */\n      0x00\n        /* \"contracts/todo.sol\":330:340  msg.sender */\n      caller\n        /* \"contracts/todo.sol\":324:341  Users[msg.sender] */\n      0xffffffffffffffffffffffffffffffffffffffff\n      and\n      0xffffffffffffffffffffffffffffffffffffffff\n      and\n      dup2\n      mstore\n      0x20\n      add\n      swap1\n      dup2\n      mstore\n      0x20\n      add\n      0x00\n      keccak256\n        /* \"contracts/todo.sol\":347:409  Task({... */\n      mload(0x40)\n      dup1\n      0x40\n      add\n      0x40\n      mstore\n      dup1\n        /* \"contracts/todo.sol\":369:374  _task */\n      dup5\n        /* \"contracts/todo.sol\":347:409  Task({... */\n      dup2\n      mstore\n      0x20\n      add\n        /* \"contracts/todo.sol\":393:398  false */\n      0x00\n        /* \"contracts/todo.sol\":347:409  Task({... */\n      iszero\n      iszero\n      dup2\n      mstore\n      pop\n        /* \"contracts/todo.sol\":324:410  Users[msg.sender].push(Task({... */\n      swap1\n      dup1\n      0x01\n      dup2\n      sload\n      add\n      dup1\n      dup3\n      sstore\n      dup1\n      swap2\n      pop\n      pop\n      0x01\n      swap1\n      sub\n      swap1\n      0x00\n      mstore\n      keccak256(0x00, 0x20)\n      swap1\n      0x02\n      mul\n      add\n      0x00\n      swap1\n      swap2\n      swap1\n      swap2\n      swap1\n      swap2\n      pop\n      0x00\n      dup3\n      add\n      mload\n      dup2\n      0x00\n      add\n      swap1\n      dup2\n      tag_10\n      swap2\n      swap1\n      tag_11\n      jump\t// in\n    tag_10:\n      pop\n      0x20\n      dup3\n      add\n      mload\n      dup2\n      0x01\n      add\n      exp(0x0100, 0x00)\n      dup2\n      sload\n      dup2\n      0xff\n      mul\n      not\n      and\n      swap1\n      dup4\n      iszero\n      iszero\n      mul\n      or\n      swap1\n      sstore\n      pop\n      pop\n      pop\n        /* \"contracts/todo.sol\":265:417  {... */\n      pop\n        /* \"contracts/todo.sol\":220:417  function addTask(string memory _task) public {... */\n      pop\n      jump\t// out\n        /* \"#utility.yul\":7:82   */\n    tag_12:\n        /* \"#utility.yul\":40:46   */\n      0x00\n        /* \"#utility.yul\":73:75   */\n      0x40\n        /* \"#utility.yul\":67:76   */\n      mload\n        /* \"#utility.yul\":57:76   */\n      swap1\n      pop\n        /* \"#utility.yul\":7:82   */\n      swap1\n      jump\t// out\n        /* \"#utility.yul\":88:205   */\n    tag_13:\n        /* \"#utility.yul\":197:198   */\n      0x00\n        /* \"#utility.yul\":194:195   */\n      dup1\n        /* \"#utility.yul\":187:199   */\n      revert\n        /* \"#utility.yul\":211:328   */\n    tag_14:\n        /* \"#utility.yul\":320:321   */\n      0x00\n        /* \"#utility.yul\":317:318   */\n      dup1\n        /* \"#utility.yul\":310:322   */\n      revert\n        /* \"#utility.yul\":334:451   */\n    tag_15:\n        /* \"#utility.yul\":443:444   */\n      0x00\n        /* \"#utility.yul\":440:441   */\n      dup1\n        /* \"#utility.yul\":433:445   */\n      revert\n        /* \"#utility.yul\":457:574   */\n    tag_16:\n        /* \"#utility.yul\":566:567   */\n      0x00\n        /* \"#utility.yul\":563:564   */\n      dup1\n        /* \"#utility.yul\":556:568   */\n      revert\n        /* \"#utility.yul\":580:682   */\n    tag_17:\n        /* \"#utility.yul\":621:627   */\n      0x00\n        /* \"#utility.yul\":672:674   */\n      0x1f\n        /* \"#utility.yul\":668:675   */\n      not\n        /* \"#utility.yul\":663:665   */\n      0x1f\n        /* \"#utility.yul\":656:661   */\n      dup4\n        /* \"#utility.yul\":652:666   */\n      add\n        /* \"#utility.yul\":648:676   */\n      and\n        /* \"#utility.yul\":638:676   */\n      swap1\n      pop\n        /* \"#utility.yul\":580:682   */\n      swap2\n      swap1\n      pop\n      jump\t// out\n        /* \"#utility.yul\":688:868   */\n    tag_18:\n        /* \"#utility.yul\":736:813   */\n      0x4e487b7100000000000000000000000000000000000000000000000000000000\n        /* \"#utility.yul\":733:734   */\n      0x00\n        /* \"#utility.yul\":726:814   */\n      mstore\n        /* \"#utility.yul\":833:837   */\n      0x41\n        /* \"#utility.yul\":830:831   */\n      0x04\n        /* \"#utility.yul\":823:838   */\n      mstore\n        /* \"#utility.yul\":857:861   */\n      0x24\n        /* \"#utility.yul\":854:855   */\n      0x00\n        /* \"#utility.yul\":847:862   */\n      revert\n        /* \"#utility.yul\":874:1155   */\n    tag_19:\n        /* \"#utility.yul\":957:984   */\n      tag_53\n        /* \"#utility.yul\":979:983   */\n      dup3\n        /* \"#utility.yul\":957:984   */\n      tag_17\n      jump\t// in\n    tag_53:\n        /* \"#utility.yul\":949:955   */\n      dup2\n        /* \"#utility.yul\":945:985   */\n      add\n        /* \"#utility.yul\":1087:1093   */\n      dup2\n        /* \"#utility.yul\":1075:1085   */\n      dup2\n        /* \"#utility.yul\":1072:1094   */\n      lt\n        /* \"#utility.yul\":1051:1069   */\n      0xffffffffffffffff\n        /* \"#utility.yul\":1039:1049   */\n      dup3\n        /* \"#utility.yul\":1036:1070   */\n      gt\n        /* \"#utility.yul\":1033:1095   */\n      or\n        /* \"#utility.yul\":1030:1118   */\n      iszero\n      tag_54\n      jumpi\n        /* \"#utility.yul\":1098:1116   */\n      tag_55\n      tag_18\n      jump\t// in\n    tag_55:\n        /* \"#utility.yul\":1030:1118   */\n    tag_54:\n        /* \"#utility.yul\":1138:1148   */\n      dup1\n        /* \"#utility.yul\":1134:1136   */\n      0x40\n        /* \"#utility.yul\":1127:1149   */\n      mstore\n        /* \"#utility.yul\":917:1155   */\n      pop\n        /* \"#utility.yul\":874:1155   */\n      pop\n      pop\n      jump\t// out\n        /* \"#utility.yul\":1161:1290   */\n    tag_20:\n        /* \"#utility.yul\":1195:1201   */\n      0x00\n        /* \"#utility.yul\":1222:1242   */\n      tag_57\n      tag_12\n      jump\t// in\n    tag_57:\n        /* \"#utility.yul\":1212:1242   */\n      swap1\n      pop\n        /* \"#utility.yul\":1251:1284   */\n      tag_58\n        /* \"#utility.yul\":1279:1283   */\n      dup3\n        /* \"#utility.yul\":1271:1277   */\n      dup3\n        /* \"#utility.yul\":1251:1284   */\n      tag_19\n      jump\t// in\n    tag_58:\n        /* \"#utility.yul\":1161:1290   */\n      swap2\n      swap1\n      pop\n      jump\t// out\n        /* \"#utility.yul\":1296:1604   */\n    tag_21:\n        /* \"#utility.yul\":1358:1362   */\n      0x00\n        /* \"#utility.yul\":1448:1466   */\n      0xffffffffffffffff\n        /* \"#utility.yul\":1440:1446   */\n      dup3\n        /* \"#utility.yul\":1437:1467   */\n      gt\n        /* \"#utility.yul\":1434:1490   */\n      iszero\n      tag_60\n      jumpi\n        /* \"#utility.yul\":1470:1488   */\n      tag_61\n      tag_18\n      jump\t// in\n    tag_61:\n        /* \"#utility.yul\":1434:1490   */\n    tag_60:\n        /* \"#utility.yul\":1508:1537   */\n      tag_62\n        /* \"#utility.yul\":1530:1536   */\n      dup3\n        /* \"#utility.yul\":1508:1537   */\n      tag_17\n      jump\t// in\n    tag_62:\n        /* \"#utility.yul\":1500:1537   */\n      swap1\n      pop\n        /* \"#utility.yul\":1592:1596   */\n      0x20\n        /* \"#utility.yul\":1586:1590   */\n      dup2\n        /* \"#utility.yul\":1582:1597   */\n      add\n        /* \"#utility.yul\":1574:1597   */\n      swap1\n      pop\n        /* \"#utility.yul\":1296:1604   */\n      swap2\n      swap1\n      pop\n      jump\t// out\n        /* \"#utility.yul\":1610:1764   */\n    tag_22:\n        /* \"#utility.yul\":1694:1700   */\n      dup3\n        /* \"#utility.yul\":1689:1692   */\n      dup2\n        /* \"#utility.yul\":1684:1687   */\n      dup4\n        /* \"#utility.yul\":1671:1701   */\n      calldatacopy\n        /* \"#utility.yul\":1756:1757   */\n      0x00\n        /* \"#utility.yul\":1747:1753   */\n      dup4\n        /* \"#utility.yul\":1742:1745   */\n      dup4\n        /* \"#utility.yul\":1738:1754   */\n      add\n        /* \"#utility.yul\":1731:1758   */\n      mstore\n        /* \"#utility.yul\":1610:1764   */\n      pop\n      pop\n      pop\n      jump\t// out\n        /* \"#utility.yul\":1770:2182   */\n    tag_23:\n        /* \"#utility.yul\":1848:1853   */\n      0x00\n        /* \"#utility.yul\":1873:1939   */\n      tag_65\n        /* \"#utility.yul\":1889:1938   */\n      tag_66\n        /* \"#utility.yul\":1931:1937   */\n      dup5\n        /* \"#utility.yul\":1889:1938   */\n      tag_21\n      jump\t// in\n    tag_66:\n        /* \"#utility.yul\":1873:1939   */\n      tag_20\n      jump\t// in\n    tag_65:\n        /* \"#utility.yul\":1864:1939   */\n      swap1\n      pop\n        /* \"#utility.yul\":1962:1968   */\n      dup3\n        /* \"#utility.yul\":1955:1960   */\n      dup2\n        /* \"#utility.yul\":1948:1969   */\n      mstore\n        /* \"#utility.yul\":2000:2004   */\n      0x20\n        /* \"#utility.yul\":1993:1998   */\n      dup2\n        /* \"#utility.yul\":1989:2005   */\n      add\n        /* \"#utility.yul\":2038:2041   */\n      dup5\n        /* \"#utility.yul\":2029:2035   */\n      dup5\n        /* \"#utility.yul\":2024:2027   */\n      dup5\n        /* \"#utility.yul\":2020:2036   */\n      add\n        /* \"#utility.yul\":2017:2042   */\n      gt\n        /* \"#utility.yul\":2014:2126   */\n      iszero\n      tag_67\n      jumpi\n        /* \"#utility.yul\":2045:2124   */\n      tag_68\n      tag_16\n      jump\t// in\n    tag_68:\n        /* \"#utility.yul\":2014:2126   */\n    tag_67:\n        /* \"#utility.yul\":2135:2176   */\n      tag_69\n        /* \"#utility.yul\":2169:2175   */\n      dup5\n        /* \"#utility.yul\":2164:2167   */\n      dup3\n        /* \"#utility.yul\":2159:2162   */\n      dup6\n        /* \"#utility.yul\":2135:2176   */\n      tag_22\n      jump\t// in\n    tag_69:\n        /* \"#utility.yul\":1854:2182   */\n      pop\n        /* \"#utility.yul\":1770:2182   */\n      swap4\n      swap3\n      pop\n      pop\n      pop\n      jump\t// out\n        /* \"#utility.yul\":2202:2542   */\n    tag_24:\n        /* \"#utility.yul\":2258:2263   */\n      0x00\n        /* \"#utility.yul\":2307:2310   */\n      dup3\n        /* \"#utility.yul\":2300:2304   */\n      0x1f\n        /* \"#utility.yul\":2292:2298   */\n      dup4\n        /* \"#utility.yul\":2288:2305   */\n      add\n        /* \"#utility.yul\":2284:2311   */\n      slt\n        /* \"#utility.yul\":2274:2396   */\n      tag_71\n      jumpi\n        /* \"#utility.yul\":2315:2394   */\n      tag_72\n      tag_15\n      jump\t// in\n    tag_72:\n        /* \"#utility.yul\":2274:2396   */\n    tag_71:\n        /* \"#utility.yul\":2432:2438   */\n      dup2\n        /* \"#utility.yul\":2419:2439   */\n      calldataload\n        /* \"#utility.yul\":2457:2536   */\n      tag_73\n        /* \"#utility.yul\":2532:2535   */\n      dup5\n        /* \"#utility.yul\":2524:2530   */\n      dup3\n        /* \"#utility.yul\":2517:2521   */\n      0x20\n        /* \"#utility.yul\":2509:2515   */\n      dup7\n        /* \"#utility.yul\":2505:2522   */\n      add\n        /* \"#utility.yul\":2457:2536   */\n      tag_23\n      jump\t// in\n    tag_73:\n        /* \"#utility.yul\":2448:2536   */\n      swap2\n      pop\n        /* \"#utility.yul\":2264:2542   */\n      pop\n        /* \"#utility.yul\":2202:2542   */\n      swap3\n      swap2\n      pop\n      pop\n      jump\t// out\n        /* \"#utility.yul\":2548:3057   */\n    tag_6:\n        /* \"#utility.yul\":2617:2623   */\n      0x00\n        /* \"#utility.yul\":2666:2668   */\n      0x20\n        /* \"#utility.yul\":2654:2663   */\n      dup3\n        /* \"#utility.yul\":2645:2652   */\n      dup5\n        /* \"#utility.yul\":2641:2664   */\n      sub\n        /* \"#utility.yul\":2637:2669   */\n      slt\n        /* \"#utility.yul\":2634:2753   */\n      iszero\n      tag_75\n      jumpi\n        /* \"#utility.yul\":2672:2751   */\n      tag_76\n      tag_13\n      jump\t// in\n    tag_76:\n        /* \"#utility.yul\":2634:2753   */\n    tag_75:\n        /* \"#utility.yul\":2820:2821   */\n      0x00\n        /* \"#utility.yul\":2809:2818   */\n      dup3\n        /* \"#utility.yul\":2805:2822   */\n      add\n        /* \"#utility.yul\":2792:2823   */\n      calldataload\n        /* \"#utility.yul\":2850:2868   */\n      0xffffffffffffffff\n        /* \"#utility.yul\":2842:2848   */\n      dup2\n        /* \"#utility.yul\":2839:2869   */\n      gt\n        /* \"#utility.yul\":2836:2953   */\n      iszero\n      tag_77\n      jumpi\n        /* \"#utility.yul\":2872:2951   */\n      tag_78\n      tag_14\n      jump\t// in\n    tag_78:\n        /* \"#utility.yul\":2836:2953   */\n    tag_77:\n        /* \"#utility.yul\":2977:3040   */\n      tag_79\n        /* \"#utility.yul\":3032:3039   */\n      dup5\n        /* \"#utility.yul\":3023:3029   */\n      dup3\n        /* \"#utility.yul\":3012:3021   */\n      dup6\n        /* \"#utility.yul\":3008:3030   */\n      add\n        /* \"#utility.yul\":2977:3040   */\n      tag_24\n      jump\t// in\n    tag_79:\n        /* \"#utility.yul\":2967:3040   */\n      swap2\n      pop\n        /* \"#utility.yul\":2763:3050   */\n      pop\n        /* \"#utility.yul\":2548:3057   */\n      swap3\n      swap2\n      pop\n      pop\n      jump\t// out\n        /* \"#utility.yul\":3063:3162   */\n    tag_25:\n        /* \"#utility.yul\":3115:3121   */\n      0x00\n        /* \"#utility.yul\":3149:3154   */\n      dup2\n        /* \"#utility.yul\":3143:3155   */\n      mload\n        /* \"#utility.yul\":3133:3155   */\n      swap1\n      pop\n        /* \"#utility.yul\":3063:3162   */\n      swap2\n      swap1\n      pop\n      jump\t// out\n        /* \"#utility.yul\":3168:3348   */\n    tag_26:\n        /* \"#utility.yul\":3216:3293   */\n      0x4e487b7100000000000000000000000000000000000000000000000000000000\n        /* \"#utility.yul\":3213:3214   */\n      0x00\n        /* \"#utility.yul\":3206:3294   */\n      mstore\n        /* \"#utility.yul\":3313:3317   */\n      0x22\n        /* \"#utility.yul\":3310:3311   */\n      0x04\n        /* \"#utility.yul\":3303:3318   */\n      mstore\n        /* \"#utility.yul\":3337:3341   */\n      0x24\n        /* \"#utility.yul\":3334:3335   */\n      0x00\n        /* \"#utility.yul\":3327:3342   */\n      revert\n        /* \"#utility.yul\":3354:3674   */\n    tag_27:\n        /* \"#utility.yul\":3398:3404   */\n      0x00\n        /* \"#utility.yul\":3435:3436   */\n      0x02\n        /* \"#utility.yul\":3429:3433   */\n      dup3\n        /* \"#utility.yul\":3425:3437   */\n      div\n        /* \"#utility.yul\":3415:3437   */\n      swap1\n      pop\n        /* \"#utility.yul\":3482:3483   */\n      0x01\n        /* \"#utility.yul\":3476:3480   */\n      dup3\n        /* \"#utility.yul\":3472:3484   */\n      and\n        /* \"#utility.yul\":3503:3521   */\n      dup1\n        /* \"#utility.yul\":3493:3574   */\n      tag_83\n      jumpi\n        /* \"#utility.yul\":3559:3563   */\n      0x7f\n        /* \"#utility.yul\":3551:3557   */\n      dup3\n        /* \"#utility.yul\":3547:3564   */\n      and\n        /* \"#utility.yul\":3537:3564   */\n      swap2\n      pop\n        /* \"#utility.yul\":3493:3574   */\n    tag_83:\n        /* \"#utility.yul\":3621:3623   */\n      0x20\n        /* \"#utility.yul\":3613:3619   */\n      dup3\n        /* \"#utility.yul\":3610:3624   */\n      lt\n        /* \"#utility.yul\":3590:3608   */\n      dup2\n        /* \"#utility.yul\":3587:3625   */\n      sub\n        /* \"#utility.yul\":3584:3668   */\n      tag_84\n      jumpi\n        /* \"#utility.yul\":3640:3658   */\n      tag_85\n      tag_26\n      jump\t// in\n    tag_85:\n        /* \"#utility.yul\":3584:3668   */\n    tag_84:\n        /* \"#utility.yul\":3405:3674   */\n      pop\n        /* \"#utility.yul\":3354:3674   */\n      swap2\n      swap1\n      pop\n      jump\t// out\n        /* \"#utility.yul\":3680:3821   */\n    tag_28:\n        /* \"#utility.yul\":3729:3733   */\n      0x00\n        /* \"#utility.yul\":3752:3755   */\n      dup2\n        /* \"#utility.yul\":3744:3755   */\n      swap1\n      pop\n        /* \"#utility.yul\":3775:3778   */\n      dup2\n        /* \"#utility.yul\":3772:3773   */\n      0x00\n        /* \"#utility.yul\":3765:3779   */\n      mstore\n        /* \"#utility.yul\":3809:3813   */\n      0x20\n        /* \"#utility.yul\":3806:3807   */\n      0x00\n        /* \"#utility.yul\":3796:3814   */\n      keccak256\n        /* \"#utility.yul\":3788:3814   */\n      swap1\n      pop\n        /* \"#utility.yul\":3680:3821   */\n      swap2\n      swap1\n      pop\n      jump\t// out\n        /* \"#utility.yul\":3827:3920   */\n    tag_29:\n        /* \"#utility.yul\":3864:3870   */\n      0x00\n        /* \"#utility.yul\":3911:3913   */\n      0x20\n        /* \"#utility.yul\":3906:3908   */\n      0x1f\n        /* \"#utility.yul\":3899:3904   */\n      dup4\n        /* \"#utility.yul\":3895:3909   */\n      add\n        /* \"#utility.yul\":3891:3914   */\n      div\n        /* \"#utility.yul\":3881:3914   */\n      swap1\n      pop\n        /* \"#utility.yul\":3827:3920   */\n      swap2\n      swap1\n      pop\n      jump\t// out\n        /* \"#utility.yul\":3926:4033   */\n    tag_30:\n        /* \"#utility.yul\":3970:3978   */\n      0x00\n        /* \"#utility.yul\":4020:4025   */\n      dup3\n        /* \"#utility.yul\":4014:4018   */\n      dup3\n        /* \"#utility.yul\":4010:4026   */\n      shl\n        /* \"#utility.yul\":3989:4026   */\n      swap1\n      pop\n        /* \"#utility.yul\":3926:4033   */\n      swap3\n      swap2\n      pop\n      pop\n      jump\t// out\n        /* \"#utility.yul\":4039:4432   */\n    tag_31:\n        /* \"#utility.yul\":4108:4114   */\n      0x00\n        /* \"#utility.yul\":4158:4159   */\n      0x08\n        /* \"#utility.yul\":4146:4156   */\n      dup4\n        /* \"#utility.yul\":4142:4160   */\n      mul\n        /* \"#utility.yul\":4181:4278   */\n      tag_90\n        /* \"#utility.yul\":4211:4277   */\n      0xffffffffffffffffffffffffffffffffffffffffffffffffffffffffffffffff\n        /* \"#utility.yul\":4200:4209   */\n      dup3\n        /* \"#utility.yul\":4181:4278   */\n      tag_30\n      jump\t// in\n    tag_90:\n        /* \"#utility.yul\":4299:4338   */\n      tag_91\n        /* \"#utility.yul\":4329:4337   */\n      dup7\n        /* \"#utility.yul\":4318:4327   */\n      dup4\n        /* \"#utility.yul\":4299:4338   */\n      tag_30\n      jump\t// in\n    tag_91:\n        /* \"#utility.yul\":4287:4338   */\n      swap6\n      pop\n        /* \"#utility.yul\":4371:4375   */\n      dup1\n        /* \"#utility.yul\":4367:4376   */\n      not\n        /* \"#utility.yul\":4360:4365   */\n      dup5\n        /* \"#utility.yul\":4356:4377   */\n      and\n        /* \"#utility.yul\":4347:4377   */\n      swap4\n      pop\n        /* \"#utility.yul\":4420:4424   */\n      dup1\n        /* \"#utility.yul\":4410:4418   */\n      dup7\n        /* \"#utility.yul\":4406:4425   */\n      and\n        /* \"#utility.yul\":4399:4404   */\n      dup5\n        /* \"#utility.yul\":4396:4426   */\n      or\n        /* \"#utility.yul\":4386:4426   */\n      swap3\n      pop\n        /* \"#utility.yul\":4115:4432   */\n      pop\n      pop\n        /* \"#utility.yul\":4039:4432   */\n      swap4\n      swap3\n      pop\n      pop\n      pop\n      jump\t// out\n        /* \"#utility.yul\":4438:4515   */\n    tag_32:\n        /* \"#utility.yul\":4475:4482   */\n      0x00\n        /* \"#utility.yul\":4504:4509   */\n      dup2\n        /* \"#utility.yul\":4493:4509   */\n      swap1\n      pop\n        /* \"#utility.yul\":4438:4515   */\n      swap2\n      swap1\n      pop\n      jump\t// out\n        /* \"#utility.yul\":4521:4581   */\n    tag_33:\n        /* \"#utility.yul\":4549:4552   */\n      0x00\n        /* \"#utility.yul\":4570:4575   */\n      dup2\n        /* \"#utility.yul\":4563:4575   */\n      swap1\n      pop\n        /* \"#utility.yul\":4521:4581   */\n      swap2\n      swap1\n      pop\n      jump\t// out\n        /* \"#utility.yul\":4587:4729   */\n    tag_34:\n        /* \"#utility.yul\":4637:4646   */\n      0x00\n        /* \"#utility.yul\":4670:4723   */\n      tag_95\n        /* \"#utility.yul\":4688:4722   */\n      tag_96\n        /* \"#utility.yul\":4697:4721   */\n      tag_97\n        /* \"#utility.yul\":4715:4720   */\n      dup5\n        /* \"#utility.yul\":4697:4721   */\n      tag_32\n      jump\t// in\n    tag_97:\n        /* \"#utility.yul\":4688:4722   */\n      tag_33\n      jump\t// in\n    tag_96:\n        /* \"#utility.yul\":4670:4723   */\n      tag_32\n      jump\t// in\n    tag_95:\n        /* \"#utility.yul\":4657:4723   */\n      swap1\n      pop\n        /* \"#utility.yul\":4587:4729   */\n      swap2\n      swap1\n      pop\n      jump\t// out\n        /* \"#utility.yul\":4735:4810   */\n    tag_35:\n        /* \"#utility.yul\":4778:4781   */\n      0x00\n        /* \"#utility.yul\":4799:4804   */\n      dup2\n        /* \"#utility.yul\":4792:4804   */\n      swap1\n      pop\n        /* \"#utility.yul\":4735:4810   */\n      swap2\n      swap1\n      pop\n      jump\t// out\n        /* \"#utility.yul\":4816:5085   */\n    tag_36:\n        /* \"#utility.yul\":4926:4965   */\n      tag_100\n        /* \"#utility.yul\":4957:4964   */\n      dup4\n        /* \"#utility.yul\":4926:4965   */\n      tag_34\n      jump\t// in\n    tag_100:\n        /* \"#utility.yul\":4987:5078   */\n      tag_101\n        /* \"#utility.yul\":5036:5077   */\n      tag_102\n        /* \"#utility.yul\":5060:5076   */\n      dup3\n        /* \"#utility.yul\":5036:5077   */\n      tag_35\n      jump\t// in\n    tag_102:\n        /* \"#utility.yul\":5028:5034   */\n      dup5\n        /* \"#utility.yul\":5021:5025   */\n      dup5\n        /* \"#utility.yul\":5015:5026   */\n      sload\n        /* \"#utility.yul\":4987:5078   */\n      tag_31\n      jump\t// in\n    tag_101:\n        /* \"#utility.yul\":4981:4985   */\n      dup3\n        /* \"#utility.yul\":4974:5079   */\n      sstore\n        /* \"#utility.yul\":4892:5085   */\n      pop\n        /* \"#utility.yul\":4816:5085   */\n      pop\n      pop\n      pop\n      jump\t// out\n        /* \"#utility.yul\":5091:5164   */\n    tag_37:\n        /* \"#utility.yul\":5136:5139   */\n      0x00\n        /* \"#utility.yul\":5091:5164   */\n      swap1\n      jump\t// out\n        /* \"#utility.yul\":5170:5359   */\n    tag_38:\n        /* \"#utility.yul\":5247:5279   */\n      tag_105\n      tag_37\n      jump\t// in\n    tag_105:\n        /* \"#utility.yul\":5288:5353   */\n      tag_106\n        /* \"#utility.yul\":5346:5352   */\n      dup2\n        /* \"#utility.yul\":5338:5344   */\n      dup5\n        /* \"#utility.yul\":5332:5336   */\n      dup5\n        /* \"#utility.yul\":5288:5353   */\n      tag_36\n      jump\t// in\n    tag_106:\n        /* \"#utility.yul\":5223:5359   */\n      pop\n        /* \"#utility.yul\":5170:5359   */\n      pop\n      pop\n      jump\t// out\n        /* \"#utility.yul\":5365:5551   */\n    tag_39:\n        /* \"#utility.yul\":5425:5545   */\n    tag_108:\n        /* \"#utility.yul\":5442:5445   */\n      dup2\n        /* \"#utility.yul\":5435:5440   */\n      dup2\n        /* \"#utility.yul\":5432:5446   */\n      lt\n        /* \"#utility.yul\":5425:5545   */\n      iszero\n      tag_110\n      jumpi\n        /* \"#utility.yul\":5496:5535   */\n      tag_111\n        /* \"#utility.yul\":5533:5534   */\n      0x00\n        /* \"#utility.yul\":5526:5531   */\n      dup3\n        /* \"#utility.yul\":5496:5535   */\n      tag_38\n      jump\t// in\n    tag_111:\n        /* \"#utility.yul\":5469:5470   */\n      0x01\n        /* \"#utility.yul\":5462:5467   */\n      dup2\n        /* \"#utility.yul\":5458:5471   */\n      add\n        /* \"#utility.yul\":5449:5471   */\n      swap1\n      pop\n        /* \"#utility.yul\":5425:5545   */\n      jump(tag_108)\n    tag_110:\n        /* \"#utility.yul\":5365:5551   */\n      pop\n      pop\n      jump\t// out\n        /* \"#utility.yul\":5557:6100   */\n    tag_40:\n        /* \"#utility.yul\":5658:5660   */\n      0x1f\n        /* \"#utility.yul\":5653:5656   */\n      dup3\n        /* \"#utility.yul\":5650:5661   */\n      gt\n        /* \"#utility.yul\":5647:6093   */\n      iszero\n      tag_113\n      jumpi\n        /* \"#utility.yul\":5692:5730   */\n      tag_114\n        /* \"#utility.yul\":5724:5729   */\n      dup2\n        /* \"#utility.yul\":5692:5730   */\n      tag_28\n      jump\t// in\n    tag_114:\n        /* \"#utility.yul\":5776:5805   */\n      tag_115\n        /* \"#utility.yul\":5794:5804   */\n      dup5\n        /* \"#utility.yul\":5776:5805   */\n      tag_29\n      jump\t// in\n    tag_115:\n        /* \"#utility.yul\":5766:5774   */\n      dup2\n        /* \"#utility.yul\":5762:5806   */\n      add\n        /* \"#utility.yul\":5959:5961   */\n      0x20\n        /* \"#utility.yul\":5947:5957   */\n      dup6\n        /* \"#utility.yul\":5944:5962   */\n      lt\n        /* \"#utility.yul\":5941:5990   */\n      iszero\n      tag_116\n      jumpi\n        /* \"#utility.yul\":5980:5988   */\n      dup2\n        /* \"#utility.yul\":5965:5988   */\n      swap1\n      pop\n        /* \"#utility.yul\":5941:5990   */\n    tag_116:\n        /* \"#utility.yul\":6003:6083   */\n      tag_117\n        /* \"#utility.yul\":6059:6081   */\n      tag_118\n        /* \"#utility.yul\":6077:6080   */\n      dup6\n        /* \"#utility.yul\":6059:6081   */\n      tag_29\n      jump\t// in\n    tag_118:\n        /* \"#utility.yul\":6049:6057   */\n      dup4\n        /* \"#utility.yul\":6045:6082   */\n      add\n        /* \"#utility.yul\":6032:6043   */\n      dup3\n        /* \"#utility.yul\":6003:6083   */\n      tag_39\n      jump\t// in\n    tag_117:\n        /* \"#utility.yul\":5662:6093   */\n      pop\n      pop\n        /* \"#utility.yul\":5647:6093   */\n    tag_113:\n        /* \"#utility.yul\":5557:6100   */\n      pop\n      pop\n      pop\n      jump\t// out\n        /* \"#utility.yul\":6106:6223   */\n    tag_41:\n        /* \"#utility.yul\":6160:6168   */\n      0x00\n        /* \"#utility.yul\":6210:6215   */\n      dup3\n        /* \"#utility.yul\":6204:6208   */\n      dup3\n        /* \"#utility.yul\":6200:6216   */\n      shr\n        /* \"#utility.yul\":6179:6216   */\n      swap1\n      pop\n        /* \"#utility.yul\":6106:6223   */\n      swap3\n      swap2\n      pop\n      pop\n      jump\t// out\n        /* \"#utility.yul\":6229:6398   */\n    tag_42:\n        /* \"#utility.yul\":6273:6279   */\n      0x00\n        /* \"#utility.yul\":6306:6357   */\n      tag_121\n        /* \"#utility.yul\":6354:6355   */\n      0x00\n        /* \"#utility.yul\":6350:6356   */\n      not\n        /* \"#utility.yul\":6342:6347   */\n      dup5\n        /* \"#utility.yul\":6339:6340   */\n      0x08\n        /* \"#utility.yul\":6335:6348   */\n      mul\n        /* \"#utility.yul\":6306:6357   */\n      tag_41\n      jump\t// in\n    tag_121:\n        /* \"#utility.yul\":6302:6358   */\n      not\n        /* \"#utility.yul\":6387:6391   */\n      dup1\n        /* \"#utility.yul\":6381:6385   */\n      dup4\n        /* \"#utility.yul\":6377:6392   */\n      and\n        /* \"#utility.yul\":6367:6392   */\n      swap2\n      pop\n        /* \"#utility.yul\":6280:6398   */\n      pop\n        /* \"#utility.yul\":6229:6398   */\n      swap3\n      swap2\n      pop\n      pop\n      jump\t// out\n        /* \"#utility.yul\":6403:6698   */\n    tag_43:\n        /* \"#utility.yul\":6479:6483   */\n      0x00\n        /* \"#utility.yul\":6625:6654   */\n      tag_123\n        /* \"#utility.yul\":6650:6653   */\n      dup4\n        /* \"#utility.yul\":6644:6648   */\n      dup4\n        /* \"#utility.yul\":6625:6654   */\n      tag_42\n      jump\t// in\n    tag_123:\n        /* \"#utility.yul\":6617:6654   */\n      swap2\n      pop\n        /* \"#utility.yul\":6687:6690   */\n      dup3\n        /* \"#utility.yul\":6684:6685   */\n      0x02\n        /* \"#utility.yul\":6680:6691   */\n      mul\n        /* \"#utility.yul\":6674:6678   */\n      dup3\n        /* \"#utility.yul\":6671:6692   */\n      or\n        /* \"#utility.yul\":6663:6692   */\n      swap1\n      pop\n        /* \"#utility.yul\":6403:6698   */\n      swap3\n      swap2\n      pop\n      pop\n      jump\t// out\n        /* \"#utility.yul\":6703:8098   */\n    tag_11:\n        /* \"#utility.yul\":6820:6857   */\n      tag_125\n        /* \"#utility.yul\":6853:6856   */\n      dup3\n        /* \"#utility.yul\":6820:6857   */\n      tag_25\n      jump\t// in\n    tag_125:\n        /* \"#utility.yul\":6922:6940   */\n      0xffffffffffffffff\n        /* \"#utility.yul\":6914:6920   */\n      dup2\n        /* \"#utility.yul\":6911:6941   */\n      gt\n        /* \"#utility.yul\":6908:6964   */\n      iszero\n      tag_126\n      jumpi\n        /* \"#utility.yul\":6944:6962   */\n      tag_127\n      tag_18\n      jump\t// in\n    tag_127:\n        /* \"#utility.yul\":6908:6964   */\n    tag_126:\n        /* \"#utility.yul\":6988:7026   */\n      tag_128\n        /* \"#utility.yul\":7020:7024   */\n      dup3\n        /* \"#utility.yul\":7014:7025   */\n      sload\n        /* \"#utility.yul\":6988:7026   */\n      tag_27\n      jump\t// in\n    tag_128:\n        /* \"#utility.yul\":7073:7140   */\n      tag_129\n        /* \"#utility.yul\":7133:7139   */\n      dup3\n        /* \"#utility.yul\":7125:7131   */\n      dup3\n        /* \"#utility.yul\":7119:7123   */\n      dup6\n        /* \"#utility.yul\":7073:7140   */\n      tag_40\n      jump\t// in\n    tag_129:\n        /* \"#utility.yul\":7167:7168   */\n      0x00\n        /* \"#utility.yul\":7191:7195   */\n      0x20\n        /* \"#utility.yul\":7178:7195   */\n      swap1\n      pop\n        /* \"#utility.yul\":7223:7225   */\n      0x1f\n        /* \"#utility.yul\":7215:7221   */\n      dup4\n        /* \"#utility.yul\":7212:7226   */\n      gt\n        /* \"#utility.yul\":7240:7241   */\n      0x01\n        /* \"#utility.yul\":7235:7853   */\n      dup2\n      eq\n      tag_131\n      jumpi\n        /* \"#utility.yul\":7897:7898   */\n      0x00\n        /* \"#utility.yul\":7914:7920   */\n      dup5\n        /* \"#utility.yul\":7911:7988   */\n      iszero\n      tag_132\n      jumpi\n        /* \"#utility.yul\":7963:7972   */\n      dup3\n        /* \"#utility.yul\":7958:7961   */\n      dup8\n        /* \"#utility.yul\":7954:7973   */\n      add\n        /* \"#utility.yul\":7948:7974   */\n      mload\n        /* \"#utility.yul\":7939:7974   */\n      swap1\n      pop\n        /* \"#utility.yul\":7911:7988   */\n    tag_132:\n        /* \"#utility.yul\":8014:8081   */\n      tag_133\n        /* \"#utility.yul\":8074:8080   */\n      dup6\n        /* \"#utility.yul\":8067:8072   */\n      dup3\n        /* \"#utility.yul\":8014:8081   */\n      tag_43\n      jump\t// in\n    tag_133:\n        /* \"#utility.yul\":8008:8012   */\n      dup7\n        /* \"#utility.yul\":8001:8082   */\n      sstore\n        /* \"#utility.yul\":7870:8092   */\n      pop\n        /* \"#utility.yul\":7205:8092   */\n      jump(tag_130)\n        /* \"#utility.yul\":7235:7853   */\n    tag_131:\n        /* \"#utility.yul\":7287:7291   */\n      0x1f\n        /* \"#utility.yul\":7283:7292   */\n      not\n        /* \"#utility.yul\":7275:7281   */\n      dup5\n        /* \"#utility.yul\":7271:7293   */\n      and\n        /* \"#utility.yul\":7321:7358   */\n      tag_134\n        /* \"#utility.yul\":7353:7357   */\n      dup7\n        /* \"#utility.yul\":7321:7358   */\n      tag_28\n      jump\t// in\n    tag_134:\n        /* \"#utility.yul\":7380:7381   */\n      0x00\n        /* \"#utility.yul\":7394:7602   */\n    tag_135:\n        /* \"#utility.yul\":7408:7415   */\n      dup3\n        /* \"#utility.yul\":7405:7406   */\n      dup2\n        /* \"#utility.yul\":7402:7416   */\n      lt\n        /* \"#utility.yul\":7394:7602   */\n      iszero\n      tag_137\n      jumpi\n        /* \"#utility.yul\":7487:7496   */\n      dup5\n        /* \"#utility.yul\":7482:7485   */\n      dup10\n        /* \"#utility.yul\":7478:7497   */\n      add\n        /* \"#utility.yul\":7472:7498   */\n      mload\n        /* \"#utility.yul\":7464:7470   */\n      dup3\n        /* \"#utility.yul\":7457:7499   */\n      sstore\n        /* \"#utility.yul\":7538:7539   */\n      0x01\n        /* \"#utility.yul\":7530:7536   */\n      dup3\n        /* \"#utility.yul\":7526:7540   */\n      add\n        /* \"#utility.yul\":7516:7540   */\n      swap2\n      pop\n        /* \"#utility.yul\":7585:7587   */\n      0x20\n        /* \"#utility.yul\":7574:7583   */\n      dup6\n        /* \"#utility.yul\":7570:7588   */\n      add\n        /* \"#utility.yul\":7557:7588   */\n      swap5\n      pop\n        /* \"#utility.yul\":7431:7435   */\n      0x20\n        /* \"#utility.yul\":7428:7429   */\n      dup2\n        /* \"#utility.yul\":7424:7436   */\n      add\n        /* \"#utility.yul\":7419:7436   */\n      swap1\n      pop\n        /* \"#utility.yul\":7394:7602   */\n      jump(tag_135)\n    tag_137:\n        /* \"#utility.yul\":7630:7636   */\n      dup7\n        /* \"#utility.yul\":7621:7628   */\n      dup4\n        /* \"#utility.yul\":7618:7637   */\n      lt\n        /* \"#utility.yul\":7615:7794   */\n      iszero\n      tag_138\n      jumpi\n        /* \"#utility.yul\":7688:7697   */\n      dup5\n        /* \"#utility.yul\":7683:7686   */\n      dup10\n        /* \"#utility.yul\":7679:7698   */\n      add\n        /* \"#utility.yul\":7673:7699   */\n      mload\n        /* \"#utility.yul\":7731:7779   */\n      tag_139\n        /* \"#utility.yul\":7773:7777   */\n      0x1f\n        /* \"#utility.yul\":7765:7771   */\n      dup10\n        /* \"#utility.yul\":7761:7778   */\n      and\n        /* \"#utility.yul\":7750:7759   */\n      dup3\n        /* \"#utility.yul\":7731:7779   */\n      tag_42\n      jump\t// in\n    tag_139:\n        /* \"#utility.yul\":7723:7729   */\n      dup4\n        /* \"#utility.yul\":7716:7780   */\n      sstore\n        /* \"#utility.yul\":7638:7794   */\n      pop\n        /* \"#utility.yul\":7615:7794   */\n    tag_138:\n        /* \"#utility.yul\":7840:7841   */\n      0x01\n        /* \"#utility.yul\":7836:7837   */\n      0x02\n        /* \"#utility.yul\":7828:7834   */\n      dup9\n        /* \"#utility.yul\":7824:7838   */\n      mul\n        /* \"#utility.yul\":7820:7842   */\n      add\n        /* \"#utility.yul\":7814:7818   */\n      dup9\n        /* \"#utility.yul\":7807:7843   */\n      sstore\n        /* \"#utility.yul\":7242:7853   */\n      pop\n      pop\n      pop\n        /* \"#utility.yul\":7205:8092   */\n    tag_130:\n      pop\n        /* \"#utility.yul\":6795:8098   */\n      pop\n      pop\n      pop\n        /* \"#utility.yul\":6703:8098   */\n      pop\n      pop\n      jump\t// out\n\n    auxdata: 0xa264697066735822122097f2c44d472c412f2d47c96dd7f52d92b73b22d2661490d1d85f4ff89f25654664736f6c634300080f0033\n}\n",
				"bytecode": {
					"linkReferences": {},
					"object": "608060405234801561001057600080fd5b506105f0806100206000396000f3fe608060405234801561001057600080fd5b506004361061002b5760003560e01c80636723856214610030575b600080fd5b61004a6004803603810190610045919061027e565b61004c565b005b60006040518060400160405280838152602001600015158152509050600160003373ffffffffffffffffffffffffffffffffffffffff1673ffffffffffffffffffffffffffffffffffffffff168152602001908152602001600020604051806040016040528084815260200160001515815250908060018154018082558091505060019003906000526020600020906002020160009091909190915060008201518160000190816100fd91906104e8565b5060208201518160010160006101000a81548160ff02191690831515021790555050505050565b6000604051905090565b600080fd5b600080fd5b600080fd5b600080fd5b6000601f19601f8301169050919050565b7f4e487b7100000000000000000000000000000000000000000000000000000000600052604160045260246000fd5b61018b82610142565b810181811067ffffffffffffffff821117156101aa576101a9610153565b5b80604052505050565b60006101bd610124565b90506101c98282610182565b919050565b600067ffffffffffffffff8211156101e9576101e8610153565b5b6101f282610142565b9050602081019050919050565b82818337600083830152505050565b600061022161021c846101ce565b6101b3565b90508281526020810184848401111561023d5761023c61013d565b5b6102488482856101ff565b509392505050565b600082601f83011261026557610264610138565b5b813561027584826020860161020e565b91505092915050565b6000602082840312156102945761029361012e565b5b600082013567ffffffffffffffff8111156102b2576102b1610133565b5b6102be84828501610250565b91505092915050565b600081519050919050565b7f4e487b7100000000000000000000000000000000000000000000000000000000600052602260045260246000fd5b6000600282049050600182168061031957607f821691505b60208210810361032c5761032b6102d2565b5b50919050565b60008190508160005260206000209050919050565b60006020601f8301049050919050565b600082821b905092915050565b6000600883026103947fffffffffffffffffffffffffffffffffffffffffffffffffffffffffffffffff82610357565b61039e8683610357565b95508019841693508086168417925050509392505050565b6000819050919050565b6000819050919050565b60006103e56103e06103db846103b6565b6103c0565b6103b6565b9050919050565b6000819050919050565b6103ff836103ca565b61041361040b826103ec565b848454610364565b825550505050565b600090565b61042861041b565b6104338184846103f6565b505050565b5b818110156104575761044c600082610420565b600181019050610439565b5050565b601f82111561049c5761046d81610332565b61047684610347565b81016020851015610485578190505b61049961049185610347565b830182610438565b50505b505050565b600082821c905092915050565b60006104bf600019846008026104a1565b1980831691505092915050565b60006104d883836104ae565b9150826002028217905092915050565b6104f1826102c7565b67ffffffffffffffff81111561050a57610509610153565b5b6105148254610301565b61051f82828561045b565b600060209050601f8311600181146105525760008415610540578287015190505b61054a85826104cc565b8655506105b2565b601f19841661056086610332565b60005b8281101561058857848901518255600182019150602085019450602081019050610563565b868310156105a557848901516105a1601f8916826104ae565b8355505b6001600288020188555050505b50505050505056fea264697066735822122097f2c44d472c412f2d47c96dd7f52d92b73b22d2661490d1d85f4ff89f25654664736f6c634300080f0033",
					"opcodes": "PUSH1 0x80 PUSH1 0x40 MSTORE CALLVALUE DUP1 ISZERO PUSH2 0x10 JUMPI PUSH1 0x0 DUP1 REVERT JUMPDEST POP PUSH2 0x5F0 DUP1 PUSH2 0x20 PUSH1 0x0 CODECOPY PUSH1 0x0 RETURN INVALID PUSH1 0x80 PUSH1 0x40 MSTORE CALLVALUE DUP1 ISZERO PUSH2 0x10 JUMPI PUSH1 0x0 DUP1 REVERT JUMPDEST POP PUSH1 0x4 CALLDATASIZE LT PUSH2 0x2B JUMPI PUSH1 0x0 CALLDATALOAD PUSH1 0xE0 SHR DUP1 PUSH4 0x67238562 EQ PUSH2 0x30 JUMPI JUMPDEST PUSH1 0x0 DUP1 REVERT JUMPDEST PUSH2 0x4A PUSH1 0x4 DUP1 CALLDATASIZE SUB DUP2 ADD SWAP1 PUSH2 0x45 SWAP2 SWAP1 PUSH2 0x27E JUMP JUMPDEST PUSH2 0x4C JUMP JUMPDEST STOP JUMPDEST PUSH1 0x0 PUSH1 0x40 MLOAD DUP1 PUSH1 0x40 ADD PUSH1 0x40 MSTORE DUP1 DUP4 DUP2 MSTORE PUSH1 0x20 ADD PUSH1 0x0 ISZERO ISZERO DUP2 MSTORE POP SWAP1 POP PUSH1 0x1 PUSH1 0x0 CALLER PUSH20 0xFFFFFFFFFFFFFFFFFFFFFFFFFFFFFFFFFFFFFFFF AND PUSH20 0xFFFFFFFFFFFFFFFFFFFFFFFFFFFFFFFFFFFFFFFF AND DUP2 MSTORE PUSH1 0x20 ADD SWAP1 DUP2 MSTORE PUSH1 0x20 ADD PUSH1 0x0 KECCAK256 PUSH1 0x40 MLOAD DUP1 PUSH1 0x40 ADD PUSH1 0x40 MSTORE DUP1 DUP5 DUP2 MSTORE PUSH1 0x20 ADD PUSH1 0x0 ISZERO ISZERO DUP2 MSTORE POP SWAP1 DUP1 PUSH1 0x1 DUP2 SLOAD ADD DUP1 DUP3 SSTORE DUP1 SWAP2 POP POP PUSH1 0x1 SWAP1 SUB SWAP1 PUSH1 0x0 MSTORE PUSH1 0x20 PUSH1 0x0 KECCAK256 SWAP1 PUSH1 0x2 MUL ADD PUSH1 0x0 SWAP1 SWAP2 SWAP1 SWAP2 SWAP1 SWAP2 POP PUSH1 0x0 DUP3 ADD MLOAD DUP2 PUSH1 0x0 ADD SWAP1 DUP2 PUSH2 0xFD SWAP2 SWAP1 PUSH2 0x4E8 JUMP JUMPDEST POP PUSH1 0x20 DUP3 ADD MLOAD DUP2 PUSH1 0x1 ADD PUSH1 0x0 PUSH2 0x100 EXP DUP2 SLOAD DUP2 PUSH1 0xFF MUL NOT AND SWAP1 DUP4 ISZERO ISZERO MUL OR SWAP1 SSTORE POP POP POP POP POP JUMP JUMPDEST PUSH1 0x0 PUSH1 0x40 MLOAD SWAP1 POP SWAP1 JUMP JUMPDEST PUSH1 0x0 DUP1 REVERT JUMPDEST PUSH1 0x0 DUP1 REVERT JUMPDEST PUSH1 0x0 DUP1 REVERT JUMPDEST PUSH1 0x0 DUP1 REVERT JUMPDEST PUSH1 0x0 PUSH1 0x1F NOT PUSH1 0x1F DUP4 ADD AND SWAP1 POP SWAP2 SWAP1 POP JUMP JUMPDEST PUSH32 0x4E487B7100000000000000000000000000000000000000000000000000000000 PUSH1 0x0 MSTORE PUSH1 0x41 PUSH1 0x4 MSTORE PUSH1 0x24 PUSH1 0x0 REVERT JUMPDEST PUSH2 0x18B DUP3 PUSH2 0x142 JUMP JUMPDEST DUP2 ADD DUP2 DUP2 LT PUSH8 0xFFFFFFFFFFFFFFFF DUP3 GT OR ISZERO PUSH2 0x1AA JUMPI PUSH2 0x1A9 PUSH2 0x153 JUMP JUMPDEST JUMPDEST DUP1 PUSH1 0x40 MSTORE POP POP POP JUMP JUMPDEST PUSH1 0x0 PUSH2 0x1BD PUSH2 0x124 JUMP JUMPDEST SWAP1 POP PUSH2 0x1C9 DUP3 DUP3 PUSH2 0x182 JUMP JUMPDEST SWAP2 SWAP1 POP JUMP JUMPDEST PUSH1 0x0 PUSH8 0xFFFFFFFFFFFFFFFF DUP3 GT ISZERO PUSH2 0x1E9 JUMPI PUSH2 0x1E8 PUSH2 0x153 JUMP JUMPDEST JUMPDEST PUSH2 0x1F2 DUP3 PUSH2 0x142 JUMP JUMPDEST SWAP1 POP PUSH1 0x20 DUP2 ADD SWAP1 POP SWAP2 SWAP1 POP JUMP JUMPDEST DUP3 DUP2 DUP4 CALLDATACOPY PUSH1 0x0 DUP4 DUP4 ADD MSTORE POP POP POP JUMP JUMPDEST PUSH1 0x0 PUSH2 0x221 PUSH2 0x21C DUP5 PUSH2 0x1CE JUMP JUMPDEST PUSH2 0x1B3 JUMP JUMPDEST SWAP1 POP DUP3 DUP2 MSTORE PUSH1 0x20 DUP2 ADD DUP5 DUP5 DUP5 ADD GT ISZERO PUSH2 0x23D JUMPI PUSH2 0x23C PUSH2 0x13D JUMP JUMPDEST JUMPDEST PUSH2 0x248 DUP5 DUP3 DUP6 PUSH2 0x1FF JUMP JUMPDEST POP SWAP4 SWAP3 POP POP POP JUMP JUMPDEST PUSH1 0x0 DUP3 PUSH1 0x1F DUP4 ADD SLT PUSH2 0x265 JUMPI PUSH2 0x264 PUSH2 0x138 JUMP JUMPDEST JUMPDEST DUP2 CALLDATALOAD PUSH2 0x275 DUP5 DUP3 PUSH1 0x20 DUP7 ADD PUSH2 0x20E JUMP JUMPDEST SWAP2 POP POP SWAP3 SWAP2 POP POP JUMP JUMPDEST PUSH1 0x0 PUSH1 0x20 DUP3 DUP5 SUB SLT ISZERO PUSH2 0x294 JUMPI PUSH2 0x293 PUSH2 0x12E JUMP JUMPDEST JUMPDEST PUSH1 0x0 DUP3 ADD CALLDATALOAD PUSH8 0xFFFFFFFFFFFFFFFF DUP2 GT ISZERO PUSH2 0x2B2 JUMPI PUSH2 0x2B1 PUSH2 0x133 JUMP JUMPDEST JUMPDEST PUSH2 0x2BE DUP5 DUP3 DUP6 ADD PUSH2 0x250 JUMP JUMPDEST SWAP2 POP POP SWAP3 SWAP2 POP POP JUMP JUMPDEST PUSH1 0x0 DUP2 MLOAD SWAP1 POP SWAP2 SWAP1 POP JUMP JUMPDEST PUSH32 0x4E487B7100000000000000000000000000000000000000000000000000000000 PUSH1 0x0 MSTORE PUSH1 0x22 PUSH1 0x4 MSTORE PUSH1 0x24 PUSH1 0x0 REVERT JUMPDEST PUSH1 0x0 PUSH1 0x2 DUP3 DIV SWAP1 POP PUSH1 0x1 DUP3 AND DUP1 PUSH2 0x319 JUMPI PUSH1 0x7F DUP3 AND SWAP2 POP JUMPDEST PUSH1 0x20 DUP3 LT DUP2 SUB PUSH2 0x32C JUMPI PUSH2 0x32B PUSH2 0x2D2 JUMP JUMPDEST JUMPDEST POP SWAP2 SWAP1 POP JUMP JUMPDEST PUSH1 0x0 DUP2 SWAP1 POP DUP2 PUSH1 0x0 MSTORE PUSH1 0x20 PUSH1 0x0 KECCAK256 SWAP1 POP SWAP2 SWAP1 POP JUMP JUMPDEST PUSH1 0x0 PUSH1 0x20 PUSH1 0x1F DUP4 ADD DIV SWAP1 POP SWAP2 SWAP1 POP JUMP JUMPDEST PUSH1 0x0 DUP3 DUP3 SHL SWAP1 POP SWAP3 SWAP2 POP POP JUMP JUMPDEST PUSH1 0x0 PUSH1 0x8 DUP4 MUL PUSH2 0x394 PUSH32 0xFFFFFFFFFFFFFFFFFFFFFFFFFFFFFFFFFFFFFFFFFFFFFFFFFFFFFFFFFFFFFFFF DUP3 PUSH2 0x357 JUMP JUMPDEST PUSH2 0x39E DUP7 DUP4 PUSH2 0x357 JUMP JUMPDEST SWAP6 POP DUP1 NOT DUP5 AND SWAP4 POP DUP1 DUP7 AND DUP5 OR SWAP3 POP POP POP SWAP4 SWAP3 POP POP POP JUMP JUMPDEST PUSH1 0x0 DUP2 SWAP1 POP SWAP2 SWAP1 POP JUMP JUMPDEST PUSH1 0x0 DUP2 SWAP1 POP SWAP2 SWAP1 POP JUMP JUMPDEST PUSH1 0x0 PUSH2 0x3E5 PUSH2 0x3E0 PUSH2 0x3DB DUP5 PUSH2 0x3B6 JUMP JUMPDEST PUSH2 0x3C0 JUMP JUMPDEST PUSH2 0x3B6 JUMP JUMPDEST SWAP1 POP SWAP2 SWAP1 POP JUMP JUMPDEST PUSH1 0x0 DUP2 SWAP1 POP SWAP2 SWAP1 POP JUMP JUMPDEST PUSH2 0x3FF DUP4 PUSH2 0x3CA JUMP JUMPDEST PUSH2 0x413 PUSH2 0x40B DUP3 PUSH2 0x3EC JUMP JUMPDEST DUP5 DUP5 SLOAD PUSH2 0x364 JUMP JUMPDEST DUP3 SSTORE POP POP POP POP JUMP JUMPDEST PUSH1 0x0 SWAP1 JUMP JUMPDEST PUSH2 0x428 PUSH2 0x41B JUMP JUMPDEST PUSH2 0x433 DUP2 DUP5 DUP5 PUSH2 0x3F6 JUMP JUMPDEST POP POP POP JUMP JUMPDEST JUMPDEST DUP2 DUP2 LT ISZERO PUSH2 0x457 JUMPI PUSH2 0x44C PUSH1 0x0 DUP3 PUSH2 0x420 JUMP JUMPDEST PUSH1 0x1 DUP2 ADD SWAP1 POP PUSH2 0x439 JUMP JUMPDEST POP POP JUMP JUMPDEST PUSH1 0x1F DUP3 GT ISZERO PUSH2 0x49C JUMPI PUSH2 0x46D DUP2 PUSH2 0x332 JUMP JUMPDEST PUSH2 0x476 DUP5 PUSH2 0x347 JUMP JUMPDEST DUP2 ADD PUSH1 0x20 DUP6 LT ISZERO PUSH2 0x485 JUMPI DUP2 SWAP1 POP JUMPDEST PUSH2 0x499 PUSH2 0x491 DUP6 PUSH2 0x347 JUMP JUMPDEST DUP4 ADD DUP3 PUSH2 0x438 JUMP JUMPDEST POP POP JUMPDEST POP POP POP JUMP JUMPDEST PUSH1 0x0 DUP3 DUP3 SHR SWAP1 POP SWAP3 SWAP2 POP POP JUMP JUMPDEST PUSH1 0x0 PUSH2 0x4BF PUSH1 0x0 NOT DUP5 PUSH1 0x8 MUL PUSH2 0x4A1 JUMP JUMPDEST NOT DUP1 DUP4 AND SWAP2 POP POP SWAP3 SWAP2 POP POP JUMP JUMPDEST PUSH1 0x0 PUSH2 0x4D8 DUP4 DUP4 PUSH2 0x4AE JUMP JUMPDEST SWAP2 POP DUP3 PUSH1 0x2 MUL DUP3 OR SWAP1 POP SWAP3 SWAP2 POP POP JUMP JUMPDEST PUSH2 0x4F1 DUP3 PUSH2 0x2C7 JUMP JUMPDEST PUSH8 0xFFFFFFFFFFFFFFFF DUP2 GT ISZERO PUSH2 0x50A JUMPI PUSH2 0x509 PUSH2 0x153 JUMP JUMPDEST JUMPDEST PUSH2 0x514 DUP3 SLOAD PUSH2 0x301 JUMP JUMPDEST PUSH2 0x51F DUP3 DUP3 DUP6 PUSH2 0x45B JUMP JUMPDEST PUSH1 0x0 PUSH1 0x20 SWAP1 POP PUSH1 0x1F DUP4 GT PUSH1 0x1 DUP2 EQ PUSH2 0x552 JUMPI PUSH1 0x0 DUP5 ISZERO PUSH2 0x540 JUMPI DUP3 DUP8 ADD MLOAD SWAP1 POP JUMPDEST PUSH2 0x54A DUP6 DUP3 PUSH2 0x4CC JUMP JUMPDEST DUP7 SSTORE POP PUSH2 0x5B2 JUMP JUMPDEST PUSH1 0x1F NOT DUP5 AND PUSH2 0x560 DUP7 PUSH2 0x332 JUMP JUMPDEST PUSH1 0x0 JUMPDEST DUP3 DUP2 LT ISZERO PUSH2 0x588 JUMPI DUP5 DUP10 ADD MLOAD DUP3 SSTORE PUSH1 0x1 DUP3 ADD SWAP2 POP PUSH1 0x20 DUP6 ADD SWAP5 POP PUSH1 0x20 DUP2 ADD SWAP1 POP PUSH2 0x563 JUMP JUMPDEST DUP7 DUP4 LT ISZERO PUSH2 0x5A5 JUMPI DUP5 DUP10 ADD MLOAD PUSH2 0x5A1 PUSH1 0x1F DUP10 AND DUP3 PUSH2 0x4AE JUMP JUMPDEST DUP4 SSTORE POP JUMPDEST PUSH1 0x1 PUSH1 0x2 DUP9 MUL ADD DUP9 SSTORE POP POP POP JUMPDEST POP POP POP POP POP POP JUMP INVALID LOG2 PUSH5 0x6970667358 0x22 SLT KECCAK256 SWAP8 CALLCODE 0xC4 0x4D SELFBALANCE 0x2C COINBASE 0x2F 0x2D SELFBALANCE 0xC9 PUSH14 0xD7F52D92B73B22D2661490D1D85F 0x4F 0xF8 SWAP16 0x25 PUSH6 0x4664736F6C63 NUMBER STOP ADDMOD 0xF STOP CALLER "
				},
				"gasEstimates": {
					"creation": {
						"codeDepositCost": "304000",
						"executionCost": "343",
						"totalCost": "304343"
					},
					"external": {
						"addTask(string)": "infinite"
					}
				},
				"methodIdentifiers": {
					"addTask(string)": "67238562"
				}
			},
			"storageLayout": {
				"storage": [
					{
						"astId": 3,
						"contract": "contracts/todo.sol:todo",
						"label": "owner",
						"offset": 0,
						"slot": "0",
						"type": "t_address"
					},
					{
						"astId": 14,
						"contract": "contracts/todo.sol:todo",
						"label": "Users",
						"offset": 0,
						"slot": "1",
						"type": "t_mapping(t_address,t_array(t_struct(Task)8_storage)dyn_storage)"
					}
				],
				"types": {
					"t_address": {
						"encoding": "inplace",
						"label": "address",
						"numberOfBytes": "20"
					},
					"t_array(t_struct(Task)8_storage)dyn_storage": {
						"base": "t_struct(Task)8_storage",
						"encoding": "dynamic_array",
						"label": "struct todo.Task[]",
						"numberOfBytes": "32"
					},
					"t_bool": {
						"encoding": "inplace",
						"label": "bool",
						"numberOfBytes": "1"
					},
					"t_mapping(t_address,t_array(t_struct(Task)8_storage)dyn_storage)": {
						"encoding": "mapping",
						"key": "t_address",
						"label": "mapping(address => struct todo.Task[])",
						"numberOfBytes": "32",
						"value": "t_array(t_struct(Task)8_storage)dyn_storage"
					},
					"t_string_storage": {
						"encoding": "bytes",
						"label": "string",
						"numberOfBytes": "32"
					},
					"t_struct(Task)8_storage": {
						"encoding": "inplace",
						"label": "struct todo.Task",
						"members": [
							{
								"astId": 5,
								"contract": "contracts/todo.sol:todo",
								"label": "task",
								"offset": 0,
								"slot": "0",
								"type": "t_string_storage"
							},
							{
								"astId": 7,
								"contract": "contracts/todo.sol:todo",
								"label": "isDone",
								"offset": 0,
								"slot": "1",
								"type": "t_bool"
							}
						],
						"numberOfBytes": "64"
					}
				}
			},
			"userdoc": {
				"kind": "user",
				"methods": {},
				"version": 1
			}
		}
	}
}