{
	"contracts/calculator.sol": {
		"task1": {
			"abi": [
				{
					"inputs": [
						{
							"internalType": "uint8",
							"name": "val1",
							"type": "uint8"
						},
						{
							"internalType": "uint8",
							"name": "val2",
							"type": "uint8"
						}
					],
					"name": "add",
					"outputs": [
						{
							"internalType": "uint8",
							"name": "",
							"type": "uint8"
						}
					],
					"stateMutability": "pure",
					"type": "function"
				},
				{
					"inputs": [
						{
							"internalType": "uint8",
							"name": "val1",
							"type": "uint8"
						},
						{
							"internalType": "uint8",
							"name": "val2",
							"type": "uint8"
						}
					],
					"name": "div",
					"outputs": [
						{
							"internalType": "uint8",
							"name": "",
							"type": "uint8"
						}
					],
					"stateMutability": "pure",
					"type": "function"
				},
				{
					"inputs": [
						{
							"internalType": "uint8",
							"name": "val1",
							"type": "uint8"
						},
						{
							"internalType": "uint8",
							"name": "val2",
							"type": "uint8"
						}
					],
					"name": "mul",
					"outputs": [
						{
							"internalType": "uint8",
							"name": "",
							"type": "uint8"
						}
					],
					"stateMutability": "pure",
					"type": "function"
				},
				{
					"inputs": [
						{
							"internalType": "uint8",
							"name": "val1",
							"type": "uint8"
						},
						{
							"internalType": "uint8",
							"name": "val2",
							"type": "uint8"
						}
					],
					"name": "sub",
					"outputs": [
						{
							"internalType": "uint8",
							"name": "",
							"type": "uint8"
						}
					],
					"stateMutability": "pure",
					"type": "function"
				}
			],
			"devdoc": {
				"kind": "dev",
				"methods": {},
				"version": 1
			},
			"evm": {
				"assembly": "    /* \"contracts/calculator.sol\":64:524  contract task1 ... */\n  mstore(0x40, 0x80)\n  callvalue\n  dup1\n  iszero\n  tag_1\n  jumpi\n  0x00\n  dup1\n  revert\ntag_1:\n  pop\n  dataSize(sub_0)\n  dup1\n  dataOffset(sub_0)\n  0x00\n  codecopy\n  0x00\n  return\nstop\n\nsub_0: assembly {\n        /* \"contracts/calculator.sol\":64:524  contract task1 ... */\n      mstore(0x40, 0x80)\n      callvalue\n      dup1\n      iszero\n      tag_1\n      jumpi\n      0x00\n      dup1\n      revert\n    tag_1:\n      pop\n      jumpi(tag_2, lt(calldatasize, 0x04))\n      shr(0xe0, calldataload(0x00))\n      dup1\n      0x1e5f34af\n      eq\n      tag_3\n      jumpi\n      dup1\n      0x21c60ac6\n      eq\n      tag_4\n      jumpi\n      dup1\n      0xbb4e3f4d\n      eq\n      tag_5\n      jumpi\n      dup1\n      0xe51a3b40\n      eq\n      tag_6\n      jumpi\n    tag_2:\n      0x00\n      dup1\n      revert\n        /* \"contracts/calculator.sol\":201:304  function sub(uint8 val1, uint8 val2) public pure returns(uint8)... */\n    tag_3:\n      tag_7\n      0x04\n      dup1\n      calldatasize\n      sub\n      dup2\n      add\n      swap1\n      tag_8\n      swap2\n      swap1\n      tag_9\n      jump\t// in\n    tag_8:\n      tag_10\n      jump\t// in\n    tag_7:\n      mload(0x40)\n      tag_11\n      swap2\n      swap1\n      tag_12\n      jump\t// in\n    tag_11:\n      mload(0x40)\n      dup1\n      swap2\n      sub\n      swap1\n      return\n        /* \"contracts/calculator.sol\":419:522  function div(uint8 val1, uint8 val2) public pure returns(uint8)... */\n    tag_4:\n      tag_13\n      0x04\n      dup1\n      calldatasize\n      sub\n      dup2\n      add\n      swap1\n      tag_14\n      swap2\n      swap1\n      tag_9\n      jump\t// in\n    tag_14:\n      tag_15\n      jump\t// in\n    tag_13:\n      mload(0x40)\n      tag_16\n      swap2\n      swap1\n      tag_12\n      jump\t// in\n    tag_16:\n      mload(0x40)\n      dup1\n      swap2\n      sub\n      swap1\n      return\n        /* \"contracts/calculator.sol\":91:194  function add(uint8 val1, uint8 val2) public pure returns(uint8)... */\n    tag_5:\n      tag_17\n      0x04\n      dup1\n      calldatasize\n      sub\n      dup2\n      add\n      swap1\n      tag_18\n      swap2\n      swap1\n      tag_9\n      jump\t// in\n    tag_18:\n      tag_19\n      jump\t// in\n    tag_17:\n      mload(0x40)\n      tag_20\n      swap2\n      swap1\n      tag_12\n      jump\t// in\n    tag_20:\n      mload(0x40)\n      dup1\n      swap2\n      sub\n      swap1\n      return\n        /* \"contracts/calculator.sol\":310:413  function mul(uint8 val1, uint8 val2) public pure returns(uint8)... */\n    tag_6:\n      tag_21\n      0x04\n      dup1\n      calldatasize\n      sub\n      dup2\n      add\n      swap1\n      tag_22\n      swap2\n      swap1\n      tag_9\n      jump\t// in\n    tag_22:\n      tag_23\n      jump\t// in\n    tag_21:\n      mload(0x40)\n      tag_24\n      swap2\n      swap1\n      tag_12\n      jump\t// in\n    tag_24:\n      mload(0x40)\n      dup1\n      swap2\n      sub\n      swap1\n      return\n        /* \"contracts/calculator.sol\":201:304  function sub(uint8 val1, uint8 val2) public pure returns(uint8)... */\n    tag_10:\n        /* \"contracts/calculator.sol\":258:263  uint8 */\n      0x00\n        /* \"contracts/calculator.sol\":293:297  val2 */\n      dup2\n        /* \"contracts/calculator.sol\":286:290  val1 */\n      dup4\n        /* \"contracts/calculator.sol\":286:297  val1 - val2 */\n      tag_26\n      swap2\n      swap1\n      tag_27\n      jump\t// in\n    tag_26:\n        /* \"contracts/calculator.sol\":279:297  return val1 - val2 */\n      swap1\n      pop\n        /* \"contracts/calculator.sol\":201:304  function sub(uint8 val1, uint8 val2) public pure returns(uint8)... */\n      swap3\n      swap2\n      pop\n      pop\n      jump\t// out\n        /* \"contracts/calculator.sol\":419:522  function div(uint8 val1, uint8 val2) public pure returns(uint8)... */\n    tag_15:\n        /* \"contracts/calculator.sol\":476:481  uint8 */\n      0x00\n        /* \"contracts/calculator.sol\":511:515  val2 */\n      dup2\n        /* \"contracts/calculator.sol\":504:508  val1 */\n      dup4\n        /* \"contracts/calculator.sol\":504:515  val1 / val2 */\n      tag_29\n      swap2\n      swap1\n      tag_30\n      jump\t// in\n    tag_29:\n        /* \"contracts/calculator.sol\":497:515  return val1 / val2 */\n      swap1\n      pop\n        /* \"contracts/calculator.sol\":419:522  function div(uint8 val1, uint8 val2) public pure returns(uint8)... */\n      swap3\n      swap2\n      pop\n      pop\n      jump\t// out\n        /* \"contracts/calculator.sol\":91:194  function add(uint8 val1, uint8 val2) public pure returns(uint8)... */\n    tag_19:\n        /* \"contracts/calculator.sol\":148:153  uint8 */\n      0x00\n        /* \"contracts/calculator.sol\":183:187  val2 */\n      dup2\n        /* \"contracts/calculator.sol\":176:180  val1 */\n      dup4\n        /* \"contracts/calculator.sol\":176:187  val1 + val2 */\n      tag_32\n      swap2\n      swap1\n      tag_33\n      jump\t// in\n    tag_32:\n        /* \"contracts/calculator.sol\":169:187  return val1 + val2 */\n      swap1\n      pop\n        /* \"contracts/calculator.sol\":91:194  function add(uint8 val1, uint8 val2) public pure returns(uint8)... */\n      swap3\n      swap2\n      pop\n      pop\n      jump\t// out\n        /* \"contracts/calculator.sol\":310:413  function mul(uint8 val1, uint8 val2) public pure returns(uint8)... */\n    tag_23:\n        /* \"contracts/calculator.sol\":367:372  uint8 */\n      0x00\n        /* \"contracts/calculator.sol\":402:406  val2 */\n      dup2\n        /* \"contracts/calculator.sol\":395:399  val1 */\n      dup4\n        /* \"contracts/calculator.sol\":395:406  val1 * val2 */\n      tag_35\n      swap2\n      swap1\n      tag_36\n      jump\t// in\n    tag_35:\n        /* \"contracts/calculator.sol\":388:406  return val1 * val2 */\n      swap1\n      pop\n        /* \"contracts/calculator.sol\":310:413  function mul(uint8 val1, uint8 val2) public pure returns(uint8)... */\n      swap3\n      swap2\n      pop\n      pop\n      jump\t// out\n        /* \"#utility.yul\":88:205   */\n    tag_38:\n        /* \"#utility.yul\":197:198   */\n      0x00\n        /* \"#utility.yul\":194:195   */\n      dup1\n        /* \"#utility.yul\":187:199   */\n      revert\n        /* \"#utility.yul\":334:420   */\n    tag_40:\n        /* \"#utility.yul\":369:376   */\n      0x00\n        /* \"#utility.yul\":409:413   */\n      0xff\n        /* \"#utility.yul\":402:407   */\n      dup3\n        /* \"#utility.yul\":398:414   */\n      and\n        /* \"#utility.yul\":387:414   */\n      swap1\n      pop\n        /* \"#utility.yul\":334:420   */\n      swap2\n      swap1\n      pop\n      jump\t// out\n        /* \"#utility.yul\":426:544   */\n    tag_41:\n        /* \"#utility.yul\":497:519   */\n      tag_52\n        /* \"#utility.yul\":513:518   */\n      dup2\n        /* \"#utility.yul\":497:519   */\n      tag_40\n      jump\t// in\n    tag_52:\n        /* \"#utility.yul\":490:495   */\n      dup2\n        /* \"#utility.yul\":487:520   */\n      eq\n        /* \"#utility.yul\":477:538   */\n      tag_53\n      jumpi\n        /* \"#utility.yul\":534:535   */\n      0x00\n        /* \"#utility.yul\":531:532   */\n      dup1\n        /* \"#utility.yul\":524:536   */\n      revert\n        /* \"#utility.yul\":477:538   */\n    tag_53:\n        /* \"#utility.yul\":426:544   */\n      pop\n      jump\t// out\n        /* \"#utility.yul\":550:685   */\n    tag_42:\n        /* \"#utility.yul\":594:599   */\n      0x00\n        /* \"#utility.yul\":632:638   */\n      dup2\n        /* \"#utility.yul\":619:639   */\n      calldataload\n        /* \"#utility.yul\":610:639   */\n      swap1\n      pop\n        /* \"#utility.yul\":648:679   */\n      tag_55\n        /* \"#utility.yul\":673:678   */\n      dup2\n        /* \"#utility.yul\":648:679   */\n      tag_41\n      jump\t// in\n    tag_55:\n        /* \"#utility.yul\":550:685   */\n      swap3\n      swap2\n      pop\n      pop\n      jump\t// out\n        /* \"#utility.yul\":691:1157   */\n    tag_9:\n        /* \"#utility.yul\":755:761   */\n      0x00\n        /* \"#utility.yul\":763:769   */\n      dup1\n        /* \"#utility.yul\":812:814   */\n      0x40\n        /* \"#utility.yul\":800:809   */\n      dup4\n        /* \"#utility.yul\":791:798   */\n      dup6\n        /* \"#utility.yul\":787:810   */\n      sub\n        /* \"#utility.yul\":783:815   */\n      slt\n        /* \"#utility.yul\":780:899   */\n      iszero\n      tag_57\n      jumpi\n        /* \"#utility.yul\":818:897   */\n      tag_58\n      tag_38\n      jump\t// in\n    tag_58:\n        /* \"#utility.yul\":780:899   */\n    tag_57:\n        /* \"#utility.yul\":938:939   */\n      0x00\n        /* \"#utility.yul\":963:1014   */\n      tag_59\n        /* \"#utility.yul\":1006:1013   */\n      dup6\n        /* \"#utility.yul\":997:1003   */\n      dup3\n        /* \"#utility.yul\":986:995   */\n      dup7\n        /* \"#utility.yul\":982:1004   */\n      add\n        /* \"#utility.yul\":963:1014   */\n      tag_42\n      jump\t// in\n    tag_59:\n        /* \"#utility.yul\":953:1014   */\n      swap3\n      pop\n        /* \"#utility.yul\":909:1024   */\n      pop\n        /* \"#utility.yul\":1063:1065   */\n      0x20\n        /* \"#utility.yul\":1089:1140   */\n      tag_60\n        /* \"#utility.yul\":1132:1139   */\n      dup6\n        /* \"#utility.yul\":1123:1129   */\n      dup3\n        /* \"#utility.yul\":1112:1121   */\n      dup7\n        /* \"#utility.yul\":1108:1130   */\n      add\n        /* \"#utility.yul\":1089:1140   */\n      tag_42\n      jump\t// in\n    tag_60:\n        /* \"#utility.yul\":1079:1140   */\n      swap2\n      pop\n        /* \"#utility.yul\":1034:1150   */\n      pop\n        /* \"#utility.yul\":691:1157   */\n      swap3\n      pop\n      swap3\n      swap1\n      pop\n      jump\t// out\n        /* \"#utility.yul\":1163:1275   */\n    tag_43:\n        /* \"#utility.yul\":1246:1268   */\n      tag_62\n        /* \"#utility.yul\":1262:1267   */\n      dup2\n        /* \"#utility.yul\":1246:1268   */\n      tag_40\n      jump\t// in\n    tag_62:\n        /* \"#utility.yul\":1241:1244   */\n      dup3\n        /* \"#utility.yul\":1234:1269   */\n      mstore\n        /* \"#utility.yul\":1163:1275   */\n      pop\n      pop\n      jump\t// out\n        /* \"#utility.yul\":1281:1495   */\n    tag_12:\n        /* \"#utility.yul\":1370:1374   */\n      0x00\n        /* \"#utility.yul\":1408:1410   */\n      0x20\n        /* \"#utility.yul\":1397:1406   */\n      dup3\n        /* \"#utility.yul\":1393:1411   */\n      add\n        /* \"#utility.yul\":1385:1411   */\n      swap1\n      pop\n        /* \"#utility.yul\":1421:1488   */\n      tag_64\n        /* \"#utility.yul\":1485:1486   */\n      0x00\n        /* \"#utility.yul\":1474:1483   */\n      dup4\n        /* \"#utility.yul\":1470:1487   */\n      add\n        /* \"#utility.yul\":1461:1467   */\n      dup5\n        /* \"#utility.yul\":1421:1488   */\n      tag_43\n      jump\t// in\n    tag_64:\n        /* \"#utility.yul\":1281:1495   */\n      swap3\n      swap2\n      pop\n      pop\n      jump\t// out\n        /* \"#utility.yul\":1501:1681   */\n    tag_44:\n        /* \"#utility.yul\":1549:1626   */\n      0x4e487b7100000000000000000000000000000000000000000000000000000000\n        /* \"#utility.yul\":1546:1547   */\n      0x00\n        /* \"#utility.yul\":1539:1627   */\n      mstore\n        /* \"#utility.yul\":1646:1650   */\n      0x11\n        /* \"#utility.yul\":1643:1644   */\n      0x04\n        /* \"#utility.yul\":1636:1651   */\n      mstore\n        /* \"#utility.yul\":1670:1674   */\n      0x24\n        /* \"#utility.yul\":1667:1668   */\n      0x00\n        /* \"#utility.yul\":1660:1675   */\n      revert\n        /* \"#utility.yul\":1687:1872   */\n    tag_27:\n        /* \"#utility.yul\":1725:1729   */\n      0x00\n        /* \"#utility.yul\":1745:1763   */\n      tag_67\n        /* \"#utility.yul\":1761:1762   */\n      dup3\n        /* \"#utility.yul\":1745:1763   */\n      tag_40\n      jump\t// in\n    tag_67:\n        /* \"#utility.yul\":1740:1763   */\n      swap2\n      pop\n        /* \"#utility.yul\":1777:1795   */\n      tag_68\n        /* \"#utility.yul\":1793:1794   */\n      dup4\n        /* \"#utility.yul\":1777:1795   */\n      tag_40\n      jump\t// in\n    tag_68:\n        /* \"#utility.yul\":1772:1795   */\n      swap3\n      pop\n        /* \"#utility.yul\":1814:1815   */\n      dup3\n        /* \"#utility.yul\":1811:1812   */\n      dup3\n        /* \"#utility.yul\":1808:1816   */\n      lt\n        /* \"#utility.yul\":1805:1839   */\n      iszero\n      tag_69\n      jumpi\n        /* \"#utility.yul\":1819:1837   */\n      tag_70\n      tag_44\n      jump\t// in\n    tag_70:\n        /* \"#utility.yul\":1805:1839   */\n    tag_69:\n        /* \"#utility.yul\":1864:1865   */\n      dup3\n        /* \"#utility.yul\":1861:1862   */\n      dup3\n        /* \"#utility.yul\":1857:1866   */\n      sub\n        /* \"#utility.yul\":1849:1866   */\n      swap1\n      pop\n        /* \"#utility.yul\":1687:1872   */\n      swap3\n      swap2\n      pop\n      pop\n      jump\t// out\n        /* \"#utility.yul\":1878:2058   */\n    tag_45:\n        /* \"#utility.yul\":1926:2003   */\n      0x4e487b7100000000000000000000000000000000000000000000000000000000\n        /* \"#utility.yul\":1923:1924   */\n      0x00\n        /* \"#utility.yul\":1916:2004   */\n      mstore\n        /* \"#utility.yul\":2023:2027   */\n      0x12\n        /* \"#utility.yul\":2020:2021   */\n      0x04\n        /* \"#utility.yul\":2013:2028   */\n      mstore\n        /* \"#utility.yul\":2047:2051   */\n      0x24\n        /* \"#utility.yul\":2044:2045   */\n      0x00\n        /* \"#utility.yul\":2037:2052   */\n      revert\n        /* \"#utility.yul\":2064:2243   */\n    tag_30:\n        /* \"#utility.yul\":2102:2103   */\n      0x00\n        /* \"#utility.yul\":2119:2137   */\n      tag_73\n        /* \"#utility.yul\":2135:2136   */\n      dup3\n        /* \"#utility.yul\":2119:2137   */\n      tag_40\n      jump\t// in\n    tag_73:\n        /* \"#utility.yul\":2114:2137   */\n      swap2\n      pop\n        /* \"#utility.yul\":2151:2169   */\n      tag_74\n        /* \"#utility.yul\":2167:2168   */\n      dup4\n        /* \"#utility.yul\":2151:2169   */\n      tag_40\n      jump\t// in\n    tag_74:\n        /* \"#utility.yul\":2146:2169   */\n      swap3\n      pop\n        /* \"#utility.yul\":2188:2189   */\n      dup3\n        /* \"#utility.yul\":2178:2213   */\n      tag_75\n      jumpi\n        /* \"#utility.yul\":2193:2211   */\n      tag_76\n      tag_45\n      jump\t// in\n    tag_76:\n        /* \"#utility.yul\":2178:2213   */\n    tag_75:\n        /* \"#utility.yul\":2235:2236   */\n      dup3\n        /* \"#utility.yul\":2232:2233   */\n      dup3\n        /* \"#utility.yul\":2228:2237   */\n      div\n        /* \"#utility.yul\":2223:2237   */\n      swap1\n      pop\n        /* \"#utility.yul\":2064:2243   */\n      swap3\n      swap2\n      pop\n      pop\n      jump\t// out\n        /* \"#utility.yul\":2249:2486   */\n    tag_33:\n        /* \"#utility.yul\":2287:2290   */\n      0x00\n        /* \"#utility.yul\":2306:2324   */\n      tag_78\n        /* \"#utility.yul\":2322:2323   */\n      dup3\n        /* \"#utility.yul\":2306:2324   */\n      tag_40\n      jump\t// in\n    tag_78:\n        /* \"#utility.yul\":2301:2324   */\n      swap2\n      pop\n        /* \"#utility.yul\":2338:2356   */\n      tag_79\n        /* \"#utility.yul\":2354:2355   */\n      dup4\n        /* \"#utility.yul\":2338:2356   */\n      tag_40\n      jump\t// in\n    tag_79:\n        /* \"#utility.yul\":2333:2356   */\n      swap3\n      pop\n        /* \"#utility.yul\":2428:2429   */\n      dup3\n        /* \"#utility.yul\":2422:2426   */\n      0xff\n        /* \"#utility.yul\":2418:2430   */\n      sub\n        /* \"#utility.yul\":2415:2416   */\n      dup3\n        /* \"#utility.yul\":2412:2431   */\n      gt\n        /* \"#utility.yul\":2409:2454   */\n      iszero\n      tag_80\n      jumpi\n        /* \"#utility.yul\":2434:2452   */\n      tag_81\n      tag_44\n      jump\t// in\n    tag_81:\n        /* \"#utility.yul\":2409:2454   */\n    tag_80:\n        /* \"#utility.yul\":2478:2479   */\n      dup3\n        /* \"#utility.yul\":2475:2476   */\n      dup3\n        /* \"#utility.yul\":2471:2480   */\n      add\n        /* \"#utility.yul\":2464:2480   */\n      swap1\n      pop\n        /* \"#utility.yul\":2249:2486   */\n      swap3\n      swap2\n      pop\n      pop\n      jump\t// out\n        /* \"#utility.yul\":2492:2772   */\n    tag_36:\n        /* \"#utility.yul\":2530:2537   */\n      0x00\n        /* \"#utility.yul\":2553:2571   */\n      tag_83\n        /* \"#utility.yul\":2569:2570   */\n      dup3\n        /* \"#utility.yul\":2553:2571   */\n      tag_40\n      jump\t// in\n    tag_83:\n        /* \"#utility.yul\":2548:2571   */\n      swap2\n      pop\n        /* \"#utility.yul\":2585:2603   */\n      tag_84\n        /* \"#utility.yul\":2601:2602   */\n      dup4\n        /* \"#utility.yul\":2585:2603   */\n      tag_40\n      jump\t// in\n    tag_84:\n        /* \"#utility.yul\":2580:2603   */\n      swap3\n      pop\n        /* \"#utility.yul\":2709:2710   */\n      dup2\n        /* \"#utility.yul\":2703:2707   */\n      0xff\n        /* \"#utility.yul\":2699:2711   */\n      div\n        /* \"#utility.yul\":2696:2697   */\n      dup4\n        /* \"#utility.yul\":2693:2712   */\n      gt\n        /* \"#utility.yul\":2688:2689   */\n      dup3\n        /* \"#utility.yul\":2681:2690   */\n      iszero\n        /* \"#utility.yul\":2674:2691   */\n      iszero\n        /* \"#utility.yul\":2670:2713   */\n      and\n        /* \"#utility.yul\":2667:2736   */\n      iszero\n      tag_85\n      jumpi\n        /* \"#utility.yul\":2716:2734   */\n      tag_86\n      tag_44\n      jump\t// in\n    tag_86:\n        /* \"#utility.yul\":2667:2736   */\n    tag_85:\n        /* \"#utility.yul\":2764:2765   */\n      dup3\n        /* \"#utility.yul\":2761:2762   */\n      dup3\n        /* \"#utility.yul\":2757:2766   */\n      mul\n        /* \"#utility.yul\":2746:2766   */\n      swap1\n      pop\n        /* \"#utility.yul\":2492:2772   */\n      swap3\n      swap2\n      pop\n      pop\n      jump\t// out\n\n    auxdata: 0xa26469706673582212201ca73014e85cdc7ba0be8d0876a77b97802226f2ebd445d4c8e0cc255737f57864736f6c634300080f0033\n}\n",
				"bytecode": {
					"linkReferences": {},
					"object": "608060405234801561001057600080fd5b5061037c806100206000396000f3fe608060405234801561001057600080fd5b506004361061004c5760003560e01c80631e5f34af1461005157806321c60ac614610081578063bb4e3f4d146100b1578063e51a3b40146100e1575b600080fd5b61006b600480360381019061006691906101a7565b610111565b60405161007891906101f6565b60405180910390f35b61009b600480360381019061009691906101a7565b610127565b6040516100a891906101f6565b60405180910390f35b6100cb60048036038101906100c691906101a7565b61013d565b6040516100d891906101f6565b60405180910390f35b6100fb60048036038101906100f691906101a7565b610153565b60405161010891906101f6565b60405180910390f35b6000818361011f9190610240565b905092915050565b6000818361013591906102a3565b905092915050565b6000818361014b91906102d4565b905092915050565b60008183610161919061030b565b905092915050565b600080fd5b600060ff82169050919050565b6101848161016e565b811461018f57600080fd5b50565b6000813590506101a18161017b565b92915050565b600080604083850312156101be576101bd610169565b5b60006101cc85828601610192565b92505060206101dd85828601610192565b9150509250929050565b6101f08161016e565b82525050565b600060208201905061020b60008301846101e7565b92915050565b7f4e487b7100000000000000000000000000000000000000000000000000000000600052601160045260246000fd5b600061024b8261016e565b91506102568361016e565b92508282101561026957610268610211565b5b828203905092915050565b7f4e487b7100000000000000000000000000000000000000000000000000000000600052601260045260246000fd5b60006102ae8261016e565b91506102b98361016e565b9250826102c9576102c8610274565b5b828204905092915050565b60006102df8261016e565b91506102ea8361016e565b92508260ff03821115610300576102ff610211565b5b828201905092915050565b60006103168261016e565b91506103218361016e565b92508160ff048311821515161561033b5761033a610211565b5b82820290509291505056fea26469706673582212201ca73014e85cdc7ba0be8d0876a77b97802226f2ebd445d4c8e0cc255737f57864736f6c634300080f0033",
					"opcodes": "PUSH1 0x80 PUSH1 0x40 MSTORE CALLVALUE DUP1 ISZERO PUSH2 0x10 JUMPI PUSH1 0x0 DUP1 REVERT JUMPDEST POP PUSH2 0x37C DUP1 PUSH2 0x20 PUSH1 0x0 CODECOPY PUSH1 0x0 RETURN INVALID PUSH1 0x80 PUSH1 0x40 MSTORE CALLVALUE DUP1 ISZERO PUSH2 0x10 JUMPI PUSH1 0x0 DUP1 REVERT JUMPDEST POP PUSH1 0x4 CALLDATASIZE LT PUSH2 0x4C JUMPI PUSH1 0x0 CALLDATALOAD PUSH1 0xE0 SHR DUP1 PUSH4 0x1E5F34AF EQ PUSH2 0x51 JUMPI DUP1 PUSH4 0x21C60AC6 EQ PUSH2 0x81 JUMPI DUP1 PUSH4 0xBB4E3F4D EQ PUSH2 0xB1 JUMPI DUP1 PUSH4 0xE51A3B40 EQ PUSH2 0xE1 JUMPI JUMPDEST PUSH1 0x0 DUP1 REVERT JUMPDEST PUSH2 0x6B PUSH1 0x4 DUP1 CALLDATASIZE SUB DUP2 ADD SWAP1 PUSH2 0x66 SWAP2 SWAP1 PUSH2 0x1A7 JUMP JUMPDEST PUSH2 0x111 JUMP JUMPDEST PUSH1 0x40 MLOAD PUSH2 0x78 SWAP2 SWAP1 PUSH2 0x1F6 JUMP JUMPDEST PUSH1 0x40 MLOAD DUP1 SWAP2 SUB SWAP1 RETURN JUMPDEST PUSH2 0x9B PUSH1 0x4 DUP1 CALLDATASIZE SUB DUP2 ADD SWAP1 PUSH2 0x96 SWAP2 SWAP1 PUSH2 0x1A7 JUMP JUMPDEST PUSH2 0x127 JUMP JUMPDEST PUSH1 0x40 MLOAD PUSH2 0xA8 SWAP2 SWAP1 PUSH2 0x1F6 JUMP JUMPDEST PUSH1 0x40 MLOAD DUP1 SWAP2 SUB SWAP1 RETURN JUMPDEST PUSH2 0xCB PUSH1 0x4 DUP1 CALLDATASIZE SUB DUP2 ADD SWAP1 PUSH2 0xC6 SWAP2 SWAP1 PUSH2 0x1A7 JUMP JUMPDEST PUSH2 0x13D JUMP JUMPDEST PUSH1 0x40 MLOAD PUSH2 0xD8 SWAP2 SWAP1 PUSH2 0x1F6 JUMP JUMPDEST PUSH1 0x40 MLOAD DUP1 SWAP2 SUB SWAP1 RETURN JUMPDEST PUSH2 0xFB PUSH1 0x4 DUP1 CALLDATASIZE SUB DUP2 ADD SWAP1 PUSH2 0xF6 SWAP2 SWAP1 PUSH2 0x1A7 JUMP JUMPDEST PUSH2 0x153 JUMP JUMPDEST PUSH1 0x40 MLOAD PUSH2 0x108 SWAP2 SWAP1 PUSH2 0x1F6 JUMP JUMPDEST PUSH1 0x40 MLOAD DUP1 SWAP2 SUB SWAP1 RETURN JUMPDEST PUSH1 0x0 DUP2 DUP4 PUSH2 0x11F SWAP2 SWAP1 PUSH2 0x240 JUMP JUMPDEST SWAP1 POP SWAP3 SWAP2 POP POP JUMP JUMPDEST PUSH1 0x0 DUP2 DUP4 PUSH2 0x135 SWAP2 SWAP1 PUSH2 0x2A3 JUMP JUMPDEST SWAP1 POP SWAP3 SWAP2 POP POP JUMP JUMPDEST PUSH1 0x0 DUP2 DUP4 PUSH2 0x14B SWAP2 SWAP1 PUSH2 0x2D4 JUMP JUMPDEST SWAP1 POP SWAP3 SWAP2 POP POP JUMP JUMPDEST PUSH1 0x0 DUP2 DUP4 PUSH2 0x161 SWAP2 SWAP1 PUSH2 0x30B JUMP JUMPDEST SWAP1 POP SWAP3 SWAP2 POP POP JUMP JUMPDEST PUSH1 0x0 DUP1 REVERT JUMPDEST PUSH1 0x0 PUSH1 0xFF DUP3 AND SWAP1 POP SWAP2 SWAP1 POP JUMP JUMPDEST PUSH2 0x184 DUP2 PUSH2 0x16E JUMP JUMPDEST DUP2 EQ PUSH2 0x18F JUMPI PUSH1 0x0 DUP1 REVERT JUMPDEST POP JUMP JUMPDEST PUSH1 0x0 DUP2 CALLDATALOAD SWAP1 POP PUSH2 0x1A1 DUP2 PUSH2 0x17B JUMP JUMPDEST SWAP3 SWAP2 POP POP JUMP JUMPDEST PUSH1 0x0 DUP1 PUSH1 0x40 DUP4 DUP6 SUB SLT ISZERO PUSH2 0x1BE JUMPI PUSH2 0x1BD PUSH2 0x169 JUMP JUMPDEST JUMPDEST PUSH1 0x0 PUSH2 0x1CC DUP6 DUP3 DUP7 ADD PUSH2 0x192 JUMP JUMPDEST SWAP3 POP POP PUSH1 0x20 PUSH2 0x1DD DUP6 DUP3 DUP7 ADD PUSH2 0x192 JUMP JUMPDEST SWAP2 POP POP SWAP3 POP SWAP3 SWAP1 POP JUMP JUMPDEST PUSH2 0x1F0 DUP2 PUSH2 0x16E JUMP JUMPDEST DUP3 MSTORE POP POP JUMP JUMPDEST PUSH1 0x0 PUSH1 0x20 DUP3 ADD SWAP1 POP PUSH2 0x20B PUSH1 0x0 DUP4 ADD DUP5 PUSH2 0x1E7 JUMP JUMPDEST SWAP3 SWAP2 POP POP JUMP JUMPDEST PUSH32 0x4E487B7100000000000000000000000000000000000000000000000000000000 PUSH1 0x0 MSTORE PUSH1 0x11 PUSH1 0x4 MSTORE PUSH1 0x24 PUSH1 0x0 REVERT JUMPDEST PUSH1 0x0 PUSH2 0x24B DUP3 PUSH2 0x16E JUMP JUMPDEST SWAP2 POP PUSH2 0x256 DUP4 PUSH2 0x16E JUMP JUMPDEST SWAP3 POP DUP3 DUP3 LT ISZERO PUSH2 0x269 JUMPI PUSH2 0x268 PUSH2 0x211 JUMP JUMPDEST JUMPDEST DUP3 DUP3 SUB SWAP1 POP SWAP3 SWAP2 POP POP JUMP JUMPDEST PUSH32 0x4E487B7100000000000000000000000000000000000000000000000000000000 PUSH1 0x0 MSTORE PUSH1 0x12 PUSH1 0x4 MSTORE PUSH1 0x24 PUSH1 0x0 REVERT JUMPDEST PUSH1 0x0 PUSH2 0x2AE DUP3 PUSH2 0x16E JUMP JUMPDEST SWAP2 POP PUSH2 0x2B9 DUP4 PUSH2 0x16E JUMP JUMPDEST SWAP3 POP DUP3 PUSH2 0x2C9 JUMPI PUSH2 0x2C8 PUSH2 0x274 JUMP JUMPDEST JUMPDEST DUP3 DUP3 DIV SWAP1 POP SWAP3 SWAP2 POP POP JUMP JUMPDEST PUSH1 0x0 PUSH2 0x2DF DUP3 PUSH2 0x16E JUMP JUMPDEST SWAP2 POP PUSH2 0x2EA DUP4 PUSH2 0x16E JUMP JUMPDEST SWAP3 POP DUP3 PUSH1 0xFF SUB DUP3 GT ISZERO PUSH2 0x300 JUMPI PUSH2 0x2FF PUSH2 0x211 JUMP JUMPDEST JUMPDEST DUP3 DUP3 ADD SWAP1 POP SWAP3 SWAP2 POP POP JUMP JUMPDEST PUSH1 0x0 PUSH2 0x316 DUP3 PUSH2 0x16E JUMP JUMPDEST SWAP2 POP PUSH2 0x321 DUP4 PUSH2 0x16E JUMP JUMPDEST SWAP3 POP DUP2 PUSH1 0xFF DIV DUP4 GT DUP3 ISZERO ISZERO AND ISZERO PUSH2 0x33B JUMPI PUSH2 0x33A PUSH2 0x211 JUMP JUMPDEST JUMPDEST DUP3 DUP3 MUL SWAP1 POP SWAP3 SWAP2 POP POP JUMP INVALID LOG2 PUSH5 0x6970667358 0x22 SLT KECCAK256 SHR 0xA7 ADDRESS EQ 0xE8 0x5C 0xDC PUSH28 0xA0BE8D0876A77B97802226F2EBD445D4C8E0CC255737F57864736F6C PUSH4 0x4300080F STOP CALLER "
				},
				"gasEstimates": {
					"creation": {
						"codeDepositCost": "178400",
						"executionCost": "220",
						"totalCost": "178620"
					},
					"external": {
						"add(uint8,uint8)": "infinite",
						"div(uint8,uint8)": "infinite",
						"mul(uint8,uint8)": "infinite",
						"sub(uint8,uint8)": "infinite"
					}
				},
				"methodIdentifiers": {
					"add(uint8,uint8)": "bb4e3f4d",
					"div(uint8,uint8)": "21c60ac6",
					"mul(uint8,uint8)": "e51a3b40",
					"sub(uint8,uint8)": "1e5f34af"
				}
			},
			"storageLayout": {
				"storage": [],
				"types": null
			},
			"userdoc": {
				"kind": "user",
				"methods": {},
				"version": 1
			}
		}
	}
}