{
	"contracts/solidity-class-2.sol": {
		"task1": {
			"abi": [
				{
					"anonymous": false,
					"inputs": [
						{
							"indexed": false,
							"internalType": "string",
							"name": "",
							"type": "string"
						},
						{
							"indexed": false,
							"internalType": "string",
							"name": "",
							"type": "string"
						},
						{
							"indexed": false,
							"internalType": "address",
							"name": "",
							"type": "address"
						}
					],
					"name": "studentReg",
					"type": "event"
				},
				{
					"inputs": [],
					"name": "book_info",
					"outputs": [
						{
							"internalType": "string",
							"name": "",
							"type": "string"
						},
						{
							"internalType": "string",
							"name": "",
							"type": "string"
						},
						{
							"internalType": "uint256",
							"name": "",
							"type": "uint256"
						},
						{
							"internalType": "bool",
							"name": "",
							"type": "bool"
						}
					],
					"stateMutability": "view",
					"type": "function"
				},
				{
					"inputs": [],
					"name": "getBalance",
					"outputs": [
						{
							"internalType": "uint256",
							"name": "",
							"type": "uint256"
						}
					],
					"stateMutability": "view",
					"type": "function"
				},
				{
					"inputs": [],
					"name": "getData",
					"outputs": [
						{
							"internalType": "uint256",
							"name": "",
							"type": "uint256"
						}
					],
					"stateMutability": "view",
					"type": "function"
				},
				{
					"inputs": [
						{
							"internalType": "address",
							"name": "_id",
							"type": "address"
						}
					],
					"name": "getStudentData",
					"outputs": [
						{
							"components": [
								{
									"internalType": "string",
									"name": "name",
									"type": "string"
								},
								{
									"internalType": "string",
									"name": "fame",
									"type": "string"
								},
								{
									"internalType": "address",
									"name": "id",
									"type": "address"
								}
							],
							"internalType": "struct task1.student",
							"name": "",
							"type": "tuple"
						}
					],
					"stateMutability": "view",
					"type": "function"
				},
				{
					"inputs": [],
					"name": "get_details",
					"outputs": [
						{
							"internalType": "string",
							"name": "",
							"type": "string"
						},
						{
							"internalType": "uint256",
							"name": "",
							"type": "uint256"
						}
					],
					"stateMutability": "view",
					"type": "function"
				},
				{
					"inputs": [],
					"name": "setBalance",
					"outputs": [],
					"stateMutability": "nonpayable",
					"type": "function"
				},
				{
					"inputs": [],
					"name": "setData",
					"outputs": [],
					"stateMutability": "nonpayable",
					"type": "function"
				},
				{
					"inputs": [
						{
							"internalType": "string",
							"name": "_name",
							"type": "string"
						},
						{
							"internalType": "string",
							"name": "_parentName",
							"type": "string"
						},
						{
							"internalType": "address",
							"name": "_id",
							"type": "address"
						}
					],
					"name": "setStruct",
					"outputs": [],
					"stateMutability": "nonpayable",
					"type": "function"
				},
				{
					"inputs": [
						{
							"internalType": "string",
							"name": "name",
							"type": "string"
						},
						{
							"internalType": "string",
							"name": "writer",
							"type": "string"
						},
						{
							"internalType": "uint256",
							"name": "id",
							"type": "uint256"
						}
					],
					"name": "set_book_detail",
					"outputs": [],
					"stateMutability": "nonpayable",
					"type": "function"
				}
			],
			"devdoc": {
				"kind": "dev",
				"methods": {},
				"version": 1
			},
			"evm": {
				"assembly": "    /* \"contracts/solidity-class-2.sol\":64:2013  contract task1 ... */\n  mstore(0x40, 0x80)\n    /* \"contracts/solidity-class-2.sol\":253:313  Book(\"Building Ethereum DApps\", \"Roberto Infante \",2, false) */\n  mload(0x40)\n  dup1\n  0x80\n  add\n  0x40\n  mstore\n  dup1\n  mload(0x40)\n  dup1\n  0x40\n  add\n  0x40\n  mstore\n  dup1\n  0x17\n  dup2\n  mstore\n  0x20\n  add\n  0x4275696c64696e6720457468657265756d204441707073000000000000000000\n  dup2\n  mstore\n  pop\n  dup2\n  mstore\n  0x20\n  add\n  mload(0x40)\n  dup1\n  0x40\n  add\n  0x40\n  mstore\n  dup1\n  0x10\n  dup2\n  mstore\n  0x20\n  add\n  0x526f626572746f20496e66616e74652000000000000000000000000000000000\n  dup2\n  mstore\n  pop\n  dup2\n  mstore\n  0x20\n  add\n    /* \"contracts/solidity-class-2.sol\":304:305  2 */\n  0x02\n    /* \"contracts/solidity-class-2.sol\":253:313  Book(\"Building Ethereum DApps\", \"Roberto Infante \",2, false) */\n  dup2\n  mstore\n  0x20\n  add\n    /* \"contracts/solidity-class-2.sol\":307:312  false */\n  0x00\n    /* \"contracts/solidity-class-2.sol\":253:313  Book(\"Building Ethereum DApps\", \"Roberto Infante \",2, false) */\n  iszero\n  iszero\n  dup2\n  mstore\n  pop\n    /* \"contracts/solidity-class-2.sol\":240:313  Book book2 = Book(\"Building Ethereum DApps\", \"Roberto Infante \",2, false) */\n  0x04\n  0x00\n  dup3\n  add\n  mload\n  dup2\n  0x00\n  add\n  swap1\n  dup2\n  tag_1\n  swap2\n  swap1\n  tag_2\n  jump\t// in\ntag_1:\n  pop\n  0x20\n  dup3\n  add\n  mload\n  dup2\n  0x01\n  add\n  swap1\n  dup2\n  tag_3\n  swap2\n  swap1\n  tag_2\n  jump\t// in\ntag_3:\n  pop\n  0x40\n  dup3\n  add\n  mload\n  dup2\n  0x02\n  add\n  sstore\n  0x60\n  dup3\n  add\n  mload\n  dup2\n  0x03\n  add\n  exp(0x0100, 0x00)\n  dup2\n  sload\n  dup2\n  0xff\n  mul\n  not\n  and\n  swap1\n  dup4\n  iszero\n  iszero\n  mul\n  or\n  swap1\n  sstore\n  pop\n  pop\n  pop\n    /* \"contracts/solidity-class-2.sol\":985:1027  0xAb8483F64d9C6d1EcF9b849Ae677dD3315835cb2 */\n  0xab8483f64d9c6d1ecf9b849ae677dd3315835cb2\n    /* \"contracts/solidity-class-2.sol\":958:1027  address marketingAddress = 0xAb8483F64d9C6d1EcF9b849Ae677dD3315835cb2 */\n  0x0a\n  exp(0x0100, 0x00)\n  dup2\n  sload\n  dup2\n  0xffffffffffffffffffffffffffffffffffffffff\n  mul\n  not\n  and\n  swap1\n  dup4\n  0xffffffffffffffffffffffffffffffffffffffff\n  and\n  mul\n  or\n  swap1\n  sstore\n  pop\n    /* \"contracts/solidity-class-2.sol\":64:2013  contract task1 ... */\n  callvalue\n  dup1\n  iszero\n  tag_4\n  jumpi\n  0x00\n  dup1\n  revert\ntag_4:\n  pop\n  jump(tag_5)\n    /* \"#utility.yul\":7:106   */\ntag_6:\n    /* \"#utility.yul\":59:65   */\n  0x00\n    /* \"#utility.yul\":93:98   */\n  dup2\n    /* \"#utility.yul\":87:99   */\n  mload\n    /* \"#utility.yul\":77:99   */\n  swap1\n  pop\n    /* \"#utility.yul\":7:106   */\n  swap2\n  swap1\n  pop\n  jump\t// out\n    /* \"#utility.yul\":112:292   */\ntag_7:\n    /* \"#utility.yul\":160:237   */\n  0x4e487b7100000000000000000000000000000000000000000000000000000000\n    /* \"#utility.yul\":157:158   */\n  0x00\n    /* \"#utility.yul\":150:238   */\n  mstore\n    /* \"#utility.yul\":257:261   */\n  0x41\n    /* \"#utility.yul\":254:255   */\n  0x04\n    /* \"#utility.yul\":247:262   */\n  mstore\n    /* \"#utility.yul\":281:285   */\n  0x24\n    /* \"#utility.yul\":278:279   */\n  0x00\n    /* \"#utility.yul\":271:286   */\n  revert\n    /* \"#utility.yul\":298:478   */\ntag_8:\n    /* \"#utility.yul\":346:423   */\n  0x4e487b7100000000000000000000000000000000000000000000000000000000\n    /* \"#utility.yul\":343:344   */\n  0x00\n    /* \"#utility.yul\":336:424   */\n  mstore\n    /* \"#utility.yul\":443:447   */\n  0x22\n    /* \"#utility.yul\":440:441   */\n  0x04\n    /* \"#utility.yul\":433:448   */\n  mstore\n    /* \"#utility.yul\":467:471   */\n  0x24\n    /* \"#utility.yul\":464:465   */\n  0x00\n    /* \"#utility.yul\":457:472   */\n  revert\n    /* \"#utility.yul\":484:804   */\ntag_9:\n    /* \"#utility.yul\":528:534   */\n  0x00\n    /* \"#utility.yul\":565:566   */\n  0x02\n    /* \"#utility.yul\":559:563   */\n  dup3\n    /* \"#utility.yul\":555:567   */\n  div\n    /* \"#utility.yul\":545:567   */\n  swap1\n  pop\n    /* \"#utility.yul\":612:613   */\n  0x01\n    /* \"#utility.yul\":606:610   */\n  dup3\n    /* \"#utility.yul\":602:614   */\n  and\n    /* \"#utility.yul\":633:651   */\n  dup1\n    /* \"#utility.yul\":623:704   */\n  tag_31\n  jumpi\n    /* \"#utility.yul\":689:693   */\n  0x7f\n    /* \"#utility.yul\":681:687   */\n  dup3\n    /* \"#utility.yul\":677:694   */\n  and\n    /* \"#utility.yul\":667:694   */\n  swap2\n  pop\n    /* \"#utility.yul\":623:704   */\ntag_31:\n    /* \"#utility.yul\":751:753   */\n  0x20\n    /* \"#utility.yul\":743:749   */\n  dup3\n    /* \"#utility.yul\":740:754   */\n  lt\n    /* \"#utility.yul\":720:738   */\n  dup2\n    /* \"#utility.yul\":717:755   */\n  sub\n    /* \"#utility.yul\":714:798   */\n  tag_32\n  jumpi\n    /* \"#utility.yul\":770:788   */\n  tag_33\n  tag_8\n  jump\t// in\ntag_33:\n    /* \"#utility.yul\":714:798   */\ntag_32:\n    /* \"#utility.yul\":535:804   */\n  pop\n    /* \"#utility.yul\":484:804   */\n  swap2\n  swap1\n  pop\n  jump\t// out\n    /* \"#utility.yul\":810:951   */\ntag_10:\n    /* \"#utility.yul\":859:863   */\n  0x00\n    /* \"#utility.yul\":882:885   */\n  dup2\n    /* \"#utility.yul\":874:885   */\n  swap1\n  pop\n    /* \"#utility.yul\":905:908   */\n  dup2\n    /* \"#utility.yul\":902:903   */\n  0x00\n    /* \"#utility.yul\":895:909   */\n  mstore\n    /* \"#utility.yul\":939:943   */\n  0x20\n    /* \"#utility.yul\":936:937   */\n  0x00\n    /* \"#utility.yul\":926:944   */\n  keccak256\n    /* \"#utility.yul\":918:944   */\n  swap1\n  pop\n    /* \"#utility.yul\":810:951   */\n  swap2\n  swap1\n  pop\n  jump\t// out\n    /* \"#utility.yul\":957:1050   */\ntag_11:\n    /* \"#utility.yul\":994:1000   */\n  0x00\n    /* \"#utility.yul\":1041:1043   */\n  0x20\n    /* \"#utility.yul\":1036:1038   */\n  0x1f\n    /* \"#utility.yul\":1029:1034   */\n  dup4\n    /* \"#utility.yul\":1025:1039   */\n  add\n    /* \"#utility.yul\":1021:1044   */\n  div\n    /* \"#utility.yul\":1011:1044   */\n  swap1\n  pop\n    /* \"#utility.yul\":957:1050   */\n  swap2\n  swap1\n  pop\n  jump\t// out\n    /* \"#utility.yul\":1056:1163   */\ntag_12:\n    /* \"#utility.yul\":1100:1108   */\n  0x00\n    /* \"#utility.yul\":1150:1155   */\n  dup3\n    /* \"#utility.yul\":1144:1148   */\n  dup3\n    /* \"#utility.yul\":1140:1156   */\n  shl\n    /* \"#utility.yul\":1119:1156   */\n  swap1\n  pop\n    /* \"#utility.yul\":1056:1163   */\n  swap3\n  swap2\n  pop\n  pop\n  jump\t// out\n    /* \"#utility.yul\":1169:1562   */\ntag_13:\n    /* \"#utility.yul\":1238:1244   */\n  0x00\n    /* \"#utility.yul\":1288:1289   */\n  0x08\n    /* \"#utility.yul\":1276:1286   */\n  dup4\n    /* \"#utility.yul\":1272:1290   */\n  mul\n    /* \"#utility.yul\":1311:1408   */\n  tag_38\n    /* \"#utility.yul\":1341:1407   */\n  0xffffffffffffffffffffffffffffffffffffffffffffffffffffffffffffffff\n    /* \"#utility.yul\":1330:1339   */\n  dup3\n    /* \"#utility.yul\":1311:1408   */\n  tag_12\n  jump\t// in\ntag_38:\n    /* \"#utility.yul\":1429:1468   */\n  tag_39\n    /* \"#utility.yul\":1459:1467   */\n  dup7\n    /* \"#utility.yul\":1448:1457   */\n  dup4\n    /* \"#utility.yul\":1429:1468   */\n  tag_12\n  jump\t// in\ntag_39:\n    /* \"#utility.yul\":1417:1468   */\n  swap6\n  pop\n    /* \"#utility.yul\":1501:1505   */\n  dup1\n    /* \"#utility.yul\":1497:1506   */\n  not\n    /* \"#utility.yul\":1490:1495   */\n  dup5\n    /* \"#utility.yul\":1486:1507   */\n  and\n    /* \"#utility.yul\":1477:1507   */\n  swap4\n  pop\n    /* \"#utility.yul\":1550:1554   */\n  dup1\n    /* \"#utility.yul\":1540:1548   */\n  dup7\n    /* \"#utility.yul\":1536:1555   */\n  and\n    /* \"#utility.yul\":1529:1534   */\n  dup5\n    /* \"#utility.yul\":1526:1556   */\n  or\n    /* \"#utility.yul\":1516:1556   */\n  swap3\n  pop\n    /* \"#utility.yul\":1245:1562   */\n  pop\n  pop\n    /* \"#utility.yul\":1169:1562   */\n  swap4\n  swap3\n  pop\n  pop\n  pop\n  jump\t// out\n    /* \"#utility.yul\":1568:1645   */\ntag_14:\n    /* \"#utility.yul\":1605:1612   */\n  0x00\n    /* \"#utility.yul\":1634:1639   */\n  dup2\n    /* \"#utility.yul\":1623:1639   */\n  swap1\n  pop\n    /* \"#utility.yul\":1568:1645   */\n  swap2\n  swap1\n  pop\n  jump\t// out\n    /* \"#utility.yul\":1651:1711   */\ntag_15:\n    /* \"#utility.yul\":1679:1682   */\n  0x00\n    /* \"#utility.yul\":1700:1705   */\n  dup2\n    /* \"#utility.yul\":1693:1705   */\n  swap1\n  pop\n    /* \"#utility.yul\":1651:1711   */\n  swap2\n  swap1\n  pop\n  jump\t// out\n    /* \"#utility.yul\":1717:1859   */\ntag_16:\n    /* \"#utility.yul\":1767:1776   */\n  0x00\n    /* \"#utility.yul\":1800:1853   */\n  tag_43\n    /* \"#utility.yul\":1818:1852   */\n  tag_44\n    /* \"#utility.yul\":1827:1851   */\n  tag_45\n    /* \"#utility.yul\":1845:1850   */\n  dup5\n    /* \"#utility.yul\":1827:1851   */\n  tag_14\n  jump\t// in\ntag_45:\n    /* \"#utility.yul\":1818:1852   */\n  tag_15\n  jump\t// in\ntag_44:\n    /* \"#utility.yul\":1800:1853   */\n  tag_14\n  jump\t// in\ntag_43:\n    /* \"#utility.yul\":1787:1853   */\n  swap1\n  pop\n    /* \"#utility.yul\":1717:1859   */\n  swap2\n  swap1\n  pop\n  jump\t// out\n    /* \"#utility.yul\":1865:1940   */\ntag_17:\n    /* \"#utility.yul\":1908:1911   */\n  0x00\n    /* \"#utility.yul\":1929:1934   */\n  dup2\n    /* \"#utility.yul\":1922:1934   */\n  swap1\n  pop\n    /* \"#utility.yul\":1865:1940   */\n  swap2\n  swap1\n  pop\n  jump\t// out\n    /* \"#utility.yul\":1946:2215   */\ntag_18:\n    /* \"#utility.yul\":2056:2095   */\n  tag_48\n    /* \"#utility.yul\":2087:2094   */\n  dup4\n    /* \"#utility.yul\":2056:2095   */\n  tag_16\n  jump\t// in\ntag_48:\n    /* \"#utility.yul\":2117:2208   */\n  tag_49\n    /* \"#utility.yul\":2166:2207   */\n  tag_50\n    /* \"#utility.yul\":2190:2206   */\n  dup3\n    /* \"#utility.yul\":2166:2207   */\n  tag_17\n  jump\t// in\ntag_50:\n    /* \"#utility.yul\":2158:2164   */\n  dup5\n    /* \"#utility.yul\":2151:2155   */\n  dup5\n    /* \"#utility.yul\":2145:2156   */\n  sload\n    /* \"#utility.yul\":2117:2208   */\n  tag_13\n  jump\t// in\ntag_49:\n    /* \"#utility.yul\":2111:2115   */\n  dup3\n    /* \"#utility.yul\":2104:2209   */\n  sstore\n    /* \"#utility.yul\":2022:2215   */\n  pop\n    /* \"#utility.yul\":1946:2215   */\n  pop\n  pop\n  pop\n  jump\t// out\n    /* \"#utility.yul\":2221:2294   */\ntag_19:\n    /* \"#utility.yul\":2266:2269   */\n  0x00\n    /* \"#utility.yul\":2221:2294   */\n  swap1\n  jump\t// out\n    /* \"#utility.yul\":2300:2489   */\ntag_20:\n    /* \"#utility.yul\":2377:2409   */\n  tag_53\n  tag_19\n  jump\t// in\ntag_53:\n    /* \"#utility.yul\":2418:2483   */\n  tag_54\n    /* \"#utility.yul\":2476:2482   */\n  dup2\n    /* \"#utility.yul\":2468:2474   */\n  dup5\n    /* \"#utility.yul\":2462:2466   */\n  dup5\n    /* \"#utility.yul\":2418:2483   */\n  tag_18\n  jump\t// in\ntag_54:\n    /* \"#utility.yul\":2353:2489   */\n  pop\n    /* \"#utility.yul\":2300:2489   */\n  pop\n  pop\n  jump\t// out\n    /* \"#utility.yul\":2495:2681   */\ntag_21:\n    /* \"#utility.yul\":2555:2675   */\ntag_56:\n    /* \"#utility.yul\":2572:2575   */\n  dup2\n    /* \"#utility.yul\":2565:2570   */\n  dup2\n    /* \"#utility.yul\":2562:2576   */\n  lt\n    /* \"#utility.yul\":2555:2675   */\n  iszero\n  tag_58\n  jumpi\n    /* \"#utility.yul\":2626:2665   */\n  tag_59\n    /* \"#utility.yul\":2663:2664   */\n  0x00\n    /* \"#utility.yul\":2656:2661   */\n  dup3\n    /* \"#utility.yul\":2626:2665   */\n  tag_20\n  jump\t// in\ntag_59:\n    /* \"#utility.yul\":2599:2600   */\n  0x01\n    /* \"#utility.yul\":2592:2597   */\n  dup2\n    /* \"#utility.yul\":2588:2601   */\n  add\n    /* \"#utility.yul\":2579:2601   */\n  swap1\n  pop\n    /* \"#utility.yul\":2555:2675   */\n  jump(tag_56)\ntag_58:\n    /* \"#utility.yul\":2495:2681   */\n  pop\n  pop\n  jump\t// out\n    /* \"#utility.yul\":2687:3230   */\ntag_22:\n    /* \"#utility.yul\":2788:2790   */\n  0x1f\n    /* \"#utility.yul\":2783:2786   */\n  dup3\n    /* \"#utility.yul\":2780:2791   */\n  gt\n    /* \"#utility.yul\":2777:3223   */\n  iszero\n  tag_61\n  jumpi\n    /* \"#utility.yul\":2822:2860   */\n  tag_62\n    /* \"#utility.yul\":2854:2859   */\n  dup2\n    /* \"#utility.yul\":2822:2860   */\n  tag_10\n  jump\t// in\ntag_62:\n    /* \"#utility.yul\":2906:2935   */\n  tag_63\n    /* \"#utility.yul\":2924:2934   */\n  dup5\n    /* \"#utility.yul\":2906:2935   */\n  tag_11\n  jump\t// in\ntag_63:\n    /* \"#utility.yul\":2896:2904   */\n  dup2\n    /* \"#utility.yul\":2892:2936   */\n  add\n    /* \"#utility.yul\":3089:3091   */\n  0x20\n    /* \"#utility.yul\":3077:3087   */\n  dup6\n    /* \"#utility.yul\":3074:3092   */\n  lt\n    /* \"#utility.yul\":3071:3120   */\n  iszero\n  tag_64\n  jumpi\n    /* \"#utility.yul\":3110:3118   */\n  dup2\n    /* \"#utility.yul\":3095:3118   */\n  swap1\n  pop\n    /* \"#utility.yul\":3071:3120   */\ntag_64:\n    /* \"#utility.yul\":3133:3213   */\n  tag_65\n    /* \"#utility.yul\":3189:3211   */\n  tag_66\n    /* \"#utility.yul\":3207:3210   */\n  dup6\n    /* \"#utility.yul\":3189:3211   */\n  tag_11\n  jump\t// in\ntag_66:\n    /* \"#utility.yul\":3179:3187   */\n  dup4\n    /* \"#utility.yul\":3175:3212   */\n  add\n    /* \"#utility.yul\":3162:3173   */\n  dup3\n    /* \"#utility.yul\":3133:3213   */\n  tag_21\n  jump\t// in\ntag_65:\n    /* \"#utility.yul\":2792:3223   */\n  pop\n  pop\n    /* \"#utility.yul\":2777:3223   */\ntag_61:\n    /* \"#utility.yul\":2687:3230   */\n  pop\n  pop\n  pop\n  jump\t// out\n    /* \"#utility.yul\":3236:3353   */\ntag_23:\n    /* \"#utility.yul\":3290:3298   */\n  0x00\n    /* \"#utility.yul\":3340:3345   */\n  dup3\n    /* \"#utility.yul\":3334:3338   */\n  dup3\n    /* \"#utility.yul\":3330:3346   */\n  shr\n    /* \"#utility.yul\":3309:3346   */\n  swap1\n  pop\n    /* \"#utility.yul\":3236:3353   */\n  swap3\n  swap2\n  pop\n  pop\n  jump\t// out\n    /* \"#utility.yul\":3359:3528   */\ntag_24:\n    /* \"#utility.yul\":3403:3409   */\n  0x00\n    /* \"#utility.yul\":3436:3487   */\n  tag_69\n    /* \"#utility.yul\":3484:3485   */\n  0x00\n    /* \"#utility.yul\":3480:3486   */\n  not\n    /* \"#utility.yul\":3472:3477   */\n  dup5\n    /* \"#utility.yul\":3469:3470   */\n  0x08\n    /* \"#utility.yul\":3465:3478   */\n  mul\n    /* \"#utility.yul\":3436:3487   */\n  tag_23\n  jump\t// in\ntag_69:\n    /* \"#utility.yul\":3432:3488   */\n  not\n    /* \"#utility.yul\":3517:3521   */\n  dup1\n    /* \"#utility.yul\":3511:3515   */\n  dup4\n    /* \"#utility.yul\":3507:3522   */\n  and\n    /* \"#utility.yul\":3497:3522   */\n  swap2\n  pop\n    /* \"#utility.yul\":3410:3528   */\n  pop\n    /* \"#utility.yul\":3359:3528   */\n  swap3\n  swap2\n  pop\n  pop\n  jump\t// out\n    /* \"#utility.yul\":3533:3828   */\ntag_25:\n    /* \"#utility.yul\":3609:3613   */\n  0x00\n    /* \"#utility.yul\":3755:3784   */\n  tag_71\n    /* \"#utility.yul\":3780:3783   */\n  dup4\n    /* \"#utility.yul\":3774:3778   */\n  dup4\n    /* \"#utility.yul\":3755:3784   */\n  tag_24\n  jump\t// in\ntag_71:\n    /* \"#utility.yul\":3747:3784   */\n  swap2\n  pop\n    /* \"#utility.yul\":3817:3820   */\n  dup3\n    /* \"#utility.yul\":3814:3815   */\n  0x02\n    /* \"#utility.yul\":3810:3821   */\n  mul\n    /* \"#utility.yul\":3804:3808   */\n  dup3\n    /* \"#utility.yul\":3801:3822   */\n  or\n    /* \"#utility.yul\":3793:3822   */\n  swap1\n  pop\n    /* \"#utility.yul\":3533:3828   */\n  swap3\n  swap2\n  pop\n  pop\n  jump\t// out\n    /* \"#utility.yul\":3833:5228   */\ntag_2:\n    /* \"#utility.yul\":3950:3987   */\n  tag_73\n    /* \"#utility.yul\":3983:3986   */\n  dup3\n    /* \"#utility.yul\":3950:3987   */\n  tag_6\n  jump\t// in\ntag_73:\n    /* \"#utility.yul\":4052:4070   */\n  0xffffffffffffffff\n    /* \"#utility.yul\":4044:4050   */\n  dup2\n    /* \"#utility.yul\":4041:4071   */\n  gt\n    /* \"#utility.yul\":4038:4094   */\n  iszero\n  tag_74\n  jumpi\n    /* \"#utility.yul\":4074:4092   */\n  tag_75\n  tag_7\n  jump\t// in\ntag_75:\n    /* \"#utility.yul\":4038:4094   */\ntag_74:\n    /* \"#utility.yul\":4118:4156   */\n  tag_76\n    /* \"#utility.yul\":4150:4154   */\n  dup3\n    /* \"#utility.yul\":4144:4155   */\n  sload\n    /* \"#utility.yul\":4118:4156   */\n  tag_9\n  jump\t// in\ntag_76:\n    /* \"#utility.yul\":4203:4270   */\n  tag_77\n    /* \"#utility.yul\":4263:4269   */\n  dup3\n    /* \"#utility.yul\":4255:4261   */\n  dup3\n    /* \"#utility.yul\":4249:4253   */\n  dup6\n    /* \"#utility.yul\":4203:4270   */\n  tag_22\n  jump\t// in\ntag_77:\n    /* \"#utility.yul\":4297:4298   */\n  0x00\n    /* \"#utility.yul\":4321:4325   */\n  0x20\n    /* \"#utility.yul\":4308:4325   */\n  swap1\n  pop\n    /* \"#utility.yul\":4353:4355   */\n  0x1f\n    /* \"#utility.yul\":4345:4351   */\n  dup4\n    /* \"#utility.yul\":4342:4356   */\n  gt\n    /* \"#utility.yul\":4370:4371   */\n  0x01\n    /* \"#utility.yul\":4365:4983   */\n  dup2\n  eq\n  tag_79\n  jumpi\n    /* \"#utility.yul\":5027:5028   */\n  0x00\n    /* \"#utility.yul\":5044:5050   */\n  dup5\n    /* \"#utility.yul\":5041:5118   */\n  iszero\n  tag_80\n  jumpi\n    /* \"#utility.yul\":5093:5102   */\n  dup3\n    /* \"#utility.yul\":5088:5091   */\n  dup8\n    /* \"#utility.yul\":5084:5103   */\n  add\n    /* \"#utility.yul\":5078:5104   */\n  mload\n    /* \"#utility.yul\":5069:5104   */\n  swap1\n  pop\n    /* \"#utility.yul\":5041:5118   */\ntag_80:\n    /* \"#utility.yul\":5144:5211   */\n  tag_81\n    /* \"#utility.yul\":5204:5210   */\n  dup6\n    /* \"#utility.yul\":5197:5202   */\n  dup3\n    /* \"#utility.yul\":5144:5211   */\n  tag_25\n  jump\t// in\ntag_81:\n    /* \"#utility.yul\":5138:5142   */\n  dup7\n    /* \"#utility.yul\":5131:5212   */\n  sstore\n    /* \"#utility.yul\":5000:5222   */\n  pop\n    /* \"#utility.yul\":4335:5222   */\n  jump(tag_78)\n    /* \"#utility.yul\":4365:4983   */\ntag_79:\n    /* \"#utility.yul\":4417:4421   */\n  0x1f\n    /* \"#utility.yul\":4413:4422   */\n  not\n    /* \"#utility.yul\":4405:4411   */\n  dup5\n    /* \"#utility.yul\":4401:4423   */\n  and\n    /* \"#utility.yul\":4451:4488   */\n  tag_82\n    /* \"#utility.yul\":4483:4487   */\n  dup7\n    /* \"#utility.yul\":4451:4488   */\n  tag_10\n  jump\t// in\ntag_82:\n    /* \"#utility.yul\":4510:4511   */\n  0x00\n    /* \"#utility.yul\":4524:4732   */\ntag_83:\n    /* \"#utility.yul\":4538:4545   */\n  dup3\n    /* \"#utility.yul\":4535:4536   */\n  dup2\n    /* \"#utility.yul\":4532:4546   */\n  lt\n    /* \"#utility.yul\":4524:4732   */\n  iszero\n  tag_85\n  jumpi\n    /* \"#utility.yul\":4617:4626   */\n  dup5\n    /* \"#utility.yul\":4612:4615   */\n  dup10\n    /* \"#utility.yul\":4608:4627   */\n  add\n    /* \"#utility.yul\":4602:4628   */\n  mload\n    /* \"#utility.yul\":4594:4600   */\n  dup3\n    /* \"#utility.yul\":4587:4629   */\n  sstore\n    /* \"#utility.yul\":4668:4669   */\n  0x01\n    /* \"#utility.yul\":4660:4666   */\n  dup3\n    /* \"#utility.yul\":4656:4670   */\n  add\n    /* \"#utility.yul\":4646:4670   */\n  swap2\n  pop\n    /* \"#utility.yul\":4715:4717   */\n  0x20\n    /* \"#utility.yul\":4704:4713   */\n  dup6\n    /* \"#utility.yul\":4700:4718   */\n  add\n    /* \"#utility.yul\":4687:4718   */\n  swap5\n  pop\n    /* \"#utility.yul\":4561:4565   */\n  0x20\n    /* \"#utility.yul\":4558:4559   */\n  dup2\n    /* \"#utility.yul\":4554:4566   */\n  add\n    /* \"#utility.yul\":4549:4566   */\n  swap1\n  pop\n    /* \"#utility.yul\":4524:4732   */\n  jump(tag_83)\ntag_85:\n    /* \"#utility.yul\":4760:4766   */\n  dup7\n    /* \"#utility.yul\":4751:4758   */\n  dup4\n    /* \"#utility.yul\":4748:4767   */\n  lt\n    /* \"#utility.yul\":4745:4924   */\n  iszero\n  tag_86\n  jumpi\n    /* \"#utility.yul\":4818:4827   */\n  dup5\n    /* \"#utility.yul\":4813:4816   */\n  dup10\n    /* \"#utility.yul\":4809:4828   */\n  add\n    /* \"#utility.yul\":4803:4829   */\n  mload\n    /* \"#utility.yul\":4861:4909   */\n  tag_87\n    /* \"#utility.yul\":4903:4907   */\n  0x1f\n    /* \"#utility.yul\":4895:4901   */\n  dup10\n    /* \"#utility.yul\":4891:4908   */\n  and\n    /* \"#utility.yul\":4880:4889   */\n  dup3\n    /* \"#utility.yul\":4861:4909   */\n  tag_24\n  jump\t// in\ntag_87:\n    /* \"#utility.yul\":4853:4859   */\n  dup4\n    /* \"#utility.yul\":4846:4910   */\n  sstore\n    /* \"#utility.yul\":4768:4924   */\n  pop\n    /* \"#utility.yul\":4745:4924   */\ntag_86:\n    /* \"#utility.yul\":4970:4971   */\n  0x01\n    /* \"#utility.yul\":4966:4967   */\n  0x02\n    /* \"#utility.yul\":4958:4964   */\n  dup9\n    /* \"#utility.yul\":4954:4968   */\n  mul\n    /* \"#utility.yul\":4950:4972   */\n  add\n    /* \"#utility.yul\":4944:4948   */\n  dup9\n    /* \"#utility.yul\":4937:4973   */\n  sstore\n    /* \"#utility.yul\":4372:4983   */\n  pop\n  pop\n  pop\n    /* \"#utility.yul\":4335:5222   */\ntag_78:\n  pop\n    /* \"#utility.yul\":3925:5228   */\n  pop\n  pop\n  pop\n    /* \"#utility.yul\":3833:5228   */\n  pop\n  pop\n  jump\t// out\n    /* \"contracts/solidity-class-2.sol\":64:2013  contract task1 ... */\ntag_5:\n  dataSize(sub_0)\n  dup1\n  dataOffset(sub_0)\n  0x00\n  codecopy\n  0x00\n  return\nstop\n\nsub_0: assembly {\n        /* \"contracts/solidity-class-2.sol\":64:2013  contract task1 ... */\n      mstore(0x40, 0x80)\n      callvalue\n      dup1\n      iszero\n      tag_1\n      jumpi\n      0x00\n      dup1\n      revert\n    tag_1:\n      pop\n      jumpi(tag_2, lt(calldatasize, 0x04))\n      shr(0xe0, calldataload(0x00))\n      dup1\n      0x8574ed0d\n      gt\n      tag_12\n      jumpi\n      dup1\n      0x8574ed0d\n      eq\n      tag_7\n      jumpi\n      dup1\n      0xb87f86b7\n      eq\n      tag_8\n      jumpi\n      dup1\n      0xc78f7074\n      eq\n      tag_9\n      jumpi\n      dup1\n      0xdabbdc15\n      eq\n      tag_10\n      jumpi\n      dup1\n      0xf31604c7\n      eq\n      tag_11\n      jumpi\n      jump(tag_2)\n    tag_12:\n      dup1\n      0x12065fe0\n      eq\n      tag_3\n      jumpi\n      dup1\n      0x1a61746e\n      eq\n      tag_4\n      jumpi\n      dup1\n      0x3bc5de30\n      eq\n      tag_5\n      jumpi\n      dup1\n      0x3f898323\n      eq\n      tag_6\n      jumpi\n    tag_2:\n      0x00\n      dup1\n      revert\n        /* \"contracts/solidity-class-2.sol\":1151:1287  function getBalance() public view returns(uint) {... */\n    tag_3:\n      tag_13\n      tag_14\n      jump\t// in\n    tag_13:\n      mload(0x40)\n      tag_15\n      swap2\n      swap1\n      tag_16\n      jump\t// in\n    tag_15:\n      mload(0x40)\n      dup1\n      swap2\n      sub\n      swap1\n      return\n        /* \"contracts/solidity-class-2.sol\":1035:1145  function setBalance() public{... */\n    tag_4:\n      tag_17\n      tag_18\n      jump\t// in\n    tag_17:\n      stop\n        /* \"contracts/solidity-class-2.sol\":1365:1445  function getData() public view returns(uint) {... */\n    tag_5:\n      tag_19\n      tag_20\n      jump\t// in\n    tag_19:\n      mload(0x40)\n      tag_21\n      swap2\n      swap1\n      tag_16\n      jump\t// in\n    tag_21:\n      mload(0x40)\n      dup1\n      swap2\n      sub\n      swap1\n      return\n        /* \"contracts/solidity-class-2.sol\":1859:2011  function getStudentData(address _id) public view returns(student memory) {... */\n    tag_6:\n      tag_22\n      0x04\n      dup1\n      calldatasize\n      sub\n      dup2\n      add\n      swap1\n      tag_23\n      swap2\n      swap1\n      tag_24\n      jump\t// in\n    tag_23:\n      tag_25\n      jump\t// in\n    tag_22:\n      mload(0x40)\n      tag_26\n      swap2\n      swap1\n      tag_27\n      jump\t// in\n    tag_26:\n      mload(0x40)\n      dup1\n      swap2\n      sub\n      swap1\n      return\n        /* \"contracts/solidity-class-2.sol\":591:755  function book_info()public view returns (string memory, string memory, uint, bool) {    ... */\n    tag_7:\n      tag_28\n      tag_29\n      jump\t// in\n    tag_28:\n      mload(0x40)\n      tag_30\n      swap5\n      swap4\n      swap3\n      swap2\n      swap1\n      tag_31\n      jump\t// in\n    tag_30:\n      mload(0x40)\n      dup1\n      swap2\n      sub\n      swap1\n      return\n        /* \"contracts/solidity-class-2.sol\":760:868  function get_details() public view returns (string memory, uint) {... */\n    tag_8:\n      tag_32\n      tag_33\n      jump\t// in\n    tag_32:\n      mload(0x40)\n      tag_34\n      swap3\n      swap2\n      swap1\n      tag_35\n      jump\t// in\n    tag_34:\n      mload(0x40)\n      dup1\n      swap2\n      sub\n      swap1\n      return\n        /* \"contracts/solidity-class-2.sol\":400:533  function set_book_detail(string memory name, string memory writer, uint id) public {... */\n    tag_9:\n      tag_36\n      0x04\n      dup1\n      calldatasize\n      sub\n      dup2\n      add\n      swap1\n      tag_37\n      swap2\n      swap1\n      tag_38\n      jump\t// in\n    tag_37:\n      tag_39\n      jump\t// in\n    tag_36:\n      stop\n        /* \"contracts/solidity-class-2.sol\":1660:1853  function setStruct (string memory _name, string memory _parentName, address _id) public {... */\n    tag_10:\n      tag_40\n      0x04\n      dup1\n      calldatasize\n      sub\n      dup2\n      add\n      swap1\n      tag_41\n      swap2\n      swap1\n      tag_42\n      jump\t// in\n    tag_41:\n      tag_43\n      jump\t// in\n    tag_40:\n      stop\n        /* \"contracts/solidity-class-2.sol\":1297:1355  function setData() public{... */\n    tag_11:\n      tag_44\n      tag_45\n      jump\t// in\n    tag_44:\n      stop\n        /* \"contracts/solidity-class-2.sol\":1151:1287  function getBalance() public view returns(uint) {... */\n    tag_14:\n        /* \"contracts/solidity-class-2.sol\":1193:1197  uint */\n      0x00\n        /* \"contracts/solidity-class-2.sol\":1255:1262  balance */\n      0x08\n        /* \"contracts/solidity-class-2.sol\":1255:1280  balance[marketingAddress] */\n      0x00\n        /* \"contracts/solidity-class-2.sol\":1263:1279  marketingAddress */\n      0x0a\n      0x00\n      swap1\n      sload\n      swap1\n      0x0100\n      exp\n      swap1\n      div\n      0xffffffffffffffffffffffffffffffffffffffff\n      and\n        /* \"contracts/solidity-class-2.sol\":1255:1280  balance[marketingAddress] */\n      0xffffffffffffffffffffffffffffffffffffffff\n      and\n      0xffffffffffffffffffffffffffffffffffffffff\n      and\n      dup2\n      mstore\n      0x20\n      add\n      swap1\n      dup2\n      mstore\n      0x20\n      add\n      0x00\n      keccak256\n      sload\n        /* \"contracts/solidity-class-2.sol\":1248:1280  return balance[marketingAddress] */\n      swap1\n      pop\n        /* \"contracts/solidity-class-2.sol\":1151:1287  function getBalance() public view returns(uint) {... */\n      swap1\n      jump\t// out\n        /* \"contracts/solidity-class-2.sol\":1035:1145  function setBalance() public{... */\n    tag_18:\n        /* \"contracts/solidity-class-2.sol\":1137:1138  2 */\n      0x02\n        /* \"contracts/solidity-class-2.sol\":1109:1116  balance */\n      0x08\n        /* \"contracts/solidity-class-2.sol\":1109:1134  balance[marketingAddress] */\n      0x00\n        /* \"contracts/solidity-class-2.sol\":1117:1133  marketingAddress */\n      0x0a\n      0x00\n      swap1\n      sload\n      swap1\n      0x0100\n      exp\n      swap1\n      div\n      0xffffffffffffffffffffffffffffffffffffffff\n      and\n        /* \"contracts/solidity-class-2.sol\":1109:1134  balance[marketingAddress] */\n      0xffffffffffffffffffffffffffffffffffffffff\n      and\n      0xffffffffffffffffffffffffffffffffffffffff\n      and\n      dup2\n      mstore\n      0x20\n      add\n      swap1\n      dup2\n      mstore\n      0x20\n      add\n      0x00\n      keccak256\n        /* \"contracts/solidity-class-2.sol\":1109:1138  balance[marketingAddress] = 2 */\n      dup2\n      swap1\n      sstore\n      pop\n        /* \"contracts/solidity-class-2.sol\":1035:1145  function setBalance() public{... */\n      jump\t// out\n        /* \"contracts/solidity-class-2.sol\":1365:1445  function getData() public view returns(uint) {... */\n    tag_20:\n        /* \"contracts/solidity-class-2.sol\":1404:1408  uint */\n      0x00\n        /* \"contracts/solidity-class-2.sol\":1427:1431  data */\n      0x09\n        /* \"contracts/solidity-class-2.sol\":1427:1438  data[\"age\"] */\n      mload(0x40)\n      tag_49\n      swap1\n      tag_50\n      jump\t// in\n    tag_49:\n      swap1\n      dup2\n      mstore\n      0x20\n      add\n      mload(0x40)\n      dup1\n      swap2\n      sub\n      swap1\n      keccak256\n      sload\n        /* \"contracts/solidity-class-2.sol\":1420:1438  return data[\"age\"] */\n      swap1\n      pop\n        /* \"contracts/solidity-class-2.sol\":1365:1445  function getData() public view returns(uint) {... */\n      swap1\n      jump\t// out\n        /* \"contracts/solidity-class-2.sol\":1859:2011  function getStudentData(address _id) public view returns(student memory) {... */\n    tag_25:\n        /* \"contracts/solidity-class-2.sol\":1916:1930  student memory */\n      tag_51\n      tag_52\n      jump\t// in\n    tag_51:\n        /* \"contracts/solidity-class-2.sol\":1942:1964  student memory stdData */\n      0x00\n        /* \"contracts/solidity-class-2.sol\":1967:1975  students */\n      0x0b\n        /* \"contracts/solidity-class-2.sol\":1967:1980  students[_id] */\n      0x00\n        /* \"contracts/solidity-class-2.sol\":1976:1979  _id */\n      dup5\n        /* \"contracts/solidity-class-2.sol\":1967:1980  students[_id] */\n      0xffffffffffffffffffffffffffffffffffffffff\n      and\n      0xffffffffffffffffffffffffffffffffffffffff\n      and\n      dup2\n      mstore\n      0x20\n      add\n      swap1\n      dup2\n      mstore\n      0x20\n      add\n      0x00\n      keccak256\n        /* \"contracts/solidity-class-2.sol\":1942:1980  student memory stdData = students[_id] */\n      mload(0x40)\n      dup1\n      0x60\n      add\n      0x40\n      mstore\n      swap1\n      dup2\n      0x00\n      dup3\n      add\n      dup1\n      sload\n      tag_54\n      swap1\n      tag_55\n      jump\t// in\n    tag_54:\n      dup1\n      0x1f\n      add\n      0x20\n      dup1\n      swap2\n      div\n      mul\n      0x20\n      add\n      mload(0x40)\n      swap1\n      dup2\n      add\n      0x40\n      mstore\n      dup1\n      swap3\n      swap2\n      swap1\n      dup2\n      dup2\n      mstore\n      0x20\n      add\n      dup3\n      dup1\n      sload\n      tag_56\n      swap1\n      tag_55\n      jump\t// in\n    tag_56:\n      dup1\n      iszero\n      tag_57\n      jumpi\n      dup1\n      0x1f\n      lt\n      tag_58\n      jumpi\n      0x0100\n      dup1\n      dup4\n      sload\n      div\n      mul\n      dup4\n      mstore\n      swap2\n      0x20\n      add\n      swap2\n      jump(tag_57)\n    tag_58:\n      dup3\n      add\n      swap2\n      swap1\n      0x00\n      mstore\n      keccak256(0x00, 0x20)\n      swap1\n    tag_59:\n      dup2\n      sload\n      dup2\n      mstore\n      swap1\n      0x01\n      add\n      swap1\n      0x20\n      add\n      dup1\n      dup4\n      gt\n      tag_59\n      jumpi\n      dup3\n      swap1\n      sub\n      0x1f\n      and\n      dup3\n      add\n      swap2\n    tag_57:\n      pop\n      pop\n      pop\n      pop\n      pop\n      dup2\n      mstore\n      0x20\n      add\n      0x01\n      dup3\n      add\n      dup1\n      sload\n      tag_60\n      swap1\n      tag_55\n      jump\t// in\n    tag_60:\n      dup1\n      0x1f\n      add\n      0x20\n      dup1\n      swap2\n      div\n      mul\n      0x20\n      add\n      mload(0x40)\n      swap1\n      dup2\n      add\n      0x40\n      mstore\n      dup1\n      swap3\n      swap2\n      swap1\n      dup2\n      dup2\n      mstore\n      0x20\n      add\n      dup3\n      dup1\n      sload\n      tag_61\n      swap1\n      tag_55\n      jump\t// in\n    tag_61:\n      dup1\n      iszero\n      tag_62\n      jumpi\n      dup1\n      0x1f\n      lt\n      tag_63\n      jumpi\n      0x0100\n      dup1\n      dup4\n      sload\n      div\n      mul\n      dup4\n      mstore\n      swap2\n      0x20\n      add\n      swap2\n      jump(tag_62)\n    tag_63:\n      dup3\n      add\n      swap2\n      swap1\n      0x00\n      mstore\n      keccak256(0x00, 0x20)\n      swap1\n    tag_64:\n      dup2\n      sload\n      dup2\n      mstore\n      swap1\n      0x01\n      add\n      swap1\n      0x20\n      add\n      dup1\n      dup4\n      gt\n      tag_64\n      jumpi\n      dup3\n      swap1\n      sub\n      0x1f\n      and\n      dup3\n      add\n      swap2\n    tag_62:\n      pop\n      pop\n      pop\n      pop\n      pop\n      dup2\n      mstore\n      0x20\n      add\n      0x02\n      dup3\n      add\n      0x00\n      swap1\n      sload\n      swap1\n      0x0100\n      exp\n      swap1\n      div\n      0xffffffffffffffffffffffffffffffffffffffff\n      and\n      0xffffffffffffffffffffffffffffffffffffffff\n      and\n      0xffffffffffffffffffffffffffffffffffffffff\n      and\n      dup2\n      mstore\n      pop\n      pop\n      swap1\n      pop\n        /* \"contracts/solidity-class-2.sol\":1997:2004  stdData */\n      dup1\n        /* \"contracts/solidity-class-2.sol\":1990:2004  return stdData */\n      swap2\n      pop\n      pop\n        /* \"contracts/solidity-class-2.sol\":1859:2011  function getStudentData(address _id) public view returns(student memory) {... */\n      swap2\n      swap1\n      pop\n      jump\t// out\n        /* \"contracts/solidity-class-2.sol\":591:755  function book_info()public view returns (string memory, string memory, uint, bool) {    ... */\n    tag_29:\n        /* \"contracts/solidity-class-2.sol\":632:645  string memory */\n      0x60\n        /* \"contracts/solidity-class-2.sol\":647:660  string memory */\n      dup1\n        /* \"contracts/solidity-class-2.sol\":662:666  uint */\n      0x00\n        /* \"contracts/solidity-class-2.sol\":668:672  bool */\n      dup1\n        /* \"contracts/solidity-class-2.sol\":695:700  book2 */\n      0x04\n        /* \"contracts/solidity-class-2.sol\":695:705  book2.name */\n      0x00\n      add\n        /* \"contracts/solidity-class-2.sol\":707:712  book2 */\n      0x04\n        /* \"contracts/solidity-class-2.sol\":707:720  book2.writter */\n      0x01\n      add\n        /* \"contracts/solidity-class-2.sol\":721:726  book2 */\n      0x04\n        /* \"contracts/solidity-class-2.sol\":721:729  book2.id */\n      0x02\n      add\n      sload\n        /* \"contracts/solidity-class-2.sol\":731:736  book2 */\n      0x04\n        /* \"contracts/solidity-class-2.sol\":731:746  book2.available */\n      0x03\n      add\n      0x00\n      swap1\n      sload\n      swap1\n      0x0100\n      exp\n      swap1\n      div\n      0xff\n      and\n        /* \"contracts/solidity-class-2.sol\":688:747  return(book2.name, book2.writter,book2.id, book2.available) */\n      dup4\n      dup1\n      sload\n      tag_66\n      swap1\n      tag_55\n      jump\t// in\n    tag_66:\n      dup1\n      0x1f\n      add\n      0x20\n      dup1\n      swap2\n      div\n      mul\n      0x20\n      add\n      mload(0x40)\n      swap1\n      dup2\n      add\n      0x40\n      mstore\n      dup1\n      swap3\n      swap2\n      swap1\n      dup2\n      dup2\n      mstore\n      0x20\n      add\n      dup3\n      dup1\n      sload\n      tag_67\n      swap1\n      tag_55\n      jump\t// in\n    tag_67:\n      dup1\n      iszero\n      tag_68\n      jumpi\n      dup1\n      0x1f\n      lt\n      tag_69\n      jumpi\n      0x0100\n      dup1\n      dup4\n      sload\n      div\n      mul\n      dup4\n      mstore\n      swap2\n      0x20\n      add\n      swap2\n      jump(tag_68)\n    tag_69:\n      dup3\n      add\n      swap2\n      swap1\n      0x00\n      mstore\n      keccak256(0x00, 0x20)\n      swap1\n    tag_70:\n      dup2\n      sload\n      dup2\n      mstore\n      swap1\n      0x01\n      add\n      swap1\n      0x20\n      add\n      dup1\n      dup4\n      gt\n      tag_70\n      jumpi\n      dup3\n      swap1\n      sub\n      0x1f\n      and\n      dup3\n      add\n      swap2\n    tag_68:\n      pop\n      pop\n      pop\n      pop\n      pop\n      swap4\n      pop\n      dup3\n      dup1\n      sload\n      tag_71\n      swap1\n      tag_55\n      jump\t// in\n    tag_71:\n      dup1\n      0x1f\n      add\n      0x20\n      dup1\n      swap2\n      div\n      mul\n      0x20\n      add\n      mload(0x40)\n      swap1\n      dup2\n      add\n      0x40\n      mstore\n      dup1\n      swap3\n      swap2\n      swap1\n      dup2\n      dup2\n      mstore\n      0x20\n      add\n      dup3\n      dup1\n      sload\n      tag_72\n      swap1\n      tag_55\n      jump\t// in\n    tag_72:\n      dup1\n      iszero\n      tag_73\n      jumpi\n      dup1\n      0x1f\n      lt\n      tag_74\n      jumpi\n      0x0100\n      dup1\n      dup4\n      sload\n      div\n      mul\n      dup4\n      mstore\n      swap2\n      0x20\n      add\n      swap2\n      jump(tag_73)\n    tag_74:\n      dup3\n      add\n      swap2\n      swap1\n      0x00\n      mstore\n      keccak256(0x00, 0x20)\n      swap1\n    tag_75:\n      dup2\n      sload\n      dup2\n      mstore\n      swap1\n      0x01\n      add\n      swap1\n      0x20\n      add\n      dup1\n      dup4\n      gt\n      tag_75\n      jumpi\n      dup3\n      swap1\n      sub\n      0x1f\n      and\n      dup3\n      add\n      swap2\n    tag_73:\n      pop\n      pop\n      pop\n      pop\n      pop\n      swap3\n      pop\n      swap4\n      pop\n      swap4\n      pop\n      swap4\n      pop\n      swap4\n      pop\n        /* \"contracts/solidity-class-2.sol\":591:755  function book_info()public view returns (string memory, string memory, uint, bool) {    ... */\n      swap1\n      swap2\n      swap3\n      swap4\n      jump\t// out\n        /* \"contracts/solidity-class-2.sol\":760:868  function get_details() public view returns (string memory, uint) {... */\n    tag_33:\n        /* \"contracts/solidity-class-2.sol\":804:817  string memory */\n      0x60\n        /* \"contracts/solidity-class-2.sol\":819:823  uint */\n      0x00\n        /* \"contracts/solidity-class-2.sol\":841:846  book1 */\n      dup1\n        /* \"contracts/solidity-class-2.sol\":841:851  book1.name */\n      0x00\n      add\n        /* \"contracts/solidity-class-2.sol\":853:858  book1 */\n      0x00\n        /* \"contracts/solidity-class-2.sol\":853:861  book1.id */\n      0x02\n      add\n      sload\n        /* \"contracts/solidity-class-2.sol\":833:862  return (book1.name, book1.id) */\n      dup2\n      dup1\n      sload\n      tag_77\n      swap1\n      tag_55\n      jump\t// in\n    tag_77:\n      dup1\n      0x1f\n      add\n      0x20\n      dup1\n      swap2\n      div\n      mul\n      0x20\n      add\n      mload(0x40)\n      swap1\n      dup2\n      add\n      0x40\n      mstore\n      dup1\n      swap3\n      swap2\n      swap1\n      dup2\n      dup2\n      mstore\n      0x20\n      add\n      dup3\n      dup1\n      sload\n      tag_78\n      swap1\n      tag_55\n      jump\t// in\n    tag_78:\n      dup1\n      iszero\n      tag_79\n      jumpi\n      dup1\n      0x1f\n      lt\n      tag_80\n      jumpi\n      0x0100\n      dup1\n      dup4\n      sload\n      div\n      mul\n      dup4\n      mstore\n      swap2\n      0x20\n      add\n      swap2\n      jump(tag_79)\n    tag_80:\n      dup3\n      add\n      swap2\n      swap1\n      0x00\n      mstore\n      keccak256(0x00, 0x20)\n      swap1\n    tag_81:\n      dup2\n      sload\n      dup2\n      mstore\n      swap1\n      0x01\n      add\n      swap1\n      0x20\n      add\n      dup1\n      dup4\n      gt\n      tag_81\n      jumpi\n      dup3\n      swap1\n      sub\n      0x1f\n      and\n      dup3\n      add\n      swap2\n    tag_79:\n      pop\n      pop\n      pop\n      pop\n      pop\n      swap2\n      pop\n      swap2\n      pop\n      swap2\n      pop\n        /* \"contracts/solidity-class-2.sol\":760:868  function get_details() public view returns (string memory, uint) {... */\n      swap1\n      swap2\n      jump\t// out\n        /* \"contracts/solidity-class-2.sol\":400:533  function set_book_detail(string memory name, string memory writer, uint id) public {... */\n    tag_39:\n        /* \"contracts/solidity-class-2.sol\":499:527  Book(name, writer, id, true) */\n      mload(0x40)\n      dup1\n      0x80\n      add\n      0x40\n      mstore\n      dup1\n        /* \"contracts/solidity-class-2.sol\":504:508  name */\n      dup5\n        /* \"contracts/solidity-class-2.sol\":499:527  Book(name, writer, id, true) */\n      dup2\n      mstore\n      0x20\n      add\n        /* \"contracts/solidity-class-2.sol\":510:516  writer */\n      dup4\n        /* \"contracts/solidity-class-2.sol\":499:527  Book(name, writer, id, true) */\n      dup2\n      mstore\n      0x20\n      add\n        /* \"contracts/solidity-class-2.sol\":518:520  id */\n      dup3\n        /* \"contracts/solidity-class-2.sol\":499:527  Book(name, writer, id, true) */\n      dup2\n      mstore\n      0x20\n      add\n        /* \"contracts/solidity-class-2.sol\":522:526  true */\n      0x01\n        /* \"contracts/solidity-class-2.sol\":499:527  Book(name, writer, id, true) */\n      iszero\n      iszero\n      dup2\n      mstore\n      pop\n        /* \"contracts/solidity-class-2.sol\":491:496  book1 */\n      0x00\n        /* \"contracts/solidity-class-2.sol\":491:527  book1 = Book(name, writer, id, true) */\n      dup1\n      dup3\n      add\n      mload\n      dup2\n      0x00\n      add\n      swap1\n      dup2\n      tag_83\n      swap2\n      swap1\n      tag_84\n      jump\t// in\n    tag_83:\n      pop\n      0x20\n      dup3\n      add\n      mload\n      dup2\n      0x01\n      add\n      swap1\n      dup2\n      tag_85\n      swap2\n      swap1\n      tag_84\n      jump\t// in\n    tag_85:\n      pop\n      0x40\n      dup3\n      add\n      mload\n      dup2\n      0x02\n      add\n      sstore\n      0x60\n      dup3\n      add\n      mload\n      dup2\n      0x03\n      add\n      exp(0x0100, 0x00)\n      dup2\n      sload\n      dup2\n      0xff\n      mul\n      not\n      and\n      swap1\n      dup4\n      iszero\n      iszero\n      mul\n      or\n      swap1\n      sstore\n      pop\n      swap1\n      pop\n      pop\n        /* \"contracts/solidity-class-2.sol\":400:533  function set_book_detail(string memory name, string memory writer, uint id) public {... */\n      pop\n      pop\n      pop\n      jump\t// out\n        /* \"contracts/solidity-class-2.sol\":1660:1853  function setStruct (string memory _name, string memory _parentName, address _id) public {... */\n    tag_43:\n        /* \"contracts/solidity-class-2.sol\":1758:1780  student memory Student */\n      0x00\n        /* \"contracts/solidity-class-2.sol\":1783:1813  student(_name,_parentName,_id) */\n      mload(0x40)\n      dup1\n      0x60\n      add\n      0x40\n      mstore\n      dup1\n        /* \"contracts/solidity-class-2.sol\":1791:1796  _name */\n      dup6\n        /* \"contracts/solidity-class-2.sol\":1783:1813  student(_name,_parentName,_id) */\n      dup2\n      mstore\n      0x20\n      add\n        /* \"contracts/solidity-class-2.sol\":1797:1808  _parentName */\n      dup5\n        /* \"contracts/solidity-class-2.sol\":1783:1813  student(_name,_parentName,_id) */\n      dup2\n      mstore\n      0x20\n      add\n        /* \"contracts/solidity-class-2.sol\":1809:1812  _id */\n      dup4\n        /* \"contracts/solidity-class-2.sol\":1783:1813  student(_name,_parentName,_id) */\n      0xffffffffffffffffffffffffffffffffffffffff\n      and\n      dup2\n      mstore\n      pop\n        /* \"contracts/solidity-class-2.sol\":1758:1813  student memory Student = student(_name,_parentName,_id) */\n      swap1\n      pop\n        /* \"contracts/solidity-class-2.sol\":1839:1846  Student */\n      dup1\n        /* \"contracts/solidity-class-2.sol\":1823:1831  students */\n      0x0b\n        /* \"contracts/solidity-class-2.sol\":1823:1836  students[_id] */\n      0x00\n        /* \"contracts/solidity-class-2.sol\":1832:1835  _id */\n      dup5\n        /* \"contracts/solidity-class-2.sol\":1823:1836  students[_id] */\n      0xffffffffffffffffffffffffffffffffffffffff\n      and\n      0xffffffffffffffffffffffffffffffffffffffff\n      and\n      dup2\n      mstore\n      0x20\n      add\n      swap1\n      dup2\n      mstore\n      0x20\n      add\n      0x00\n      keccak256\n        /* \"contracts/solidity-class-2.sol\":1823:1846  students[_id] = Student */\n      0x00\n      dup3\n      add\n      mload\n      dup2\n      0x00\n      add\n      swap1\n      dup2\n      tag_87\n      swap2\n      swap1\n      tag_84\n      jump\t// in\n    tag_87:\n      pop\n      0x20\n      dup3\n      add\n      mload\n      dup2\n      0x01\n      add\n      swap1\n      dup2\n      tag_88\n      swap2\n      swap1\n      tag_84\n      jump\t// in\n    tag_88:\n      pop\n      0x40\n      dup3\n      add\n      mload\n      dup2\n      0x02\n      add\n      exp(0x0100, 0x00)\n      dup2\n      sload\n      dup2\n      0xffffffffffffffffffffffffffffffffffffffff\n      mul\n      not\n      and\n      swap1\n      dup4\n      0xffffffffffffffffffffffffffffffffffffffff\n      and\n      mul\n      or\n      swap1\n      sstore\n      pop\n      swap1\n      pop\n      pop\n        /* \"contracts/solidity-class-2.sol\":1748:1853  {... */\n      pop\n        /* \"contracts/solidity-class-2.sol\":1660:1853  function setStruct (string memory _name, string memory _parentName, address _id) public {... */\n      pop\n      pop\n      pop\n      jump\t// out\n        /* \"contracts/solidity-class-2.sol\":1297:1355  function setData() public{... */\n    tag_45:\n        /* \"contracts/solidity-class-2.sol\":1346:1348  24 */\n      0x18\n        /* \"contracts/solidity-class-2.sol\":1332:1336  data */\n      0x09\n        /* \"contracts/solidity-class-2.sol\":1332:1343  data[\"age\"] */\n      mload(0x40)\n      tag_90\n      swap1\n      tag_50\n      jump\t// in\n    tag_90:\n      swap1\n      dup2\n      mstore\n      0x20\n      add\n      mload(0x40)\n      dup1\n      swap2\n      sub\n      swap1\n      keccak256\n        /* \"contracts/solidity-class-2.sol\":1332:1348  data[\"age\"] = 24 */\n      dup2\n      swap1\n      sstore\n      pop\n        /* \"contracts/solidity-class-2.sol\":1297:1355  function setData() public{... */\n      jump\t// out\n    tag_52:\n      mload(0x40)\n      dup1\n      0x60\n      add\n      0x40\n      mstore\n      dup1\n      0x60\n      dup2\n      mstore\n      0x20\n      add\n      0x60\n      dup2\n      mstore\n      0x20\n      add\n      and(0xffffffffffffffffffffffffffffffffffffffff, 0x00)\n      dup2\n      mstore\n      pop\n      swap1\n      jump\t// out\n        /* \"#utility.yul\":7:84   */\n    tag_91:\n        /* \"#utility.yul\":44:51   */\n      0x00\n        /* \"#utility.yul\":73:78   */\n      dup2\n        /* \"#utility.yul\":62:78   */\n      swap1\n      pop\n        /* \"#utility.yul\":7:84   */\n      swap2\n      swap1\n      pop\n      jump\t// out\n        /* \"#utility.yul\":90:208   */\n    tag_92:\n        /* \"#utility.yul\":177:201   */\n      tag_144\n        /* \"#utility.yul\":195:200   */\n      dup2\n        /* \"#utility.yul\":177:201   */\n      tag_91\n      jump\t// in\n    tag_144:\n        /* \"#utility.yul\":172:175   */\n      dup3\n        /* \"#utility.yul\":165:202   */\n      mstore\n        /* \"#utility.yul\":90:208   */\n      pop\n      pop\n      jump\t// out\n        /* \"#utility.yul\":214:436   */\n    tag_16:\n        /* \"#utility.yul\":307:311   */\n      0x00\n        /* \"#utility.yul\":345:347   */\n      0x20\n        /* \"#utility.yul\":334:343   */\n      dup3\n        /* \"#utility.yul\":330:348   */\n      add\n        /* \"#utility.yul\":322:348   */\n      swap1\n      pop\n        /* \"#utility.yul\":358:429   */\n      tag_146\n        /* \"#utility.yul\":426:427   */\n      0x00\n        /* \"#utility.yul\":415:424   */\n      dup4\n        /* \"#utility.yul\":411:428   */\n      add\n        /* \"#utility.yul\":402:408   */\n      dup5\n        /* \"#utility.yul\":358:429   */\n      tag_92\n      jump\t// in\n    tag_146:\n        /* \"#utility.yul\":214:436   */\n      swap3\n      swap2\n      pop\n      pop\n      jump\t// out\n        /* \"#utility.yul\":442:517   */\n    tag_93:\n        /* \"#utility.yul\":475:481   */\n      0x00\n        /* \"#utility.yul\":508:510   */\n      0x40\n        /* \"#utility.yul\":502:511   */\n      mload\n        /* \"#utility.yul\":492:511   */\n      swap1\n      pop\n        /* \"#utility.yul\":442:517   */\n      swap1\n      jump\t// out\n        /* \"#utility.yul\":523:640   */\n    tag_94:\n        /* \"#utility.yul\":632:633   */\n      0x00\n        /* \"#utility.yul\":629:630   */\n      dup1\n        /* \"#utility.yul\":622:634   */\n      revert\n        /* \"#utility.yul\":646:763   */\n    tag_95:\n        /* \"#utility.yul\":755:756   */\n      0x00\n        /* \"#utility.yul\":752:753   */\n      dup1\n        /* \"#utility.yul\":745:757   */\n      revert\n        /* \"#utility.yul\":769:895   */\n    tag_96:\n        /* \"#utility.yul\":806:813   */\n      0x00\n        /* \"#utility.yul\":846:888   */\n      0xffffffffffffffffffffffffffffffffffffffff\n        /* \"#utility.yul\":839:844   */\n      dup3\n        /* \"#utility.yul\":835:889   */\n      and\n        /* \"#utility.yul\":824:889   */\n      swap1\n      pop\n        /* \"#utility.yul\":769:895   */\n      swap2\n      swap1\n      pop\n      jump\t// out\n        /* \"#utility.yul\":901:997   */\n    tag_97:\n        /* \"#utility.yul\":938:945   */\n      0x00\n        /* \"#utility.yul\":967:991   */\n      tag_152\n        /* \"#utility.yul\":985:990   */\n      dup3\n        /* \"#utility.yul\":967:991   */\n      tag_96\n      jump\t// in\n    tag_152:\n        /* \"#utility.yul\":956:991   */\n      swap1\n      pop\n        /* \"#utility.yul\":901:997   */\n      swap2\n      swap1\n      pop\n      jump\t// out\n        /* \"#utility.yul\":1003:1125   */\n    tag_98:\n        /* \"#utility.yul\":1076:1100   */\n      tag_154\n        /* \"#utility.yul\":1094:1099   */\n      dup2\n        /* \"#utility.yul\":1076:1100   */\n      tag_97\n      jump\t// in\n    tag_154:\n        /* \"#utility.yul\":1069:1074   */\n      dup2\n        /* \"#utility.yul\":1066:1101   */\n      eq\n        /* \"#utility.yul\":1056:1119   */\n      tag_155\n      jumpi\n        /* \"#utility.yul\":1115:1116   */\n      0x00\n        /* \"#utility.yul\":1112:1113   */\n      dup1\n        /* \"#utility.yul\":1105:1117   */\n      revert\n        /* \"#utility.yul\":1056:1119   */\n    tag_155:\n        /* \"#utility.yul\":1003:1125   */\n      pop\n      jump\t// out\n        /* \"#utility.yul\":1131:1270   */\n    tag_99:\n        /* \"#utility.yul\":1177:1182   */\n      0x00\n        /* \"#utility.yul\":1215:1221   */\n      dup2\n        /* \"#utility.yul\":1202:1222   */\n      calldataload\n        /* \"#utility.yul\":1193:1222   */\n      swap1\n      pop\n        /* \"#utility.yul\":1231:1264   */\n      tag_157\n        /* \"#utility.yul\":1258:1263   */\n      dup2\n        /* \"#utility.yul\":1231:1264   */\n      tag_98\n      jump\t// in\n    tag_157:\n        /* \"#utility.yul\":1131:1270   */\n      swap3\n      swap2\n      pop\n      pop\n      jump\t// out\n        /* \"#utility.yul\":1276:1605   */\n    tag_24:\n        /* \"#utility.yul\":1335:1341   */\n      0x00\n        /* \"#utility.yul\":1384:1386   */\n      0x20\n        /* \"#utility.yul\":1372:1381   */\n      dup3\n        /* \"#utility.yul\":1363:1370   */\n      dup5\n        /* \"#utility.yul\":1359:1382   */\n      sub\n        /* \"#utility.yul\":1355:1387   */\n      slt\n        /* \"#utility.yul\":1352:1471   */\n      iszero\n      tag_159\n      jumpi\n        /* \"#utility.yul\":1390:1469   */\n      tag_160\n      tag_94\n      jump\t// in\n    tag_160:\n        /* \"#utility.yul\":1352:1471   */\n    tag_159:\n        /* \"#utility.yul\":1510:1511   */\n      0x00\n        /* \"#utility.yul\":1535:1588   */\n      tag_161\n        /* \"#utility.yul\":1580:1587   */\n      dup5\n        /* \"#utility.yul\":1571:1577   */\n      dup3\n        /* \"#utility.yul\":1560:1569   */\n      dup6\n        /* \"#utility.yul\":1556:1578   */\n      add\n        /* \"#utility.yul\":1535:1588   */\n      tag_99\n      jump\t// in\n    tag_161:\n        /* \"#utility.yul\":1525:1588   */\n      swap2\n      pop\n        /* \"#utility.yul\":1481:1598   */\n      pop\n        /* \"#utility.yul\":1276:1605   */\n      swap3\n      swap2\n      pop\n      pop\n      jump\t// out\n        /* \"#utility.yul\":1611:1710   */\n    tag_100:\n        /* \"#utility.yul\":1663:1669   */\n      0x00\n        /* \"#utility.yul\":1697:1702   */\n      dup2\n        /* \"#utility.yul\":1691:1703   */\n      mload\n        /* \"#utility.yul\":1681:1703   */\n      swap1\n      pop\n        /* \"#utility.yul\":1611:1710   */\n      swap2\n      swap1\n      pop\n      jump\t// out\n        /* \"#utility.yul\":1716:1875   */\n    tag_101:\n        /* \"#utility.yul\":1790:1801   */\n      0x00\n        /* \"#utility.yul\":1824:1830   */\n      dup3\n        /* \"#utility.yul\":1819:1822   */\n      dup3\n        /* \"#utility.yul\":1812:1831   */\n      mstore\n        /* \"#utility.yul\":1864:1868   */\n      0x20\n        /* \"#utility.yul\":1859:1862   */\n      dup3\n        /* \"#utility.yul\":1855:1869   */\n      add\n        /* \"#utility.yul\":1840:1869   */\n      swap1\n      pop\n        /* \"#utility.yul\":1716:1875   */\n      swap3\n      swap2\n      pop\n      pop\n      jump\t// out\n        /* \"#utility.yul\":1881:2127   */\n    tag_102:\n        /* \"#utility.yul\":1962:1963   */\n      0x00\n        /* \"#utility.yul\":1972:2085   */\n    tag_165:\n        /* \"#utility.yul\":1986:1992   */\n      dup4\n        /* \"#utility.yul\":1983:1984   */\n      dup2\n        /* \"#utility.yul\":1980:1993   */\n      lt\n        /* \"#utility.yul\":1972:2085   */\n      iszero\n      tag_167\n      jumpi\n        /* \"#utility.yul\":2071:2072   */\n      dup1\n        /* \"#utility.yul\":2066:2069   */\n      dup3\n        /* \"#utility.yul\":2062:2073   */\n      add\n        /* \"#utility.yul\":2056:2074   */\n      mload\n        /* \"#utility.yul\":2052:2053   */\n      dup2\n        /* \"#utility.yul\":2047:2050   */\n      dup5\n        /* \"#utility.yul\":2043:2054   */\n      add\n        /* \"#utility.yul\":2036:2075   */\n      mstore\n        /* \"#utility.yul\":2008:2010   */\n      0x20\n        /* \"#utility.yul\":2005:2006   */\n      dup2\n        /* \"#utility.yul\":2001:2011   */\n      add\n        /* \"#utility.yul\":1996:2011   */\n      swap1\n      pop\n        /* \"#utility.yul\":1972:2085   */\n      jump(tag_165)\n    tag_167:\n        /* \"#utility.yul\":2119:2120   */\n      0x00\n        /* \"#utility.yul\":2110:2116   */\n      dup5\n        /* \"#utility.yul\":2105:2108   */\n      dup5\n        /* \"#utility.yul\":2101:2117   */\n      add\n        /* \"#utility.yul\":2094:2121   */\n      mstore\n        /* \"#utility.yul\":1943:2127   */\n      pop\n        /* \"#utility.yul\":1881:2127   */\n      pop\n      pop\n      pop\n      jump\t// out\n        /* \"#utility.yul\":2133:2235   */\n    tag_103:\n        /* \"#utility.yul\":2174:2180   */\n      0x00\n        /* \"#utility.yul\":2225:2227   */\n      0x1f\n        /* \"#utility.yul\":2221:2228   */\n      not\n        /* \"#utility.yul\":2216:2218   */\n      0x1f\n        /* \"#utility.yul\":2209:2214   */\n      dup4\n        /* \"#utility.yul\":2205:2219   */\n      add\n        /* \"#utility.yul\":2201:2229   */\n      and\n        /* \"#utility.yul\":2191:2229   */\n      swap1\n      pop\n        /* \"#utility.yul\":2133:2235   */\n      swap2\n      swap1\n      pop\n      jump\t// out\n        /* \"#utility.yul\":2241:2598   */\n    tag_104:\n        /* \"#utility.yul\":2319:2322   */\n      0x00\n        /* \"#utility.yul\":2347:2386   */\n      tag_170\n        /* \"#utility.yul\":2380:2385   */\n      dup3\n        /* \"#utility.yul\":2347:2386   */\n      tag_100\n      jump\t// in\n    tag_170:\n        /* \"#utility.yul\":2402:2463   */\n      tag_171\n        /* \"#utility.yul\":2456:2462   */\n      dup2\n        /* \"#utility.yul\":2451:2454   */\n      dup6\n        /* \"#utility.yul\":2402:2463   */\n      tag_101\n      jump\t// in\n    tag_171:\n        /* \"#utility.yul\":2395:2463   */\n      swap4\n      pop\n        /* \"#utility.yul\":2472:2537   */\n      tag_172\n        /* \"#utility.yul\":2530:2536   */\n      dup2\n        /* \"#utility.yul\":2525:2528   */\n      dup6\n        /* \"#utility.yul\":2518:2522   */\n      0x20\n        /* \"#utility.yul\":2511:2516   */\n      dup7\n        /* \"#utility.yul\":2507:2523   */\n      add\n        /* \"#utility.yul\":2472:2537   */\n      tag_102\n      jump\t// in\n    tag_172:\n        /* \"#utility.yul\":2562:2591   */\n      tag_173\n        /* \"#utility.yul\":2584:2590   */\n      dup2\n        /* \"#utility.yul\":2562:2591   */\n      tag_103\n      jump\t// in\n    tag_173:\n        /* \"#utility.yul\":2557:2560   */\n      dup5\n        /* \"#utility.yul\":2553:2592   */\n      add\n        /* \"#utility.yul\":2546:2592   */\n      swap2\n      pop\n        /* \"#utility.yul\":2323:2598   */\n      pop\n        /* \"#utility.yul\":2241:2598   */\n      swap3\n      swap2\n      pop\n      pop\n      jump\t// out\n        /* \"#utility.yul\":2604:2712   */\n    tag_105:\n        /* \"#utility.yul\":2681:2705   */\n      tag_175\n        /* \"#utility.yul\":2699:2704   */\n      dup2\n        /* \"#utility.yul\":2681:2705   */\n      tag_97\n      jump\t// in\n    tag_175:\n        /* \"#utility.yul\":2676:2679   */\n      dup3\n        /* \"#utility.yul\":2669:2706   */\n      mstore\n        /* \"#utility.yul\":2604:2712   */\n      pop\n      pop\n      jump\t// out\n        /* \"#utility.yul\":2770:3617   */\n    tag_106:\n        /* \"#utility.yul\":2887:2890   */\n      0x00\n        /* \"#utility.yul\":2923:2927   */\n      0x60\n        /* \"#utility.yul\":2918:2921   */\n      dup4\n        /* \"#utility.yul\":2914:2928   */\n      add\n        /* \"#utility.yul\":3010:3014   */\n      0x00\n        /* \"#utility.yul\":3003:3008   */\n      dup4\n        /* \"#utility.yul\":2999:3015   */\n      add\n        /* \"#utility.yul\":2993:3016   */\n      mload\n        /* \"#utility.yul\":3063:3066   */\n      dup5\n        /* \"#utility.yul\":3057:3061   */\n      dup3\n        /* \"#utility.yul\":3053:3067   */\n      sub\n        /* \"#utility.yul\":3046:3050   */\n      0x00\n        /* \"#utility.yul\":3041:3044   */\n      dup7\n        /* \"#utility.yul\":3037:3051   */\n      add\n        /* \"#utility.yul\":3030:3068   */\n      mstore\n        /* \"#utility.yul\":3089:3162   */\n      tag_177\n        /* \"#utility.yul\":3157:3161   */\n      dup3\n        /* \"#utility.yul\":3143:3155   */\n      dup3\n        /* \"#utility.yul\":3089:3162   */\n      tag_104\n      jump\t// in\n    tag_177:\n        /* \"#utility.yul\":3081:3162   */\n      swap2\n      pop\n        /* \"#utility.yul\":2938:3173   */\n      pop\n        /* \"#utility.yul\":3255:3259   */\n      0x20\n        /* \"#utility.yul\":3248:3253   */\n      dup4\n        /* \"#utility.yul\":3244:3260   */\n      add\n        /* \"#utility.yul\":3238:3261   */\n      mload\n        /* \"#utility.yul\":3308:3311   */\n      dup5\n        /* \"#utility.yul\":3302:3306   */\n      dup3\n        /* \"#utility.yul\":3298:3312   */\n      sub\n        /* \"#utility.yul\":3291:3295   */\n      0x20\n        /* \"#utility.yul\":3286:3289   */\n      dup7\n        /* \"#utility.yul\":3282:3296   */\n      add\n        /* \"#utility.yul\":3275:3313   */\n      mstore\n        /* \"#utility.yul\":3334:3407   */\n      tag_178\n        /* \"#utility.yul\":3402:3406   */\n      dup3\n        /* \"#utility.yul\":3388:3400   */\n      dup3\n        /* \"#utility.yul\":3334:3407   */\n      tag_104\n      jump\t// in\n    tag_178:\n        /* \"#utility.yul\":3326:3407   */\n      swap2\n      pop\n        /* \"#utility.yul\":3183:3418   */\n      pop\n        /* \"#utility.yul\":3498:3502   */\n      0x40\n        /* \"#utility.yul\":3491:3496   */\n      dup4\n        /* \"#utility.yul\":3487:3503   */\n      add\n        /* \"#utility.yul\":3481:3504   */\n      mload\n        /* \"#utility.yul\":3517:3580   */\n      tag_179\n        /* \"#utility.yul\":3574:3578   */\n      0x40\n        /* \"#utility.yul\":3569:3572   */\n      dup7\n        /* \"#utility.yul\":3565:3579   */\n      add\n        /* \"#utility.yul\":3551:3563   */\n      dup3\n        /* \"#utility.yul\":3517:3580   */\n      tag_105\n      jump\t// in\n    tag_179:\n        /* \"#utility.yul\":3428:3590   */\n      pop\n        /* \"#utility.yul\":3607:3611   */\n      dup1\n        /* \"#utility.yul\":3600:3611   */\n      swap2\n      pop\n        /* \"#utility.yul\":2892:3617   */\n      pop\n        /* \"#utility.yul\":2770:3617   */\n      swap3\n      swap2\n      pop\n      pop\n      jump\t// out\n        /* \"#utility.yul\":3623:3992   */\n    tag_27:\n        /* \"#utility.yul\":3764:3768   */\n      0x00\n        /* \"#utility.yul\":3802:3804   */\n      0x20\n        /* \"#utility.yul\":3791:3800   */\n      dup3\n        /* \"#utility.yul\":3787:3805   */\n      add\n        /* \"#utility.yul\":3779:3805   */\n      swap1\n      pop\n        /* \"#utility.yul\":3851:3860   */\n      dup2\n        /* \"#utility.yul\":3845:3849   */\n      dup2\n        /* \"#utility.yul\":3841:3861   */\n      sub\n        /* \"#utility.yul\":3837:3838   */\n      0x00\n        /* \"#utility.yul\":3826:3835   */\n      dup4\n        /* \"#utility.yul\":3822:3839   */\n      add\n        /* \"#utility.yul\":3815:3862   */\n      mstore\n        /* \"#utility.yul\":3879:3985   */\n      tag_181\n        /* \"#utility.yul\":3980:3984   */\n      dup2\n        /* \"#utility.yul\":3971:3977   */\n      dup5\n        /* \"#utility.yul\":3879:3985   */\n      tag_106\n      jump\t// in\n    tag_181:\n        /* \"#utility.yul\":3871:3985   */\n      swap1\n      pop\n        /* \"#utility.yul\":3623:3992   */\n      swap3\n      swap2\n      pop\n      pop\n      jump\t// out\n        /* \"#utility.yul\":3998:4167   */\n    tag_107:\n        /* \"#utility.yul\":4082:4093   */\n      0x00\n        /* \"#utility.yul\":4116:4122   */\n      dup3\n        /* \"#utility.yul\":4111:4114   */\n      dup3\n        /* \"#utility.yul\":4104:4123   */\n      mstore\n        /* \"#utility.yul\":4156:4160   */\n      0x20\n        /* \"#utility.yul\":4151:4154   */\n      dup3\n        /* \"#utility.yul\":4147:4161   */\n      add\n        /* \"#utility.yul\":4132:4161   */\n      swap1\n      pop\n        /* \"#utility.yul\":3998:4167   */\n      swap3\n      swap2\n      pop\n      pop\n      jump\t// out\n        /* \"#utility.yul\":4173:4550   */\n    tag_108:\n        /* \"#utility.yul\":4261:4264   */\n      0x00\n        /* \"#utility.yul\":4289:4328   */\n      tag_184\n        /* \"#utility.yul\":4322:4327   */\n      dup3\n        /* \"#utility.yul\":4289:4328   */\n      tag_100\n      jump\t// in\n    tag_184:\n        /* \"#utility.yul\":4344:4415   */\n      tag_185\n        /* \"#utility.yul\":4408:4414   */\n      dup2\n        /* \"#utility.yul\":4403:4406   */\n      dup6\n        /* \"#utility.yul\":4344:4415   */\n      tag_107\n      jump\t// in\n    tag_185:\n        /* \"#utility.yul\":4337:4415   */\n      swap4\n      pop\n        /* \"#utility.yul\":4424:4489   */\n      tag_186\n        /* \"#utility.yul\":4482:4488   */\n      dup2\n        /* \"#utility.yul\":4477:4480   */\n      dup6\n        /* \"#utility.yul\":4470:4474   */\n      0x20\n        /* \"#utility.yul\":4463:4468   */\n      dup7\n        /* \"#utility.yul\":4459:4475   */\n      add\n        /* \"#utility.yul\":4424:4489   */\n      tag_102\n      jump\t// in\n    tag_186:\n        /* \"#utility.yul\":4514:4543   */\n      tag_187\n        /* \"#utility.yul\":4536:4542   */\n      dup2\n        /* \"#utility.yul\":4514:4543   */\n      tag_103\n      jump\t// in\n    tag_187:\n        /* \"#utility.yul\":4509:4512   */\n      dup5\n        /* \"#utility.yul\":4505:4544   */\n      add\n        /* \"#utility.yul\":4498:4544   */\n      swap2\n      pop\n        /* \"#utility.yul\":4265:4550   */\n      pop\n        /* \"#utility.yul\":4173:4550   */\n      swap3\n      swap2\n      pop\n      pop\n      jump\t// out\n        /* \"#utility.yul\":4556:4646   */\n    tag_109:\n        /* \"#utility.yul\":4590:4597   */\n      0x00\n        /* \"#utility.yul\":4633:4638   */\n      dup2\n        /* \"#utility.yul\":4626:4639   */\n      iszero\n        /* \"#utility.yul\":4619:4640   */\n      iszero\n        /* \"#utility.yul\":4608:4640   */\n      swap1\n      pop\n        /* \"#utility.yul\":4556:4646   */\n      swap2\n      swap1\n      pop\n      jump\t// out\n        /* \"#utility.yul\":4652:4761   */\n    tag_110:\n        /* \"#utility.yul\":4733:4754   */\n      tag_190\n        /* \"#utility.yul\":4748:4753   */\n      dup2\n        /* \"#utility.yul\":4733:4754   */\n      tag_109\n      jump\t// in\n    tag_190:\n        /* \"#utility.yul\":4728:4731   */\n      dup3\n        /* \"#utility.yul\":4721:4755   */\n      mstore\n        /* \"#utility.yul\":4652:4761   */\n      pop\n      pop\n      jump\t// out\n        /* \"#utility.yul\":4767:5490   */\n    tag_31:\n        /* \"#utility.yul\":4978:4982   */\n      0x00\n        /* \"#utility.yul\":5016:5019   */\n      0x80\n        /* \"#utility.yul\":5005:5014   */\n      dup3\n        /* \"#utility.yul\":5001:5020   */\n      add\n        /* \"#utility.yul\":4993:5020   */\n      swap1\n      pop\n        /* \"#utility.yul\":5066:5075   */\n      dup2\n        /* \"#utility.yul\":5060:5064   */\n      dup2\n        /* \"#utility.yul\":5056:5076   */\n      sub\n        /* \"#utility.yul\":5052:5053   */\n      0x00\n        /* \"#utility.yul\":5041:5050   */\n      dup4\n        /* \"#utility.yul\":5037:5054   */\n      add\n        /* \"#utility.yul\":5030:5077   */\n      mstore\n        /* \"#utility.yul\":5094:5172   */\n      tag_192\n        /* \"#utility.yul\":5167:5171   */\n      dup2\n        /* \"#utility.yul\":5158:5164   */\n      dup8\n        /* \"#utility.yul\":5094:5172   */\n      tag_108\n      jump\t// in\n    tag_192:\n        /* \"#utility.yul\":5086:5172   */\n      swap1\n      pop\n        /* \"#utility.yul\":5219:5228   */\n      dup2\n        /* \"#utility.yul\":5213:5217   */\n      dup2\n        /* \"#utility.yul\":5209:5229   */\n      sub\n        /* \"#utility.yul\":5204:5206   */\n      0x20\n        /* \"#utility.yul\":5193:5202   */\n      dup4\n        /* \"#utility.yul\":5189:5207   */\n      add\n        /* \"#utility.yul\":5182:5230   */\n      mstore\n        /* \"#utility.yul\":5247:5325   */\n      tag_193\n        /* \"#utility.yul\":5320:5324   */\n      dup2\n        /* \"#utility.yul\":5311:5317   */\n      dup7\n        /* \"#utility.yul\":5247:5325   */\n      tag_108\n      jump\t// in\n    tag_193:\n        /* \"#utility.yul\":5239:5325   */\n      swap1\n      pop\n        /* \"#utility.yul\":5335:5407   */\n      tag_194\n        /* \"#utility.yul\":5403:5405   */\n      0x40\n        /* \"#utility.yul\":5392:5401   */\n      dup4\n        /* \"#utility.yul\":5388:5406   */\n      add\n        /* \"#utility.yul\":5379:5385   */\n      dup6\n        /* \"#utility.yul\":5335:5407   */\n      tag_92\n      jump\t// in\n    tag_194:\n        /* \"#utility.yul\":5417:5483   */\n      tag_195\n        /* \"#utility.yul\":5479:5481   */\n      0x60\n        /* \"#utility.yul\":5468:5477   */\n      dup4\n        /* \"#utility.yul\":5464:5482   */\n      add\n        /* \"#utility.yul\":5455:5461   */\n      dup5\n        /* \"#utility.yul\":5417:5483   */\n      tag_110\n      jump\t// in\n    tag_195:\n        /* \"#utility.yul\":4767:5490   */\n      swap6\n      swap5\n      pop\n      pop\n      pop\n      pop\n      pop\n      jump\t// out\n        /* \"#utility.yul\":5496:5919   */\n    tag_35:\n        /* \"#utility.yul\":5637:5641   */\n      0x00\n        /* \"#utility.yul\":5675:5677   */\n      0x40\n        /* \"#utility.yul\":5664:5673   */\n      dup3\n        /* \"#utility.yul\":5660:5678   */\n      add\n        /* \"#utility.yul\":5652:5678   */\n      swap1\n      pop\n        /* \"#utility.yul\":5724:5733   */\n      dup2\n        /* \"#utility.yul\":5718:5722   */\n      dup2\n        /* \"#utility.yul\":5714:5734   */\n      sub\n        /* \"#utility.yul\":5710:5711   */\n      0x00\n        /* \"#utility.yul\":5699:5708   */\n      dup4\n        /* \"#utility.yul\":5695:5712   */\n      add\n        /* \"#utility.yul\":5688:5735   */\n      mstore\n        /* \"#utility.yul\":5752:5830   */\n      tag_197\n        /* \"#utility.yul\":5825:5829   */\n      dup2\n        /* \"#utility.yul\":5816:5822   */\n      dup6\n        /* \"#utility.yul\":5752:5830   */\n      tag_108\n      jump\t// in\n    tag_197:\n        /* \"#utility.yul\":5744:5830   */\n      swap1\n      pop\n        /* \"#utility.yul\":5840:5912   */\n      tag_198\n        /* \"#utility.yul\":5908:5910   */\n      0x20\n        /* \"#utility.yul\":5897:5906   */\n      dup4\n        /* \"#utility.yul\":5893:5911   */\n      add\n        /* \"#utility.yul\":5884:5890   */\n      dup5\n        /* \"#utility.yul\":5840:5912   */\n      tag_92\n      jump\t// in\n    tag_198:\n        /* \"#utility.yul\":5496:5919   */\n      swap4\n      swap3\n      pop\n      pop\n      pop\n      jump\t// out\n        /* \"#utility.yul\":5925:6042   */\n    tag_111:\n        /* \"#utility.yul\":6034:6035   */\n      0x00\n        /* \"#utility.yul\":6031:6032   */\n      dup1\n        /* \"#utility.yul\":6024:6036   */\n      revert\n        /* \"#utility.yul\":6048:6165   */\n    tag_112:\n        /* \"#utility.yul\":6157:6158   */\n      0x00\n        /* \"#utility.yul\":6154:6155   */\n      dup1\n        /* \"#utility.yul\":6147:6159   */\n      revert\n        /* \"#utility.yul\":6171:6351   */\n    tag_113:\n        /* \"#utility.yul\":6219:6296   */\n      0x4e487b7100000000000000000000000000000000000000000000000000000000\n        /* \"#utility.yul\":6216:6217   */\n      0x00\n        /* \"#utility.yul\":6209:6297   */\n      mstore\n        /* \"#utility.yul\":6316:6320   */\n      0x41\n        /* \"#utility.yul\":6313:6314   */\n      0x04\n        /* \"#utility.yul\":6306:6321   */\n      mstore\n        /* \"#utility.yul\":6340:6344   */\n      0x24\n        /* \"#utility.yul\":6337:6338   */\n      0x00\n        /* \"#utility.yul\":6330:6345   */\n      revert\n        /* \"#utility.yul\":6357:6638   */\n    tag_114:\n        /* \"#utility.yul\":6440:6467   */\n      tag_203\n        /* \"#utility.yul\":6462:6466   */\n      dup3\n        /* \"#utility.yul\":6440:6467   */\n      tag_103\n      jump\t// in\n    tag_203:\n        /* \"#utility.yul\":6432:6438   */\n      dup2\n        /* \"#utility.yul\":6428:6468   */\n      add\n        /* \"#utility.yul\":6570:6576   */\n      dup2\n        /* \"#utility.yul\":6558:6568   */\n      dup2\n        /* \"#utility.yul\":6555:6577   */\n      lt\n        /* \"#utility.yul\":6534:6552   */\n      0xffffffffffffffff\n        /* \"#utility.yul\":6522:6532   */\n      dup3\n        /* \"#utility.yul\":6519:6553   */\n      gt\n        /* \"#utility.yul\":6516:6578   */\n      or\n        /* \"#utility.yul\":6513:6601   */\n      iszero\n      tag_204\n      jumpi\n        /* \"#utility.yul\":6581:6599   */\n      tag_205\n      tag_113\n      jump\t// in\n    tag_205:\n        /* \"#utility.yul\":6513:6601   */\n    tag_204:\n        /* \"#utility.yul\":6621:6631   */\n      dup1\n        /* \"#utility.yul\":6617:6619   */\n      0x40\n        /* \"#utility.yul\":6610:6632   */\n      mstore\n        /* \"#utility.yul\":6400:6638   */\n      pop\n        /* \"#utility.yul\":6357:6638   */\n      pop\n      pop\n      jump\t// out\n        /* \"#utility.yul\":6644:6773   */\n    tag_115:\n        /* \"#utility.yul\":6678:6684   */\n      0x00\n        /* \"#utility.yul\":6705:6725   */\n      tag_207\n      tag_93\n      jump\t// in\n    tag_207:\n        /* \"#utility.yul\":6695:6725   */\n      swap1\n      pop\n        /* \"#utility.yul\":6734:6767   */\n      tag_208\n        /* \"#utility.yul\":6762:6766   */\n      dup3\n        /* \"#utility.yul\":6754:6760   */\n      dup3\n        /* \"#utility.yul\":6734:6767   */\n      tag_114\n      jump\t// in\n    tag_208:\n        /* \"#utility.yul\":6644:6773   */\n      swap2\n      swap1\n      pop\n      jump\t// out\n        /* \"#utility.yul\":6779:7087   */\n    tag_116:\n        /* \"#utility.yul\":6841:6845   */\n      0x00\n        /* \"#utility.yul\":6931:6949   */\n      0xffffffffffffffff\n        /* \"#utility.yul\":6923:6929   */\n      dup3\n        /* \"#utility.yul\":6920:6950   */\n      gt\n        /* \"#utility.yul\":6917:6973   */\n      iszero\n      tag_210\n      jumpi\n        /* \"#utility.yul\":6953:6971   */\n      tag_211\n      tag_113\n      jump\t// in\n    tag_211:\n        /* \"#utility.yul\":6917:6973   */\n    tag_210:\n        /* \"#utility.yul\":6991:7020   */\n      tag_212\n        /* \"#utility.yul\":7013:7019   */\n      dup3\n        /* \"#utility.yul\":6991:7020   */\n      tag_103\n      jump\t// in\n    tag_212:\n        /* \"#utility.yul\":6983:7020   */\n      swap1\n      pop\n        /* \"#utility.yul\":7075:7079   */\n      0x20\n        /* \"#utility.yul\":7069:7073   */\n      dup2\n        /* \"#utility.yul\":7065:7080   */\n      add\n        /* \"#utility.yul\":7057:7080   */\n      swap1\n      pop\n        /* \"#utility.yul\":6779:7087   */\n      swap2\n      swap1\n      pop\n      jump\t// out\n        /* \"#utility.yul\":7093:7239   */\n    tag_117:\n        /* \"#utility.yul\":7190:7196   */\n      dup3\n        /* \"#utility.yul\":7185:7188   */\n      dup2\n        /* \"#utility.yul\":7180:7183   */\n      dup4\n        /* \"#utility.yul\":7167:7197   */\n      calldatacopy\n        /* \"#utility.yul\":7231:7232   */\n      0x00\n        /* \"#utility.yul\":7222:7228   */\n      dup4\n        /* \"#utility.yul\":7217:7220   */\n      dup4\n        /* \"#utility.yul\":7213:7229   */\n      add\n        /* \"#utility.yul\":7206:7233   */\n      mstore\n        /* \"#utility.yul\":7093:7239   */\n      pop\n      pop\n      pop\n      jump\t// out\n        /* \"#utility.yul\":7245:7670   */\n    tag_118:\n        /* \"#utility.yul\":7323:7328   */\n      0x00\n        /* \"#utility.yul\":7348:7414   */\n      tag_215\n        /* \"#utility.yul\":7364:7413   */\n      tag_216\n        /* \"#utility.yul\":7406:7412   */\n      dup5\n        /* \"#utility.yul\":7364:7413   */\n      tag_116\n      jump\t// in\n    tag_216:\n        /* \"#utility.yul\":7348:7414   */\n      tag_115\n      jump\t// in\n    tag_215:\n        /* \"#utility.yul\":7339:7414   */\n      swap1\n      pop\n        /* \"#utility.yul\":7437:7443   */\n      dup3\n        /* \"#utility.yul\":7430:7435   */\n      dup2\n        /* \"#utility.yul\":7423:7444   */\n      mstore\n        /* \"#utility.yul\":7475:7479   */\n      0x20\n        /* \"#utility.yul\":7468:7473   */\n      dup2\n        /* \"#utility.yul\":7464:7480   */\n      add\n        /* \"#utility.yul\":7513:7516   */\n      dup5\n        /* \"#utility.yul\":7504:7510   */\n      dup5\n        /* \"#utility.yul\":7499:7502   */\n      dup5\n        /* \"#utility.yul\":7495:7511   */\n      add\n        /* \"#utility.yul\":7492:7517   */\n      gt\n        /* \"#utility.yul\":7489:7601   */\n      iszero\n      tag_217\n      jumpi\n        /* \"#utility.yul\":7520:7599   */\n      tag_218\n      tag_112\n      jump\t// in\n    tag_218:\n        /* \"#utility.yul\":7489:7601   */\n    tag_217:\n        /* \"#utility.yul\":7610:7664   */\n      tag_219\n        /* \"#utility.yul\":7657:7663   */\n      dup5\n        /* \"#utility.yul\":7652:7655   */\n      dup3\n        /* \"#utility.yul\":7647:7650   */\n      dup6\n        /* \"#utility.yul\":7610:7664   */\n      tag_117\n      jump\t// in\n    tag_219:\n        /* \"#utility.yul\":7329:7670   */\n      pop\n        /* \"#utility.yul\":7245:7670   */\n      swap4\n      swap3\n      pop\n      pop\n      pop\n      jump\t// out\n        /* \"#utility.yul\":7690:8030   */\n    tag_119:\n        /* \"#utility.yul\":7746:7751   */\n      0x00\n        /* \"#utility.yul\":7795:7798   */\n      dup3\n        /* \"#utility.yul\":7788:7792   */\n      0x1f\n        /* \"#utility.yul\":7780:7786   */\n      dup4\n        /* \"#utility.yul\":7776:7793   */\n      add\n        /* \"#utility.yul\":7772:7799   */\n      slt\n        /* \"#utility.yul\":7762:7884   */\n      tag_221\n      jumpi\n        /* \"#utility.yul\":7803:7882   */\n      tag_222\n      tag_111\n      jump\t// in\n    tag_222:\n        /* \"#utility.yul\":7762:7884   */\n    tag_221:\n        /* \"#utility.yul\":7920:7926   */\n      dup2\n        /* \"#utility.yul\":7907:7927   */\n      calldataload\n        /* \"#utility.yul\":7945:8024   */\n      tag_223\n        /* \"#utility.yul\":8020:8023   */\n      dup5\n        /* \"#utility.yul\":8012:8018   */\n      dup3\n        /* \"#utility.yul\":8005:8009   */\n      0x20\n        /* \"#utility.yul\":7997:8003   */\n      dup7\n        /* \"#utility.yul\":7993:8010   */\n      add\n        /* \"#utility.yul\":7945:8024   */\n      tag_118\n      jump\t// in\n    tag_223:\n        /* \"#utility.yul\":7936:8024   */\n      swap2\n      pop\n        /* \"#utility.yul\":7752:8030   */\n      pop\n        /* \"#utility.yul\":7690:8030   */\n      swap3\n      swap2\n      pop\n      pop\n      jump\t// out\n        /* \"#utility.yul\":8036:8158   */\n    tag_120:\n        /* \"#utility.yul\":8109:8133   */\n      tag_225\n        /* \"#utility.yul\":8127:8132   */\n      dup2\n        /* \"#utility.yul\":8109:8133   */\n      tag_91\n      jump\t// in\n    tag_225:\n        /* \"#utility.yul\":8102:8107   */\n      dup2\n        /* \"#utility.yul\":8099:8134   */\n      eq\n        /* \"#utility.yul\":8089:8152   */\n      tag_226\n      jumpi\n        /* \"#utility.yul\":8148:8149   */\n      0x00\n        /* \"#utility.yul\":8145:8146   */\n      dup1\n        /* \"#utility.yul\":8138:8150   */\n      revert\n        /* \"#utility.yul\":8089:8152   */\n    tag_226:\n        /* \"#utility.yul\":8036:8158   */\n      pop\n      jump\t// out\n        /* \"#utility.yul\":8164:8303   */\n    tag_121:\n        /* \"#utility.yul\":8210:8215   */\n      0x00\n        /* \"#utility.yul\":8248:8254   */\n      dup2\n        /* \"#utility.yul\":8235:8255   */\n      calldataload\n        /* \"#utility.yul\":8226:8255   */\n      swap1\n      pop\n        /* \"#utility.yul\":8264:8297   */\n      tag_228\n        /* \"#utility.yul\":8291:8296   */\n      dup2\n        /* \"#utility.yul\":8264:8297   */\n      tag_120\n      jump\t// in\n    tag_228:\n        /* \"#utility.yul\":8164:8303   */\n      swap3\n      swap2\n      pop\n      pop\n      jump\t// out\n        /* \"#utility.yul\":8309:9288   */\n    tag_38:\n        /* \"#utility.yul\":8406:8412   */\n      0x00\n        /* \"#utility.yul\":8414:8420   */\n      dup1\n        /* \"#utility.yul\":8422:8428   */\n      0x00\n        /* \"#utility.yul\":8471:8473   */\n      0x60\n        /* \"#utility.yul\":8459:8468   */\n      dup5\n        /* \"#utility.yul\":8450:8457   */\n      dup7\n        /* \"#utility.yul\":8446:8469   */\n      sub\n        /* \"#utility.yul\":8442:8474   */\n      slt\n        /* \"#utility.yul\":8439:8558   */\n      iszero\n      tag_230\n      jumpi\n        /* \"#utility.yul\":8477:8556   */\n      tag_231\n      tag_94\n      jump\t// in\n    tag_231:\n        /* \"#utility.yul\":8439:8558   */\n    tag_230:\n        /* \"#utility.yul\":8625:8626   */\n      0x00\n        /* \"#utility.yul\":8614:8623   */\n      dup5\n        /* \"#utility.yul\":8610:8627   */\n      add\n        /* \"#utility.yul\":8597:8628   */\n      calldataload\n        /* \"#utility.yul\":8655:8673   */\n      0xffffffffffffffff\n        /* \"#utility.yul\":8647:8653   */\n      dup2\n        /* \"#utility.yul\":8644:8674   */\n      gt\n        /* \"#utility.yul\":8641:8758   */\n      iszero\n      tag_232\n      jumpi\n        /* \"#utility.yul\":8677:8756   */\n      tag_233\n      tag_95\n      jump\t// in\n    tag_233:\n        /* \"#utility.yul\":8641:8758   */\n    tag_232:\n        /* \"#utility.yul\":8782:8845   */\n      tag_234\n        /* \"#utility.yul\":8837:8844   */\n      dup7\n        /* \"#utility.yul\":8828:8834   */\n      dup3\n        /* \"#utility.yul\":8817:8826   */\n      dup8\n        /* \"#utility.yul\":8813:8835   */\n      add\n        /* \"#utility.yul\":8782:8845   */\n      tag_119\n      jump\t// in\n    tag_234:\n        /* \"#utility.yul\":8772:8845   */\n      swap4\n      pop\n        /* \"#utility.yul\":8568:8855   */\n      pop\n        /* \"#utility.yul\":8922:8924   */\n      0x20\n        /* \"#utility.yul\":8911:8920   */\n      dup5\n        /* \"#utility.yul\":8907:8925   */\n      add\n        /* \"#utility.yul\":8894:8926   */\n      calldataload\n        /* \"#utility.yul\":8953:8971   */\n      0xffffffffffffffff\n        /* \"#utility.yul\":8945:8951   */\n      dup2\n        /* \"#utility.yul\":8942:8972   */\n      gt\n        /* \"#utility.yul\":8939:9056   */\n      iszero\n      tag_235\n      jumpi\n        /* \"#utility.yul\":8975:9054   */\n      tag_236\n      tag_95\n      jump\t// in\n    tag_236:\n        /* \"#utility.yul\":8939:9056   */\n    tag_235:\n        /* \"#utility.yul\":9080:9143   */\n      tag_237\n        /* \"#utility.yul\":9135:9142   */\n      dup7\n        /* \"#utility.yul\":9126:9132   */\n      dup3\n        /* \"#utility.yul\":9115:9124   */\n      dup8\n        /* \"#utility.yul\":9111:9133   */\n      add\n        /* \"#utility.yul\":9080:9143   */\n      tag_119\n      jump\t// in\n    tag_237:\n        /* \"#utility.yul\":9070:9143   */\n      swap3\n      pop\n        /* \"#utility.yul\":8865:9153   */\n      pop\n        /* \"#utility.yul\":9192:9194   */\n      0x40\n        /* \"#utility.yul\":9218:9271   */\n      tag_238\n        /* \"#utility.yul\":9263:9270   */\n      dup7\n        /* \"#utility.yul\":9254:9260   */\n      dup3\n        /* \"#utility.yul\":9243:9252   */\n      dup8\n        /* \"#utility.yul\":9239:9261   */\n      add\n        /* \"#utility.yul\":9218:9271   */\n      tag_121\n      jump\t// in\n    tag_238:\n        /* \"#utility.yul\":9208:9271   */\n      swap2\n      pop\n        /* \"#utility.yul\":9163:9281   */\n      pop\n        /* \"#utility.yul\":8309:9288   */\n      swap3\n      pop\n      swap3\n      pop\n      swap3\n      jump\t// out\n        /* \"#utility.yul\":9294:10273   */\n    tag_42:\n        /* \"#utility.yul\":9391:9397   */\n      0x00\n        /* \"#utility.yul\":9399:9405   */\n      dup1\n        /* \"#utility.yul\":9407:9413   */\n      0x00\n        /* \"#utility.yul\":9456:9458   */\n      0x60\n        /* \"#utility.yul\":9444:9453   */\n      dup5\n        /* \"#utility.yul\":9435:9442   */\n      dup7\n        /* \"#utility.yul\":9431:9454   */\n      sub\n        /* \"#utility.yul\":9427:9459   */\n      slt\n        /* \"#utility.yul\":9424:9543   */\n      iszero\n      tag_240\n      jumpi\n        /* \"#utility.yul\":9462:9541   */\n      tag_241\n      tag_94\n      jump\t// in\n    tag_241:\n        /* \"#utility.yul\":9424:9543   */\n    tag_240:\n        /* \"#utility.yul\":9610:9611   */\n      0x00\n        /* \"#utility.yul\":9599:9608   */\n      dup5\n        /* \"#utility.yul\":9595:9612   */\n      add\n        /* \"#utility.yul\":9582:9613   */\n      calldataload\n        /* \"#utility.yul\":9640:9658   */\n      0xffffffffffffffff\n        /* \"#utility.yul\":9632:9638   */\n      dup2\n        /* \"#utility.yul\":9629:9659   */\n      gt\n        /* \"#utility.yul\":9626:9743   */\n      iszero\n      tag_242\n      jumpi\n        /* \"#utility.yul\":9662:9741   */\n      tag_243\n      tag_95\n      jump\t// in\n    tag_243:\n        /* \"#utility.yul\":9626:9743   */\n    tag_242:\n        /* \"#utility.yul\":9767:9830   */\n      tag_244\n        /* \"#utility.yul\":9822:9829   */\n      dup7\n        /* \"#utility.yul\":9813:9819   */\n      dup3\n        /* \"#utility.yul\":9802:9811   */\n      dup8\n        /* \"#utility.yul\":9798:9820   */\n      add\n        /* \"#utility.yul\":9767:9830   */\n      tag_119\n      jump\t// in\n    tag_244:\n        /* \"#utility.yul\":9757:9830   */\n      swap4\n      pop\n        /* \"#utility.yul\":9553:9840   */\n      pop\n        /* \"#utility.yul\":9907:9909   */\n      0x20\n        /* \"#utility.yul\":9896:9905   */\n      dup5\n        /* \"#utility.yul\":9892:9910   */\n      add\n        /* \"#utility.yul\":9879:9911   */\n      calldataload\n        /* \"#utility.yul\":9938:9956   */\n      0xffffffffffffffff\n        /* \"#utility.yul\":9930:9936   */\n      dup2\n        /* \"#utility.yul\":9927:9957   */\n      gt\n        /* \"#utility.yul\":9924:10041   */\n      iszero\n      tag_245\n      jumpi\n        /* \"#utility.yul\":9960:10039   */\n      tag_246\n      tag_95\n      jump\t// in\n    tag_246:\n        /* \"#utility.yul\":9924:10041   */\n    tag_245:\n        /* \"#utility.yul\":10065:10128   */\n      tag_247\n        /* \"#utility.yul\":10120:10127   */\n      dup7\n        /* \"#utility.yul\":10111:10117   */\n      dup3\n        /* \"#utility.yul\":10100:10109   */\n      dup8\n        /* \"#utility.yul\":10096:10118   */\n      add\n        /* \"#utility.yul\":10065:10128   */\n      tag_119\n      jump\t// in\n    tag_247:\n        /* \"#utility.yul\":10055:10128   */\n      swap3\n      pop\n        /* \"#utility.yul\":9850:10138   */\n      pop\n        /* \"#utility.yul\":10177:10179   */\n      0x40\n        /* \"#utility.yul\":10203:10256   */\n      tag_248\n        /* \"#utility.yul\":10248:10255   */\n      dup7\n        /* \"#utility.yul\":10239:10245   */\n      dup3\n        /* \"#utility.yul\":10228:10237   */\n      dup8\n        /* \"#utility.yul\":10224:10246   */\n      add\n        /* \"#utility.yul\":10203:10256   */\n      tag_99\n      jump\t// in\n    tag_248:\n        /* \"#utility.yul\":10193:10256   */\n      swap2\n      pop\n        /* \"#utility.yul\":10148:10266   */\n      pop\n        /* \"#utility.yul\":9294:10273   */\n      swap3\n      pop\n      swap3\n      pop\n      swap3\n      jump\t// out\n        /* \"#utility.yul\":10279:10427   */\n    tag_122:\n        /* \"#utility.yul\":10381:10392   */\n      0x00\n        /* \"#utility.yul\":10418:10421   */\n      dup2\n        /* \"#utility.yul\":10403:10421   */\n      swap1\n      pop\n        /* \"#utility.yul\":10279:10427   */\n      swap3\n      swap2\n      pop\n      pop\n      jump\t// out\n        /* \"#utility.yul\":10433:10586   */\n    tag_123:\n        /* \"#utility.yul\":10573:10578   */\n      0x6167650000000000000000000000000000000000000000000000000000000000\n        /* \"#utility.yul\":10569:10570   */\n      0x00\n        /* \"#utility.yul\":10561:10567   */\n      dup3\n        /* \"#utility.yul\":10557:10571   */\n      add\n        /* \"#utility.yul\":10550:10579   */\n      mstore\n        /* \"#utility.yul\":10433:10586   */\n      pop\n      jump\t// out\n        /* \"#utility.yul\":10592:10992   */\n    tag_124:\n        /* \"#utility.yul\":10752:10755   */\n      0x00\n        /* \"#utility.yul\":10773:10857   */\n      tag_252\n        /* \"#utility.yul\":10855:10856   */\n      0x03\n        /* \"#utility.yul\":10850:10853   */\n      dup4\n        /* \"#utility.yul\":10773:10857   */\n      tag_122\n      jump\t// in\n    tag_252:\n        /* \"#utility.yul\":10766:10857   */\n      swap2\n      pop\n        /* \"#utility.yul\":10866:10959   */\n      tag_253\n        /* \"#utility.yul\":10955:10958   */\n      dup3\n        /* \"#utility.yul\":10866:10959   */\n      tag_123\n      jump\t// in\n    tag_253:\n        /* \"#utility.yul\":10984:10985   */\n      0x03\n        /* \"#utility.yul\":10979:10982   */\n      dup3\n        /* \"#utility.yul\":10975:10986   */\n      add\n        /* \"#utility.yul\":10968:10986   */\n      swap1\n      pop\n        /* \"#utility.yul\":10592:10992   */\n      swap2\n      swap1\n      pop\n      jump\t// out\n        /* \"#utility.yul\":10998:11379   */\n    tag_50:\n        /* \"#utility.yul\":11183:11186   */\n      0x00\n        /* \"#utility.yul\":11205:11353   */\n      tag_255\n        /* \"#utility.yul\":11349:11352   */\n      dup3\n        /* \"#utility.yul\":11205:11353   */\n      tag_124\n      jump\t// in\n    tag_255:\n        /* \"#utility.yul\":11198:11353   */\n      swap2\n      pop\n        /* \"#utility.yul\":11370:11373   */\n      dup2\n        /* \"#utility.yul\":11363:11373   */\n      swap1\n      pop\n        /* \"#utility.yul\":10998:11379   */\n      swap2\n      swap1\n      pop\n      jump\t// out\n        /* \"#utility.yul\":11385:11565   */\n    tag_125:\n        /* \"#utility.yul\":11433:11510   */\n      0x4e487b7100000000000000000000000000000000000000000000000000000000\n        /* \"#utility.yul\":11430:11431   */\n      0x00\n        /* \"#utility.yul\":11423:11511   */\n      mstore\n        /* \"#utility.yul\":11530:11534   */\n      0x22\n        /* \"#utility.yul\":11527:11528   */\n      0x04\n        /* \"#utility.yul\":11520:11535   */\n      mstore\n        /* \"#utility.yul\":11554:11558   */\n      0x24\n        /* \"#utility.yul\":11551:11552   */\n      0x00\n        /* \"#utility.yul\":11544:11559   */\n      revert\n        /* \"#utility.yul\":11571:11891   */\n    tag_55:\n        /* \"#utility.yul\":11615:11621   */\n      0x00\n        /* \"#utility.yul\":11652:11653   */\n      0x02\n        /* \"#utility.yul\":11646:11650   */\n      dup3\n        /* \"#utility.yul\":11642:11654   */\n      div\n        /* \"#utility.yul\":11632:11654   */\n      swap1\n      pop\n        /* \"#utility.yul\":11699:11700   */\n      0x01\n        /* \"#utility.yul\":11693:11697   */\n      dup3\n        /* \"#utility.yul\":11689:11701   */\n      and\n        /* \"#utility.yul\":11720:11738   */\n      dup1\n        /* \"#utility.yul\":11710:11791   */\n      tag_258\n      jumpi\n        /* \"#utility.yul\":11776:11780   */\n      0x7f\n        /* \"#utility.yul\":11768:11774   */\n      dup3\n        /* \"#utility.yul\":11764:11781   */\n      and\n        /* \"#utility.yul\":11754:11781   */\n      swap2\n      pop\n        /* \"#utility.yul\":11710:11791   */\n    tag_258:\n        /* \"#utility.yul\":11838:11840   */\n      0x20\n        /* \"#utility.yul\":11830:11836   */\n      dup3\n        /* \"#utility.yul\":11827:11841   */\n      lt\n        /* \"#utility.yul\":11807:11825   */\n      dup2\n        /* \"#utility.yul\":11804:11842   */\n      sub\n        /* \"#utility.yul\":11801:11885   */\n      tag_259\n      jumpi\n        /* \"#utility.yul\":11857:11875   */\n      tag_260\n      tag_125\n      jump\t// in\n    tag_260:\n        /* \"#utility.yul\":11801:11885   */\n    tag_259:\n        /* \"#utility.yul\":11622:11891   */\n      pop\n        /* \"#utility.yul\":11571:11891   */\n      swap2\n      swap1\n      pop\n      jump\t// out\n        /* \"#utility.yul\":11897:12038   */\n    tag_126:\n        /* \"#utility.yul\":11946:11950   */\n      0x00\n        /* \"#utility.yul\":11969:11972   */\n      dup2\n        /* \"#utility.yul\":11961:11972   */\n      swap1\n      pop\n        /* \"#utility.yul\":11992:11995   */\n      dup2\n        /* \"#utility.yul\":11989:11990   */\n      0x00\n        /* \"#utility.yul\":11982:11996   */\n      mstore\n        /* \"#utility.yul\":12026:12030   */\n      0x20\n        /* \"#utility.yul\":12023:12024   */\n      0x00\n        /* \"#utility.yul\":12013:12031   */\n      keccak256\n        /* \"#utility.yul\":12005:12031   */\n      swap1\n      pop\n        /* \"#utility.yul\":11897:12038   */\n      swap2\n      swap1\n      pop\n      jump\t// out\n        /* \"#utility.yul\":12044:12137   */\n    tag_127:\n        /* \"#utility.yul\":12081:12087   */\n      0x00\n        /* \"#utility.yul\":12128:12130   */\n      0x20\n        /* \"#utility.yul\":12123:12125   */\n      0x1f\n        /* \"#utility.yul\":12116:12121   */\n      dup4\n        /* \"#utility.yul\":12112:12126   */\n      add\n        /* \"#utility.yul\":12108:12131   */\n      div\n        /* \"#utility.yul\":12098:12131   */\n      swap1\n      pop\n        /* \"#utility.yul\":12044:12137   */\n      swap2\n      swap1\n      pop\n      jump\t// out\n        /* \"#utility.yul\":12143:12250   */\n    tag_128:\n        /* \"#utility.yul\":12187:12195   */\n      0x00\n        /* \"#utility.yul\":12237:12242   */\n      dup3\n        /* \"#utility.yul\":12231:12235   */\n      dup3\n        /* \"#utility.yul\":12227:12243   */\n      shl\n        /* \"#utility.yul\":12206:12243   */\n      swap1\n      pop\n        /* \"#utility.yul\":12143:12250   */\n      swap3\n      swap2\n      pop\n      pop\n      jump\t// out\n        /* \"#utility.yul\":12256:12649   */\n    tag_129:\n        /* \"#utility.yul\":12325:12331   */\n      0x00\n        /* \"#utility.yul\":12375:12376   */\n      0x08\n        /* \"#utility.yul\":12363:12373   */\n      dup4\n        /* \"#utility.yul\":12359:12377   */\n      mul\n        /* \"#utility.yul\":12398:12495   */\n      tag_265\n        /* \"#utility.yul\":12428:12494   */\n      0xffffffffffffffffffffffffffffffffffffffffffffffffffffffffffffffff\n        /* \"#utility.yul\":12417:12426   */\n      dup3\n        /* \"#utility.yul\":12398:12495   */\n      tag_128\n      jump\t// in\n    tag_265:\n        /* \"#utility.yul\":12516:12555   */\n      tag_266\n        /* \"#utility.yul\":12546:12554   */\n      dup7\n        /* \"#utility.yul\":12535:12544   */\n      dup4\n        /* \"#utility.yul\":12516:12555   */\n      tag_128\n      jump\t// in\n    tag_266:\n        /* \"#utility.yul\":12504:12555   */\n      swap6\n      pop\n        /* \"#utility.yul\":12588:12592   */\n      dup1\n        /* \"#utility.yul\":12584:12593   */\n      not\n        /* \"#utility.yul\":12577:12582   */\n      dup5\n        /* \"#utility.yul\":12573:12594   */\n      and\n        /* \"#utility.yul\":12564:12594   */\n      swap4\n      pop\n        /* \"#utility.yul\":12637:12641   */\n      dup1\n        /* \"#utility.yul\":12627:12635   */\n      dup7\n        /* \"#utility.yul\":12623:12642   */\n      and\n        /* \"#utility.yul\":12616:12621   */\n      dup5\n        /* \"#utility.yul\":12613:12643   */\n      or\n        /* \"#utility.yul\":12603:12643   */\n      swap3\n      pop\n        /* \"#utility.yul\":12332:12649   */\n      pop\n      pop\n        /* \"#utility.yul\":12256:12649   */\n      swap4\n      swap3\n      pop\n      pop\n      pop\n      jump\t// out\n        /* \"#utility.yul\":12655:12715   */\n    tag_130:\n        /* \"#utility.yul\":12683:12686   */\n      0x00\n        /* \"#utility.yul\":12704:12709   */\n      dup2\n        /* \"#utility.yul\":12697:12709   */\n      swap1\n      pop\n        /* \"#utility.yul\":12655:12715   */\n      swap2\n      swap1\n      pop\n      jump\t// out\n        /* \"#utility.yul\":12721:12863   */\n    tag_131:\n        /* \"#utility.yul\":12771:12780   */\n      0x00\n        /* \"#utility.yul\":12804:12857   */\n      tag_269\n        /* \"#utility.yul\":12822:12856   */\n      tag_270\n        /* \"#utility.yul\":12831:12855   */\n      tag_271\n        /* \"#utility.yul\":12849:12854   */\n      dup5\n        /* \"#utility.yul\":12831:12855   */\n      tag_91\n      jump\t// in\n    tag_271:\n        /* \"#utility.yul\":12822:12856   */\n      tag_130\n      jump\t// in\n    tag_270:\n        /* \"#utility.yul\":12804:12857   */\n      tag_91\n      jump\t// in\n    tag_269:\n        /* \"#utility.yul\":12791:12857   */\n      swap1\n      pop\n        /* \"#utility.yul\":12721:12863   */\n      swap2\n      swap1\n      pop\n      jump\t// out\n        /* \"#utility.yul\":12869:12944   */\n    tag_132:\n        /* \"#utility.yul\":12912:12915   */\n      0x00\n        /* \"#utility.yul\":12933:12938   */\n      dup2\n        /* \"#utility.yul\":12926:12938   */\n      swap1\n      pop\n        /* \"#utility.yul\":12869:12944   */\n      swap2\n      swap1\n      pop\n      jump\t// out\n        /* \"#utility.yul\":12950:13219   */\n    tag_133:\n        /* \"#utility.yul\":13060:13099   */\n      tag_274\n        /* \"#utility.yul\":13091:13098   */\n      dup4\n        /* \"#utility.yul\":13060:13099   */\n      tag_131\n      jump\t// in\n    tag_274:\n        /* \"#utility.yul\":13121:13212   */\n      tag_275\n        /* \"#utility.yul\":13170:13211   */\n      tag_276\n        /* \"#utility.yul\":13194:13210   */\n      dup3\n        /* \"#utility.yul\":13170:13211   */\n      tag_132\n      jump\t// in\n    tag_276:\n        /* \"#utility.yul\":13162:13168   */\n      dup5\n        /* \"#utility.yul\":13155:13159   */\n      dup5\n        /* \"#utility.yul\":13149:13160   */\n      sload\n        /* \"#utility.yul\":13121:13212   */\n      tag_129\n      jump\t// in\n    tag_275:\n        /* \"#utility.yul\":13115:13119   */\n      dup3\n        /* \"#utility.yul\":13108:13213   */\n      sstore\n        /* \"#utility.yul\":13026:13219   */\n      pop\n        /* \"#utility.yul\":12950:13219   */\n      pop\n      pop\n      pop\n      jump\t// out\n        /* \"#utility.yul\":13225:13298   */\n    tag_134:\n        /* \"#utility.yul\":13270:13273   */\n      0x00\n        /* \"#utility.yul\":13225:13298   */\n      swap1\n      jump\t// out\n        /* \"#utility.yul\":13304:13493   */\n    tag_135:\n        /* \"#utility.yul\":13381:13413   */\n      tag_279\n      tag_134\n      jump\t// in\n    tag_279:\n        /* \"#utility.yul\":13422:13487   */\n      tag_280\n        /* \"#utility.yul\":13480:13486   */\n      dup2\n        /* \"#utility.yul\":13472:13478   */\n      dup5\n        /* \"#utility.yul\":13466:13470   */\n      dup5\n        /* \"#utility.yul\":13422:13487   */\n      tag_133\n      jump\t// in\n    tag_280:\n        /* \"#utility.yul\":13357:13493   */\n      pop\n        /* \"#utility.yul\":13304:13493   */\n      pop\n      pop\n      jump\t// out\n        /* \"#utility.yul\":13499:13685   */\n    tag_136:\n        /* \"#utility.yul\":13559:13679   */\n    tag_282:\n        /* \"#utility.yul\":13576:13579   */\n      dup2\n        /* \"#utility.yul\":13569:13574   */\n      dup2\n        /* \"#utility.yul\":13566:13580   */\n      lt\n        /* \"#utility.yul\":13559:13679   */\n      iszero\n      tag_284\n      jumpi\n        /* \"#utility.yul\":13630:13669   */\n      tag_285\n        /* \"#utility.yul\":13667:13668   */\n      0x00\n        /* \"#utility.yul\":13660:13665   */\n      dup3\n        /* \"#utility.yul\":13630:13669   */\n      tag_135\n      jump\t// in\n    tag_285:\n        /* \"#utility.yul\":13603:13604   */\n      0x01\n        /* \"#utility.yul\":13596:13601   */\n      dup2\n        /* \"#utility.yul\":13592:13605   */\n      add\n        /* \"#utility.yul\":13583:13605   */\n      swap1\n      pop\n        /* \"#utility.yul\":13559:13679   */\n      jump(tag_282)\n    tag_284:\n        /* \"#utility.yul\":13499:13685   */\n      pop\n      pop\n      jump\t// out\n        /* \"#utility.yul\":13691:14234   */\n    tag_137:\n        /* \"#utility.yul\":13792:13794   */\n      0x1f\n        /* \"#utility.yul\":13787:13790   */\n      dup3\n        /* \"#utility.yul\":13784:13795   */\n      gt\n        /* \"#utility.yul\":13781:14227   */\n      iszero\n      tag_287\n      jumpi\n        /* \"#utility.yul\":13826:13864   */\n      tag_288\n        /* \"#utility.yul\":13858:13863   */\n      dup2\n        /* \"#utility.yul\":13826:13864   */\n      tag_126\n      jump\t// in\n    tag_288:\n        /* \"#utility.yul\":13910:13939   */\n      tag_289\n        /* \"#utility.yul\":13928:13938   */\n      dup5\n        /* \"#utility.yul\":13910:13939   */\n      tag_127\n      jump\t// in\n    tag_289:\n        /* \"#utility.yul\":13900:13908   */\n      dup2\n        /* \"#utility.yul\":13896:13940   */\n      add\n        /* \"#utility.yul\":14093:14095   */\n      0x20\n        /* \"#utility.yul\":14081:14091   */\n      dup6\n        /* \"#utility.yul\":14078:14096   */\n      lt\n        /* \"#utility.yul\":14075:14124   */\n      iszero\n      tag_290\n      jumpi\n        /* \"#utility.yul\":14114:14122   */\n      dup2\n        /* \"#utility.yul\":14099:14122   */\n      swap1\n      pop\n        /* \"#utility.yul\":14075:14124   */\n    tag_290:\n        /* \"#utility.yul\":14137:14217   */\n      tag_291\n        /* \"#utility.yul\":14193:14215   */\n      tag_292\n        /* \"#utility.yul\":14211:14214   */\n      dup6\n        /* \"#utility.yul\":14193:14215   */\n      tag_127\n      jump\t// in\n    tag_292:\n        /* \"#utility.yul\":14183:14191   */\n      dup4\n        /* \"#utility.yul\":14179:14216   */\n      add\n        /* \"#utility.yul\":14166:14177   */\n      dup3\n        /* \"#utility.yul\":14137:14217   */\n      tag_136\n      jump\t// in\n    tag_291:\n        /* \"#utility.yul\":13796:14227   */\n      pop\n      pop\n        /* \"#utility.yul\":13781:14227   */\n    tag_287:\n        /* \"#utility.yul\":13691:14234   */\n      pop\n      pop\n      pop\n      jump\t// out\n        /* \"#utility.yul\":14240:14357   */\n    tag_138:\n        /* \"#utility.yul\":14294:14302   */\n      0x00\n        /* \"#utility.yul\":14344:14349   */\n      dup3\n        /* \"#utility.yul\":14338:14342   */\n      dup3\n        /* \"#utility.yul\":14334:14350   */\n      shr\n        /* \"#utility.yul\":14313:14350   */\n      swap1\n      pop\n        /* \"#utility.yul\":14240:14357   */\n      swap3\n      swap2\n      pop\n      pop\n      jump\t// out\n        /* \"#utility.yul\":14363:14532   */\n    tag_139:\n        /* \"#utility.yul\":14407:14413   */\n      0x00\n        /* \"#utility.yul\":14440:14491   */\n      tag_295\n        /* \"#utility.yul\":14488:14489   */\n      0x00\n        /* \"#utility.yul\":14484:14490   */\n      not\n        /* \"#utility.yul\":14476:14481   */\n      dup5\n        /* \"#utility.yul\":14473:14474   */\n      0x08\n        /* \"#utility.yul\":14469:14482   */\n      mul\n        /* \"#utility.yul\":14440:14491   */\n      tag_138\n      jump\t// in\n    tag_295:\n        /* \"#utility.yul\":14436:14492   */\n      not\n        /* \"#utility.yul\":14521:14525   */\n      dup1\n        /* \"#utility.yul\":14515:14519   */\n      dup4\n        /* \"#utility.yul\":14511:14526   */\n      and\n        /* \"#utility.yul\":14501:14526   */\n      swap2\n      pop\n        /* \"#utility.yul\":14414:14532   */\n      pop\n        /* \"#utility.yul\":14363:14532   */\n      swap3\n      swap2\n      pop\n      pop\n      jump\t// out\n        /* \"#utility.yul\":14537:14832   */\n    tag_140:\n        /* \"#utility.yul\":14613:14617   */\n      0x00\n        /* \"#utility.yul\":14759:14788   */\n      tag_297\n        /* \"#utility.yul\":14784:14787   */\n      dup4\n        /* \"#utility.yul\":14778:14782   */\n      dup4\n        /* \"#utility.yul\":14759:14788   */\n      tag_139\n      jump\t// in\n    tag_297:\n        /* \"#utility.yul\":14751:14788   */\n      swap2\n      pop\n        /* \"#utility.yul\":14821:14824   */\n      dup3\n        /* \"#utility.yul\":14818:14819   */\n      0x02\n        /* \"#utility.yul\":14814:14825   */\n      mul\n        /* \"#utility.yul\":14808:14812   */\n      dup3\n        /* \"#utility.yul\":14805:14826   */\n      or\n        /* \"#utility.yul\":14797:14826   */\n      swap1\n      pop\n        /* \"#utility.yul\":14537:14832   */\n      swap3\n      swap2\n      pop\n      pop\n      jump\t// out\n        /* \"#utility.yul\":14837:16232   */\n    tag_84:\n        /* \"#utility.yul\":14954:14991   */\n      tag_299\n        /* \"#utility.yul\":14987:14990   */\n      dup3\n        /* \"#utility.yul\":14954:14991   */\n      tag_100\n      jump\t// in\n    tag_299:\n        /* \"#utility.yul\":15056:15074   */\n      0xffffffffffffffff\n        /* \"#utility.yul\":15048:15054   */\n      dup2\n        /* \"#utility.yul\":15045:15075   */\n      gt\n        /* \"#utility.yul\":15042:15098   */\n      iszero\n      tag_300\n      jumpi\n        /* \"#utility.yul\":15078:15096   */\n      tag_301\n      tag_113\n      jump\t// in\n    tag_301:\n        /* \"#utility.yul\":15042:15098   */\n    tag_300:\n        /* \"#utility.yul\":15122:15160   */\n      tag_302\n        /* \"#utility.yul\":15154:15158   */\n      dup3\n        /* \"#utility.yul\":15148:15159   */\n      sload\n        /* \"#utility.yul\":15122:15160   */\n      tag_55\n      jump\t// in\n    tag_302:\n        /* \"#utility.yul\":15207:15274   */\n      tag_303\n        /* \"#utility.yul\":15267:15273   */\n      dup3\n        /* \"#utility.yul\":15259:15265   */\n      dup3\n        /* \"#utility.yul\":15253:15257   */\n      dup6\n        /* \"#utility.yul\":15207:15274   */\n      tag_137\n      jump\t// in\n    tag_303:\n        /* \"#utility.yul\":15301:15302   */\n      0x00\n        /* \"#utility.yul\":15325:15329   */\n      0x20\n        /* \"#utility.yul\":15312:15329   */\n      swap1\n      pop\n        /* \"#utility.yul\":15357:15359   */\n      0x1f\n        /* \"#utility.yul\":15349:15355   */\n      dup4\n        /* \"#utility.yul\":15346:15360   */\n      gt\n        /* \"#utility.yul\":15374:15375   */\n      0x01\n        /* \"#utility.yul\":15369:15987   */\n      dup2\n      eq\n      tag_305\n      jumpi\n        /* \"#utility.yul\":16031:16032   */\n      0x00\n        /* \"#utility.yul\":16048:16054   */\n      dup5\n        /* \"#utility.yul\":16045:16122   */\n      iszero\n      tag_306\n      jumpi\n        /* \"#utility.yul\":16097:16106   */\n      dup3\n        /* \"#utility.yul\":16092:16095   */\n      dup8\n        /* \"#utility.yul\":16088:16107   */\n      add\n        /* \"#utility.yul\":16082:16108   */\n      mload\n        /* \"#utility.yul\":16073:16108   */\n      swap1\n      pop\n        /* \"#utility.yul\":16045:16122   */\n    tag_306:\n        /* \"#utility.yul\":16148:16215   */\n      tag_307\n        /* \"#utility.yul\":16208:16214   */\n      dup6\n        /* \"#utility.yul\":16201:16206   */\n      dup3\n        /* \"#utility.yul\":16148:16215   */\n      tag_140\n      jump\t// in\n    tag_307:\n        /* \"#utility.yul\":16142:16146   */\n      dup7\n        /* \"#utility.yul\":16135:16216   */\n      sstore\n        /* \"#utility.yul\":16004:16226   */\n      pop\n        /* \"#utility.yul\":15339:16226   */\n      jump(tag_304)\n        /* \"#utility.yul\":15369:15987   */\n    tag_305:\n        /* \"#utility.yul\":15421:15425   */\n      0x1f\n        /* \"#utility.yul\":15417:15426   */\n      not\n        /* \"#utility.yul\":15409:15415   */\n      dup5\n        /* \"#utility.yul\":15405:15427   */\n      and\n        /* \"#utility.yul\":15455:15492   */\n      tag_308\n        /* \"#utility.yul\":15487:15491   */\n      dup7\n        /* \"#utility.yul\":15455:15492   */\n      tag_126\n      jump\t// in\n    tag_308:\n        /* \"#utility.yul\":15514:15515   */\n      0x00\n        /* \"#utility.yul\":15528:15736   */\n    tag_309:\n        /* \"#utility.yul\":15542:15549   */\n      dup3\n        /* \"#utility.yul\":15539:15540   */\n      dup2\n        /* \"#utility.yul\":15536:15550   */\n      lt\n        /* \"#utility.yul\":15528:15736   */\n      iszero\n      tag_311\n      jumpi\n        /* \"#utility.yul\":15621:15630   */\n      dup5\n        /* \"#utility.yul\":15616:15619   */\n      dup10\n        /* \"#utility.yul\":15612:15631   */\n      add\n        /* \"#utility.yul\":15606:15632   */\n      mload\n        /* \"#utility.yul\":15598:15604   */\n      dup3\n        /* \"#utility.yul\":15591:15633   */\n      sstore\n        /* \"#utility.yul\":15672:15673   */\n      0x01\n        /* \"#utility.yul\":15664:15670   */\n      dup3\n        /* \"#utility.yul\":15660:15674   */\n      add\n        /* \"#utility.yul\":15650:15674   */\n      swap2\n      pop\n        /* \"#utility.yul\":15719:15721   */\n      0x20\n        /* \"#utility.yul\":15708:15717   */\n      dup6\n        /* \"#utility.yul\":15704:15722   */\n      add\n        /* \"#utility.yul\":15691:15722   */\n      swap5\n      pop\n        /* \"#utility.yul\":15565:15569   */\n      0x20\n        /* \"#utility.yul\":15562:15563   */\n      dup2\n        /* \"#utility.yul\":15558:15570   */\n      add\n        /* \"#utility.yul\":15553:15570   */\n      swap1\n      pop\n        /* \"#utility.yul\":15528:15736   */\n      jump(tag_309)\n    tag_311:\n        /* \"#utility.yul\":15764:15770   */\n      dup7\n        /* \"#utility.yul\":15755:15762   */\n      dup4\n        /* \"#utility.yul\":15752:15771   */\n      lt\n        /* \"#utility.yul\":15749:15928   */\n      iszero\n      tag_312\n      jumpi\n        /* \"#utility.yul\":15822:15831   */\n      dup5\n        /* \"#utility.yul\":15817:15820   */\n      dup10\n        /* \"#utility.yul\":15813:15832   */\n      add\n        /* \"#utility.yul\":15807:15833   */\n      mload\n        /* \"#utility.yul\":15865:15913   */\n      tag_313\n        /* \"#utility.yul\":15907:15911   */\n      0x1f\n        /* \"#utility.yul\":15899:15905   */\n      dup10\n        /* \"#utility.yul\":15895:15912   */\n      and\n        /* \"#utility.yul\":15884:15893   */\n      dup3\n        /* \"#utility.yul\":15865:15913   */\n      tag_139\n      jump\t// in\n    tag_313:\n        /* \"#utility.yul\":15857:15863   */\n      dup4\n        /* \"#utility.yul\":15850:15914   */\n      sstore\n        /* \"#utility.yul\":15772:15928   */\n      pop\n        /* \"#utility.yul\":15749:15928   */\n    tag_312:\n        /* \"#utility.yul\":15974:15975   */\n      0x01\n        /* \"#utility.yul\":15970:15971   */\n      0x02\n        /* \"#utility.yul\":15962:15968   */\n      dup9\n        /* \"#utility.yul\":15958:15972   */\n      mul\n        /* \"#utility.yul\":15954:15976   */\n      add\n        /* \"#utility.yul\":15948:15952   */\n      dup9\n        /* \"#utility.yul\":15941:15977   */\n      sstore\n        /* \"#utility.yul\":15376:15987   */\n      pop\n      pop\n      pop\n        /* \"#utility.yul\":15339:16226   */\n    tag_304:\n      pop\n        /* \"#utility.yul\":14929:16232   */\n      pop\n      pop\n      pop\n        /* \"#utility.yul\":14837:16232   */\n      pop\n      pop\n      jump\t// out\n\n    auxdata: 0xa264697066735822122079a17c7b53b0827bca5f293cd2c2f585a901660b162eea6d3214f34712ecef3264736f6c63430008100033\n}\n",
				"bytecode": {
					"linkReferences": {},
					"object": "608060405260405180608001604052806040518060400160405280601781526020017f4275696c64696e6720457468657265756d20444170707300000000000000000081525081526020016040518060400160405280601081526020017f526f626572746f20496e66616e746520000000000000000000000000000000008152508152602001600281526020016000151581525060046000820151816000019081620000ac9190620003d4565b506020820151816001019081620000c49190620003d4565b506040820151816002015560608201518160030160006101000a81548160ff021916908315150217905550505073ab8483f64d9c6d1ecf9b849ae677dd3315835cb2600a60006101000a81548173ffffffffffffffffffffffffffffffffffffffff021916908373ffffffffffffffffffffffffffffffffffffffff1602179055503480156200015357600080fd5b50620004bb565b600081519050919050565b7f4e487b7100000000000000000000000000000000000000000000000000000000600052604160045260246000fd5b7f4e487b7100000000000000000000000000000000000000000000000000000000600052602260045260246000fd5b60006002820490506001821680620001dc57607f821691505b602082108103620001f257620001f162000194565b5b50919050565b60008190508160005260206000209050919050565b60006020601f8301049050919050565b600082821b905092915050565b6000600883026200025c7fffffffffffffffffffffffffffffffffffffffffffffffffffffffffffffffff826200021d565b6200026886836200021d565b95508019841693508086168417925050509392505050565b6000819050919050565b6000819050919050565b6000620002b5620002af620002a98462000280565b6200028a565b62000280565b9050919050565b6000819050919050565b620002d18362000294565b620002e9620002e082620002bc565b8484546200022a565b825550505050565b600090565b62000300620002f1565b6200030d818484620002c6565b505050565b5b81811015620003355762000329600082620002f6565b60018101905062000313565b5050565b601f82111562000384576200034e81620001f8565b62000359846200020d565b8101602085101562000369578190505b6200038162000378856200020d565b83018262000312565b50505b505050565b600082821c905092915050565b6000620003a96000198460080262000389565b1980831691505092915050565b6000620003c4838362000396565b9150826002028217905092915050565b620003df826200015a565b67ffffffffffffffff811115620003fb57620003fa62000165565b5b620004078254620001c3565b6200041482828562000339565b600060209050601f8311600181146200044c576000841562000437578287015190505b620004438582620003b6565b865550620004b3565b601f1984166200045c86620001f8565b60005b8281101562000486578489015182556001820191506020850194506020810190506200045f565b86831015620004a65784890151620004a2601f89168262000396565b8355505b6001600288020188555050505b505050505050565b6110e980620004cb6000396000f3fe608060405234801561001057600080fd5b50600436106100935760003560e01c80638574ed0d116100665780638574ed0d1461010e578063b87f86b71461012f578063c78f70741461014e578063dabbdc151461016a578063f31604c71461018657610093565b806312065fe0146100985780631a61746e146100b65780633bc5de30146100c05780633f898323146100de575b600080fd5b6100a0610190565b6040516100ad9190610838565b60405180910390f35b6100be6101f9565b005b6100c8610262565b6040516100d59190610838565b60405180910390f35b6100f860048036038101906100f391906108c5565b610286565b60405161010591906109e8565b60405180910390f35b61011661045f565b6040516101269493929190610a6f565b60405180910390f35b6101376105ae565b604051610145929190610ac2565b60405180910390f35b61016860048036038101906101639190610c53565b610650565b005b610184600480360381019061017f9190610cde565b6106d3565b005b61018e6107c4565b005b600060086000600a60009054906101000a900473ffffffffffffffffffffffffffffffffffffffff1673ffffffffffffffffffffffffffffffffffffffff1673ffffffffffffffffffffffffffffffffffffffff16815260200190815260200160002054905090565b600260086000600a60009054906101000a900473ffffffffffffffffffffffffffffffffffffffff1673ffffffffffffffffffffffffffffffffffffffff1673ffffffffffffffffffffffffffffffffffffffff16815260200190815260200160002081905550565b6000600960405161027290610dc0565b908152602001604051809103902054905090565b61028e6107e8565b6000600b60008473ffffffffffffffffffffffffffffffffffffffff1673ffffffffffffffffffffffffffffffffffffffff1681526020019081526020016000206040518060600160405290816000820180546102ea90610e04565b80601f016020809104026020016040519081016040528092919081815260200182805461031690610e04565b80156103635780601f1061033857610100808354040283529160200191610363565b820191906000526020600020905b81548152906001019060200180831161034657829003601f168201915b5050505050815260200160018201805461037c90610e04565b80601f01602080910402602001604051908101604052809291908181526020018280546103a890610e04565b80156103f55780601f106103ca576101008083540402835291602001916103f5565b820191906000526020600020905b8154815290600101906020018083116103d857829003601f168201915b505050505081526020016002820160009054906101000a900473ffffffffffffffffffffffffffffffffffffffff1673ffffffffffffffffffffffffffffffffffffffff1673ffffffffffffffffffffffffffffffffffffffff1681525050905080915050919050565b60608060008060046000016004600101600460020154600460030160009054906101000a900460ff1683805461049490610e04565b80601f01602080910402602001604051908101604052809291908181526020018280546104c090610e04565b801561050d5780601f106104e25761010080835404028352916020019161050d565b820191906000526020600020905b8154815290600101906020018083116104f057829003601f168201915b5050505050935082805461052090610e04565b80601f016020809104026020016040519081016040528092919081815260200182805461054c90610e04565b80156105995780601f1061056e57610100808354040283529160200191610599565b820191906000526020600020905b81548152906001019060200180831161057c57829003601f168201915b50505050509250935093509350935090919293565b60606000806000016000600201548180546105c890610e04565b80601f01602080910402602001604051908101604052809291908181526020018280546105f490610e04565b80156106415780601f1061061657610100808354040283529160200191610641565b820191906000526020600020905b81548152906001019060200180831161062457829003601f168201915b50505050509150915091509091565b60405180608001604052808481526020018381526020018281526020016001151581525060008082015181600001908161068a9190610fe1565b5060208201518160010190816106a09190610fe1565b506040820151816002015560608201518160030160006101000a81548160ff021916908315150217905550905050505050565b600060405180606001604052808581526020018481526020018373ffffffffffffffffffffffffffffffffffffffff16815250905080600b60008473ffffffffffffffffffffffffffffffffffffffff1673ffffffffffffffffffffffffffffffffffffffff168152602001908152602001600020600082015181600001908161075d9190610fe1565b5060208201518160010190816107739190610fe1565b5060408201518160020160006101000a81548173ffffffffffffffffffffffffffffffffffffffff021916908373ffffffffffffffffffffffffffffffffffffffff16021790555090505050505050565b601860096040516107d490610dc0565b908152602001604051809103902081905550565b60405180606001604052806060815260200160608152602001600073ffffffffffffffffffffffffffffffffffffffff1681525090565b6000819050919050565b6108328161081f565b82525050565b600060208201905061084d6000830184610829565b92915050565b6000604051905090565b600080fd5b600080fd5b600073ffffffffffffffffffffffffffffffffffffffff82169050919050565b600061089282610867565b9050919050565b6108a281610887565b81146108ad57600080fd5b50565b6000813590506108bf81610899565b92915050565b6000602082840312156108db576108da61085d565b5b60006108e9848285016108b0565b91505092915050565b600081519050919050565b600082825260208201905092915050565b60005b8381101561092c578082015181840152602081019050610911565b60008484015250505050565b6000601f19601f8301169050919050565b6000610954826108f2565b61095e81856108fd565b935061096e81856020860161090e565b61097781610938565b840191505092915050565b61098b81610887565b82525050565b600060608301600083015184820360008601526109ae8282610949565b915050602083015184820360208601526109c88282610949565b91505060408301516109dd6040860182610982565b508091505092915050565b60006020820190508181036000830152610a028184610991565b905092915050565b600082825260208201905092915050565b6000610a26826108f2565b610a308185610a0a565b9350610a4081856020860161090e565b610a4981610938565b840191505092915050565b60008115159050919050565b610a6981610a54565b82525050565b60006080820190508181036000830152610a898187610a1b565b90508181036020830152610a9d8186610a1b565b9050610aac6040830185610829565b610ab96060830184610a60565b95945050505050565b60006040820190508181036000830152610adc8185610a1b565b9050610aeb6020830184610829565b9392505050565b600080fd5b600080fd5b7f4e487b7100000000000000000000000000000000000000000000000000000000600052604160045260246000fd5b610b3482610938565b810181811067ffffffffffffffff82111715610b5357610b52610afc565b5b80604052505050565b6000610b66610853565b9050610b728282610b2b565b919050565b600067ffffffffffffffff821115610b9257610b91610afc565b5b610b9b82610938565b9050602081019050919050565b82818337600083830152505050565b6000610bca610bc584610b77565b610b5c565b905082815260208101848484011115610be657610be5610af7565b5b610bf1848285610ba8565b509392505050565b600082601f830112610c0e57610c0d610af2565b5b8135610c1e848260208601610bb7565b91505092915050565b610c308161081f565b8114610c3b57600080fd5b50565b600081359050610c4d81610c27565b92915050565b600080600060608486031215610c6c57610c6b61085d565b5b600084013567ffffffffffffffff811115610c8a57610c89610862565b5b610c9686828701610bf9565b935050602084013567ffffffffffffffff811115610cb757610cb6610862565b5b610cc386828701610bf9565b9250506040610cd486828701610c3e565b9150509250925092565b600080600060608486031215610cf757610cf661085d565b5b600084013567ffffffffffffffff811115610d1557610d14610862565b5b610d2186828701610bf9565b935050602084013567ffffffffffffffff811115610d4257610d41610862565b5b610d4e86828701610bf9565b9250506040610d5f868287016108b0565b9150509250925092565b600081905092915050565b7f6167650000000000000000000000000000000000000000000000000000000000600082015250565b6000610daa600383610d69565b9150610db582610d74565b600382019050919050565b6000610dcb82610d9d565b9150819050919050565b7f4e487b7100000000000000000000000000000000000000000000000000000000600052602260045260246000fd5b60006002820490506001821680610e1c57607f821691505b602082108103610e2f57610e2e610dd5565b5b50919050565b60008190508160005260206000209050919050565b60006020601f8301049050919050565b600082821b905092915050565b600060088302610e977fffffffffffffffffffffffffffffffffffffffffffffffffffffffffffffffff82610e5a565b610ea18683610e5a565b95508019841693508086168417925050509392505050565b6000819050919050565b6000610ede610ed9610ed48461081f565b610eb9565b61081f565b9050919050565b6000819050919050565b610ef883610ec3565b610f0c610f0482610ee5565b848454610e67565b825550505050565b600090565b610f21610f14565b610f2c818484610eef565b505050565b5b81811015610f5057610f45600082610f19565b600181019050610f32565b5050565b601f821115610f9557610f6681610e35565b610f6f84610e4a565b81016020851015610f7e578190505b610f92610f8a85610e4a565b830182610f31565b50505b505050565b600082821c905092915050565b6000610fb860001984600802610f9a565b1980831691505092915050565b6000610fd18383610fa7565b9150826002028217905092915050565b610fea826108f2565b67ffffffffffffffff81111561100357611002610afc565b5b61100d8254610e04565b611018828285610f54565b600060209050601f83116001811461104b5760008415611039578287015190505b6110438582610fc5565b8655506110ab565b601f19841661105986610e35565b60005b828110156110815784890151825560018201915060208501945060208101905061105c565b8683101561109e578489015161109a601f891682610fa7565b8355505b6001600288020188555050505b50505050505056fea264697066735822122079a17c7b53b0827bca5f293cd2c2f585a901660b162eea6d3214f34712ecef3264736f6c63430008100033",
					"opcodes": "PUSH1 0x80 PUSH1 0x40 MSTORE PUSH1 0x40 MLOAD DUP1 PUSH1 0x80 ADD PUSH1 0x40 MSTORE DUP1 PUSH1 0x40 MLOAD DUP1 PUSH1 0x40 ADD PUSH1 0x40 MSTORE DUP1 PUSH1 0x17 DUP2 MSTORE PUSH1 0x20 ADD PUSH32 0x4275696C64696E6720457468657265756D204441707073000000000000000000 DUP2 MSTORE POP DUP2 MSTORE PUSH1 0x20 ADD PUSH1 0x40 MLOAD DUP1 PUSH1 0x40 ADD PUSH1 0x40 MSTORE DUP1 PUSH1 0x10 DUP2 MSTORE PUSH1 0x20 ADD PUSH32 0x526F626572746F20496E66616E74652000000000000000000000000000000000 DUP2 MSTORE POP DUP2 MSTORE PUSH1 0x20 ADD PUSH1 0x2 DUP2 MSTORE PUSH1 0x20 ADD PUSH1 0x0 ISZERO ISZERO DUP2 MSTORE POP PUSH1 0x4 PUSH1 0x0 DUP3 ADD MLOAD DUP2 PUSH1 0x0 ADD SWAP1 DUP2 PUSH3 0xAC SWAP2 SWAP1 PUSH3 0x3D4 JUMP JUMPDEST POP PUSH1 0x20 DUP3 ADD MLOAD DUP2 PUSH1 0x1 ADD SWAP1 DUP2 PUSH3 0xC4 SWAP2 SWAP1 PUSH3 0x3D4 JUMP JUMPDEST POP PUSH1 0x40 DUP3 ADD MLOAD DUP2 PUSH1 0x2 ADD SSTORE PUSH1 0x60 DUP3 ADD MLOAD DUP2 PUSH1 0x3 ADD PUSH1 0x0 PUSH2 0x100 EXP DUP2 SLOAD DUP2 PUSH1 0xFF MUL NOT AND SWAP1 DUP4 ISZERO ISZERO MUL OR SWAP1 SSTORE POP POP POP PUSH20 0xAB8483F64D9C6D1ECF9B849AE677DD3315835CB2 PUSH1 0xA PUSH1 0x0 PUSH2 0x100 EXP DUP2 SLOAD DUP2 PUSH20 0xFFFFFFFFFFFFFFFFFFFFFFFFFFFFFFFFFFFFFFFF MUL NOT AND SWAP1 DUP4 PUSH20 0xFFFFFFFFFFFFFFFFFFFFFFFFFFFFFFFFFFFFFFFF AND MUL OR SWAP1 SSTORE POP CALLVALUE DUP1 ISZERO PUSH3 0x153 JUMPI PUSH1 0x0 DUP1 REVERT JUMPDEST POP PUSH3 0x4BB JUMP JUMPDEST PUSH1 0x0 DUP2 MLOAD SWAP1 POP SWAP2 SWAP1 POP JUMP JUMPDEST PUSH32 0x4E487B7100000000000000000000000000000000000000000000000000000000 PUSH1 0x0 MSTORE PUSH1 0x41 PUSH1 0x4 MSTORE PUSH1 0x24 PUSH1 0x0 REVERT JUMPDEST PUSH32 0x4E487B7100000000000000000000000000000000000000000000000000000000 PUSH1 0x0 MSTORE PUSH1 0x22 PUSH1 0x4 MSTORE PUSH1 0x24 PUSH1 0x0 REVERT JUMPDEST PUSH1 0x0 PUSH1 0x2 DUP3 DIV SWAP1 POP PUSH1 0x1 DUP3 AND DUP1 PUSH3 0x1DC JUMPI PUSH1 0x7F DUP3 AND SWAP2 POP JUMPDEST PUSH1 0x20 DUP3 LT DUP2 SUB PUSH3 0x1F2 JUMPI PUSH3 0x1F1 PUSH3 0x194 JUMP JUMPDEST JUMPDEST POP SWAP2 SWAP1 POP JUMP JUMPDEST PUSH1 0x0 DUP2 SWAP1 POP DUP2 PUSH1 0x0 MSTORE PUSH1 0x20 PUSH1 0x0 KECCAK256 SWAP1 POP SWAP2 SWAP1 POP JUMP JUMPDEST PUSH1 0x0 PUSH1 0x20 PUSH1 0x1F DUP4 ADD DIV SWAP1 POP SWAP2 SWAP1 POP JUMP JUMPDEST PUSH1 0x0 DUP3 DUP3 SHL SWAP1 POP SWAP3 SWAP2 POP POP JUMP JUMPDEST PUSH1 0x0 PUSH1 0x8 DUP4 MUL PUSH3 0x25C PUSH32 0xFFFFFFFFFFFFFFFFFFFFFFFFFFFFFFFFFFFFFFFFFFFFFFFFFFFFFFFFFFFFFFFF DUP3 PUSH3 0x21D JUMP JUMPDEST PUSH3 0x268 DUP7 DUP4 PUSH3 0x21D JUMP JUMPDEST SWAP6 POP DUP1 NOT DUP5 AND SWAP4 POP DUP1 DUP7 AND DUP5 OR SWAP3 POP POP POP SWAP4 SWAP3 POP POP POP JUMP JUMPDEST PUSH1 0x0 DUP2 SWAP1 POP SWAP2 SWAP1 POP JUMP JUMPDEST PUSH1 0x0 DUP2 SWAP1 POP SWAP2 SWAP1 POP JUMP JUMPDEST PUSH1 0x0 PUSH3 0x2B5 PUSH3 0x2AF PUSH3 0x2A9 DUP5 PUSH3 0x280 JUMP JUMPDEST PUSH3 0x28A JUMP JUMPDEST PUSH3 0x280 JUMP JUMPDEST SWAP1 POP SWAP2 SWAP1 POP JUMP JUMPDEST PUSH1 0x0 DUP2 SWAP1 POP SWAP2 SWAP1 POP JUMP JUMPDEST PUSH3 0x2D1 DUP4 PUSH3 0x294 JUMP JUMPDEST PUSH3 0x2E9 PUSH3 0x2E0 DUP3 PUSH3 0x2BC JUMP JUMPDEST DUP5 DUP5 SLOAD PUSH3 0x22A JUMP JUMPDEST DUP3 SSTORE POP POP POP POP JUMP JUMPDEST PUSH1 0x0 SWAP1 JUMP JUMPDEST PUSH3 0x300 PUSH3 0x2F1 JUMP JUMPDEST PUSH3 0x30D DUP2 DUP5 DUP5 PUSH3 0x2C6 JUMP JUMPDEST POP POP POP JUMP JUMPDEST JUMPDEST DUP2 DUP2 LT ISZERO PUSH3 0x335 JUMPI PUSH3 0x329 PUSH1 0x0 DUP3 PUSH3 0x2F6 JUMP JUMPDEST PUSH1 0x1 DUP2 ADD SWAP1 POP PUSH3 0x313 JUMP JUMPDEST POP POP JUMP JUMPDEST PUSH1 0x1F DUP3 GT ISZERO PUSH3 0x384 JUMPI PUSH3 0x34E DUP2 PUSH3 0x1F8 JUMP JUMPDEST PUSH3 0x359 DUP5 PUSH3 0x20D JUMP JUMPDEST DUP2 ADD PUSH1 0x20 DUP6 LT ISZERO PUSH3 0x369 JUMPI DUP2 SWAP1 POP JUMPDEST PUSH3 0x381 PUSH3 0x378 DUP6 PUSH3 0x20D JUMP JUMPDEST DUP4 ADD DUP3 PUSH3 0x312 JUMP JUMPDEST POP POP JUMPDEST POP POP POP JUMP JUMPDEST PUSH1 0x0 DUP3 DUP3 SHR SWAP1 POP SWAP3 SWAP2 POP POP JUMP JUMPDEST PUSH1 0x0 PUSH3 0x3A9 PUSH1 0x0 NOT DUP5 PUSH1 0x8 MUL PUSH3 0x389 JUMP JUMPDEST NOT DUP1 DUP4 AND SWAP2 POP POP SWAP3 SWAP2 POP POP JUMP JUMPDEST PUSH1 0x0 PUSH3 0x3C4 DUP4 DUP4 PUSH3 0x396 JUMP JUMPDEST SWAP2 POP DUP3 PUSH1 0x2 MUL DUP3 OR SWAP1 POP SWAP3 SWAP2 POP POP JUMP JUMPDEST PUSH3 0x3DF DUP3 PUSH3 0x15A JUMP JUMPDEST PUSH8 0xFFFFFFFFFFFFFFFF DUP2 GT ISZERO PUSH3 0x3FB JUMPI PUSH3 0x3FA PUSH3 0x165 JUMP JUMPDEST JUMPDEST PUSH3 0x407 DUP3 SLOAD PUSH3 0x1C3 JUMP JUMPDEST PUSH3 0x414 DUP3 DUP3 DUP6 PUSH3 0x339 JUMP JUMPDEST PUSH1 0x0 PUSH1 0x20 SWAP1 POP PUSH1 0x1F DUP4 GT PUSH1 0x1 DUP2 EQ PUSH3 0x44C JUMPI PUSH1 0x0 DUP5 ISZERO PUSH3 0x437 JUMPI DUP3 DUP8 ADD MLOAD SWAP1 POP JUMPDEST PUSH3 0x443 DUP6 DUP3 PUSH3 0x3B6 JUMP JUMPDEST DUP7 SSTORE POP PUSH3 0x4B3 JUMP JUMPDEST PUSH1 0x1F NOT DUP5 AND PUSH3 0x45C DUP7 PUSH3 0x1F8 JUMP JUMPDEST PUSH1 0x0 JUMPDEST DUP3 DUP2 LT ISZERO PUSH3 0x486 JUMPI DUP5 DUP10 ADD MLOAD DUP3 SSTORE PUSH1 0x1 DUP3 ADD SWAP2 POP PUSH1 0x20 DUP6 ADD SWAP5 POP PUSH1 0x20 DUP2 ADD SWAP1 POP PUSH3 0x45F JUMP JUMPDEST DUP7 DUP4 LT ISZERO PUSH3 0x4A6 JUMPI DUP5 DUP10 ADD MLOAD PUSH3 0x4A2 PUSH1 0x1F DUP10 AND DUP3 PUSH3 0x396 JUMP JUMPDEST DUP4 SSTORE POP JUMPDEST PUSH1 0x1 PUSH1 0x2 DUP9 MUL ADD DUP9 SSTORE POP POP POP JUMPDEST POP POP POP POP POP POP JUMP JUMPDEST PUSH2 0x10E9 DUP1 PUSH3 0x4CB PUSH1 0x0 CODECOPY PUSH1 0x0 RETURN INVALID PUSH1 0x80 PUSH1 0x40 MSTORE CALLVALUE DUP1 ISZERO PUSH2 0x10 JUMPI PUSH1 0x0 DUP1 REVERT JUMPDEST POP PUSH1 0x4 CALLDATASIZE LT PUSH2 0x93 JUMPI PUSH1 0x0 CALLDATALOAD PUSH1 0xE0 SHR DUP1 PUSH4 0x8574ED0D GT PUSH2 0x66 JUMPI DUP1 PUSH4 0x8574ED0D EQ PUSH2 0x10E JUMPI DUP1 PUSH4 0xB87F86B7 EQ PUSH2 0x12F JUMPI DUP1 PUSH4 0xC78F7074 EQ PUSH2 0x14E JUMPI DUP1 PUSH4 0xDABBDC15 EQ PUSH2 0x16A JUMPI DUP1 PUSH4 0xF31604C7 EQ PUSH2 0x186 JUMPI PUSH2 0x93 JUMP JUMPDEST DUP1 PUSH4 0x12065FE0 EQ PUSH2 0x98 JUMPI DUP1 PUSH4 0x1A61746E EQ PUSH2 0xB6 JUMPI DUP1 PUSH4 0x3BC5DE30 EQ PUSH2 0xC0 JUMPI DUP1 PUSH4 0x3F898323 EQ PUSH2 0xDE JUMPI JUMPDEST PUSH1 0x0 DUP1 REVERT JUMPDEST PUSH2 0xA0 PUSH2 0x190 JUMP JUMPDEST PUSH1 0x40 MLOAD PUSH2 0xAD SWAP2 SWAP1 PUSH2 0x838 JUMP JUMPDEST PUSH1 0x40 MLOAD DUP1 SWAP2 SUB SWAP1 RETURN JUMPDEST PUSH2 0xBE PUSH2 0x1F9 JUMP JUMPDEST STOP JUMPDEST PUSH2 0xC8 PUSH2 0x262 JUMP JUMPDEST PUSH1 0x40 MLOAD PUSH2 0xD5 SWAP2 SWAP1 PUSH2 0x838 JUMP JUMPDEST PUSH1 0x40 MLOAD DUP1 SWAP2 SUB SWAP1 RETURN JUMPDEST PUSH2 0xF8 PUSH1 0x4 DUP1 CALLDATASIZE SUB DUP2 ADD SWAP1 PUSH2 0xF3 SWAP2 SWAP1 PUSH2 0x8C5 JUMP JUMPDEST PUSH2 0x286 JUMP JUMPDEST PUSH1 0x40 MLOAD PUSH2 0x105 SWAP2 SWAP1 PUSH2 0x9E8 JUMP JUMPDEST PUSH1 0x40 MLOAD DUP1 SWAP2 SUB SWAP1 RETURN JUMPDEST PUSH2 0x116 PUSH2 0x45F JUMP JUMPDEST PUSH1 0x40 MLOAD PUSH2 0x126 SWAP5 SWAP4 SWAP3 SWAP2 SWAP1 PUSH2 0xA6F JUMP JUMPDEST PUSH1 0x40 MLOAD DUP1 SWAP2 SUB SWAP1 RETURN JUMPDEST PUSH2 0x137 PUSH2 0x5AE JUMP JUMPDEST PUSH1 0x40 MLOAD PUSH2 0x145 SWAP3 SWAP2 SWAP1 PUSH2 0xAC2 JUMP JUMPDEST PUSH1 0x40 MLOAD DUP1 SWAP2 SUB SWAP1 RETURN JUMPDEST PUSH2 0x168 PUSH1 0x4 DUP1 CALLDATASIZE SUB DUP2 ADD SWAP1 PUSH2 0x163 SWAP2 SWAP1 PUSH2 0xC53 JUMP JUMPDEST PUSH2 0x650 JUMP JUMPDEST STOP JUMPDEST PUSH2 0x184 PUSH1 0x4 DUP1 CALLDATASIZE SUB DUP2 ADD SWAP1 PUSH2 0x17F SWAP2 SWAP1 PUSH2 0xCDE JUMP JUMPDEST PUSH2 0x6D3 JUMP JUMPDEST STOP JUMPDEST PUSH2 0x18E PUSH2 0x7C4 JUMP JUMPDEST STOP JUMPDEST PUSH1 0x0 PUSH1 0x8 PUSH1 0x0 PUSH1 0xA PUSH1 0x0 SWAP1 SLOAD SWAP1 PUSH2 0x100 EXP SWAP1 DIV PUSH20 0xFFFFFFFFFFFFFFFFFFFFFFFFFFFFFFFFFFFFFFFF AND PUSH20 0xFFFFFFFFFFFFFFFFFFFFFFFFFFFFFFFFFFFFFFFF AND PUSH20 0xFFFFFFFFFFFFFFFFFFFFFFFFFFFFFFFFFFFFFFFF AND DUP2 MSTORE PUSH1 0x20 ADD SWAP1 DUP2 MSTORE PUSH1 0x20 ADD PUSH1 0x0 KECCAK256 SLOAD SWAP1 POP SWAP1 JUMP JUMPDEST PUSH1 0x2 PUSH1 0x8 PUSH1 0x0 PUSH1 0xA PUSH1 0x0 SWAP1 SLOAD SWAP1 PUSH2 0x100 EXP SWAP1 DIV PUSH20 0xFFFFFFFFFFFFFFFFFFFFFFFFFFFFFFFFFFFFFFFF AND PUSH20 0xFFFFFFFFFFFFFFFFFFFFFFFFFFFFFFFFFFFFFFFF AND PUSH20 0xFFFFFFFFFFFFFFFFFFFFFFFFFFFFFFFFFFFFFFFF AND DUP2 MSTORE PUSH1 0x20 ADD SWAP1 DUP2 MSTORE PUSH1 0x20 ADD PUSH1 0x0 KECCAK256 DUP2 SWAP1 SSTORE POP JUMP JUMPDEST PUSH1 0x0 PUSH1 0x9 PUSH1 0x40 MLOAD PUSH2 0x272 SWAP1 PUSH2 0xDC0 JUMP JUMPDEST SWAP1 DUP2 MSTORE PUSH1 0x20 ADD PUSH1 0x40 MLOAD DUP1 SWAP2 SUB SWAP1 KECCAK256 SLOAD SWAP1 POP SWAP1 JUMP JUMPDEST PUSH2 0x28E PUSH2 0x7E8 JUMP JUMPDEST PUSH1 0x0 PUSH1 0xB PUSH1 0x0 DUP5 PUSH20 0xFFFFFFFFFFFFFFFFFFFFFFFFFFFFFFFFFFFFFFFF AND PUSH20 0xFFFFFFFFFFFFFFFFFFFFFFFFFFFFFFFFFFFFFFFF AND DUP2 MSTORE PUSH1 0x20 ADD SWAP1 DUP2 MSTORE PUSH1 0x20 ADD PUSH1 0x0 KECCAK256 PUSH1 0x40 MLOAD DUP1 PUSH1 0x60 ADD PUSH1 0x40 MSTORE SWAP1 DUP2 PUSH1 0x0 DUP3 ADD DUP1 SLOAD PUSH2 0x2EA SWAP1 PUSH2 0xE04 JUMP JUMPDEST DUP1 PUSH1 0x1F ADD PUSH1 0x20 DUP1 SWAP2 DIV MUL PUSH1 0x20 ADD PUSH1 0x40 MLOAD SWAP1 DUP2 ADD PUSH1 0x40 MSTORE DUP1 SWAP3 SWAP2 SWAP1 DUP2 DUP2 MSTORE PUSH1 0x20 ADD DUP3 DUP1 SLOAD PUSH2 0x316 SWAP1 PUSH2 0xE04 JUMP JUMPDEST DUP1 ISZERO PUSH2 0x363 JUMPI DUP1 PUSH1 0x1F LT PUSH2 0x338 JUMPI PUSH2 0x100 DUP1 DUP4 SLOAD DIV MUL DUP4 MSTORE SWAP2 PUSH1 0x20 ADD SWAP2 PUSH2 0x363 JUMP JUMPDEST DUP3 ADD SWAP2 SWAP1 PUSH1 0x0 MSTORE PUSH1 0x20 PUSH1 0x0 KECCAK256 SWAP1 JUMPDEST DUP2 SLOAD DUP2 MSTORE SWAP1 PUSH1 0x1 ADD SWAP1 PUSH1 0x20 ADD DUP1 DUP4 GT PUSH2 0x346 JUMPI DUP3 SWAP1 SUB PUSH1 0x1F AND DUP3 ADD SWAP2 JUMPDEST POP POP POP POP POP DUP2 MSTORE PUSH1 0x20 ADD PUSH1 0x1 DUP3 ADD DUP1 SLOAD PUSH2 0x37C SWAP1 PUSH2 0xE04 JUMP JUMPDEST DUP1 PUSH1 0x1F ADD PUSH1 0x20 DUP1 SWAP2 DIV MUL PUSH1 0x20 ADD PUSH1 0x40 MLOAD SWAP1 DUP2 ADD PUSH1 0x40 MSTORE DUP1 SWAP3 SWAP2 SWAP1 DUP2 DUP2 MSTORE PUSH1 0x20 ADD DUP3 DUP1 SLOAD PUSH2 0x3A8 SWAP1 PUSH2 0xE04 JUMP JUMPDEST DUP1 ISZERO PUSH2 0x3F5 JUMPI DUP1 PUSH1 0x1F LT PUSH2 0x3CA JUMPI PUSH2 0x100 DUP1 DUP4 SLOAD DIV MUL DUP4 MSTORE SWAP2 PUSH1 0x20 ADD SWAP2 PUSH2 0x3F5 JUMP JUMPDEST DUP3 ADD SWAP2 SWAP1 PUSH1 0x0 MSTORE PUSH1 0x20 PUSH1 0x0 KECCAK256 SWAP1 JUMPDEST DUP2 SLOAD DUP2 MSTORE SWAP1 PUSH1 0x1 ADD SWAP1 PUSH1 0x20 ADD DUP1 DUP4 GT PUSH2 0x3D8 JUMPI DUP3 SWAP1 SUB PUSH1 0x1F AND DUP3 ADD SWAP2 JUMPDEST POP POP POP POP POP DUP2 MSTORE PUSH1 0x20 ADD PUSH1 0x2 DUP3 ADD PUSH1 0x0 SWAP1 SLOAD SWAP1 PUSH2 0x100 EXP SWAP1 DIV PUSH20 0xFFFFFFFFFFFFFFFFFFFFFFFFFFFFFFFFFFFFFFFF AND PUSH20 0xFFFFFFFFFFFFFFFFFFFFFFFFFFFFFFFFFFFFFFFF AND PUSH20 0xFFFFFFFFFFFFFFFFFFFFFFFFFFFFFFFFFFFFFFFF AND DUP2 MSTORE POP POP SWAP1 POP DUP1 SWAP2 POP POP SWAP2 SWAP1 POP JUMP JUMPDEST PUSH1 0x60 DUP1 PUSH1 0x0 DUP1 PUSH1 0x4 PUSH1 0x0 ADD PUSH1 0x4 PUSH1 0x1 ADD PUSH1 0x4 PUSH1 0x2 ADD SLOAD PUSH1 0x4 PUSH1 0x3 ADD PUSH1 0x0 SWAP1 SLOAD SWAP1 PUSH2 0x100 EXP SWAP1 DIV PUSH1 0xFF AND DUP4 DUP1 SLOAD PUSH2 0x494 SWAP1 PUSH2 0xE04 JUMP JUMPDEST DUP1 PUSH1 0x1F ADD PUSH1 0x20 DUP1 SWAP2 DIV MUL PUSH1 0x20 ADD PUSH1 0x40 MLOAD SWAP1 DUP2 ADD PUSH1 0x40 MSTORE DUP1 SWAP3 SWAP2 SWAP1 DUP2 DUP2 MSTORE PUSH1 0x20 ADD DUP3 DUP1 SLOAD PUSH2 0x4C0 SWAP1 PUSH2 0xE04 JUMP JUMPDEST DUP1 ISZERO PUSH2 0x50D JUMPI DUP1 PUSH1 0x1F LT PUSH2 0x4E2 JUMPI PUSH2 0x100 DUP1 DUP4 SLOAD DIV MUL DUP4 MSTORE SWAP2 PUSH1 0x20 ADD SWAP2 PUSH2 0x50D JUMP JUMPDEST DUP3 ADD SWAP2 SWAP1 PUSH1 0x0 MSTORE PUSH1 0x20 PUSH1 0x0 KECCAK256 SWAP1 JUMPDEST DUP2 SLOAD DUP2 MSTORE SWAP1 PUSH1 0x1 ADD SWAP1 PUSH1 0x20 ADD DUP1 DUP4 GT PUSH2 0x4F0 JUMPI DUP3 SWAP1 SUB PUSH1 0x1F AND DUP3 ADD SWAP2 JUMPDEST POP POP POP POP POP SWAP4 POP DUP3 DUP1 SLOAD PUSH2 0x520 SWAP1 PUSH2 0xE04 JUMP JUMPDEST DUP1 PUSH1 0x1F ADD PUSH1 0x20 DUP1 SWAP2 DIV MUL PUSH1 0x20 ADD PUSH1 0x40 MLOAD SWAP1 DUP2 ADD PUSH1 0x40 MSTORE DUP1 SWAP3 SWAP2 SWAP1 DUP2 DUP2 MSTORE PUSH1 0x20 ADD DUP3 DUP1 SLOAD PUSH2 0x54C SWAP1 PUSH2 0xE04 JUMP JUMPDEST DUP1 ISZERO PUSH2 0x599 JUMPI DUP1 PUSH1 0x1F LT PUSH2 0x56E JUMPI PUSH2 0x100 DUP1 DUP4 SLOAD DIV MUL DUP4 MSTORE SWAP2 PUSH1 0x20 ADD SWAP2 PUSH2 0x599 JUMP JUMPDEST DUP3 ADD SWAP2 SWAP1 PUSH1 0x0 MSTORE PUSH1 0x20 PUSH1 0x0 KECCAK256 SWAP1 JUMPDEST DUP2 SLOAD DUP2 MSTORE SWAP1 PUSH1 0x1 ADD SWAP1 PUSH1 0x20 ADD DUP1 DUP4 GT PUSH2 0x57C JUMPI DUP3 SWAP1 SUB PUSH1 0x1F AND DUP3 ADD SWAP2 JUMPDEST POP POP POP POP POP SWAP3 POP SWAP4 POP SWAP4 POP SWAP4 POP SWAP4 POP SWAP1 SWAP2 SWAP3 SWAP4 JUMP JUMPDEST PUSH1 0x60 PUSH1 0x0 DUP1 PUSH1 0x0 ADD PUSH1 0x0 PUSH1 0x2 ADD SLOAD DUP2 DUP1 SLOAD PUSH2 0x5C8 SWAP1 PUSH2 0xE04 JUMP JUMPDEST DUP1 PUSH1 0x1F ADD PUSH1 0x20 DUP1 SWAP2 DIV MUL PUSH1 0x20 ADD PUSH1 0x40 MLOAD SWAP1 DUP2 ADD PUSH1 0x40 MSTORE DUP1 SWAP3 SWAP2 SWAP1 DUP2 DUP2 MSTORE PUSH1 0x20 ADD DUP3 DUP1 SLOAD PUSH2 0x5F4 SWAP1 PUSH2 0xE04 JUMP JUMPDEST DUP1 ISZERO PUSH2 0x641 JUMPI DUP1 PUSH1 0x1F LT PUSH2 0x616 JUMPI PUSH2 0x100 DUP1 DUP4 SLOAD DIV MUL DUP4 MSTORE SWAP2 PUSH1 0x20 ADD SWAP2 PUSH2 0x641 JUMP JUMPDEST DUP3 ADD SWAP2 SWAP1 PUSH1 0x0 MSTORE PUSH1 0x20 PUSH1 0x0 KECCAK256 SWAP1 JUMPDEST DUP2 SLOAD DUP2 MSTORE SWAP1 PUSH1 0x1 ADD SWAP1 PUSH1 0x20 ADD DUP1 DUP4 GT PUSH2 0x624 JUMPI DUP3 SWAP1 SUB PUSH1 0x1F AND DUP3 ADD SWAP2 JUMPDEST POP POP POP POP POP SWAP2 POP SWAP2 POP SWAP2 POP SWAP1 SWAP2 JUMP JUMPDEST PUSH1 0x40 MLOAD DUP1 PUSH1 0x80 ADD PUSH1 0x40 MSTORE DUP1 DUP5 DUP2 MSTORE PUSH1 0x20 ADD DUP4 DUP2 MSTORE PUSH1 0x20 ADD DUP3 DUP2 MSTORE PUSH1 0x20 ADD PUSH1 0x1 ISZERO ISZERO DUP2 MSTORE POP PUSH1 0x0 DUP1 DUP3 ADD MLOAD DUP2 PUSH1 0x0 ADD SWAP1 DUP2 PUSH2 0x68A SWAP2 SWAP1 PUSH2 0xFE1 JUMP JUMPDEST POP PUSH1 0x20 DUP3 ADD MLOAD DUP2 PUSH1 0x1 ADD SWAP1 DUP2 PUSH2 0x6A0 SWAP2 SWAP1 PUSH2 0xFE1 JUMP JUMPDEST POP PUSH1 0x40 DUP3 ADD MLOAD DUP2 PUSH1 0x2 ADD SSTORE PUSH1 0x60 DUP3 ADD MLOAD DUP2 PUSH1 0x3 ADD PUSH1 0x0 PUSH2 0x100 EXP DUP2 SLOAD DUP2 PUSH1 0xFF MUL NOT AND SWAP1 DUP4 ISZERO ISZERO MUL OR SWAP1 SSTORE POP SWAP1 POP POP POP POP POP JUMP JUMPDEST PUSH1 0x0 PUSH1 0x40 MLOAD DUP1 PUSH1 0x60 ADD PUSH1 0x40 MSTORE DUP1 DUP6 DUP2 MSTORE PUSH1 0x20 ADD DUP5 DUP2 MSTORE PUSH1 0x20 ADD DUP4 PUSH20 0xFFFFFFFFFFFFFFFFFFFFFFFFFFFFFFFFFFFFFFFF AND DUP2 MSTORE POP SWAP1 POP DUP1 PUSH1 0xB PUSH1 0x0 DUP5 PUSH20 0xFFFFFFFFFFFFFFFFFFFFFFFFFFFFFFFFFFFFFFFF AND PUSH20 0xFFFFFFFFFFFFFFFFFFFFFFFFFFFFFFFFFFFFFFFF AND DUP2 MSTORE PUSH1 0x20 ADD SWAP1 DUP2 MSTORE PUSH1 0x20 ADD PUSH1 0x0 KECCAK256 PUSH1 0x0 DUP3 ADD MLOAD DUP2 PUSH1 0x0 ADD SWAP1 DUP2 PUSH2 0x75D SWAP2 SWAP1 PUSH2 0xFE1 JUMP JUMPDEST POP PUSH1 0x20 DUP3 ADD MLOAD DUP2 PUSH1 0x1 ADD SWAP1 DUP2 PUSH2 0x773 SWAP2 SWAP1 PUSH2 0xFE1 JUMP JUMPDEST POP PUSH1 0x40 DUP3 ADD MLOAD DUP2 PUSH1 0x2 ADD PUSH1 0x0 PUSH2 0x100 EXP DUP2 SLOAD DUP2 PUSH20 0xFFFFFFFFFFFFFFFFFFFFFFFFFFFFFFFFFFFFFFFF MUL NOT AND SWAP1 DUP4 PUSH20 0xFFFFFFFFFFFFFFFFFFFFFFFFFFFFFFFFFFFFFFFF AND MUL OR SWAP1 SSTORE POP SWAP1 POP POP POP POP POP POP JUMP JUMPDEST PUSH1 0x18 PUSH1 0x9 PUSH1 0x40 MLOAD PUSH2 0x7D4 SWAP1 PUSH2 0xDC0 JUMP JUMPDEST SWAP1 DUP2 MSTORE PUSH1 0x20 ADD PUSH1 0x40 MLOAD DUP1 SWAP2 SUB SWAP1 KECCAK256 DUP2 SWAP1 SSTORE POP JUMP JUMPDEST PUSH1 0x40 MLOAD DUP1 PUSH1 0x60 ADD PUSH1 0x40 MSTORE DUP1 PUSH1 0x60 DUP2 MSTORE PUSH1 0x20 ADD PUSH1 0x60 DUP2 MSTORE PUSH1 0x20 ADD PUSH1 0x0 PUSH20 0xFFFFFFFFFFFFFFFFFFFFFFFFFFFFFFFFFFFFFFFF AND DUP2 MSTORE POP SWAP1 JUMP JUMPDEST PUSH1 0x0 DUP2 SWAP1 POP SWAP2 SWAP1 POP JUMP JUMPDEST PUSH2 0x832 DUP2 PUSH2 0x81F JUMP JUMPDEST DUP3 MSTORE POP POP JUMP JUMPDEST PUSH1 0x0 PUSH1 0x20 DUP3 ADD SWAP1 POP PUSH2 0x84D PUSH1 0x0 DUP4 ADD DUP5 PUSH2 0x829 JUMP JUMPDEST SWAP3 SWAP2 POP POP JUMP JUMPDEST PUSH1 0x0 PUSH1 0x40 MLOAD SWAP1 POP SWAP1 JUMP JUMPDEST PUSH1 0x0 DUP1 REVERT JUMPDEST PUSH1 0x0 DUP1 REVERT JUMPDEST PUSH1 0x0 PUSH20 0xFFFFFFFFFFFFFFFFFFFFFFFFFFFFFFFFFFFFFFFF DUP3 AND SWAP1 POP SWAP2 SWAP1 POP JUMP JUMPDEST PUSH1 0x0 PUSH2 0x892 DUP3 PUSH2 0x867 JUMP JUMPDEST SWAP1 POP SWAP2 SWAP1 POP JUMP JUMPDEST PUSH2 0x8A2 DUP2 PUSH2 0x887 JUMP JUMPDEST DUP2 EQ PUSH2 0x8AD JUMPI PUSH1 0x0 DUP1 REVERT JUMPDEST POP JUMP JUMPDEST PUSH1 0x0 DUP2 CALLDATALOAD SWAP1 POP PUSH2 0x8BF DUP2 PUSH2 0x899 JUMP JUMPDEST SWAP3 SWAP2 POP POP JUMP JUMPDEST PUSH1 0x0 PUSH1 0x20 DUP3 DUP5 SUB SLT ISZERO PUSH2 0x8DB JUMPI PUSH2 0x8DA PUSH2 0x85D JUMP JUMPDEST JUMPDEST PUSH1 0x0 PUSH2 0x8E9 DUP5 DUP3 DUP6 ADD PUSH2 0x8B0 JUMP JUMPDEST SWAP2 POP POP SWAP3 SWAP2 POP POP JUMP JUMPDEST PUSH1 0x0 DUP2 MLOAD SWAP1 POP SWAP2 SWAP1 POP JUMP JUMPDEST PUSH1 0x0 DUP3 DUP3 MSTORE PUSH1 0x20 DUP3 ADD SWAP1 POP SWAP3 SWAP2 POP POP JUMP JUMPDEST PUSH1 0x0 JUMPDEST DUP4 DUP2 LT ISZERO PUSH2 0x92C JUMPI DUP1 DUP3 ADD MLOAD DUP2 DUP5 ADD MSTORE PUSH1 0x20 DUP2 ADD SWAP1 POP PUSH2 0x911 JUMP JUMPDEST PUSH1 0x0 DUP5 DUP5 ADD MSTORE POP POP POP POP JUMP JUMPDEST PUSH1 0x0 PUSH1 0x1F NOT PUSH1 0x1F DUP4 ADD AND SWAP1 POP SWAP2 SWAP1 POP JUMP JUMPDEST PUSH1 0x0 PUSH2 0x954 DUP3 PUSH2 0x8F2 JUMP JUMPDEST PUSH2 0x95E DUP2 DUP6 PUSH2 0x8FD JUMP JUMPDEST SWAP4 POP PUSH2 0x96E DUP2 DUP6 PUSH1 0x20 DUP7 ADD PUSH2 0x90E JUMP JUMPDEST PUSH2 0x977 DUP2 PUSH2 0x938 JUMP JUMPDEST DUP5 ADD SWAP2 POP POP SWAP3 SWAP2 POP POP JUMP JUMPDEST PUSH2 0x98B DUP2 PUSH2 0x887 JUMP JUMPDEST DUP3 MSTORE POP POP JUMP JUMPDEST PUSH1 0x0 PUSH1 0x60 DUP4 ADD PUSH1 0x0 DUP4 ADD MLOAD DUP5 DUP3 SUB PUSH1 0x0 DUP7 ADD MSTORE PUSH2 0x9AE DUP3 DUP3 PUSH2 0x949 JUMP JUMPDEST SWAP2 POP POP PUSH1 0x20 DUP4 ADD MLOAD DUP5 DUP3 SUB PUSH1 0x20 DUP7 ADD MSTORE PUSH2 0x9C8 DUP3 DUP3 PUSH2 0x949 JUMP JUMPDEST SWAP2 POP POP PUSH1 0x40 DUP4 ADD MLOAD PUSH2 0x9DD PUSH1 0x40 DUP7 ADD DUP3 PUSH2 0x982 JUMP JUMPDEST POP DUP1 SWAP2 POP POP SWAP3 SWAP2 POP POP JUMP JUMPDEST PUSH1 0x0 PUSH1 0x20 DUP3 ADD SWAP1 POP DUP2 DUP2 SUB PUSH1 0x0 DUP4 ADD MSTORE PUSH2 0xA02 DUP2 DUP5 PUSH2 0x991 JUMP JUMPDEST SWAP1 POP SWAP3 SWAP2 POP POP JUMP JUMPDEST PUSH1 0x0 DUP3 DUP3 MSTORE PUSH1 0x20 DUP3 ADD SWAP1 POP SWAP3 SWAP2 POP POP JUMP JUMPDEST PUSH1 0x0 PUSH2 0xA26 DUP3 PUSH2 0x8F2 JUMP JUMPDEST PUSH2 0xA30 DUP2 DUP6 PUSH2 0xA0A JUMP JUMPDEST SWAP4 POP PUSH2 0xA40 DUP2 DUP6 PUSH1 0x20 DUP7 ADD PUSH2 0x90E JUMP JUMPDEST PUSH2 0xA49 DUP2 PUSH2 0x938 JUMP JUMPDEST DUP5 ADD SWAP2 POP POP SWAP3 SWAP2 POP POP JUMP JUMPDEST PUSH1 0x0 DUP2 ISZERO ISZERO SWAP1 POP SWAP2 SWAP1 POP JUMP JUMPDEST PUSH2 0xA69 DUP2 PUSH2 0xA54 JUMP JUMPDEST DUP3 MSTORE POP POP JUMP JUMPDEST PUSH1 0x0 PUSH1 0x80 DUP3 ADD SWAP1 POP DUP2 DUP2 SUB PUSH1 0x0 DUP4 ADD MSTORE PUSH2 0xA89 DUP2 DUP8 PUSH2 0xA1B JUMP JUMPDEST SWAP1 POP DUP2 DUP2 SUB PUSH1 0x20 DUP4 ADD MSTORE PUSH2 0xA9D DUP2 DUP7 PUSH2 0xA1B JUMP JUMPDEST SWAP1 POP PUSH2 0xAAC PUSH1 0x40 DUP4 ADD DUP6 PUSH2 0x829 JUMP JUMPDEST PUSH2 0xAB9 PUSH1 0x60 DUP4 ADD DUP5 PUSH2 0xA60 JUMP JUMPDEST SWAP6 SWAP5 POP POP POP POP POP JUMP JUMPDEST PUSH1 0x0 PUSH1 0x40 DUP3 ADD SWAP1 POP DUP2 DUP2 SUB PUSH1 0x0 DUP4 ADD MSTORE PUSH2 0xADC DUP2 DUP6 PUSH2 0xA1B JUMP JUMPDEST SWAP1 POP PUSH2 0xAEB PUSH1 0x20 DUP4 ADD DUP5 PUSH2 0x829 JUMP JUMPDEST SWAP4 SWAP3 POP POP POP JUMP JUMPDEST PUSH1 0x0 DUP1 REVERT JUMPDEST PUSH1 0x0 DUP1 REVERT JUMPDEST PUSH32 0x4E487B7100000000000000000000000000000000000000000000000000000000 PUSH1 0x0 MSTORE PUSH1 0x41 PUSH1 0x4 MSTORE PUSH1 0x24 PUSH1 0x0 REVERT JUMPDEST PUSH2 0xB34 DUP3 PUSH2 0x938 JUMP JUMPDEST DUP2 ADD DUP2 DUP2 LT PUSH8 0xFFFFFFFFFFFFFFFF DUP3 GT OR ISZERO PUSH2 0xB53 JUMPI PUSH2 0xB52 PUSH2 0xAFC JUMP JUMPDEST JUMPDEST DUP1 PUSH1 0x40 MSTORE POP POP POP JUMP JUMPDEST PUSH1 0x0 PUSH2 0xB66 PUSH2 0x853 JUMP JUMPDEST SWAP1 POP PUSH2 0xB72 DUP3 DUP3 PUSH2 0xB2B JUMP JUMPDEST SWAP2 SWAP1 POP JUMP JUMPDEST PUSH1 0x0 PUSH8 0xFFFFFFFFFFFFFFFF DUP3 GT ISZERO PUSH2 0xB92 JUMPI PUSH2 0xB91 PUSH2 0xAFC JUMP JUMPDEST JUMPDEST PUSH2 0xB9B DUP3 PUSH2 0x938 JUMP JUMPDEST SWAP1 POP PUSH1 0x20 DUP2 ADD SWAP1 POP SWAP2 SWAP1 POP JUMP JUMPDEST DUP3 DUP2 DUP4 CALLDATACOPY PUSH1 0x0 DUP4 DUP4 ADD MSTORE POP POP POP JUMP JUMPDEST PUSH1 0x0 PUSH2 0xBCA PUSH2 0xBC5 DUP5 PUSH2 0xB77 JUMP JUMPDEST PUSH2 0xB5C JUMP JUMPDEST SWAP1 POP DUP3 DUP2 MSTORE PUSH1 0x20 DUP2 ADD DUP5 DUP5 DUP5 ADD GT ISZERO PUSH2 0xBE6 JUMPI PUSH2 0xBE5 PUSH2 0xAF7 JUMP JUMPDEST JUMPDEST PUSH2 0xBF1 DUP5 DUP3 DUP6 PUSH2 0xBA8 JUMP JUMPDEST POP SWAP4 SWAP3 POP POP POP JUMP JUMPDEST PUSH1 0x0 DUP3 PUSH1 0x1F DUP4 ADD SLT PUSH2 0xC0E JUMPI PUSH2 0xC0D PUSH2 0xAF2 JUMP JUMPDEST JUMPDEST DUP2 CALLDATALOAD PUSH2 0xC1E DUP5 DUP3 PUSH1 0x20 DUP7 ADD PUSH2 0xBB7 JUMP JUMPDEST SWAP2 POP POP SWAP3 SWAP2 POP POP JUMP JUMPDEST PUSH2 0xC30 DUP2 PUSH2 0x81F JUMP JUMPDEST DUP2 EQ PUSH2 0xC3B JUMPI PUSH1 0x0 DUP1 REVERT JUMPDEST POP JUMP JUMPDEST PUSH1 0x0 DUP2 CALLDATALOAD SWAP1 POP PUSH2 0xC4D DUP2 PUSH2 0xC27 JUMP JUMPDEST SWAP3 SWAP2 POP POP JUMP JUMPDEST PUSH1 0x0 DUP1 PUSH1 0x0 PUSH1 0x60 DUP5 DUP7 SUB SLT ISZERO PUSH2 0xC6C JUMPI PUSH2 0xC6B PUSH2 0x85D JUMP JUMPDEST JUMPDEST PUSH1 0x0 DUP5 ADD CALLDATALOAD PUSH8 0xFFFFFFFFFFFFFFFF DUP2 GT ISZERO PUSH2 0xC8A JUMPI PUSH2 0xC89 PUSH2 0x862 JUMP JUMPDEST JUMPDEST PUSH2 0xC96 DUP7 DUP3 DUP8 ADD PUSH2 0xBF9 JUMP JUMPDEST SWAP4 POP POP PUSH1 0x20 DUP5 ADD CALLDATALOAD PUSH8 0xFFFFFFFFFFFFFFFF DUP2 GT ISZERO PUSH2 0xCB7 JUMPI PUSH2 0xCB6 PUSH2 0x862 JUMP JUMPDEST JUMPDEST PUSH2 0xCC3 DUP7 DUP3 DUP8 ADD PUSH2 0xBF9 JUMP JUMPDEST SWAP3 POP POP PUSH1 0x40 PUSH2 0xCD4 DUP7 DUP3 DUP8 ADD PUSH2 0xC3E JUMP JUMPDEST SWAP2 POP POP SWAP3 POP SWAP3 POP SWAP3 JUMP JUMPDEST PUSH1 0x0 DUP1 PUSH1 0x0 PUSH1 0x60 DUP5 DUP7 SUB SLT ISZERO PUSH2 0xCF7 JUMPI PUSH2 0xCF6 PUSH2 0x85D JUMP JUMPDEST JUMPDEST PUSH1 0x0 DUP5 ADD CALLDATALOAD PUSH8 0xFFFFFFFFFFFFFFFF DUP2 GT ISZERO PUSH2 0xD15 JUMPI PUSH2 0xD14 PUSH2 0x862 JUMP JUMPDEST JUMPDEST PUSH2 0xD21 DUP7 DUP3 DUP8 ADD PUSH2 0xBF9 JUMP JUMPDEST SWAP4 POP POP PUSH1 0x20 DUP5 ADD CALLDATALOAD PUSH8 0xFFFFFFFFFFFFFFFF DUP2 GT ISZERO PUSH2 0xD42 JUMPI PUSH2 0xD41 PUSH2 0x862 JUMP JUMPDEST JUMPDEST PUSH2 0xD4E DUP7 DUP3 DUP8 ADD PUSH2 0xBF9 JUMP JUMPDEST SWAP3 POP POP PUSH1 0x40 PUSH2 0xD5F DUP7 DUP3 DUP8 ADD PUSH2 0x8B0 JUMP JUMPDEST SWAP2 POP POP SWAP3 POP SWAP3 POP SWAP3 JUMP JUMPDEST PUSH1 0x0 DUP2 SWAP1 POP SWAP3 SWAP2 POP POP JUMP JUMPDEST PUSH32 0x6167650000000000000000000000000000000000000000000000000000000000 PUSH1 0x0 DUP3 ADD MSTORE POP JUMP JUMPDEST PUSH1 0x0 PUSH2 0xDAA PUSH1 0x3 DUP4 PUSH2 0xD69 JUMP JUMPDEST SWAP2 POP PUSH2 0xDB5 DUP3 PUSH2 0xD74 JUMP JUMPDEST PUSH1 0x3 DUP3 ADD SWAP1 POP SWAP2 SWAP1 POP JUMP JUMPDEST PUSH1 0x0 PUSH2 0xDCB DUP3 PUSH2 0xD9D JUMP JUMPDEST SWAP2 POP DUP2 SWAP1 POP SWAP2 SWAP1 POP JUMP JUMPDEST PUSH32 0x4E487B7100000000000000000000000000000000000000000000000000000000 PUSH1 0x0 MSTORE PUSH1 0x22 PUSH1 0x4 MSTORE PUSH1 0x24 PUSH1 0x0 REVERT JUMPDEST PUSH1 0x0 PUSH1 0x2 DUP3 DIV SWAP1 POP PUSH1 0x1 DUP3 AND DUP1 PUSH2 0xE1C JUMPI PUSH1 0x7F DUP3 AND SWAP2 POP JUMPDEST PUSH1 0x20 DUP3 LT DUP2 SUB PUSH2 0xE2F JUMPI PUSH2 0xE2E PUSH2 0xDD5 JUMP JUMPDEST JUMPDEST POP SWAP2 SWAP1 POP JUMP JUMPDEST PUSH1 0x0 DUP2 SWAP1 POP DUP2 PUSH1 0x0 MSTORE PUSH1 0x20 PUSH1 0x0 KECCAK256 SWAP1 POP SWAP2 SWAP1 POP JUMP JUMPDEST PUSH1 0x0 PUSH1 0x20 PUSH1 0x1F DUP4 ADD DIV SWAP1 POP SWAP2 SWAP1 POP JUMP JUMPDEST PUSH1 0x0 DUP3 DUP3 SHL SWAP1 POP SWAP3 SWAP2 POP POP JUMP JUMPDEST PUSH1 0x0 PUSH1 0x8 DUP4 MUL PUSH2 0xE97 PUSH32 0xFFFFFFFFFFFFFFFFFFFFFFFFFFFFFFFFFFFFFFFFFFFFFFFFFFFFFFFFFFFFFFFF DUP3 PUSH2 0xE5A JUMP JUMPDEST PUSH2 0xEA1 DUP7 DUP4 PUSH2 0xE5A JUMP JUMPDEST SWAP6 POP DUP1 NOT DUP5 AND SWAP4 POP DUP1 DUP7 AND DUP5 OR SWAP3 POP POP POP SWAP4 SWAP3 POP POP POP JUMP JUMPDEST PUSH1 0x0 DUP2 SWAP1 POP SWAP2 SWAP1 POP JUMP JUMPDEST PUSH1 0x0 PUSH2 0xEDE PUSH2 0xED9 PUSH2 0xED4 DUP5 PUSH2 0x81F JUMP JUMPDEST PUSH2 0xEB9 JUMP JUMPDEST PUSH2 0x81F JUMP JUMPDEST SWAP1 POP SWAP2 SWAP1 POP JUMP JUMPDEST PUSH1 0x0 DUP2 SWAP1 POP SWAP2 SWAP1 POP JUMP JUMPDEST PUSH2 0xEF8 DUP4 PUSH2 0xEC3 JUMP JUMPDEST PUSH2 0xF0C PUSH2 0xF04 DUP3 PUSH2 0xEE5 JUMP JUMPDEST DUP5 DUP5 SLOAD PUSH2 0xE67 JUMP JUMPDEST DUP3 SSTORE POP POP POP POP JUMP JUMPDEST PUSH1 0x0 SWAP1 JUMP JUMPDEST PUSH2 0xF21 PUSH2 0xF14 JUMP JUMPDEST PUSH2 0xF2C DUP2 DUP5 DUP5 PUSH2 0xEEF JUMP JUMPDEST POP POP POP JUMP JUMPDEST JUMPDEST DUP2 DUP2 LT ISZERO PUSH2 0xF50 JUMPI PUSH2 0xF45 PUSH1 0x0 DUP3 PUSH2 0xF19 JUMP JUMPDEST PUSH1 0x1 DUP2 ADD SWAP1 POP PUSH2 0xF32 JUMP JUMPDEST POP POP JUMP JUMPDEST PUSH1 0x1F DUP3 GT ISZERO PUSH2 0xF95 JUMPI PUSH2 0xF66 DUP2 PUSH2 0xE35 JUMP JUMPDEST PUSH2 0xF6F DUP5 PUSH2 0xE4A JUMP JUMPDEST DUP2 ADD PUSH1 0x20 DUP6 LT ISZERO PUSH2 0xF7E JUMPI DUP2 SWAP1 POP JUMPDEST PUSH2 0xF92 PUSH2 0xF8A DUP6 PUSH2 0xE4A JUMP JUMPDEST DUP4 ADD DUP3 PUSH2 0xF31 JUMP JUMPDEST POP POP JUMPDEST POP POP POP JUMP JUMPDEST PUSH1 0x0 DUP3 DUP3 SHR SWAP1 POP SWAP3 SWAP2 POP POP JUMP JUMPDEST PUSH1 0x0 PUSH2 0xFB8 PUSH1 0x0 NOT DUP5 PUSH1 0x8 MUL PUSH2 0xF9A JUMP JUMPDEST NOT DUP1 DUP4 AND SWAP2 POP POP SWAP3 SWAP2 POP POP JUMP JUMPDEST PUSH1 0x0 PUSH2 0xFD1 DUP4 DUP4 PUSH2 0xFA7 JUMP JUMPDEST SWAP2 POP DUP3 PUSH1 0x2 MUL DUP3 OR SWAP1 POP SWAP3 SWAP2 POP POP JUMP JUMPDEST PUSH2 0xFEA DUP3 PUSH2 0x8F2 JUMP JUMPDEST PUSH8 0xFFFFFFFFFFFFFFFF DUP2 GT ISZERO PUSH2 0x1003 JUMPI PUSH2 0x1002 PUSH2 0xAFC JUMP JUMPDEST JUMPDEST PUSH2 0x100D DUP3 SLOAD PUSH2 0xE04 JUMP JUMPDEST PUSH2 0x1018 DUP3 DUP3 DUP6 PUSH2 0xF54 JUMP JUMPDEST PUSH1 0x0 PUSH1 0x20 SWAP1 POP PUSH1 0x1F DUP4 GT PUSH1 0x1 DUP2 EQ PUSH2 0x104B JUMPI PUSH1 0x0 DUP5 ISZERO PUSH2 0x1039 JUMPI DUP3 DUP8 ADD MLOAD SWAP1 POP JUMPDEST PUSH2 0x1043 DUP6 DUP3 PUSH2 0xFC5 JUMP JUMPDEST DUP7 SSTORE POP PUSH2 0x10AB JUMP JUMPDEST PUSH1 0x1F NOT DUP5 AND PUSH2 0x1059 DUP7 PUSH2 0xE35 JUMP JUMPDEST PUSH1 0x0 JUMPDEST DUP3 DUP2 LT ISZERO PUSH2 0x1081 JUMPI DUP5 DUP10 ADD MLOAD DUP3 SSTORE PUSH1 0x1 DUP3 ADD SWAP2 POP PUSH1 0x20 DUP6 ADD SWAP5 POP PUSH1 0x20 DUP2 ADD SWAP1 POP PUSH2 0x105C JUMP JUMPDEST DUP7 DUP4 LT ISZERO PUSH2 0x109E JUMPI DUP5 DUP10 ADD MLOAD PUSH2 0x109A PUSH1 0x1F DUP10 AND DUP3 PUSH2 0xFA7 JUMP JUMPDEST DUP4 SSTORE POP JUMPDEST PUSH1 0x1 PUSH1 0x2 DUP9 MUL ADD DUP9 SSTORE POP POP POP JUMPDEST POP POP POP POP POP POP JUMP INVALID LOG2 PUSH5 0x6970667358 0x22 SLT KECCAK256 PUSH26 0xA17C7B53B0827BCA5F293CD2C2F585A901660B162EEA6D3214F3 SELFBALANCE SLT 0xEC 0xEF ORIGIN PUSH5 0x736F6C6343 STOP ADDMOD LT STOP CALLER "
				},
				"gasEstimates": {
					"creation": {
						"codeDepositCost": "865800",
						"executionCost": "infinite",
						"totalCost": "infinite"
					},
					"external": {
						"book_info()": "infinite",
						"getBalance()": "4664",
						"getData()": "2769",
						"getStudentData(address)": "infinite",
						"get_details()": "infinite",
						"setBalance()": "24507",
						"setData()": "22639",
						"setStruct(string,string,address)": "infinite",
						"set_book_detail(string,string,uint256)": "infinite"
					}
				},
				"methodIdentifiers": {
					"book_info()": "8574ed0d",
					"getBalance()": "12065fe0",
					"getData()": "3bc5de30",
					"getStudentData(address)": "3f898323",
					"get_details()": "b87f86b7",
					"setBalance()": "1a61746e",
					"setData()": "f31604c7",
					"setStruct(string,string,address)": "dabbdc15",
					"set_book_detail(string,string,uint256)": "c78f7074"
				}
			},
			"storageLayout": {
				"storage": [
					{
						"astId": 13,
						"contract": "contracts/solidity-class-2.sol:task1",
						"label": "book1",
						"offset": 0,
						"slot": "0",
						"type": "t_struct(Book)10_storage"
					},
					{
						"astId": 22,
						"contract": "contracts/solidity-class-2.sol:task1",
						"label": "book2",
						"offset": 0,
						"slot": "4",
						"type": "t_struct(Book)10_storage"
					},
					{
						"astId": 81,
						"contract": "contracts/solidity-class-2.sol:task1",
						"label": "balance",
						"offset": 0,
						"slot": "8",
						"type": "t_mapping(t_address,t_uint256)"
					},
					{
						"astId": 85,
						"contract": "contracts/solidity-class-2.sol:task1",
						"label": "data",
						"offset": 0,
						"slot": "9",
						"type": "t_mapping(t_string_memory_ptr,t_uint256)"
					},
					{
						"astId": 88,
						"contract": "contracts/solidity-class-2.sol:task1",
						"label": "marketingAddress",
						"offset": 0,
						"slot": "10",
						"type": "t_address"
					},
					{
						"astId": 140,
						"contract": "contracts/solidity-class-2.sol:task1",
						"label": "students",
						"offset": 0,
						"slot": "11",
						"type": "t_mapping(t_address,t_struct(student)135_storage)"
					}
				],
				"types": {
					"t_address": {
						"encoding": "inplace",
						"label": "address",
						"numberOfBytes": "20"
					},
					"t_bool": {
						"encoding": "inplace",
						"label": "bool",
						"numberOfBytes": "1"
					},
					"t_mapping(t_address,t_struct(student)135_storage)": {
						"encoding": "mapping",
						"key": "t_address",
						"label": "mapping(address => struct task1.student)",
						"numberOfBytes": "32",
						"value": "t_struct(student)135_storage"
					},
					"t_mapping(t_address,t_uint256)": {
						"encoding": "mapping",
						"key": "t_address",
						"label": "mapping(address => uint256)",
						"numberOfBytes": "32",
						"value": "t_uint256"
					},
					"t_mapping(t_string_memory_ptr,t_uint256)": {
						"encoding": "mapping",
						"key": "t_string_memory_ptr",
						"label": "mapping(string => uint256)",
						"numberOfBytes": "32",
						"value": "t_uint256"
					},
					"t_string_memory_ptr": {
						"encoding": "bytes",
						"label": "string",
						"numberOfBytes": "32"
					},
					"t_string_storage": {
						"encoding": "bytes",
						"label": "string",
						"numberOfBytes": "32"
					},
					"t_struct(Book)10_storage": {
						"encoding": "inplace",
						"label": "struct task1.Book",
						"members": [
							{
								"astId": 3,
								"contract": "contracts/solidity-class-2.sol:task1",
								"label": "name",
								"offset": 0,
								"slot": "0",
								"type": "t_string_storage"
							},
							{
								"astId": 5,
								"contract": "contracts/solidity-class-2.sol:task1",
								"label": "writter",
								"offset": 0,
								"slot": "1",
								"type": "t_string_storage"
							},
							{
								"astId": 7,
								"contract": "contracts/solidity-class-2.sol:task1",
								"label": "id",
								"offset": 0,
								"slot": "2",
								"type": "t_uint256"
							},
							{
								"astId": 9,
								"contract": "contracts/solidity-class-2.sol:task1",
								"label": "available",
								"offset": 0,
								"slot": "3",
								"type": "t_bool"
							}
						],
						"numberOfBytes": "128"
					},
					"t_struct(student)135_storage": {
						"encoding": "inplace",
						"label": "struct task1.student",
						"members": [
							{
								"astId": 130,
								"contract": "contracts/solidity-class-2.sol:task1",
								"label": "name",
								"offset": 0,
								"slot": "0",
								"type": "t_string_storage"
							},
							{
								"astId": 132,
								"contract": "contracts/solidity-class-2.sol:task1",
								"label": "fame",
								"offset": 0,
								"slot": "1",
								"type": "t_string_storage"
							},
							{
								"astId": 134,
								"contract": "contracts/solidity-class-2.sol:task1",
								"label": "id",
								"offset": 0,
								"slot": "2",
								"type": "t_address"
							}
						],
						"numberOfBytes": "96"
					},
					"t_uint256": {
						"encoding": "inplace",
						"label": "uint256",
						"numberOfBytes": "32"
					}
				}
			},
			"userdoc": {
				"kind": "user",
				"methods": {},
				"version": 1
			}
		}
	}
}