{
	"contracts/todo.sol": {
		"todo": {
			"abi": [
				{
					"inputs": [
						{
							"internalType": "string",
							"name": "_task",
							"type": "string"
						}
					],
					"name": "addTask",
					"outputs": [],
					"stateMutability": "nonpayable",
					"type": "function"
				},
				{
					"inputs": [
						{
							"internalType": "uint256",
							"name": "_taskIndex",
							"type": "uint256"
						}
					],
					"name": "getTask",
					"outputs": [
						{
							"components": [
								{
									"internalType": "string",
									"name": "task",
									"type": "string"
								},
								{
									"internalType": "bool",
									"name": "isDone",
									"type": "bool"
								}
							],
							"internalType": "struct todo.Task",
							"name": "",
							"type": "tuple"
						}
					],
					"stateMutability": "view",
					"type": "function"
				},
				{
					"inputs": [
						{
							"internalType": "uint256",
							"name": "_taskIndex",
							"type": "uint256"
						},
						{
							"internalType": "bool",
							"name": "_status",
							"type": "bool"
						}
					],
					"name": "update",
					"outputs": [
						{
							"internalType": "string",
							"name": "",
							"type": "string"
						}
					],
					"stateMutability": "view",
					"type": "function"
				}
			],
			"devdoc": {
				"kind": "dev",
				"methods": {},
				"version": 1
			},
			"evm": {
				"assembly": "    /* \"contracts/todo.sol\":64:813  contract todo ... */\n  mstore(0x40, 0x80)\n  callvalue\n  dup1\n  iszero\n  tag_1\n  jumpi\n  0x00\n  dup1\n  revert\ntag_1:\n  pop\n  dataSize(sub_0)\n  dup1\n  dataOffset(sub_0)\n  0x00\n  codecopy\n  0x00\n  return\nstop\n\nsub_0: assembly {\n        /* \"contracts/todo.sol\":64:813  contract todo ... */\n      mstore(0x40, 0x80)\n      callvalue\n      dup1\n      iszero\n      tag_1\n      jumpi\n      0x00\n      dup1\n      revert\n    tag_1:\n      pop\n      jumpi(tag_2, lt(calldatasize, 0x04))\n      shr(0xe0, calldataload(0x00))\n      dup1\n      0x1d65e77e\n      eq\n      tag_3\n      jumpi\n      dup1\n      0x48284b62\n      eq\n      tag_4\n      jumpi\n      dup1\n      0x67238562\n      eq\n      tag_5\n      jumpi\n    tag_2:\n      0x00\n      dup1\n      revert\n        /* \"contracts/todo.sol\":474:628  function getTask(uint _taskIndex) public view returns (Task memory) {... */\n    tag_3:\n      tag_6\n      0x04\n      dup1\n      calldatasize\n      sub\n      dup2\n      add\n      swap1\n      tag_7\n      swap2\n      swap1\n      tag_8\n      jump\t// in\n    tag_7:\n      tag_9\n      jump\t// in\n    tag_6:\n      mload(0x40)\n      tag_10\n      swap2\n      swap1\n      tag_11\n      jump\t// in\n    tag_10:\n      mload(0x40)\n      dup1\n      swap2\n      sub\n      swap1\n      return\n        /* \"contracts/todo.sol\":634:810  function update(uint _taskIndex, bool _status) public view returns (string memory) {... */\n    tag_4:\n      tag_12\n      0x04\n      dup1\n      calldatasize\n      sub\n      dup2\n      add\n      swap1\n      tag_13\n      swap2\n      swap1\n      tag_14\n      jump\t// in\n    tag_13:\n      tag_15\n      jump\t// in\n    tag_12:\n      mload(0x40)\n      tag_16\n      swap2\n      swap1\n      tag_17\n      jump\t// in\n    tag_16:\n      mload(0x40)\n      dup1\n      swap2\n      sub\n      swap1\n      return\n        /* \"contracts/todo.sol\":220:468  function addTask(string memory _task) public {... */\n    tag_5:\n      tag_18\n      0x04\n      dup1\n      calldatasize\n      sub\n      dup2\n      add\n      swap1\n      tag_19\n      swap2\n      swap1\n      tag_20\n      jump\t// in\n    tag_19:\n      tag_21\n      jump\t// in\n    tag_18:\n      stop\n        /* \"contracts/todo.sol\":474:628  function getTask(uint _taskIndex) public view returns (Task memory) {... */\n    tag_9:\n        /* \"contracts/todo.sol\":529:540  Task memory */\n      tag_22\n      tag_23\n      jump\t// in\n    tag_22:\n        /* \"contracts/todo.sol\":552:568  Task memory task */\n      0x00\n        /* \"contracts/todo.sol\":571:576  Users */\n      0x01\n        /* \"contracts/todo.sol\":571:588  Users[msg.sender] */\n      0x00\n        /* \"contracts/todo.sol\":577:587  msg.sender */\n      caller\n        /* \"contracts/todo.sol\":571:588  Users[msg.sender] */\n      0xffffffffffffffffffffffffffffffffffffffff\n      and\n      0xffffffffffffffffffffffffffffffffffffffff\n      and\n      dup2\n      mstore\n      0x20\n      add\n      swap1\n      dup2\n      mstore\n      0x20\n      add\n      0x00\n      keccak256\n        /* \"contracts/todo.sol\":589:599  _taskIndex */\n      dup4\n        /* \"contracts/todo.sol\":571:600  Users[msg.sender][_taskIndex] */\n      dup2\n      sload\n      dup2\n      lt\n      tag_25\n      jumpi\n      tag_26\n      tag_27\n      jump\t// in\n    tag_26:\n    tag_25:\n      swap1\n      0x00\n      mstore\n      keccak256(0x00, 0x20)\n      swap1\n      0x02\n      mul\n      add\n        /* \"contracts/todo.sol\":552:600  Task memory task = Users[msg.sender][_taskIndex] */\n      mload(0x40)\n      dup1\n      0x40\n      add\n      0x40\n      mstore\n      swap1\n      dup2\n      0x00\n      dup3\n      add\n      dup1\n      sload\n      tag_29\n      swap1\n      tag_30\n      jump\t// in\n    tag_29:\n      dup1\n      0x1f\n      add\n      0x20\n      dup1\n      swap2\n      div\n      mul\n      0x20\n      add\n      mload(0x40)\n      swap1\n      dup2\n      add\n      0x40\n      mstore\n      dup1\n      swap3\n      swap2\n      swap1\n      dup2\n      dup2\n      mstore\n      0x20\n      add\n      dup3\n      dup1\n      sload\n      tag_31\n      swap1\n      tag_30\n      jump\t// in\n    tag_31:\n      dup1\n      iszero\n      tag_32\n      jumpi\n      dup1\n      0x1f\n      lt\n      tag_33\n      jumpi\n      0x0100\n      dup1\n      dup4\n      sload\n      div\n      mul\n      dup4\n      mstore\n      swap2\n      0x20\n      add\n      swap2\n      jump(tag_32)\n    tag_33:\n      dup3\n      add\n      swap2\n      swap1\n      0x00\n      mstore\n      keccak256(0x00, 0x20)\n      swap1\n    tag_34:\n      dup2\n      sload\n      dup2\n      mstore\n      swap1\n      0x01\n      add\n      swap1\n      0x20\n      add\n      dup1\n      dup4\n      gt\n      tag_34\n      jumpi\n      dup3\n      swap1\n      sub\n      0x1f\n      and\n      dup3\n      add\n      swap2\n    tag_32:\n      pop\n      pop\n      pop\n      pop\n      pop\n      dup2\n      mstore\n      0x20\n      add\n      0x01\n      dup3\n      add\n      0x00\n      swap1\n      sload\n      swap1\n      0x0100\n      exp\n      swap1\n      div\n      0xff\n      and\n      iszero\n      iszero\n      iszero\n      iszero\n      dup2\n      mstore\n      pop\n      pop\n      swap1\n      pop\n        /* \"contracts/todo.sol\":617:621  task */\n      dup1\n        /* \"contracts/todo.sol\":610:621  return task */\n      swap2\n      pop\n      pop\n        /* \"contracts/todo.sol\":474:628  function getTask(uint _taskIndex) public view returns (Task memory) {... */\n      swap2\n      swap1\n      pop\n      jump\t// out\n        /* \"contracts/todo.sol\":634:810  function update(uint _taskIndex, bool _status) public view returns (string memory) {... */\n    tag_15:\n        /* \"contracts/todo.sol\":702:715  string memory */\n      0x60\n        /* \"contracts/todo.sol\":727:745  string memory task */\n      0x00\n        /* \"contracts/todo.sol\":748:753  Users */\n      0x01\n        /* \"contracts/todo.sol\":748:765  Users[msg.sender] */\n      0x00\n        /* \"contracts/todo.sol\":754:764  msg.sender */\n      caller\n        /* \"contracts/todo.sol\":748:765  Users[msg.sender] */\n      0xffffffffffffffffffffffffffffffffffffffff\n      and\n      0xffffffffffffffffffffffffffffffffffffffff\n      and\n      dup2\n      mstore\n      0x20\n      add\n      swap1\n      dup2\n      mstore\n      0x20\n      add\n      0x00\n      keccak256\n        /* \"contracts/todo.sol\":766:776  _taskIndex */\n      dup5\n        /* \"contracts/todo.sol\":748:777  Users[msg.sender][_taskIndex] */\n      dup2\n      sload\n      dup2\n      lt\n      tag_36\n      jumpi\n      tag_37\n      tag_27\n      jump\t// in\n    tag_37:\n    tag_36:\n      swap1\n      0x00\n      mstore\n      keccak256(0x00, 0x20)\n      swap1\n      0x02\n      mul\n      add\n        /* \"contracts/todo.sol\":748:782  Users[msg.sender][_taskIndex].task */\n      0x00\n      add\n        /* \"contracts/todo.sol\":727:782  string memory task = Users[msg.sender][_taskIndex].task */\n      dup1\n      sload\n      tag_39\n      swap1\n      tag_30\n      jump\t// in\n    tag_39:\n      dup1\n      0x1f\n      add\n      0x20\n      dup1\n      swap2\n      div\n      mul\n      0x20\n      add\n      mload(0x40)\n      swap1\n      dup2\n      add\n      0x40\n      mstore\n      dup1\n      swap3\n      swap2\n      swap1\n      dup2\n      dup2\n      mstore\n      0x20\n      add\n      dup3\n      dup1\n      sload\n      tag_40\n      swap1\n      tag_30\n      jump\t// in\n    tag_40:\n      dup1\n      iszero\n      tag_41\n      jumpi\n      dup1\n      0x1f\n      lt\n      tag_42\n      jumpi\n      0x0100\n      dup1\n      dup4\n      sload\n      div\n      mul\n      dup4\n      mstore\n      swap2\n      0x20\n      add\n      swap2\n      jump(tag_41)\n    tag_42:\n      dup3\n      add\n      swap2\n      swap1\n      0x00\n      mstore\n      keccak256(0x00, 0x20)\n      swap1\n    tag_43:\n      dup2\n      sload\n      dup2\n      mstore\n      swap1\n      0x01\n      add\n      swap1\n      0x20\n      add\n      dup1\n      dup4\n      gt\n      tag_43\n      jumpi\n      dup3\n      swap1\n      sub\n      0x1f\n      and\n      dup3\n      add\n      swap2\n    tag_41:\n      pop\n      pop\n      pop\n      pop\n      pop\n      swap1\n      pop\n        /* \"contracts/todo.sol\":799:803  task */\n      dup1\n        /* \"contracts/todo.sol\":792:803  return task */\n      swap2\n      pop\n      pop\n        /* \"contracts/todo.sol\":634:810  function update(uint _taskIndex, bool _status) public view returns (string memory) {... */\n      swap3\n      swap2\n      pop\n      pop\n      jump\t// out\n        /* \"contracts/todo.sol\":220:468  function addTask(string memory _task) public {... */\n    tag_21:\n        /* \"contracts/todo.sol\":276:292  Task memory task */\n      0x00\n        /* \"contracts/todo.sol\":296:313  Task(_task,false) */\n      mload(0x40)\n      dup1\n      0x40\n      add\n      0x40\n      mstore\n      dup1\n        /* \"contracts/todo.sol\":301:306  _task */\n      dup4\n        /* \"contracts/todo.sol\":296:313  Task(_task,false) */\n      dup2\n      mstore\n      0x20\n      add\n        /* \"contracts/todo.sol\":307:312  false */\n      0x00\n        /* \"contracts/todo.sol\":296:313  Task(_task,false) */\n      iszero\n      iszero\n      dup2\n      mstore\n      pop\n        /* \"contracts/todo.sol\":276:313  Task memory task =  Task(_task,false) */\n      swap1\n      pop\n        /* \"contracts/todo.sol\":324:329  Users */\n      0x01\n        /* \"contracts/todo.sol\":324:341  Users[msg.sender] */\n      0x00\n        /* \"contracts/todo.sol\":330:340  msg.sender */\n      caller\n        /* \"contracts/todo.sol\":324:341  Users[msg.sender] */\n      0xffffffffffffffffffffffffffffffffffffffff\n      and\n      0xffffffffffffffffffffffffffffffffffffffff\n      and\n      dup2\n      mstore\n      0x20\n      add\n      swap1\n      dup2\n      mstore\n      0x20\n      add\n      0x00\n      keccak256\n        /* \"contracts/todo.sol\":347:351  task */\n      dup2\n        /* \"contracts/todo.sol\":324:352  Users[msg.sender].push(task) */\n      swap1\n      dup1\n      0x01\n      dup2\n      sload\n      add\n      dup1\n      dup3\n      sstore\n      dup1\n      swap2\n      pop\n      pop\n      0x01\n      swap1\n      sub\n      swap1\n      0x00\n      mstore\n      keccak256(0x00, 0x20)\n      swap1\n      0x02\n      mul\n      add\n      0x00\n      swap1\n      swap2\n      swap1\n      swap2\n      swap1\n      swap2\n      pop\n      0x00\n      dup3\n      add\n      mload\n      dup2\n      0x00\n      add\n      swap1\n      dup2\n      tag_46\n      swap2\n      swap1\n      tag_47\n      jump\t// in\n    tag_46:\n      pop\n      0x20\n      dup3\n      add\n      mload\n      dup2\n      0x01\n      add\n      exp(0x0100, 0x00)\n      dup2\n      sload\n      dup2\n      0xff\n      mul\n      not\n      and\n      swap1\n      dup4\n      iszero\n      iszero\n      mul\n      or\n      swap1\n      sstore\n      pop\n      pop\n      pop\n        /* \"contracts/todo.sol\":265:468  {... */\n      pop\n        /* \"contracts/todo.sol\":220:468  function addTask(string memory _task) public {... */\n      pop\n      jump\t// out\n    tag_23:\n      mload(0x40)\n      dup1\n      0x40\n      add\n      0x40\n      mstore\n      dup1\n      0x60\n      dup2\n      mstore\n      0x20\n      add\n      iszero(iszero(0x00))\n      dup2\n      mstore\n      pop\n      swap1\n      jump\t// out\n        /* \"#utility.yul\":7:82   */\n    tag_48:\n        /* \"#utility.yul\":40:46   */\n      0x00\n        /* \"#utility.yul\":73:75   */\n      0x40\n        /* \"#utility.yul\":67:76   */\n      mload\n        /* \"#utility.yul\":57:76   */\n      swap1\n      pop\n        /* \"#utility.yul\":7:82   */\n      swap1\n      jump\t// out\n        /* \"#utility.yul\":88:205   */\n    tag_49:\n        /* \"#utility.yul\":197:198   */\n      0x00\n        /* \"#utility.yul\":194:195   */\n      dup1\n        /* \"#utility.yul\":187:199   */\n      revert\n        /* \"#utility.yul\":211:328   */\n    tag_50:\n        /* \"#utility.yul\":320:321   */\n      0x00\n        /* \"#utility.yul\":317:318   */\n      dup1\n        /* \"#utility.yul\":310:322   */\n      revert\n        /* \"#utility.yul\":334:411   */\n    tag_51:\n        /* \"#utility.yul\":371:378   */\n      0x00\n        /* \"#utility.yul\":400:405   */\n      dup2\n        /* \"#utility.yul\":389:405   */\n      swap1\n      pop\n        /* \"#utility.yul\":334:411   */\n      swap2\n      swap1\n      pop\n      jump\t// out\n        /* \"#utility.yul\":417:539   */\n    tag_52:\n        /* \"#utility.yul\":490:514   */\n      tag_97\n        /* \"#utility.yul\":508:513   */\n      dup2\n        /* \"#utility.yul\":490:514   */\n      tag_51\n      jump\t// in\n    tag_97:\n        /* \"#utility.yul\":483:488   */\n      dup2\n        /* \"#utility.yul\":480:515   */\n      eq\n        /* \"#utility.yul\":470:533   */\n      tag_98\n      jumpi\n        /* \"#utility.yul\":529:530   */\n      0x00\n        /* \"#utility.yul\":526:527   */\n      dup1\n        /* \"#utility.yul\":519:531   */\n      revert\n        /* \"#utility.yul\":470:533   */\n    tag_98:\n        /* \"#utility.yul\":417:539   */\n      pop\n      jump\t// out\n        /* \"#utility.yul\":545:684   */\n    tag_53:\n        /* \"#utility.yul\":591:596   */\n      0x00\n        /* \"#utility.yul\":629:635   */\n      dup2\n        /* \"#utility.yul\":616:636   */\n      calldataload\n        /* \"#utility.yul\":607:636   */\n      swap1\n      pop\n        /* \"#utility.yul\":645:678   */\n      tag_100\n        /* \"#utility.yul\":672:677   */\n      dup2\n        /* \"#utility.yul\":645:678   */\n      tag_52\n      jump\t// in\n    tag_100:\n        /* \"#utility.yul\":545:684   */\n      swap3\n      swap2\n      pop\n      pop\n      jump\t// out\n        /* \"#utility.yul\":690:1019   */\n    tag_8:\n        /* \"#utility.yul\":749:755   */\n      0x00\n        /* \"#utility.yul\":798:800   */\n      0x20\n        /* \"#utility.yul\":786:795   */\n      dup3\n        /* \"#utility.yul\":777:784   */\n      dup5\n        /* \"#utility.yul\":773:796   */\n      sub\n        /* \"#utility.yul\":769:801   */\n      slt\n        /* \"#utility.yul\":766:885   */\n      iszero\n      tag_102\n      jumpi\n        /* \"#utility.yul\":804:883   */\n      tag_103\n      tag_49\n      jump\t// in\n    tag_103:\n        /* \"#utility.yul\":766:885   */\n    tag_102:\n        /* \"#utility.yul\":924:925   */\n      0x00\n        /* \"#utility.yul\":949:1002   */\n      tag_104\n        /* \"#utility.yul\":994:1001   */\n      dup5\n        /* \"#utility.yul\":985:991   */\n      dup3\n        /* \"#utility.yul\":974:983   */\n      dup6\n        /* \"#utility.yul\":970:992   */\n      add\n        /* \"#utility.yul\":949:1002   */\n      tag_53\n      jump\t// in\n    tag_104:\n        /* \"#utility.yul\":939:1002   */\n      swap2\n      pop\n        /* \"#utility.yul\":895:1012   */\n      pop\n        /* \"#utility.yul\":690:1019   */\n      swap3\n      swap2\n      pop\n      pop\n      jump\t// out\n        /* \"#utility.yul\":1025:1124   */\n    tag_54:\n        /* \"#utility.yul\":1077:1083   */\n      0x00\n        /* \"#utility.yul\":1111:1116   */\n      dup2\n        /* \"#utility.yul\":1105:1117   */\n      mload\n        /* \"#utility.yul\":1095:1117   */\n      swap1\n      pop\n        /* \"#utility.yul\":1025:1124   */\n      swap2\n      swap1\n      pop\n      jump\t// out\n        /* \"#utility.yul\":1130:1289   */\n    tag_55:\n        /* \"#utility.yul\":1204:1215   */\n      0x00\n        /* \"#utility.yul\":1238:1244   */\n      dup3\n        /* \"#utility.yul\":1233:1236   */\n      dup3\n        /* \"#utility.yul\":1226:1245   */\n      mstore\n        /* \"#utility.yul\":1278:1282   */\n      0x20\n        /* \"#utility.yul\":1273:1276   */\n      dup3\n        /* \"#utility.yul\":1269:1283   */\n      add\n        /* \"#utility.yul\":1254:1283   */\n      swap1\n      pop\n        /* \"#utility.yul\":1130:1289   */\n      swap3\n      swap2\n      pop\n      pop\n      jump\t// out\n        /* \"#utility.yul\":1295:1602   */\n    tag_56:\n        /* \"#utility.yul\":1363:1364   */\n      0x00\n        /* \"#utility.yul\":1373:1486   */\n    tag_108:\n        /* \"#utility.yul\":1387:1393   */\n      dup4\n        /* \"#utility.yul\":1384:1385   */\n      dup2\n        /* \"#utility.yul\":1381:1394   */\n      lt\n        /* \"#utility.yul\":1373:1486   */\n      iszero\n      tag_110\n      jumpi\n        /* \"#utility.yul\":1472:1473   */\n      dup1\n        /* \"#utility.yul\":1467:1470   */\n      dup3\n        /* \"#utility.yul\":1463:1474   */\n      add\n        /* \"#utility.yul\":1457:1475   */\n      mload\n        /* \"#utility.yul\":1453:1454   */\n      dup2\n        /* \"#utility.yul\":1448:1451   */\n      dup5\n        /* \"#utility.yul\":1444:1455   */\n      add\n        /* \"#utility.yul\":1437:1476   */\n      mstore\n        /* \"#utility.yul\":1409:1411   */\n      0x20\n        /* \"#utility.yul\":1406:1407   */\n      dup2\n        /* \"#utility.yul\":1402:1412   */\n      add\n        /* \"#utility.yul\":1397:1412   */\n      swap1\n      pop\n        /* \"#utility.yul\":1373:1486   */\n      jump(tag_108)\n    tag_110:\n        /* \"#utility.yul\":1504:1510   */\n      dup4\n        /* \"#utility.yul\":1501:1502   */\n      dup2\n        /* \"#utility.yul\":1498:1511   */\n      gt\n        /* \"#utility.yul\":1495:1596   */\n      iszero\n      tag_111\n      jumpi\n        /* \"#utility.yul\":1584:1585   */\n      0x00\n        /* \"#utility.yul\":1575:1581   */\n      dup5\n        /* \"#utility.yul\":1570:1573   */\n      dup5\n        /* \"#utility.yul\":1566:1582   */\n      add\n        /* \"#utility.yul\":1559:1586   */\n      mstore\n        /* \"#utility.yul\":1495:1596   */\n    tag_111:\n        /* \"#utility.yul\":1344:1602   */\n      pop\n        /* \"#utility.yul\":1295:1602   */\n      pop\n      pop\n      pop\n      jump\t// out\n        /* \"#utility.yul\":1608:1710   */\n    tag_57:\n        /* \"#utility.yul\":1649:1655   */\n      0x00\n        /* \"#utility.yul\":1700:1702   */\n      0x1f\n        /* \"#utility.yul\":1696:1703   */\n      not\n        /* \"#utility.yul\":1691:1693   */\n      0x1f\n        /* \"#utility.yul\":1684:1689   */\n      dup4\n        /* \"#utility.yul\":1680:1694   */\n      add\n        /* \"#utility.yul\":1676:1704   */\n      and\n        /* \"#utility.yul\":1666:1704   */\n      swap1\n      pop\n        /* \"#utility.yul\":1608:1710   */\n      swap2\n      swap1\n      pop\n      jump\t// out\n        /* \"#utility.yul\":1716:2060   */\n    tag_58:\n        /* \"#utility.yul\":1794:1797   */\n      0x00\n        /* \"#utility.yul\":1822:1861   */\n      tag_114\n        /* \"#utility.yul\":1855:1860   */\n      dup3\n        /* \"#utility.yul\":1822:1861   */\n      tag_54\n      jump\t// in\n    tag_114:\n        /* \"#utility.yul\":1877:1938   */\n      tag_115\n        /* \"#utility.yul\":1931:1937   */\n      dup2\n        /* \"#utility.yul\":1926:1929   */\n      dup6\n        /* \"#utility.yul\":1877:1938   */\n      tag_55\n      jump\t// in\n    tag_115:\n        /* \"#utility.yul\":1870:1938   */\n      swap4\n      pop\n        /* \"#utility.yul\":1947:1999   */\n      tag_116\n        /* \"#utility.yul\":1992:1998   */\n      dup2\n        /* \"#utility.yul\":1987:1990   */\n      dup6\n        /* \"#utility.yul\":1980:1984   */\n      0x20\n        /* \"#utility.yul\":1973:1978   */\n      dup7\n        /* \"#utility.yul\":1969:1985   */\n      add\n        /* \"#utility.yul\":1947:1999   */\n      tag_56\n      jump\t// in\n    tag_116:\n        /* \"#utility.yul\":2024:2053   */\n      tag_117\n        /* \"#utility.yul\":2046:2052   */\n      dup2\n        /* \"#utility.yul\":2024:2053   */\n      tag_57\n      jump\t// in\n    tag_117:\n        /* \"#utility.yul\":2019:2022   */\n      dup5\n        /* \"#utility.yul\":2015:2054   */\n      add\n        /* \"#utility.yul\":2008:2054   */\n      swap2\n      pop\n        /* \"#utility.yul\":1798:2060   */\n      pop\n        /* \"#utility.yul\":1716:2060   */\n      swap3\n      swap2\n      pop\n      pop\n      jump\t// out\n        /* \"#utility.yul\":2066:2156   */\n    tag_59:\n        /* \"#utility.yul\":2100:2107   */\n      0x00\n        /* \"#utility.yul\":2143:2148   */\n      dup2\n        /* \"#utility.yul\":2136:2149   */\n      iszero\n        /* \"#utility.yul\":2129:2150   */\n      iszero\n        /* \"#utility.yul\":2118:2150   */\n      swap1\n      pop\n        /* \"#utility.yul\":2066:2156   */\n      swap2\n      swap1\n      pop\n      jump\t// out\n        /* \"#utility.yul\":2162:2261   */\n    tag_60:\n        /* \"#utility.yul\":2233:2254   */\n      tag_120\n        /* \"#utility.yul\":2248:2253   */\n      dup2\n        /* \"#utility.yul\":2233:2254   */\n      tag_59\n      jump\t// in\n    tag_120:\n        /* \"#utility.yul\":2228:2231   */\n      dup3\n        /* \"#utility.yul\":2221:2255   */\n      mstore\n        /* \"#utility.yul\":2162:2261   */\n      pop\n      pop\n      jump\t// out\n        /* \"#utility.yul\":2311:2901   */\n    tag_61:\n        /* \"#utility.yul\":2418:2421   */\n      0x00\n        /* \"#utility.yul\":2454:2458   */\n      0x40\n        /* \"#utility.yul\":2449:2452   */\n      dup4\n        /* \"#utility.yul\":2445:2459   */\n      add\n        /* \"#utility.yul\":2541:2545   */\n      0x00\n        /* \"#utility.yul\":2534:2539   */\n      dup4\n        /* \"#utility.yul\":2530:2546   */\n      add\n        /* \"#utility.yul\":2524:2547   */\n      mload\n        /* \"#utility.yul\":2594:2597   */\n      dup5\n        /* \"#utility.yul\":2588:2592   */\n      dup3\n        /* \"#utility.yul\":2584:2598   */\n      sub\n        /* \"#utility.yul\":2577:2581   */\n      0x00\n        /* \"#utility.yul\":2572:2575   */\n      dup7\n        /* \"#utility.yul\":2568:2582   */\n      add\n        /* \"#utility.yul\":2561:2599   */\n      mstore\n        /* \"#utility.yul\":2620:2693   */\n      tag_122\n        /* \"#utility.yul\":2688:2692   */\n      dup3\n        /* \"#utility.yul\":2674:2686   */\n      dup3\n        /* \"#utility.yul\":2620:2693   */\n      tag_58\n      jump\t// in\n    tag_122:\n        /* \"#utility.yul\":2612:2693   */\n      swap2\n      pop\n        /* \"#utility.yul\":2469:2704   */\n      pop\n        /* \"#utility.yul\":2788:2792   */\n      0x20\n        /* \"#utility.yul\":2781:2786   */\n      dup4\n        /* \"#utility.yul\":2777:2793   */\n      add\n        /* \"#utility.yul\":2771:2794   */\n      mload\n        /* \"#utility.yul\":2807:2864   */\n      tag_123\n        /* \"#utility.yul\":2858:2862   */\n      0x20\n        /* \"#utility.yul\":2853:2856   */\n      dup7\n        /* \"#utility.yul\":2849:2863   */\n      add\n        /* \"#utility.yul\":2835:2847   */\n      dup3\n        /* \"#utility.yul\":2807:2864   */\n      tag_60\n      jump\t// in\n    tag_123:\n        /* \"#utility.yul\":2714:2874   */\n      pop\n        /* \"#utility.yul\":2891:2895   */\n      dup1\n        /* \"#utility.yul\":2884:2895   */\n      swap2\n      pop\n        /* \"#utility.yul\":2423:2901   */\n      pop\n        /* \"#utility.yul\":2311:2901   */\n      swap3\n      swap2\n      pop\n      pop\n      jump\t// out\n        /* \"#utility.yul\":2907:3256   */\n    tag_11:\n        /* \"#utility.yul\":3038:3042   */\n      0x00\n        /* \"#utility.yul\":3076:3078   */\n      0x20\n        /* \"#utility.yul\":3065:3074   */\n      dup3\n        /* \"#utility.yul\":3061:3079   */\n      add\n        /* \"#utility.yul\":3053:3079   */\n      swap1\n      pop\n        /* \"#utility.yul\":3125:3134   */\n      dup2\n        /* \"#utility.yul\":3119:3123   */\n      dup2\n        /* \"#utility.yul\":3115:3135   */\n      sub\n        /* \"#utility.yul\":3111:3112   */\n      0x00\n        /* \"#utility.yul\":3100:3109   */\n      dup4\n        /* \"#utility.yul\":3096:3113   */\n      add\n        /* \"#utility.yul\":3089:3136   */\n      mstore\n        /* \"#utility.yul\":3153:3249   */\n      tag_125\n        /* \"#utility.yul\":3244:3248   */\n      dup2\n        /* \"#utility.yul\":3235:3241   */\n      dup5\n        /* \"#utility.yul\":3153:3249   */\n      tag_61\n      jump\t// in\n    tag_125:\n        /* \"#utility.yul\":3145:3249   */\n      swap1\n      pop\n        /* \"#utility.yul\":2907:3256   */\n      swap3\n      swap2\n      pop\n      pop\n      jump\t// out\n        /* \"#utility.yul\":3262:3378   */\n    tag_62:\n        /* \"#utility.yul\":3332:3353   */\n      tag_127\n        /* \"#utility.yul\":3347:3352   */\n      dup2\n        /* \"#utility.yul\":3332:3353   */\n      tag_59\n      jump\t// in\n    tag_127:\n        /* \"#utility.yul\":3325:3330   */\n      dup2\n        /* \"#utility.yul\":3322:3354   */\n      eq\n        /* \"#utility.yul\":3312:3372   */\n      tag_128\n      jumpi\n        /* \"#utility.yul\":3368:3369   */\n      0x00\n        /* \"#utility.yul\":3365:3366   */\n      dup1\n        /* \"#utility.yul\":3358:3370   */\n      revert\n        /* \"#utility.yul\":3312:3372   */\n    tag_128:\n        /* \"#utility.yul\":3262:3378   */\n      pop\n      jump\t// out\n        /* \"#utility.yul\":3384:3517   */\n    tag_63:\n        /* \"#utility.yul\":3427:3432   */\n      0x00\n        /* \"#utility.yul\":3465:3471   */\n      dup2\n        /* \"#utility.yul\":3452:3472   */\n      calldataload\n        /* \"#utility.yul\":3443:3472   */\n      swap1\n      pop\n        /* \"#utility.yul\":3481:3511   */\n      tag_130\n        /* \"#utility.yul\":3505:3510   */\n      dup2\n        /* \"#utility.yul\":3481:3511   */\n      tag_62\n      jump\t// in\n    tag_130:\n        /* \"#utility.yul\":3384:3517   */\n      swap3\n      swap2\n      pop\n      pop\n      jump\t// out\n        /* \"#utility.yul\":3523:3991   */\n    tag_14:\n        /* \"#utility.yul\":3588:3594   */\n      0x00\n        /* \"#utility.yul\":3596:3602   */\n      dup1\n        /* \"#utility.yul\":3645:3647   */\n      0x40\n        /* \"#utility.yul\":3633:3642   */\n      dup4\n        /* \"#utility.yul\":3624:3631   */\n      dup6\n        /* \"#utility.yul\":3620:3643   */\n      sub\n        /* \"#utility.yul\":3616:3648   */\n      slt\n        /* \"#utility.yul\":3613:3732   */\n      iszero\n      tag_132\n      jumpi\n        /* \"#utility.yul\":3651:3730   */\n      tag_133\n      tag_49\n      jump\t// in\n    tag_133:\n        /* \"#utility.yul\":3613:3732   */\n    tag_132:\n        /* \"#utility.yul\":3771:3772   */\n      0x00\n        /* \"#utility.yul\":3796:3849   */\n      tag_134\n        /* \"#utility.yul\":3841:3848   */\n      dup6\n        /* \"#utility.yul\":3832:3838   */\n      dup3\n        /* \"#utility.yul\":3821:3830   */\n      dup7\n        /* \"#utility.yul\":3817:3839   */\n      add\n        /* \"#utility.yul\":3796:3849   */\n      tag_53\n      jump\t// in\n    tag_134:\n        /* \"#utility.yul\":3786:3849   */\n      swap3\n      pop\n        /* \"#utility.yul\":3742:3859   */\n      pop\n        /* \"#utility.yul\":3898:3900   */\n      0x20\n        /* \"#utility.yul\":3924:3974   */\n      tag_135\n        /* \"#utility.yul\":3966:3973   */\n      dup6\n        /* \"#utility.yul\":3957:3963   */\n      dup3\n        /* \"#utility.yul\":3946:3955   */\n      dup7\n        /* \"#utility.yul\":3942:3964   */\n      add\n        /* \"#utility.yul\":3924:3974   */\n      tag_63\n      jump\t// in\n    tag_135:\n        /* \"#utility.yul\":3914:3974   */\n      swap2\n      pop\n        /* \"#utility.yul\":3869:3984   */\n      pop\n        /* \"#utility.yul\":3523:3991   */\n      swap3\n      pop\n      swap3\n      swap1\n      pop\n      jump\t// out\n        /* \"#utility.yul\":3997:4166   */\n    tag_64:\n        /* \"#utility.yul\":4081:4092   */\n      0x00\n        /* \"#utility.yul\":4115:4121   */\n      dup3\n        /* \"#utility.yul\":4110:4113   */\n      dup3\n        /* \"#utility.yul\":4103:4122   */\n      mstore\n        /* \"#utility.yul\":4155:4159   */\n      0x20\n        /* \"#utility.yul\":4150:4153   */\n      dup3\n        /* \"#utility.yul\":4146:4160   */\n      add\n        /* \"#utility.yul\":4131:4160   */\n      swap1\n      pop\n        /* \"#utility.yul\":3997:4166   */\n      swap3\n      swap2\n      pop\n      pop\n      jump\t// out\n        /* \"#utility.yul\":4172:4536   */\n    tag_65:\n        /* \"#utility.yul\":4260:4263   */\n      0x00\n        /* \"#utility.yul\":4288:4327   */\n      tag_138\n        /* \"#utility.yul\":4321:4326   */\n      dup3\n        /* \"#utility.yul\":4288:4327   */\n      tag_54\n      jump\t// in\n    tag_138:\n        /* \"#utility.yul\":4343:4414   */\n      tag_139\n        /* \"#utility.yul\":4407:4413   */\n      dup2\n        /* \"#utility.yul\":4402:4405   */\n      dup6\n        /* \"#utility.yul\":4343:4414   */\n      tag_64\n      jump\t// in\n    tag_139:\n        /* \"#utility.yul\":4336:4414   */\n      swap4\n      pop\n        /* \"#utility.yul\":4423:4475   */\n      tag_140\n        /* \"#utility.yul\":4468:4474   */\n      dup2\n        /* \"#utility.yul\":4463:4466   */\n      dup6\n        /* \"#utility.yul\":4456:4460   */\n      0x20\n        /* \"#utility.yul\":4449:4454   */\n      dup7\n        /* \"#utility.yul\":4445:4461   */\n      add\n        /* \"#utility.yul\":4423:4475   */\n      tag_56\n      jump\t// in\n    tag_140:\n        /* \"#utility.yul\":4500:4529   */\n      tag_141\n        /* \"#utility.yul\":4522:4528   */\n      dup2\n        /* \"#utility.yul\":4500:4529   */\n      tag_57\n      jump\t// in\n    tag_141:\n        /* \"#utility.yul\":4495:4498   */\n      dup5\n        /* \"#utility.yul\":4491:4530   */\n      add\n        /* \"#utility.yul\":4484:4530   */\n      swap2\n      pop\n        /* \"#utility.yul\":4264:4536   */\n      pop\n        /* \"#utility.yul\":4172:4536   */\n      swap3\n      swap2\n      pop\n      pop\n      jump\t// out\n        /* \"#utility.yul\":4542:4855   */\n    tag_17:\n        /* \"#utility.yul\":4655:4659   */\n      0x00\n        /* \"#utility.yul\":4693:4695   */\n      0x20\n        /* \"#utility.yul\":4682:4691   */\n      dup3\n        /* \"#utility.yul\":4678:4696   */\n      add\n        /* \"#utility.yul\":4670:4696   */\n      swap1\n      pop\n        /* \"#utility.yul\":4742:4751   */\n      dup2\n        /* \"#utility.yul\":4736:4740   */\n      dup2\n        /* \"#utility.yul\":4732:4752   */\n      sub\n        /* \"#utility.yul\":4728:4729   */\n      0x00\n        /* \"#utility.yul\":4717:4726   */\n      dup4\n        /* \"#utility.yul\":4713:4730   */\n      add\n        /* \"#utility.yul\":4706:4753   */\n      mstore\n        /* \"#utility.yul\":4770:4848   */\n      tag_143\n        /* \"#utility.yul\":4843:4847   */\n      dup2\n        /* \"#utility.yul\":4834:4840   */\n      dup5\n        /* \"#utility.yul\":4770:4848   */\n      tag_65\n      jump\t// in\n    tag_143:\n        /* \"#utility.yul\":4762:4848   */\n      swap1\n      pop\n        /* \"#utility.yul\":4542:4855   */\n      swap3\n      swap2\n      pop\n      pop\n      jump\t// out\n        /* \"#utility.yul\":4861:4978   */\n    tag_66:\n        /* \"#utility.yul\":4970:4971   */\n      0x00\n        /* \"#utility.yul\":4967:4968   */\n      dup1\n        /* \"#utility.yul\":4960:4972   */\n      revert\n        /* \"#utility.yul\":4984:5101   */\n    tag_67:\n        /* \"#utility.yul\":5093:5094   */\n      0x00\n        /* \"#utility.yul\":5090:5091   */\n      dup1\n        /* \"#utility.yul\":5083:5095   */\n      revert\n        /* \"#utility.yul\":5107:5287   */\n    tag_68:\n        /* \"#utility.yul\":5155:5232   */\n      0x4e487b7100000000000000000000000000000000000000000000000000000000\n        /* \"#utility.yul\":5152:5153   */\n      0x00\n        /* \"#utility.yul\":5145:5233   */\n      mstore\n        /* \"#utility.yul\":5252:5256   */\n      0x41\n        /* \"#utility.yul\":5249:5250   */\n      0x04\n        /* \"#utility.yul\":5242:5257   */\n      mstore\n        /* \"#utility.yul\":5276:5280   */\n      0x24\n        /* \"#utility.yul\":5273:5274   */\n      0x00\n        /* \"#utility.yul\":5266:5281   */\n      revert\n        /* \"#utility.yul\":5293:5574   */\n    tag_69:\n        /* \"#utility.yul\":5376:5403   */\n      tag_148\n        /* \"#utility.yul\":5398:5402   */\n      dup3\n        /* \"#utility.yul\":5376:5403   */\n      tag_57\n      jump\t// in\n    tag_148:\n        /* \"#utility.yul\":5368:5374   */\n      dup2\n        /* \"#utility.yul\":5364:5404   */\n      add\n        /* \"#utility.yul\":5506:5512   */\n      dup2\n        /* \"#utility.yul\":5494:5504   */\n      dup2\n        /* \"#utility.yul\":5491:5513   */\n      lt\n        /* \"#utility.yul\":5470:5488   */\n      0xffffffffffffffff\n        /* \"#utility.yul\":5458:5468   */\n      dup3\n        /* \"#utility.yul\":5455:5489   */\n      gt\n        /* \"#utility.yul\":5452:5514   */\n      or\n        /* \"#utility.yul\":5449:5537   */\n      iszero\n      tag_149\n      jumpi\n        /* \"#utility.yul\":5517:5535   */\n      tag_150\n      tag_68\n      jump\t// in\n    tag_150:\n        /* \"#utility.yul\":5449:5537   */\n    tag_149:\n        /* \"#utility.yul\":5557:5567   */\n      dup1\n        /* \"#utility.yul\":5553:5555   */\n      0x40\n        /* \"#utility.yul\":5546:5568   */\n      mstore\n        /* \"#utility.yul\":5336:5574   */\n      pop\n        /* \"#utility.yul\":5293:5574   */\n      pop\n      pop\n      jump\t// out\n        /* \"#utility.yul\":5580:5709   */\n    tag_70:\n        /* \"#utility.yul\":5614:5620   */\n      0x00\n        /* \"#utility.yul\":5641:5661   */\n      tag_152\n      tag_48\n      jump\t// in\n    tag_152:\n        /* \"#utility.yul\":5631:5661   */\n      swap1\n      pop\n        /* \"#utility.yul\":5670:5703   */\n      tag_153\n        /* \"#utility.yul\":5698:5702   */\n      dup3\n        /* \"#utility.yul\":5690:5696   */\n      dup3\n        /* \"#utility.yul\":5670:5703   */\n      tag_69\n      jump\t// in\n    tag_153:\n        /* \"#utility.yul\":5580:5709   */\n      swap2\n      swap1\n      pop\n      jump\t// out\n        /* \"#utility.yul\":5715:6023   */\n    tag_71:\n        /* \"#utility.yul\":5777:5781   */\n      0x00\n        /* \"#utility.yul\":5867:5885   */\n      0xffffffffffffffff\n        /* \"#utility.yul\":5859:5865   */\n      dup3\n        /* \"#utility.yul\":5856:5886   */\n      gt\n        /* \"#utility.yul\":5853:5909   */\n      iszero\n      tag_155\n      jumpi\n        /* \"#utility.yul\":5889:5907   */\n      tag_156\n      tag_68\n      jump\t// in\n    tag_156:\n        /* \"#utility.yul\":5853:5909   */\n    tag_155:\n        /* \"#utility.yul\":5927:5956   */\n      tag_157\n        /* \"#utility.yul\":5949:5955   */\n      dup3\n        /* \"#utility.yul\":5927:5956   */\n      tag_57\n      jump\t// in\n    tag_157:\n        /* \"#utility.yul\":5919:5956   */\n      swap1\n      pop\n        /* \"#utility.yul\":6011:6015   */\n      0x20\n        /* \"#utility.yul\":6005:6009   */\n      dup2\n        /* \"#utility.yul\":6001:6016   */\n      add\n        /* \"#utility.yul\":5993:6016   */\n      swap1\n      pop\n        /* \"#utility.yul\":5715:6023   */\n      swap2\n      swap1\n      pop\n      jump\t// out\n        /* \"#utility.yul\":6029:6183   */\n    tag_72:\n        /* \"#utility.yul\":6113:6119   */\n      dup3\n        /* \"#utility.yul\":6108:6111   */\n      dup2\n        /* \"#utility.yul\":6103:6106   */\n      dup4\n        /* \"#utility.yul\":6090:6120   */\n      calldatacopy\n        /* \"#utility.yul\":6175:6176   */\n      0x00\n        /* \"#utility.yul\":6166:6172   */\n      dup4\n        /* \"#utility.yul\":6161:6164   */\n      dup4\n        /* \"#utility.yul\":6157:6173   */\n      add\n        /* \"#utility.yul\":6150:6177   */\n      mstore\n        /* \"#utility.yul\":6029:6183   */\n      pop\n      pop\n      pop\n      jump\t// out\n        /* \"#utility.yul\":6189:6601   */\n    tag_73:\n        /* \"#utility.yul\":6267:6272   */\n      0x00\n        /* \"#utility.yul\":6292:6358   */\n      tag_160\n        /* \"#utility.yul\":6308:6357   */\n      tag_161\n        /* \"#utility.yul\":6350:6356   */\n      dup5\n        /* \"#utility.yul\":6308:6357   */\n      tag_71\n      jump\t// in\n    tag_161:\n        /* \"#utility.yul\":6292:6358   */\n      tag_70\n      jump\t// in\n    tag_160:\n        /* \"#utility.yul\":6283:6358   */\n      swap1\n      pop\n        /* \"#utility.yul\":6381:6387   */\n      dup3\n        /* \"#utility.yul\":6374:6379   */\n      dup2\n        /* \"#utility.yul\":6367:6388   */\n      mstore\n        /* \"#utility.yul\":6419:6423   */\n      0x20\n        /* \"#utility.yul\":6412:6417   */\n      dup2\n        /* \"#utility.yul\":6408:6424   */\n      add\n        /* \"#utility.yul\":6457:6460   */\n      dup5\n        /* \"#utility.yul\":6448:6454   */\n      dup5\n        /* \"#utility.yul\":6443:6446   */\n      dup5\n        /* \"#utility.yul\":6439:6455   */\n      add\n        /* \"#utility.yul\":6436:6461   */\n      gt\n        /* \"#utility.yul\":6433:6545   */\n      iszero\n      tag_162\n      jumpi\n        /* \"#utility.yul\":6464:6543   */\n      tag_163\n      tag_67\n      jump\t// in\n    tag_163:\n        /* \"#utility.yul\":6433:6545   */\n    tag_162:\n        /* \"#utility.yul\":6554:6595   */\n      tag_164\n        /* \"#utility.yul\":6588:6594   */\n      dup5\n        /* \"#utility.yul\":6583:6586   */\n      dup3\n        /* \"#utility.yul\":6578:6581   */\n      dup6\n        /* \"#utility.yul\":6554:6595   */\n      tag_72\n      jump\t// in\n    tag_164:\n        /* \"#utility.yul\":6273:6601   */\n      pop\n        /* \"#utility.yul\":6189:6601   */\n      swap4\n      swap3\n      pop\n      pop\n      pop\n      jump\t// out\n        /* \"#utility.yul\":6621:6961   */\n    tag_74:\n        /* \"#utility.yul\":6677:6682   */\n      0x00\n        /* \"#utility.yul\":6726:6729   */\n      dup3\n        /* \"#utility.yul\":6719:6723   */\n      0x1f\n        /* \"#utility.yul\":6711:6717   */\n      dup4\n        /* \"#utility.yul\":6707:6724   */\n      add\n        /* \"#utility.yul\":6703:6730   */\n      slt\n        /* \"#utility.yul\":6693:6815   */\n      tag_166\n      jumpi\n        /* \"#utility.yul\":6734:6813   */\n      tag_167\n      tag_66\n      jump\t// in\n    tag_167:\n        /* \"#utility.yul\":6693:6815   */\n    tag_166:\n        /* \"#utility.yul\":6851:6857   */\n      dup2\n        /* \"#utility.yul\":6838:6858   */\n      calldataload\n        /* \"#utility.yul\":6876:6955   */\n      tag_168\n        /* \"#utility.yul\":6951:6954   */\n      dup5\n        /* \"#utility.yul\":6943:6949   */\n      dup3\n        /* \"#utility.yul\":6936:6940   */\n      0x20\n        /* \"#utility.yul\":6928:6934   */\n      dup7\n        /* \"#utility.yul\":6924:6941   */\n      add\n        /* \"#utility.yul\":6876:6955   */\n      tag_73\n      jump\t// in\n    tag_168:\n        /* \"#utility.yul\":6867:6955   */\n      swap2\n      pop\n        /* \"#utility.yul\":6683:6961   */\n      pop\n        /* \"#utility.yul\":6621:6961   */\n      swap3\n      swap2\n      pop\n      pop\n      jump\t// out\n        /* \"#utility.yul\":6967:7476   */\n    tag_20:\n        /* \"#utility.yul\":7036:7042   */\n      0x00\n        /* \"#utility.yul\":7085:7087   */\n      0x20\n        /* \"#utility.yul\":7073:7082   */\n      dup3\n        /* \"#utility.yul\":7064:7071   */\n      dup5\n        /* \"#utility.yul\":7060:7083   */\n      sub\n        /* \"#utility.yul\":7056:7088   */\n      slt\n        /* \"#utility.yul\":7053:7172   */\n      iszero\n      tag_170\n      jumpi\n        /* \"#utility.yul\":7091:7170   */\n      tag_171\n      tag_49\n      jump\t// in\n    tag_171:\n        /* \"#utility.yul\":7053:7172   */\n    tag_170:\n        /* \"#utility.yul\":7239:7240   */\n      0x00\n        /* \"#utility.yul\":7228:7237   */\n      dup3\n        /* \"#utility.yul\":7224:7241   */\n      add\n        /* \"#utility.yul\":7211:7242   */\n      calldataload\n        /* \"#utility.yul\":7269:7287   */\n      0xffffffffffffffff\n        /* \"#utility.yul\":7261:7267   */\n      dup2\n        /* \"#utility.yul\":7258:7288   */\n      gt\n        /* \"#utility.yul\":7255:7372   */\n      iszero\n      tag_172\n      jumpi\n        /* \"#utility.yul\":7291:7370   */\n      tag_173\n      tag_50\n      jump\t// in\n    tag_173:\n        /* \"#utility.yul\":7255:7372   */\n    tag_172:\n        /* \"#utility.yul\":7396:7459   */\n      tag_174\n        /* \"#utility.yul\":7451:7458   */\n      dup5\n        /* \"#utility.yul\":7442:7448   */\n      dup3\n        /* \"#utility.yul\":7431:7440   */\n      dup6\n        /* \"#utility.yul\":7427:7449   */\n      add\n        /* \"#utility.yul\":7396:7459   */\n      tag_74\n      jump\t// in\n    tag_174:\n        /* \"#utility.yul\":7386:7459   */\n      swap2\n      pop\n        /* \"#utility.yul\":7182:7469   */\n      pop\n        /* \"#utility.yul\":6967:7476   */\n      swap3\n      swap2\n      pop\n      pop\n      jump\t// out\n        /* \"#utility.yul\":7482:7662   */\n    tag_27:\n        /* \"#utility.yul\":7530:7607   */\n      0x4e487b7100000000000000000000000000000000000000000000000000000000\n        /* \"#utility.yul\":7527:7528   */\n      0x00\n        /* \"#utility.yul\":7520:7608   */\n      mstore\n        /* \"#utility.yul\":7627:7631   */\n      0x32\n        /* \"#utility.yul\":7624:7625   */\n      0x04\n        /* \"#utility.yul\":7617:7632   */\n      mstore\n        /* \"#utility.yul\":7651:7655   */\n      0x24\n        /* \"#utility.yul\":7648:7649   */\n      0x00\n        /* \"#utility.yul\":7641:7656   */\n      revert\n        /* \"#utility.yul\":7668:7848   */\n    tag_75:\n        /* \"#utility.yul\":7716:7793   */\n      0x4e487b7100000000000000000000000000000000000000000000000000000000\n        /* \"#utility.yul\":7713:7714   */\n      0x00\n        /* \"#utility.yul\":7706:7794   */\n      mstore\n        /* \"#utility.yul\":7813:7817   */\n      0x22\n        /* \"#utility.yul\":7810:7811   */\n      0x04\n        /* \"#utility.yul\":7803:7818   */\n      mstore\n        /* \"#utility.yul\":7837:7841   */\n      0x24\n        /* \"#utility.yul\":7834:7835   */\n      0x00\n        /* \"#utility.yul\":7827:7842   */\n      revert\n        /* \"#utility.yul\":7854:8174   */\n    tag_30:\n        /* \"#utility.yul\":7898:7904   */\n      0x00\n        /* \"#utility.yul\":7935:7936   */\n      0x02\n        /* \"#utility.yul\":7929:7933   */\n      dup3\n        /* \"#utility.yul\":7925:7937   */\n      div\n        /* \"#utility.yul\":7915:7937   */\n      swap1\n      pop\n        /* \"#utility.yul\":7982:7983   */\n      0x01\n        /* \"#utility.yul\":7976:7980   */\n      dup3\n        /* \"#utility.yul\":7972:7984   */\n      and\n        /* \"#utility.yul\":8003:8021   */\n      dup1\n        /* \"#utility.yul\":7993:8074   */\n      tag_178\n      jumpi\n        /* \"#utility.yul\":8059:8063   */\n      0x7f\n        /* \"#utility.yul\":8051:8057   */\n      dup3\n        /* \"#utility.yul\":8047:8064   */\n      and\n        /* \"#utility.yul\":8037:8064   */\n      swap2\n      pop\n        /* \"#utility.yul\":7993:8074   */\n    tag_178:\n        /* \"#utility.yul\":8121:8123   */\n      0x20\n        /* \"#utility.yul\":8113:8119   */\n      dup3\n        /* \"#utility.yul\":8110:8124   */\n      lt\n        /* \"#utility.yul\":8090:8108   */\n      dup2\n        /* \"#utility.yul\":8087:8125   */\n      sub\n        /* \"#utility.yul\":8084:8168   */\n      tag_179\n      jumpi\n        /* \"#utility.yul\":8140:8158   */\n      tag_180\n      tag_75\n      jump\t// in\n    tag_180:\n        /* \"#utility.yul\":8084:8168   */\n    tag_179:\n        /* \"#utility.yul\":7905:8174   */\n      pop\n        /* \"#utility.yul\":7854:8174   */\n      swap2\n      swap1\n      pop\n      jump\t// out\n        /* \"#utility.yul\":8180:8321   */\n    tag_76:\n        /* \"#utility.yul\":8229:8233   */\n      0x00\n        /* \"#utility.yul\":8252:8255   */\n      dup2\n        /* \"#utility.yul\":8244:8255   */\n      swap1\n      pop\n        /* \"#utility.yul\":8275:8278   */\n      dup2\n        /* \"#utility.yul\":8272:8273   */\n      0x00\n        /* \"#utility.yul\":8265:8279   */\n      mstore\n        /* \"#utility.yul\":8309:8313   */\n      0x20\n        /* \"#utility.yul\":8306:8307   */\n      0x00\n        /* \"#utility.yul\":8296:8314   */\n      keccak256\n        /* \"#utility.yul\":8288:8314   */\n      swap1\n      pop\n        /* \"#utility.yul\":8180:8321   */\n      swap2\n      swap1\n      pop\n      jump\t// out\n        /* \"#utility.yul\":8327:8420   */\n    tag_77:\n        /* \"#utility.yul\":8364:8370   */\n      0x00\n        /* \"#utility.yul\":8411:8413   */\n      0x20\n        /* \"#utility.yul\":8406:8408   */\n      0x1f\n        /* \"#utility.yul\":8399:8404   */\n      dup4\n        /* \"#utility.yul\":8395:8409   */\n      add\n        /* \"#utility.yul\":8391:8414   */\n      div\n        /* \"#utility.yul\":8381:8414   */\n      swap1\n      pop\n        /* \"#utility.yul\":8327:8420   */\n      swap2\n      swap1\n      pop\n      jump\t// out\n        /* \"#utility.yul\":8426:8533   */\n    tag_78:\n        /* \"#utility.yul\":8470:8478   */\n      0x00\n        /* \"#utility.yul\":8520:8525   */\n      dup3\n        /* \"#utility.yul\":8514:8518   */\n      dup3\n        /* \"#utility.yul\":8510:8526   */\n      shl\n        /* \"#utility.yul\":8489:8526   */\n      swap1\n      pop\n        /* \"#utility.yul\":8426:8533   */\n      swap3\n      swap2\n      pop\n      pop\n      jump\t// out\n        /* \"#utility.yul\":8539:8932   */\n    tag_79:\n        /* \"#utility.yul\":8608:8614   */\n      0x00\n        /* \"#utility.yul\":8658:8659   */\n      0x08\n        /* \"#utility.yul\":8646:8656   */\n      dup4\n        /* \"#utility.yul\":8642:8660   */\n      mul\n        /* \"#utility.yul\":8681:8778   */\n      tag_185\n        /* \"#utility.yul\":8711:8777   */\n      0xffffffffffffffffffffffffffffffffffffffffffffffffffffffffffffffff\n        /* \"#utility.yul\":8700:8709   */\n      dup3\n        /* \"#utility.yul\":8681:8778   */\n      tag_78\n      jump\t// in\n    tag_185:\n        /* \"#utility.yul\":8799:8838   */\n      tag_186\n        /* \"#utility.yul\":8829:8837   */\n      dup7\n        /* \"#utility.yul\":8818:8827   */\n      dup4\n        /* \"#utility.yul\":8799:8838   */\n      tag_78\n      jump\t// in\n    tag_186:\n        /* \"#utility.yul\":8787:8838   */\n      swap6\n      pop\n        /* \"#utility.yul\":8871:8875   */\n      dup1\n        /* \"#utility.yul\":8867:8876   */\n      not\n        /* \"#utility.yul\":8860:8865   */\n      dup5\n        /* \"#utility.yul\":8856:8877   */\n      and\n        /* \"#utility.yul\":8847:8877   */\n      swap4\n      pop\n        /* \"#utility.yul\":8920:8924   */\n      dup1\n        /* \"#utility.yul\":8910:8918   */\n      dup7\n        /* \"#utility.yul\":8906:8925   */\n      and\n        /* \"#utility.yul\":8899:8904   */\n      dup5\n        /* \"#utility.yul\":8896:8926   */\n      or\n        /* \"#utility.yul\":8886:8926   */\n      swap3\n      pop\n        /* \"#utility.yul\":8615:8932   */\n      pop\n      pop\n        /* \"#utility.yul\":8539:8932   */\n      swap4\n      swap3\n      pop\n      pop\n      pop\n      jump\t// out\n        /* \"#utility.yul\":8938:8998   */\n    tag_80:\n        /* \"#utility.yul\":8966:8969   */\n      0x00\n        /* \"#utility.yul\":8987:8992   */\n      dup2\n        /* \"#utility.yul\":8980:8992   */\n      swap1\n      pop\n        /* \"#utility.yul\":8938:8998   */\n      swap2\n      swap1\n      pop\n      jump\t// out\n        /* \"#utility.yul\":9004:9146   */\n    tag_81:\n        /* \"#utility.yul\":9054:9063   */\n      0x00\n        /* \"#utility.yul\":9087:9140   */\n      tag_189\n        /* \"#utility.yul\":9105:9139   */\n      tag_190\n        /* \"#utility.yul\":9114:9138   */\n      tag_191\n        /* \"#utility.yul\":9132:9137   */\n      dup5\n        /* \"#utility.yul\":9114:9138   */\n      tag_51\n      jump\t// in\n    tag_191:\n        /* \"#utility.yul\":9105:9139   */\n      tag_80\n      jump\t// in\n    tag_190:\n        /* \"#utility.yul\":9087:9140   */\n      tag_51\n      jump\t// in\n    tag_189:\n        /* \"#utility.yul\":9074:9140   */\n      swap1\n      pop\n        /* \"#utility.yul\":9004:9146   */\n      swap2\n      swap1\n      pop\n      jump\t// out\n        /* \"#utility.yul\":9152:9227   */\n    tag_82:\n        /* \"#utility.yul\":9195:9198   */\n      0x00\n        /* \"#utility.yul\":9216:9221   */\n      dup2\n        /* \"#utility.yul\":9209:9221   */\n      swap1\n      pop\n        /* \"#utility.yul\":9152:9227   */\n      swap2\n      swap1\n      pop\n      jump\t// out\n        /* \"#utility.yul\":9233:9502   */\n    tag_83:\n        /* \"#utility.yul\":9343:9382   */\n      tag_194\n        /* \"#utility.yul\":9374:9381   */\n      dup4\n        /* \"#utility.yul\":9343:9382   */\n      tag_81\n      jump\t// in\n    tag_194:\n        /* \"#utility.yul\":9404:9495   */\n      tag_195\n        /* \"#utility.yul\":9453:9494   */\n      tag_196\n        /* \"#utility.yul\":9477:9493   */\n      dup3\n        /* \"#utility.yul\":9453:9494   */\n      tag_82\n      jump\t// in\n    tag_196:\n        /* \"#utility.yul\":9445:9451   */\n      dup5\n        /* \"#utility.yul\":9438:9442   */\n      dup5\n        /* \"#utility.yul\":9432:9443   */\n      sload\n        /* \"#utility.yul\":9404:9495   */\n      tag_79\n      jump\t// in\n    tag_195:\n        /* \"#utility.yul\":9398:9402   */\n      dup3\n        /* \"#utility.yul\":9391:9496   */\n      sstore\n        /* \"#utility.yul\":9309:9502   */\n      pop\n        /* \"#utility.yul\":9233:9502   */\n      pop\n      pop\n      pop\n      jump\t// out\n        /* \"#utility.yul\":9508:9581   */\n    tag_84:\n        /* \"#utility.yul\":9553:9556   */\n      0x00\n        /* \"#utility.yul\":9508:9581   */\n      swap1\n      jump\t// out\n        /* \"#utility.yul\":9587:9776   */\n    tag_85:\n        /* \"#utility.yul\":9664:9696   */\n      tag_199\n      tag_84\n      jump\t// in\n    tag_199:\n        /* \"#utility.yul\":9705:9770   */\n      tag_200\n        /* \"#utility.yul\":9763:9769   */\n      dup2\n        /* \"#utility.yul\":9755:9761   */\n      dup5\n        /* \"#utility.yul\":9749:9753   */\n      dup5\n        /* \"#utility.yul\":9705:9770   */\n      tag_83\n      jump\t// in\n    tag_200:\n        /* \"#utility.yul\":9640:9776   */\n      pop\n        /* \"#utility.yul\":9587:9776   */\n      pop\n      pop\n      jump\t// out\n        /* \"#utility.yul\":9782:9968   */\n    tag_86:\n        /* \"#utility.yul\":9842:9962   */\n    tag_202:\n        /* \"#utility.yul\":9859:9862   */\n      dup2\n        /* \"#utility.yul\":9852:9857   */\n      dup2\n        /* \"#utility.yul\":9849:9863   */\n      lt\n        /* \"#utility.yul\":9842:9962   */\n      iszero\n      tag_204\n      jumpi\n        /* \"#utility.yul\":9913:9952   */\n      tag_205\n        /* \"#utility.yul\":9950:9951   */\n      0x00\n        /* \"#utility.yul\":9943:9948   */\n      dup3\n        /* \"#utility.yul\":9913:9952   */\n      tag_85\n      jump\t// in\n    tag_205:\n        /* \"#utility.yul\":9886:9887   */\n      0x01\n        /* \"#utility.yul\":9879:9884   */\n      dup2\n        /* \"#utility.yul\":9875:9888   */\n      add\n        /* \"#utility.yul\":9866:9888   */\n      swap1\n      pop\n        /* \"#utility.yul\":9842:9962   */\n      jump(tag_202)\n    tag_204:\n        /* \"#utility.yul\":9782:9968   */\n      pop\n      pop\n      jump\t// out\n        /* \"#utility.yul\":9974:10517   */\n    tag_87:\n        /* \"#utility.yul\":10075:10077   */\n      0x1f\n        /* \"#utility.yul\":10070:10073   */\n      dup3\n        /* \"#utility.yul\":10067:10078   */\n      gt\n        /* \"#utility.yul\":10064:10510   */\n      iszero\n      tag_207\n      jumpi\n        /* \"#utility.yul\":10109:10147   */\n      tag_208\n        /* \"#utility.yul\":10141:10146   */\n      dup2\n        /* \"#utility.yul\":10109:10147   */\n      tag_76\n      jump\t// in\n    tag_208:\n        /* \"#utility.yul\":10193:10222   */\n      tag_209\n        /* \"#utility.yul\":10211:10221   */\n      dup5\n        /* \"#utility.yul\":10193:10222   */\n      tag_77\n      jump\t// in\n    tag_209:\n        /* \"#utility.yul\":10183:10191   */\n      dup2\n        /* \"#utility.yul\":10179:10223   */\n      add\n        /* \"#utility.yul\":10376:10378   */\n      0x20\n        /* \"#utility.yul\":10364:10374   */\n      dup6\n        /* \"#utility.yul\":10361:10379   */\n      lt\n        /* \"#utility.yul\":10358:10407   */\n      iszero\n      tag_210\n      jumpi\n        /* \"#utility.yul\":10397:10405   */\n      dup2\n        /* \"#utility.yul\":10382:10405   */\n      swap1\n      pop\n        /* \"#utility.yul\":10358:10407   */\n    tag_210:\n        /* \"#utility.yul\":10420:10500   */\n      tag_211\n        /* \"#utility.yul\":10476:10498   */\n      tag_212\n        /* \"#utility.yul\":10494:10497   */\n      dup6\n        /* \"#utility.yul\":10476:10498   */\n      tag_77\n      jump\t// in\n    tag_212:\n        /* \"#utility.yul\":10466:10474   */\n      dup4\n        /* \"#utility.yul\":10462:10499   */\n      add\n        /* \"#utility.yul\":10449:10460   */\n      dup3\n        /* \"#utility.yul\":10420:10500   */\n      tag_86\n      jump\t// in\n    tag_211:\n        /* \"#utility.yul\":10079:10510   */\n      pop\n      pop\n        /* \"#utility.yul\":10064:10510   */\n    tag_207:\n        /* \"#utility.yul\":9974:10517   */\n      pop\n      pop\n      pop\n      jump\t// out\n        /* \"#utility.yul\":10523:10640   */\n    tag_88:\n        /* \"#utility.yul\":10577:10585   */\n      0x00\n        /* \"#utility.yul\":10627:10632   */\n      dup3\n        /* \"#utility.yul\":10621:10625   */\n      dup3\n        /* \"#utility.yul\":10617:10633   */\n      shr\n        /* \"#utility.yul\":10596:10633   */\n      swap1\n      pop\n        /* \"#utility.yul\":10523:10640   */\n      swap3\n      swap2\n      pop\n      pop\n      jump\t// out\n        /* \"#utility.yul\":10646:10815   */\n    tag_89:\n        /* \"#utility.yul\":10690:10696   */\n      0x00\n        /* \"#utility.yul\":10723:10774   */\n      tag_215\n        /* \"#utility.yul\":10771:10772   */\n      0x00\n        /* \"#utility.yul\":10767:10773   */\n      not\n        /* \"#utility.yul\":10759:10764   */\n      dup5\n        /* \"#utility.yul\":10756:10757   */\n      0x08\n        /* \"#utility.yul\":10752:10765   */\n      mul\n        /* \"#utility.yul\":10723:10774   */\n      tag_88\n      jump\t// in\n    tag_215:\n        /* \"#utility.yul\":10719:10775   */\n      not\n        /* \"#utility.yul\":10804:10808   */\n      dup1\n        /* \"#utility.yul\":10798:10802   */\n      dup4\n        /* \"#utility.yul\":10794:10809   */\n      and\n        /* \"#utility.yul\":10784:10809   */\n      swap2\n      pop\n        /* \"#utility.yul\":10697:10815   */\n      pop\n        /* \"#utility.yul\":10646:10815   */\n      swap3\n      swap2\n      pop\n      pop\n      jump\t// out\n        /* \"#utility.yul\":10820:11115   */\n    tag_90:\n        /* \"#utility.yul\":10896:10900   */\n      0x00\n        /* \"#utility.yul\":11042:11071   */\n      tag_217\n        /* \"#utility.yul\":11067:11070   */\n      dup4\n        /* \"#utility.yul\":11061:11065   */\n      dup4\n        /* \"#utility.yul\":11042:11071   */\n      tag_89\n      jump\t// in\n    tag_217:\n        /* \"#utility.yul\":11034:11071   */\n      swap2\n      pop\n        /* \"#utility.yul\":11104:11107   */\n      dup3\n        /* \"#utility.yul\":11101:11102   */\n      0x02\n        /* \"#utility.yul\":11097:11108   */\n      mul\n        /* \"#utility.yul\":11091:11095   */\n      dup3\n        /* \"#utility.yul\":11088:11109   */\n      or\n        /* \"#utility.yul\":11080:11109   */\n      swap1\n      pop\n        /* \"#utility.yul\":10820:11115   */\n      swap3\n      swap2\n      pop\n      pop\n      jump\t// out\n        /* \"#utility.yul\":11120:12515   */\n    tag_47:\n        /* \"#utility.yul\":11237:11274   */\n      tag_219\n        /* \"#utility.yul\":11270:11273   */\n      dup3\n        /* \"#utility.yul\":11237:11274   */\n      tag_54\n      jump\t// in\n    tag_219:\n        /* \"#utility.yul\":11339:11357   */\n      0xffffffffffffffff\n        /* \"#utility.yul\":11331:11337   */\n      dup2\n        /* \"#utility.yul\":11328:11358   */\n      gt\n        /* \"#utility.yul\":11325:11381   */\n      iszero\n      tag_220\n      jumpi\n        /* \"#utility.yul\":11361:11379   */\n      tag_221\n      tag_68\n      jump\t// in\n    tag_221:\n        /* \"#utility.yul\":11325:11381   */\n    tag_220:\n        /* \"#utility.yul\":11405:11443   */\n      tag_222\n        /* \"#utility.yul\":11437:11441   */\n      dup3\n        /* \"#utility.yul\":11431:11442   */\n      sload\n        /* \"#utility.yul\":11405:11443   */\n      tag_30\n      jump\t// in\n    tag_222:\n        /* \"#utility.yul\":11490:11557   */\n      tag_223\n        /* \"#utility.yul\":11550:11556   */\n      dup3\n        /* \"#utility.yul\":11542:11548   */\n      dup3\n        /* \"#utility.yul\":11536:11540   */\n      dup6\n        /* \"#utility.yul\":11490:11557   */\n      tag_87\n      jump\t// in\n    tag_223:\n        /* \"#utility.yul\":11584:11585   */\n      0x00\n        /* \"#utility.yul\":11608:11612   */\n      0x20\n        /* \"#utility.yul\":11595:11612   */\n      swap1\n      pop\n        /* \"#utility.yul\":11640:11642   */\n      0x1f\n        /* \"#utility.yul\":11632:11638   */\n      dup4\n        /* \"#utility.yul\":11629:11643   */\n      gt\n        /* \"#utility.yul\":11657:11658   */\n      0x01\n        /* \"#utility.yul\":11652:12270   */\n      dup2\n      eq\n      tag_225\n      jumpi\n        /* \"#utility.yul\":12314:12315   */\n      0x00\n        /* \"#utility.yul\":12331:12337   */\n      dup5\n        /* \"#utility.yul\":12328:12405   */\n      iszero\n      tag_226\n      jumpi\n        /* \"#utility.yul\":12380:12389   */\n      dup3\n        /* \"#utility.yul\":12375:12378   */\n      dup8\n        /* \"#utility.yul\":12371:12390   */\n      add\n        /* \"#utility.yul\":12365:12391   */\n      mload\n        /* \"#utility.yul\":12356:12391   */\n      swap1\n      pop\n        /* \"#utility.yul\":12328:12405   */\n    tag_226:\n        /* \"#utility.yul\":12431:12498   */\n      tag_227\n        /* \"#utility.yul\":12491:12497   */\n      dup6\n        /* \"#utility.yul\":12484:12489   */\n      dup3\n        /* \"#utility.yul\":12431:12498   */\n      tag_90\n      jump\t// in\n    tag_227:\n        /* \"#utility.yul\":12425:12429   */\n      dup7\n        /* \"#utility.yul\":12418:12499   */\n      sstore\n        /* \"#utility.yul\":12287:12509   */\n      pop\n        /* \"#utility.yul\":11622:12509   */\n      jump(tag_224)\n        /* \"#utility.yul\":11652:12270   */\n    tag_225:\n        /* \"#utility.yul\":11704:11708   */\n      0x1f\n        /* \"#utility.yul\":11700:11709   */\n      not\n        /* \"#utility.yul\":11692:11698   */\n      dup5\n        /* \"#utility.yul\":11688:11710   */\n      and\n        /* \"#utility.yul\":11738:11775   */\n      tag_228\n        /* \"#utility.yul\":11770:11774   */\n      dup7\n        /* \"#utility.yul\":11738:11775   */\n      tag_76\n      jump\t// in\n    tag_228:\n        /* \"#utility.yul\":11797:11798   */\n      0x00\n        /* \"#utility.yul\":11811:12019   */\n    tag_229:\n        /* \"#utility.yul\":11825:11832   */\n      dup3\n        /* \"#utility.yul\":11822:11823   */\n      dup2\n        /* \"#utility.yul\":11819:11833   */\n      lt\n        /* \"#utility.yul\":11811:12019   */\n      iszero\n      tag_231\n      jumpi\n        /* \"#utility.yul\":11904:11913   */\n      dup5\n        /* \"#utility.yul\":11899:11902   */\n      dup10\n        /* \"#utility.yul\":11895:11914   */\n      add\n        /* \"#utility.yul\":11889:11915   */\n      mload\n        /* \"#utility.yul\":11881:11887   */\n      dup3\n        /* \"#utility.yul\":11874:11916   */\n      sstore\n        /* \"#utility.yul\":11955:11956   */\n      0x01\n        /* \"#utility.yul\":11947:11953   */\n      dup3\n        /* \"#utility.yul\":11943:11957   */\n      add\n        /* \"#utility.yul\":11933:11957   */\n      swap2\n      pop\n        /* \"#utility.yul\":12002:12004   */\n      0x20\n        /* \"#utility.yul\":11991:12000   */\n      dup6\n        /* \"#utility.yul\":11987:12005   */\n      add\n        /* \"#utility.yul\":11974:12005   */\n      swap5\n      pop\n        /* \"#utility.yul\":11848:11852   */\n      0x20\n        /* \"#utility.yul\":11845:11846   */\n      dup2\n        /* \"#utility.yul\":11841:11853   */\n      add\n        /* \"#utility.yul\":11836:11853   */\n      swap1\n      pop\n        /* \"#utility.yul\":11811:12019   */\n      jump(tag_229)\n    tag_231:\n        /* \"#utility.yul\":12047:12053   */\n      dup7\n        /* \"#utility.yul\":12038:12045   */\n      dup4\n        /* \"#utility.yul\":12035:12054   */\n      lt\n        /* \"#utility.yul\":12032:12211   */\n      iszero\n      tag_232\n      jumpi\n        /* \"#utility.yul\":12105:12114   */\n      dup5\n        /* \"#utility.yul\":12100:12103   */\n      dup10\n        /* \"#utility.yul\":12096:12115   */\n      add\n        /* \"#utility.yul\":12090:12116   */\n      mload\n        /* \"#utility.yul\":12148:12196   */\n      tag_233\n        /* \"#utility.yul\":12190:12194   */\n      0x1f\n        /* \"#utility.yul\":12182:12188   */\n      dup10\n        /* \"#utility.yul\":12178:12195   */\n      and\n        /* \"#utility.yul\":12167:12176   */\n      dup3\n        /* \"#utility.yul\":12148:12196   */\n      tag_89\n      jump\t// in\n    tag_233:\n        /* \"#utility.yul\":12140:12146   */\n      dup4\n        /* \"#utility.yul\":12133:12197   */\n      sstore\n        /* \"#utility.yul\":12055:12211   */\n      pop\n        /* \"#utility.yul\":12032:12211   */\n    tag_232:\n        /* \"#utility.yul\":12257:12258   */\n      0x01\n        /* \"#utility.yul\":12253:12254   */\n      0x02\n        /* \"#utility.yul\":12245:12251   */\n      dup9\n        /* \"#utility.yul\":12241:12255   */\n      mul\n        /* \"#utility.yul\":12237:12259   */\n      add\n        /* \"#utility.yul\":12231:12235   */\n      dup9\n        /* \"#utility.yul\":12224:12260   */\n      sstore\n        /* \"#utility.yul\":11659:12270   */\n      pop\n      pop\n      pop\n        /* \"#utility.yul\":11622:12509   */\n    tag_224:\n      pop\n        /* \"#utility.yul\":11212:12515   */\n      pop\n      pop\n      pop\n        /* \"#utility.yul\":11120:12515   */\n      pop\n      pop\n      jump\t// out\n\n    auxdata: 0xa2646970667358221220afa826f7a8212842fb2a80677889659b6ddb9e7f08ffca61f33bb4c7c5f40de764736f6c634300080f0033\n}\n",
				"bytecode": {
					"linkReferences": {},
					"object": "608060405234801561001057600080fd5b50610ae9806100206000396000f3fe608060405234801561001057600080fd5b50600436106100415760003560e01c80631d65e77e1461004657806348284b621461007657806367238562146100a6575b600080fd5b610060600480360381019061005b9190610410565b6100c2565b60405161006d919061052e565b60405180910390f35b610090600480360381019061008b919061057c565b6101ee565b60405161009d9190610606565b60405180910390f35b6100c060048036038101906100bb919061075d565b6102e9565b005b6100ca6103aa565b6000600160003373ffffffffffffffffffffffffffffffffffffffff1673ffffffffffffffffffffffffffffffffffffffff168152602001908152602001600020838154811061011d5761011c6107a6565b5b906000526020600020906002020160405180604001604052908160008201805461014690610804565b80601f016020809104026020016040519081016040528092919081815260200182805461017290610804565b80156101bf5780601f10610194576101008083540402835291602001916101bf565b820191906000526020600020905b8154815290600101906020018083116101a257829003601f168201915b505050505081526020016001820160009054906101000a900460ff161515151581525050905080915050919050565b60606000600160003373ffffffffffffffffffffffffffffffffffffffff1673ffffffffffffffffffffffffffffffffffffffff1681526020019081526020016000208481548110610243576102426107a6565b5b9060005260206000209060020201600001805461025f90610804565b80601f016020809104026020016040519081016040528092919081815260200182805461028b90610804565b80156102d85780601f106102ad576101008083540402835291602001916102d8565b820191906000526020600020905b8154815290600101906020018083116102bb57829003601f168201915b505050505090508091505092915050565b60006040518060400160405280838152602001600015158152509050600160003373ffffffffffffffffffffffffffffffffffffffff1673ffffffffffffffffffffffffffffffffffffffff168152602001908152602001600020819080600181540180825580915050600190039060005260206000209060020201600090919091909150600082015181600001908161038391906109e1565b5060208201518160010160006101000a81548160ff02191690831515021790555050505050565b6040518060400160405280606081526020016000151581525090565b6000604051905090565b600080fd5b600080fd5b6000819050919050565b6103ed816103da565b81146103f857600080fd5b50565b60008135905061040a816103e4565b92915050565b600060208284031215610426576104256103d0565b5b6000610434848285016103fb565b91505092915050565b600081519050919050565b600082825260208201905092915050565b60005b8381101561047757808201518184015260208101905061045c565b83811115610486576000848401525b50505050565b6000601f19601f8301169050919050565b60006104a88261043d565b6104b28185610448565b93506104c2818560208601610459565b6104cb8161048c565b840191505092915050565b60008115159050919050565b6104eb816104d6565b82525050565b6000604083016000830151848203600086015261050e828261049d565b915050602083015161052360208601826104e2565b508091505092915050565b6000602082019050818103600083015261054881846104f1565b905092915050565b610559816104d6565b811461056457600080fd5b50565b60008135905061057681610550565b92915050565b60008060408385031215610593576105926103d0565b5b60006105a1858286016103fb565b92505060206105b285828601610567565b9150509250929050565b600082825260208201905092915050565b60006105d88261043d565b6105e281856105bc565b93506105f2818560208601610459565b6105fb8161048c565b840191505092915050565b6000602082019050818103600083015261062081846105cd565b905092915050565b600080fd5b600080fd5b7f4e487b7100000000000000000000000000000000000000000000000000000000600052604160045260246000fd5b61066a8261048c565b810181811067ffffffffffffffff8211171561068957610688610632565b5b80604052505050565b600061069c6103c6565b90506106a88282610661565b919050565b600067ffffffffffffffff8211156106c8576106c7610632565b5b6106d18261048c565b9050602081019050919050565b82818337600083830152505050565b60006107006106fb846106ad565b610692565b90508281526020810184848401111561071c5761071b61062d565b5b6107278482856106de565b509392505050565b600082601f83011261074457610743610628565b5b81356107548482602086016106ed565b91505092915050565b600060208284031215610773576107726103d0565b5b600082013567ffffffffffffffff811115610791576107906103d5565b5b61079d8482850161072f565b91505092915050565b7f4e487b7100000000000000000000000000000000000000000000000000000000600052603260045260246000fd5b7f4e487b7100000000000000000000000000000000000000000000000000000000600052602260045260246000fd5b6000600282049050600182168061081c57607f821691505b60208210810361082f5761082e6107d5565b5b50919050565b60008190508160005260206000209050919050565b60006020601f8301049050919050565b600082821b905092915050565b6000600883026108977fffffffffffffffffffffffffffffffffffffffffffffffffffffffffffffffff8261085a565b6108a1868361085a565b95508019841693508086168417925050509392505050565b6000819050919050565b60006108de6108d96108d4846103da565b6108b9565b6103da565b9050919050565b6000819050919050565b6108f8836108c3565b61090c610904826108e5565b848454610867565b825550505050565b600090565b610921610914565b61092c8184846108ef565b505050565b5b8181101561095057610945600082610919565b600181019050610932565b5050565b601f8211156109955761096681610835565b61096f8461084a565b8101602085101561097e578190505b61099261098a8561084a565b830182610931565b50505b505050565b600082821c905092915050565b60006109b86000198460080261099a565b1980831691505092915050565b60006109d183836109a7565b9150826002028217905092915050565b6109ea8261043d565b67ffffffffffffffff811115610a0357610a02610632565b5b610a0d8254610804565b610a18828285610954565b600060209050601f831160018114610a4b5760008415610a39578287015190505b610a4385826109c5565b865550610aab565b601f198416610a5986610835565b60005b82811015610a8157848901518255600182019150602085019450602081019050610a5c565b86831015610a9e5784890151610a9a601f8916826109a7565b8355505b6001600288020188555050505b50505050505056fea2646970667358221220afa826f7a8212842fb2a80677889659b6ddb9e7f08ffca61f33bb4c7c5f40de764736f6c634300080f0033",
					"opcodes": "PUSH1 0x80 PUSH1 0x40 MSTORE CALLVALUE DUP1 ISZERO PUSH2 0x10 JUMPI PUSH1 0x0 DUP1 REVERT JUMPDEST POP PUSH2 0xAE9 DUP1 PUSH2 0x20 PUSH1 0x0 CODECOPY PUSH1 0x0 RETURN INVALID PUSH1 0x80 PUSH1 0x40 MSTORE CALLVALUE DUP1 ISZERO PUSH2 0x10 JUMPI PUSH1 0x0 DUP1 REVERT JUMPDEST POP PUSH1 0x4 CALLDATASIZE LT PUSH2 0x41 JUMPI PUSH1 0x0 CALLDATALOAD PUSH1 0xE0 SHR DUP1 PUSH4 0x1D65E77E EQ PUSH2 0x46 JUMPI DUP1 PUSH4 0x48284B62 EQ PUSH2 0x76 JUMPI DUP1 PUSH4 0x67238562 EQ PUSH2 0xA6 JUMPI JUMPDEST PUSH1 0x0 DUP1 REVERT JUMPDEST PUSH2 0x60 PUSH1 0x4 DUP1 CALLDATASIZE SUB DUP2 ADD SWAP1 PUSH2 0x5B SWAP2 SWAP1 PUSH2 0x410 JUMP JUMPDEST PUSH2 0xC2 JUMP JUMPDEST PUSH1 0x40 MLOAD PUSH2 0x6D SWAP2 SWAP1 PUSH2 0x52E JUMP JUMPDEST PUSH1 0x40 MLOAD DUP1 SWAP2 SUB SWAP1 RETURN JUMPDEST PUSH2 0x90 PUSH1 0x4 DUP1 CALLDATASIZE SUB DUP2 ADD SWAP1 PUSH2 0x8B SWAP2 SWAP1 PUSH2 0x57C JUMP JUMPDEST PUSH2 0x1EE JUMP JUMPDEST PUSH1 0x40 MLOAD PUSH2 0x9D SWAP2 SWAP1 PUSH2 0x606 JUMP JUMPDEST PUSH1 0x40 MLOAD DUP1 SWAP2 SUB SWAP1 RETURN JUMPDEST PUSH2 0xC0 PUSH1 0x4 DUP1 CALLDATASIZE SUB DUP2 ADD SWAP1 PUSH2 0xBB SWAP2 SWAP1 PUSH2 0x75D JUMP JUMPDEST PUSH2 0x2E9 JUMP JUMPDEST STOP JUMPDEST PUSH2 0xCA PUSH2 0x3AA JUMP JUMPDEST PUSH1 0x0 PUSH1 0x1 PUSH1 0x0 CALLER PUSH20 0xFFFFFFFFFFFFFFFFFFFFFFFFFFFFFFFFFFFFFFFF AND PUSH20 0xFFFFFFFFFFFFFFFFFFFFFFFFFFFFFFFFFFFFFFFF AND DUP2 MSTORE PUSH1 0x20 ADD SWAP1 DUP2 MSTORE PUSH1 0x20 ADD PUSH1 0x0 KECCAK256 DUP4 DUP2 SLOAD DUP2 LT PUSH2 0x11D JUMPI PUSH2 0x11C PUSH2 0x7A6 JUMP JUMPDEST JUMPDEST SWAP1 PUSH1 0x0 MSTORE PUSH1 0x20 PUSH1 0x0 KECCAK256 SWAP1 PUSH1 0x2 MUL ADD PUSH1 0x40 MLOAD DUP1 PUSH1 0x40 ADD PUSH1 0x40 MSTORE SWAP1 DUP2 PUSH1 0x0 DUP3 ADD DUP1 SLOAD PUSH2 0x146 SWAP1 PUSH2 0x804 JUMP JUMPDEST DUP1 PUSH1 0x1F ADD PUSH1 0x20 DUP1 SWAP2 DIV MUL PUSH1 0x20 ADD PUSH1 0x40 MLOAD SWAP1 DUP2 ADD PUSH1 0x40 MSTORE DUP1 SWAP3 SWAP2 SWAP1 DUP2 DUP2 MSTORE PUSH1 0x20 ADD DUP3 DUP1 SLOAD PUSH2 0x172 SWAP1 PUSH2 0x804 JUMP JUMPDEST DUP1 ISZERO PUSH2 0x1BF JUMPI DUP1 PUSH1 0x1F LT PUSH2 0x194 JUMPI PUSH2 0x100 DUP1 DUP4 SLOAD DIV MUL DUP4 MSTORE SWAP2 PUSH1 0x20 ADD SWAP2 PUSH2 0x1BF JUMP JUMPDEST DUP3 ADD SWAP2 SWAP1 PUSH1 0x0 MSTORE PUSH1 0x20 PUSH1 0x0 KECCAK256 SWAP1 JUMPDEST DUP2 SLOAD DUP2 MSTORE SWAP1 PUSH1 0x1 ADD SWAP1 PUSH1 0x20 ADD DUP1 DUP4 GT PUSH2 0x1A2 JUMPI DUP3 SWAP1 SUB PUSH1 0x1F AND DUP3 ADD SWAP2 JUMPDEST POP POP POP POP POP DUP2 MSTORE PUSH1 0x20 ADD PUSH1 0x1 DUP3 ADD PUSH1 0x0 SWAP1 SLOAD SWAP1 PUSH2 0x100 EXP SWAP1 DIV PUSH1 0xFF AND ISZERO ISZERO ISZERO ISZERO DUP2 MSTORE POP POP SWAP1 POP DUP1 SWAP2 POP POP SWAP2 SWAP1 POP JUMP JUMPDEST PUSH1 0x60 PUSH1 0x0 PUSH1 0x1 PUSH1 0x0 CALLER PUSH20 0xFFFFFFFFFFFFFFFFFFFFFFFFFFFFFFFFFFFFFFFF AND PUSH20 0xFFFFFFFFFFFFFFFFFFFFFFFFFFFFFFFFFFFFFFFF AND DUP2 MSTORE PUSH1 0x20 ADD SWAP1 DUP2 MSTORE PUSH1 0x20 ADD PUSH1 0x0 KECCAK256 DUP5 DUP2 SLOAD DUP2 LT PUSH2 0x243 JUMPI PUSH2 0x242 PUSH2 0x7A6 JUMP JUMPDEST JUMPDEST SWAP1 PUSH1 0x0 MSTORE PUSH1 0x20 PUSH1 0x0 KECCAK256 SWAP1 PUSH1 0x2 MUL ADD PUSH1 0x0 ADD DUP1 SLOAD PUSH2 0x25F SWAP1 PUSH2 0x804 JUMP JUMPDEST DUP1 PUSH1 0x1F ADD PUSH1 0x20 DUP1 SWAP2 DIV MUL PUSH1 0x20 ADD PUSH1 0x40 MLOAD SWAP1 DUP2 ADD PUSH1 0x40 MSTORE DUP1 SWAP3 SWAP2 SWAP1 DUP2 DUP2 MSTORE PUSH1 0x20 ADD DUP3 DUP1 SLOAD PUSH2 0x28B SWAP1 PUSH2 0x804 JUMP JUMPDEST DUP1 ISZERO PUSH2 0x2D8 JUMPI DUP1 PUSH1 0x1F LT PUSH2 0x2AD JUMPI PUSH2 0x100 DUP1 DUP4 SLOAD DIV MUL DUP4 MSTORE SWAP2 PUSH1 0x20 ADD SWAP2 PUSH2 0x2D8 JUMP JUMPDEST DUP3 ADD SWAP2 SWAP1 PUSH1 0x0 MSTORE PUSH1 0x20 PUSH1 0x0 KECCAK256 SWAP1 JUMPDEST DUP2 SLOAD DUP2 MSTORE SWAP1 PUSH1 0x1 ADD SWAP1 PUSH1 0x20 ADD DUP1 DUP4 GT PUSH2 0x2BB JUMPI DUP3 SWAP1 SUB PUSH1 0x1F AND DUP3 ADD SWAP2 JUMPDEST POP POP POP POP POP SWAP1 POP DUP1 SWAP2 POP POP SWAP3 SWAP2 POP POP JUMP JUMPDEST PUSH1 0x0 PUSH1 0x40 MLOAD DUP1 PUSH1 0x40 ADD PUSH1 0x40 MSTORE DUP1 DUP4 DUP2 MSTORE PUSH1 0x20 ADD PUSH1 0x0 ISZERO ISZERO DUP2 MSTORE POP SWAP1 POP PUSH1 0x1 PUSH1 0x0 CALLER PUSH20 0xFFFFFFFFFFFFFFFFFFFFFFFFFFFFFFFFFFFFFFFF AND PUSH20 0xFFFFFFFFFFFFFFFFFFFFFFFFFFFFFFFFFFFFFFFF AND DUP2 MSTORE PUSH1 0x20 ADD SWAP1 DUP2 MSTORE PUSH1 0x20 ADD PUSH1 0x0 KECCAK256 DUP2 SWAP1 DUP1 PUSH1 0x1 DUP2 SLOAD ADD DUP1 DUP3 SSTORE DUP1 SWAP2 POP POP PUSH1 0x1 SWAP1 SUB SWAP1 PUSH1 0x0 MSTORE PUSH1 0x20 PUSH1 0x0 KECCAK256 SWAP1 PUSH1 0x2 MUL ADD PUSH1 0x0 SWAP1 SWAP2 SWAP1 SWAP2 SWAP1 SWAP2 POP PUSH1 0x0 DUP3 ADD MLOAD DUP2 PUSH1 0x0 ADD SWAP1 DUP2 PUSH2 0x383 SWAP2 SWAP1 PUSH2 0x9E1 JUMP JUMPDEST POP PUSH1 0x20 DUP3 ADD MLOAD DUP2 PUSH1 0x1 ADD PUSH1 0x0 PUSH2 0x100 EXP DUP2 SLOAD DUP2 PUSH1 0xFF MUL NOT AND SWAP1 DUP4 ISZERO ISZERO MUL OR SWAP1 SSTORE POP POP POP POP POP JUMP JUMPDEST PUSH1 0x40 MLOAD DUP1 PUSH1 0x40 ADD PUSH1 0x40 MSTORE DUP1 PUSH1 0x60 DUP2 MSTORE PUSH1 0x20 ADD PUSH1 0x0 ISZERO ISZERO DUP2 MSTORE POP SWAP1 JUMP JUMPDEST PUSH1 0x0 PUSH1 0x40 MLOAD SWAP1 POP SWAP1 JUMP JUMPDEST PUSH1 0x0 DUP1 REVERT JUMPDEST PUSH1 0x0 DUP1 REVERT JUMPDEST PUSH1 0x0 DUP2 SWAP1 POP SWAP2 SWAP1 POP JUMP JUMPDEST PUSH2 0x3ED DUP2 PUSH2 0x3DA JUMP JUMPDEST DUP2 EQ PUSH2 0x3F8 JUMPI PUSH1 0x0 DUP1 REVERT JUMPDEST POP JUMP JUMPDEST PUSH1 0x0 DUP2 CALLDATALOAD SWAP1 POP PUSH2 0x40A DUP2 PUSH2 0x3E4 JUMP JUMPDEST SWAP3 SWAP2 POP POP JUMP JUMPDEST PUSH1 0x0 PUSH1 0x20 DUP3 DUP5 SUB SLT ISZERO PUSH2 0x426 JUMPI PUSH2 0x425 PUSH2 0x3D0 JUMP JUMPDEST JUMPDEST PUSH1 0x0 PUSH2 0x434 DUP5 DUP3 DUP6 ADD PUSH2 0x3FB JUMP JUMPDEST SWAP2 POP POP SWAP3 SWAP2 POP POP JUMP JUMPDEST PUSH1 0x0 DUP2 MLOAD SWAP1 POP SWAP2 SWAP1 POP JUMP JUMPDEST PUSH1 0x0 DUP3 DUP3 MSTORE PUSH1 0x20 DUP3 ADD SWAP1 POP SWAP3 SWAP2 POP POP JUMP JUMPDEST PUSH1 0x0 JUMPDEST DUP4 DUP2 LT ISZERO PUSH2 0x477 JUMPI DUP1 DUP3 ADD MLOAD DUP2 DUP5 ADD MSTORE PUSH1 0x20 DUP2 ADD SWAP1 POP PUSH2 0x45C JUMP JUMPDEST DUP4 DUP2 GT ISZERO PUSH2 0x486 JUMPI PUSH1 0x0 DUP5 DUP5 ADD MSTORE JUMPDEST POP POP POP POP JUMP JUMPDEST PUSH1 0x0 PUSH1 0x1F NOT PUSH1 0x1F DUP4 ADD AND SWAP1 POP SWAP2 SWAP1 POP JUMP JUMPDEST PUSH1 0x0 PUSH2 0x4A8 DUP3 PUSH2 0x43D JUMP JUMPDEST PUSH2 0x4B2 DUP2 DUP6 PUSH2 0x448 JUMP JUMPDEST SWAP4 POP PUSH2 0x4C2 DUP2 DUP6 PUSH1 0x20 DUP7 ADD PUSH2 0x459 JUMP JUMPDEST PUSH2 0x4CB DUP2 PUSH2 0x48C JUMP JUMPDEST DUP5 ADD SWAP2 POP POP SWAP3 SWAP2 POP POP JUMP JUMPDEST PUSH1 0x0 DUP2 ISZERO ISZERO SWAP1 POP SWAP2 SWAP1 POP JUMP JUMPDEST PUSH2 0x4EB DUP2 PUSH2 0x4D6 JUMP JUMPDEST DUP3 MSTORE POP POP JUMP JUMPDEST PUSH1 0x0 PUSH1 0x40 DUP4 ADD PUSH1 0x0 DUP4 ADD MLOAD DUP5 DUP3 SUB PUSH1 0x0 DUP7 ADD MSTORE PUSH2 0x50E DUP3 DUP3 PUSH2 0x49D JUMP JUMPDEST SWAP2 POP POP PUSH1 0x20 DUP4 ADD MLOAD PUSH2 0x523 PUSH1 0x20 DUP7 ADD DUP3 PUSH2 0x4E2 JUMP JUMPDEST POP DUP1 SWAP2 POP POP SWAP3 SWAP2 POP POP JUMP JUMPDEST PUSH1 0x0 PUSH1 0x20 DUP3 ADD SWAP1 POP DUP2 DUP2 SUB PUSH1 0x0 DUP4 ADD MSTORE PUSH2 0x548 DUP2 DUP5 PUSH2 0x4F1 JUMP JUMPDEST SWAP1 POP SWAP3 SWAP2 POP POP JUMP JUMPDEST PUSH2 0x559 DUP2 PUSH2 0x4D6 JUMP JUMPDEST DUP2 EQ PUSH2 0x564 JUMPI PUSH1 0x0 DUP1 REVERT JUMPDEST POP JUMP JUMPDEST PUSH1 0x0 DUP2 CALLDATALOAD SWAP1 POP PUSH2 0x576 DUP2 PUSH2 0x550 JUMP JUMPDEST SWAP3 SWAP2 POP POP JUMP JUMPDEST PUSH1 0x0 DUP1 PUSH1 0x40 DUP4 DUP6 SUB SLT ISZERO PUSH2 0x593 JUMPI PUSH2 0x592 PUSH2 0x3D0 JUMP JUMPDEST JUMPDEST PUSH1 0x0 PUSH2 0x5A1 DUP6 DUP3 DUP7 ADD PUSH2 0x3FB JUMP JUMPDEST SWAP3 POP POP PUSH1 0x20 PUSH2 0x5B2 DUP6 DUP3 DUP7 ADD PUSH2 0x567 JUMP JUMPDEST SWAP2 POP POP SWAP3 POP SWAP3 SWAP1 POP JUMP JUMPDEST PUSH1 0x0 DUP3 DUP3 MSTORE PUSH1 0x20 DUP3 ADD SWAP1 POP SWAP3 SWAP2 POP POP JUMP JUMPDEST PUSH1 0x0 PUSH2 0x5D8 DUP3 PUSH2 0x43D JUMP JUMPDEST PUSH2 0x5E2 DUP2 DUP6 PUSH2 0x5BC JUMP JUMPDEST SWAP4 POP PUSH2 0x5F2 DUP2 DUP6 PUSH1 0x20 DUP7 ADD PUSH2 0x459 JUMP JUMPDEST PUSH2 0x5FB DUP2 PUSH2 0x48C JUMP JUMPDEST DUP5 ADD SWAP2 POP POP SWAP3 SWAP2 POP POP JUMP JUMPDEST PUSH1 0x0 PUSH1 0x20 DUP3 ADD SWAP1 POP DUP2 DUP2 SUB PUSH1 0x0 DUP4 ADD MSTORE PUSH2 0x620 DUP2 DUP5 PUSH2 0x5CD JUMP JUMPDEST SWAP1 POP SWAP3 SWAP2 POP POP JUMP JUMPDEST PUSH1 0x0 DUP1 REVERT JUMPDEST PUSH1 0x0 DUP1 REVERT JUMPDEST PUSH32 0x4E487B7100000000000000000000000000000000000000000000000000000000 PUSH1 0x0 MSTORE PUSH1 0x41 PUSH1 0x4 MSTORE PUSH1 0x24 PUSH1 0x0 REVERT JUMPDEST PUSH2 0x66A DUP3 PUSH2 0x48C JUMP JUMPDEST DUP2 ADD DUP2 DUP2 LT PUSH8 0xFFFFFFFFFFFFFFFF DUP3 GT OR ISZERO PUSH2 0x689 JUMPI PUSH2 0x688 PUSH2 0x632 JUMP JUMPDEST JUMPDEST DUP1 PUSH1 0x40 MSTORE POP POP POP JUMP JUMPDEST PUSH1 0x0 PUSH2 0x69C PUSH2 0x3C6 JUMP JUMPDEST SWAP1 POP PUSH2 0x6A8 DUP3 DUP3 PUSH2 0x661 JUMP JUMPDEST SWAP2 SWAP1 POP JUMP JUMPDEST PUSH1 0x0 PUSH8 0xFFFFFFFFFFFFFFFF DUP3 GT ISZERO PUSH2 0x6C8 JUMPI PUSH2 0x6C7 PUSH2 0x632 JUMP JUMPDEST JUMPDEST PUSH2 0x6D1 DUP3 PUSH2 0x48C JUMP JUMPDEST SWAP1 POP PUSH1 0x20 DUP2 ADD SWAP1 POP SWAP2 SWAP1 POP JUMP JUMPDEST DUP3 DUP2 DUP4 CALLDATACOPY PUSH1 0x0 DUP4 DUP4 ADD MSTORE POP POP POP JUMP JUMPDEST PUSH1 0x0 PUSH2 0x700 PUSH2 0x6FB DUP5 PUSH2 0x6AD JUMP JUMPDEST PUSH2 0x692 JUMP JUMPDEST SWAP1 POP DUP3 DUP2 MSTORE PUSH1 0x20 DUP2 ADD DUP5 DUP5 DUP5 ADD GT ISZERO PUSH2 0x71C JUMPI PUSH2 0x71B PUSH2 0x62D JUMP JUMPDEST JUMPDEST PUSH2 0x727 DUP5 DUP3 DUP6 PUSH2 0x6DE JUMP JUMPDEST POP SWAP4 SWAP3 POP POP POP JUMP JUMPDEST PUSH1 0x0 DUP3 PUSH1 0x1F DUP4 ADD SLT PUSH2 0x744 JUMPI PUSH2 0x743 PUSH2 0x628 JUMP JUMPDEST JUMPDEST DUP2 CALLDATALOAD PUSH2 0x754 DUP5 DUP3 PUSH1 0x20 DUP7 ADD PUSH2 0x6ED JUMP JUMPDEST SWAP2 POP POP SWAP3 SWAP2 POP POP JUMP JUMPDEST PUSH1 0x0 PUSH1 0x20 DUP3 DUP5 SUB SLT ISZERO PUSH2 0x773 JUMPI PUSH2 0x772 PUSH2 0x3D0 JUMP JUMPDEST JUMPDEST PUSH1 0x0 DUP3 ADD CALLDATALOAD PUSH8 0xFFFFFFFFFFFFFFFF DUP2 GT ISZERO PUSH2 0x791 JUMPI PUSH2 0x790 PUSH2 0x3D5 JUMP JUMPDEST JUMPDEST PUSH2 0x79D DUP5 DUP3 DUP6 ADD PUSH2 0x72F JUMP JUMPDEST SWAP2 POP POP SWAP3 SWAP2 POP POP JUMP JUMPDEST PUSH32 0x4E487B7100000000000000000000000000000000000000000000000000000000 PUSH1 0x0 MSTORE PUSH1 0x32 PUSH1 0x4 MSTORE PUSH1 0x24 PUSH1 0x0 REVERT JUMPDEST PUSH32 0x4E487B7100000000000000000000000000000000000000000000000000000000 PUSH1 0x0 MSTORE PUSH1 0x22 PUSH1 0x4 MSTORE PUSH1 0x24 PUSH1 0x0 REVERT JUMPDEST PUSH1 0x0 PUSH1 0x2 DUP3 DIV SWAP1 POP PUSH1 0x1 DUP3 AND DUP1 PUSH2 0x81C JUMPI PUSH1 0x7F DUP3 AND SWAP2 POP JUMPDEST PUSH1 0x20 DUP3 LT DUP2 SUB PUSH2 0x82F JUMPI PUSH2 0x82E PUSH2 0x7D5 JUMP JUMPDEST JUMPDEST POP SWAP2 SWAP1 POP JUMP JUMPDEST PUSH1 0x0 DUP2 SWAP1 POP DUP2 PUSH1 0x0 MSTORE PUSH1 0x20 PUSH1 0x0 KECCAK256 SWAP1 POP SWAP2 SWAP1 POP JUMP JUMPDEST PUSH1 0x0 PUSH1 0x20 PUSH1 0x1F DUP4 ADD DIV SWAP1 POP SWAP2 SWAP1 POP JUMP JUMPDEST PUSH1 0x0 DUP3 DUP3 SHL SWAP1 POP SWAP3 SWAP2 POP POP JUMP JUMPDEST PUSH1 0x0 PUSH1 0x8 DUP4 MUL PUSH2 0x897 PUSH32 0xFFFFFFFFFFFFFFFFFFFFFFFFFFFFFFFFFFFFFFFFFFFFFFFFFFFFFFFFFFFFFFFF DUP3 PUSH2 0x85A JUMP JUMPDEST PUSH2 0x8A1 DUP7 DUP4 PUSH2 0x85A JUMP JUMPDEST SWAP6 POP DUP1 NOT DUP5 AND SWAP4 POP DUP1 DUP7 AND DUP5 OR SWAP3 POP POP POP SWAP4 SWAP3 POP POP POP JUMP JUMPDEST PUSH1 0x0 DUP2 SWAP1 POP SWAP2 SWAP1 POP JUMP JUMPDEST PUSH1 0x0 PUSH2 0x8DE PUSH2 0x8D9 PUSH2 0x8D4 DUP5 PUSH2 0x3DA JUMP JUMPDEST PUSH2 0x8B9 JUMP JUMPDEST PUSH2 0x3DA JUMP JUMPDEST SWAP1 POP SWAP2 SWAP1 POP JUMP JUMPDEST PUSH1 0x0 DUP2 SWAP1 POP SWAP2 SWAP1 POP JUMP JUMPDEST PUSH2 0x8F8 DUP4 PUSH2 0x8C3 JUMP JUMPDEST PUSH2 0x90C PUSH2 0x904 DUP3 PUSH2 0x8E5 JUMP JUMPDEST DUP5 DUP5 SLOAD PUSH2 0x867 JUMP JUMPDEST DUP3 SSTORE POP POP POP POP JUMP JUMPDEST PUSH1 0x0 SWAP1 JUMP JUMPDEST PUSH2 0x921 PUSH2 0x914 JUMP JUMPDEST PUSH2 0x92C DUP2 DUP5 DUP5 PUSH2 0x8EF JUMP JUMPDEST POP POP POP JUMP JUMPDEST JUMPDEST DUP2 DUP2 LT ISZERO PUSH2 0x950 JUMPI PUSH2 0x945 PUSH1 0x0 DUP3 PUSH2 0x919 JUMP JUMPDEST PUSH1 0x1 DUP2 ADD SWAP1 POP PUSH2 0x932 JUMP JUMPDEST POP POP JUMP JUMPDEST PUSH1 0x1F DUP3 GT ISZERO PUSH2 0x995 JUMPI PUSH2 0x966 DUP2 PUSH2 0x835 JUMP JUMPDEST PUSH2 0x96F DUP5 PUSH2 0x84A JUMP JUMPDEST DUP2 ADD PUSH1 0x20 DUP6 LT ISZERO PUSH2 0x97E JUMPI DUP2 SWAP1 POP JUMPDEST PUSH2 0x992 PUSH2 0x98A DUP6 PUSH2 0x84A JUMP JUMPDEST DUP4 ADD DUP3 PUSH2 0x931 JUMP JUMPDEST POP POP JUMPDEST POP POP POP JUMP JUMPDEST PUSH1 0x0 DUP3 DUP3 SHR SWAP1 POP SWAP3 SWAP2 POP POP JUMP JUMPDEST PUSH1 0x0 PUSH2 0x9B8 PUSH1 0x0 NOT DUP5 PUSH1 0x8 MUL PUSH2 0x99A JUMP JUMPDEST NOT DUP1 DUP4 AND SWAP2 POP POP SWAP3 SWAP2 POP POP JUMP JUMPDEST PUSH1 0x0 PUSH2 0x9D1 DUP4 DUP4 PUSH2 0x9A7 JUMP JUMPDEST SWAP2 POP DUP3 PUSH1 0x2 MUL DUP3 OR SWAP1 POP SWAP3 SWAP2 POP POP JUMP JUMPDEST PUSH2 0x9EA DUP3 PUSH2 0x43D JUMP JUMPDEST PUSH8 0xFFFFFFFFFFFFFFFF DUP2 GT ISZERO PUSH2 0xA03 JUMPI PUSH2 0xA02 PUSH2 0x632 JUMP JUMPDEST JUMPDEST PUSH2 0xA0D DUP3 SLOAD PUSH2 0x804 JUMP JUMPDEST PUSH2 0xA18 DUP3 DUP3 DUP6 PUSH2 0x954 JUMP JUMPDEST PUSH1 0x0 PUSH1 0x20 SWAP1 POP PUSH1 0x1F DUP4 GT PUSH1 0x1 DUP2 EQ PUSH2 0xA4B JUMPI PUSH1 0x0 DUP5 ISZERO PUSH2 0xA39 JUMPI DUP3 DUP8 ADD MLOAD SWAP1 POP JUMPDEST PUSH2 0xA43 DUP6 DUP3 PUSH2 0x9C5 JUMP JUMPDEST DUP7 SSTORE POP PUSH2 0xAAB JUMP JUMPDEST PUSH1 0x1F NOT DUP5 AND PUSH2 0xA59 DUP7 PUSH2 0x835 JUMP JUMPDEST PUSH1 0x0 JUMPDEST DUP3 DUP2 LT ISZERO PUSH2 0xA81 JUMPI DUP5 DUP10 ADD MLOAD DUP3 SSTORE PUSH1 0x1 DUP3 ADD SWAP2 POP PUSH1 0x20 DUP6 ADD SWAP5 POP PUSH1 0x20 DUP2 ADD SWAP1 POP PUSH2 0xA5C JUMP JUMPDEST DUP7 DUP4 LT ISZERO PUSH2 0xA9E JUMPI DUP5 DUP10 ADD MLOAD PUSH2 0xA9A PUSH1 0x1F DUP10 AND DUP3 PUSH2 0x9A7 JUMP JUMPDEST DUP4 SSTORE POP JUMPDEST PUSH1 0x1 PUSH1 0x2 DUP9 MUL ADD DUP9 SSTORE POP POP POP JUMPDEST POP POP POP POP POP POP JUMP INVALID LOG2 PUSH5 0x6970667358 0x22 SLT KECCAK256 0xAF 0xA8 0x26 0xF7 0xA8 0x21 0x28 TIMESTAMP 0xFB 0x2A DUP1 PUSH8 0x7889659B6DDB9E7F ADDMOD SELFDESTRUCT 0xCA PUSH2 0xF33B 0xB4 0xC7 0xC5 DELEGATECALL 0xD 0xE7 PUSH5 0x736F6C6343 STOP ADDMOD 0xF STOP CALLER "
				},
				"gasEstimates": {
					"creation": {
						"codeDepositCost": "558600",
						"executionCost": "594",
						"totalCost": "559194"
					},
					"external": {
						"addTask(string)": "infinite",
						"getTask(uint256)": "infinite",
						"update(uint256,bool)": "infinite"
					}
				},
				"methodIdentifiers": {
					"addTask(string)": "67238562",
					"getTask(uint256)": "1d65e77e",
					"update(uint256,bool)": "48284b62"
				}
			},
			"storageLayout": {
				"storage": [
					{
						"astId": 3,
						"contract": "contracts/todo.sol:todo",
						"label": "owner",
						"offset": 0,
						"slot": "0",
						"type": "t_address"
					},
					{
						"astId": 14,
						"contract": "contracts/todo.sol:todo",
						"label": "Users",
						"offset": 0,
						"slot": "1",
						"type": "t_mapping(t_address,t_array(t_struct(Task)8_storage)dyn_storage)"
					}
				],
				"types": {
					"t_address": {
						"encoding": "inplace",
						"label": "address",
						"numberOfBytes": "20"
					},
					"t_array(t_struct(Task)8_storage)dyn_storage": {
						"base": "t_struct(Task)8_storage",
						"encoding": "dynamic_array",
						"label": "struct todo.Task[]",
						"numberOfBytes": "32"
					},
					"t_bool": {
						"encoding": "inplace",
						"label": "bool",
						"numberOfBytes": "1"
					},
					"t_mapping(t_address,t_array(t_struct(Task)8_storage)dyn_storage)": {
						"encoding": "mapping",
						"key": "t_address",
						"label": "mapping(address => struct todo.Task[])",
						"numberOfBytes": "32",
						"value": "t_array(t_struct(Task)8_storage)dyn_storage"
					},
					"t_string_storage": {
						"encoding": "bytes",
						"label": "string",
						"numberOfBytes": "32"
					},
					"t_struct(Task)8_storage": {
						"encoding": "inplace",
						"label": "struct todo.Task",
						"members": [
							{
								"astId": 5,
								"contract": "contracts/todo.sol:todo",
								"label": "task",
								"offset": 0,
								"slot": "0",
								"type": "t_string_storage"
							},
							{
								"astId": 7,
								"contract": "contracts/todo.sol:todo",
								"label": "isDone",
								"offset": 0,
								"slot": "1",
								"type": "t_bool"
							}
						],
						"numberOfBytes": "64"
					}
				}
			},
			"userdoc": {
				"kind": "user",
				"methods": {},
				"version": 1
			}
		}
	}
}